{
  "contractName": "Ticket",
  "abi": [
    {
      "inputs": [],
      "stateMutability": "payable",
      "type": "constructor",
      "payable": true
    },
    {
      "anonymous": false,
      "inputs": [
        {
          "indexed": true,
          "internalType": "address",
          "name": "user",
          "type": "address"
        }
      ],
      "name": "Book",
      "type": "event"
    },
    {
      "anonymous": false,
      "inputs": [
        {
          "indexed": true,
          "internalType": "address",
          "name": "buyer",
          "type": "address"
        },
        {
          "indexed": false,
          "internalType": "uint256",
          "name": "value",
          "type": "uint256"
        }
      ],
      "name": "Transfer",
      "type": "event"
    },
    {
      "inputs": [],
      "name": "amount",
      "outputs": [
        {
          "internalType": "uint256",
          "name": "",
          "type": "uint256"
        }
      ],
      "stateMutability": "view",
      "type": "function",
      "constant": true
    },
    {
      "inputs": [
        {
          "internalType": "uint256",
          "name": "",
          "type": "uint256"
        }
      ],
      "name": "applicantList",
      "outputs": [
        {
          "internalType": "address",
          "name": "",
          "type": "address"
        }
      ],
      "stateMutability": "view",
      "type": "function",
      "constant": true
    },
    {
      "inputs": [],
      "name": "endTime",
      "outputs": [
        {
          "internalType": "uint256",
          "name": "",
          "type": "uint256"
        }
      ],
      "stateMutability": "view",
      "type": "function",
      "constant": true
    },
    {
      "inputs": [
        {
          "internalType": "uint256",
          "name": "",
          "type": "uint256"
        }
      ],
      "name": "seats",
      "outputs": [
        {
          "internalType": "address",
          "name": "",
          "type": "address"
        }
      ],
      "stateMutability": "view",
      "type": "function",
      "constant": true
    },
    {
      "inputs": [
        {
          "internalType": "uint256",
          "name": "",
          "type": "uint256"
        }
      ],
      "name": "showList",
      "outputs": [
        {
          "internalType": "uint256",
          "name": "showId",
          "type": "uint256"
        },
        {
          "internalType": "string",
          "name": "showTitle",
          "type": "string"
        },
        {
          "internalType": "uint256",
          "name": "showPrice",
          "type": "uint256"
        },
        {
          "internalType": "uint256",
          "name": "totalNumOfSeat",
          "type": "uint256"
        }
      ],
      "stateMutability": "view",
      "type": "function",
      "constant": true
    },
    {
      "inputs": [],
      "name": "startTime",
      "outputs": [
        {
          "internalType": "uint256",
          "name": "",
          "type": "uint256"
        }
      ],
      "stateMutability": "view",
      "type": "function",
      "constant": true
    },
    {
      "inputs": [
        {
          "internalType": "address",
          "name": "",
          "type": "address"
        }
      ],
      "name": "users",
      "outputs": [
        {
          "internalType": "address",
          "name": "userAddr",
          "type": "address"
        },
        {
          "internalType": "bytes32",
          "name": "name",
          "type": "bytes32"
        },
        {
          "internalType": "int256",
          "name": "age",
          "type": "int256"
        },
        {
          "internalType": "bool",
          "name": "haveTicket",
          "type": "bool"
        }
      ],
      "stateMutability": "view",
      "type": "function",
      "constant": true
    },
    {
      "stateMutability": "payable",
      "type": "receive",
      "payable": true
    },
    {
      "inputs": [],
      "name": "book",
      "outputs": [],
      "stateMutability": "nonpayable",
      "type": "function"
    },
    {
      "inputs": [],
      "name": "random",
      "outputs": [],
      "stateMutability": "nonpayable",
      "type": "function"
    },
    {
      "inputs": [
        {
          "internalType": "address payable",
          "name": "_seller",
          "type": "address"
        }
      ],
      "name": "buyTicket",
      "outputs": [
        {
          "internalType": "bool",
          "name": "sufficient",
          "type": "bool"
        }
      ],
      "stateMutability": "payable",
      "type": "function",
      "payable": true
    },
    {
      "inputs": [],
      "name": "get",
      "outputs": [
        {
          "internalType": "address[]",
          "name": "",
          "type": "address[]"
        }
      ],
      "stateMutability": "view",
      "type": "function",
      "constant": true
    },
    {
      "inputs": [],
      "name": "getSeats",
      "outputs": [
        {
          "internalType": "address[]",
          "name": "",
          "type": "address[]"
        }
      ],
      "stateMutability": "view",
      "type": "function",
      "constant": true
    }
  ],
  "bytecode": "0x608060405260066040518060800160405280600181526020016040518060400160405280601181526020017f43727573682046616e206d656574696e6700000000000000000000000000000081525081526020016683734dd0b08000815260200160038152509080600181540180825580915050600190039060005260206000209060040201600090919091909150600082015181600001556020820151816001019080519060200190620000b6929190620000e2565b5060408201518160020155606082015181600301555050346007819055506000600381905550620001f6565b828054620000f090620001c1565b90600052602060002090601f01602090048101928262000114576000855562000160565b82601f106200012f57805160ff191683800117855562000160565b8280016001018555821562000160579182015b828111156200015f57825182559160200191906001019062000142565b5b5090506200016f919062000173565b5090565b5b808211156200018e57600081600090555060010162000174565b5090565b7f4e487b7100000000000000000000000000000000000000000000000000000000600052602260045260246000fd5b60006002820490506001821680620001da57607f821691505b602082108103620001f057620001ef62000192565b5b50919050565b61125a80620002066000396000f3fe6080604052600436106100ab5760003560e01c80638c468cd4116100645780638c468cd4146101a3578063a5f8cdbb146101e0578063a87430ba14610210578063a997c66a14610250578063aa8c217c1461027b578063c84dddc9146102a6576100b2565b806305a8da72146100b75780633197cbb6146100ce5780633b33c702146100f95780635ec01e4d146101365780636d4ce63c1461014d57806378e9792514610178576100b2565b366100b257005b600080fd5b3480156100c357600080fd5b506100cc6102e6565b005b3480156100da57600080fd5b506100e36104be565b6040516100f09190610b35565b60405180910390f35b34801561010557600080fd5b50610120600480360381019061011b9190610b81565b6104c4565b60405161012d9190610bef565b60405180910390f35b34801561014257600080fd5b5061014b610503565b005b34801561015957600080fd5b50610162610706565b60405161016f9190610cc8565b60405180910390f35b34801561018457600080fd5b5061018d610794565b60405161019a9190610b35565b60405180910390f35b3480156101af57600080fd5b506101ca60048036038101906101c59190610b81565b61079a565b6040516101d79190610bef565b60405180910390f35b6101fa60048036038101906101f59190610d28565b6107d9565b6040516102079190610d70565b60405180910390f35b34801561021c57600080fd5b5061023760048036038101906102329190610db7565b610963565b6040516102479493929190610e16565b60405180910390f35b34801561025c57600080fd5b506102656109c0565b6040516102729190610cc8565b60405180910390f35b34801561028757600080fd5b50610290610a4e565b60405161029d9190610b35565b60405180910390f35b3480156102b257600080fd5b506102cd60048036038101906102c89190610b81565b610a54565b6040516102dd9493929190610ef4565b60405180910390f35b60405180608001604052803373ffffffffffffffffffffffffffffffffffffffff1681526020017f797300000000000000000000000000000000000000000000000000000000000081526020016018815260200160001515815250600460003373ffffffffffffffffffffffffffffffffffffffff1673ffffffffffffffffffffffffffffffffffffffff16815260200190815260200160002060008201518160000160006101000a81548173ffffffffffffffffffffffffffffffffffffffff021916908373ffffffffffffffffffffffffffffffffffffffff160217905550602082015181600101556040820151816002015560608201518160030160006101000a81548160ff0219169083151502179055509050506002339080600181540180825580915050600190039060005260206000200160009091909190916101000a81548173ffffffffffffffffffffffffffffffffffffffff021916908373ffffffffffffffffffffffffffffffffffffffff1602179055506003600081548092919061047490610f6f565b91905055503373ffffffffffffffffffffffffffffffffffffffff167f32040c4a6c0155b8eb08b7cf28e9d1467b751582a9fc2021fc63553de82b5ac960405160405180910390a2565b60015481565b600581815481106104d457600080fd5b906000526020600020016000915054906101000a900473ffffffffffffffffffffffffffffffffffffffff1681565b6000600660008154811061051a57610519610fb7565b5b9060005260206000209060040201600301549050600060028054905090506000808060005b858110156106fe57838061055290610f6f565b9450505b8442338660405160200161056c9392919061104f565b6040516020818303038152906040528051906020012060001c61058f91906110bb565b9250600283815481106105a5576105a4610fb7565b5b9060005260206000200160009054906101000a900473ffffffffffffffffffffffffffffffffffffffff16915060011515600460008473ffffffffffffffffffffffffffffffffffffffff1673ffffffffffffffffffffffffffffffffffffffff16815260200190815260200160002060030160009054906101000a900460ff16151514610556576005829080600181540180825580915050600190039060005260206000200160009091909190916101000a81548173ffffffffffffffffffffffffffffffffffffffff021916908373ffffffffffffffffffffffffffffffffffffffff1602179055506001600460008473ffffffffffffffffffffffffffffffffffffffff1673ffffffffffffffffffffffffffffffffffffffff16815260200190815260200160002060030160006101000a81548160ff02191690831515021790555080806106f690610f6f565b91505061053f565b505050505050565b6060600280548060200260200160405190810160405280929190818152602001828054801561078a57602002820191906000526020600020905b8160009054906101000a900473ffffffffffffffffffffffffffffffffffffffff1673ffffffffffffffffffffffffffffffffffffffff1681526020019060010190808311610740575b5050505050905090565b60005481565b600281815481106107aa57600080fd5b906000526020600020016000915054906101000a900473ffffffffffffffffffffffffffffffffffffffff1681565b6000806007541161081f576040517f08c379a000000000000000000000000000000000000000000000000000000000815260040161081690611138565b60405180910390fd5b60011515600460003373ffffffffffffffffffffffffffffffffffffffff1673ffffffffffffffffffffffffffffffffffffffff16815260200190815260200160002060030160009054906101000a900460ff161515146108b5576040517f08c379a00000000000000000000000000000000000000000000000000000000081526004016108ac906111a4565b60405180910390fd5b600033905060008390508073ffffffffffffffffffffffffffffffffffffffff166108fc6007549081150290604051600060405180830381858888f19350505050158015610907573d6000803e3d6000fd5b508173ffffffffffffffffffffffffffffffffffffffff167f69ca02dd4edd7bf0a4abb9ed3b7af3f14778db5d61921c7dc7cd545266326de26007546040516109509190610b35565b60405180910390a2600192505050919050565b60046020528060005260406000206000915090508060000160009054906101000a900473ffffffffffffffffffffffffffffffffffffffff16908060010154908060020154908060030160009054906101000a900460ff16905084565b60606005805480602002602001604051908101604052809291908181526020018280548015610a4457602002820191906000526020600020905b8160009054906101000a900473ffffffffffffffffffffffffffffffffffffffff1673ffffffffffffffffffffffffffffffffffffffff16815260200190600101908083116109fa575b5050505050905090565b60075481565b60068181548110610a6457600080fd5b9060005260206000209060040201600091509050806000015490806001018054610a8d906111f3565b80601f0160208091040260200160405190810160405280929190818152602001828054610ab9906111f3565b8015610b065780601f10610adb57610100808354040283529160200191610b06565b820191906000526020600020905b815481529060010190602001808311610ae957829003601f168201915b5050505050908060020154908060030154905084565b6000819050919050565b610b2f81610b1c565b82525050565b6000602082019050610b4a6000830184610b26565b92915050565b600080fd5b610b5e81610b1c565b8114610b6957600080fd5b50565b600081359050610b7b81610b55565b92915050565b600060208284031215610b9757610b96610b50565b5b6000610ba584828501610b6c565b91505092915050565b600073ffffffffffffffffffffffffffffffffffffffff82169050919050565b6000610bd982610bae565b9050919050565b610be981610bce565b82525050565b6000602082019050610c046000830184610be0565b92915050565b600081519050919050565b600082825260208201905092915050565b6000819050602082019050919050565b610c3f81610bce565b82525050565b6000610c518383610c36565b60208301905092915050565b6000602082019050919050565b6000610c7582610c0a565b610c7f8185610c15565b9350610c8a83610c26565b8060005b83811015610cbb578151610ca28882610c45565b9750610cad83610c5d565b925050600181019050610c8e565b5085935050505092915050565b60006020820190508181036000830152610ce28184610c6a565b905092915050565b6000610cf582610bae565b9050919050565b610d0581610cea565b8114610d1057600080fd5b50565b600081359050610d2281610cfc565b92915050565b600060208284031215610d3e57610d3d610b50565b5b6000610d4c84828501610d13565b91505092915050565b60008115159050919050565b610d6a81610d55565b82525050565b6000602082019050610d856000830184610d61565b92915050565b610d9481610bce565b8114610d9f57600080fd5b50565b600081359050610db181610d8b565b92915050565b600060208284031215610dcd57610dcc610b50565b5b6000610ddb84828501610da2565b91505092915050565b6000819050919050565b610df781610de4565b82525050565b6000819050919050565b610e1081610dfd565b82525050565b6000608082019050610e2b6000830187610be0565b610e386020830186610dee565b610e456040830185610e07565b610e526060830184610d61565b95945050505050565b600081519050919050565b600082825260208201905092915050565b60005b83811015610e95578082015181840152602081019050610e7a565b83811115610ea4576000848401525b50505050565b6000601f19601f8301169050919050565b6000610ec682610e5b565b610ed08185610e66565b9350610ee0818560208601610e77565b610ee981610eaa565b840191505092915050565b6000608082019050610f096000830187610b26565b8181036020830152610f1b8186610ebb565b9050610f2a6040830185610b26565b610f376060830184610b26565b95945050505050565b7f4e487b7100000000000000000000000000000000000000000000000000000000600052601160045260246000fd5b6000610f7a82610b1c565b91507fffffffffffffffffffffffffffffffffffffffffffffffffffffffffffffffff8203610fac57610fab610f40565b5b600182019050919050565b7f4e487b7100000000000000000000000000000000000000000000000000000000600052603260045260246000fd5b6000819050919050565b611001610ffc82610b1c565b610fe6565b82525050565b60008160601b9050919050565b600061101f82611007565b9050919050565b600061103182611014565b9050919050565b61104961104482610bce565b611026565b82525050565b600061105b8286610ff0565b60208201915061106b8285611038565b60148201915061107b8284610ff0565b602082019150819050949350505050565b7f4e487b7100000000000000000000000000000000000000000000000000000000600052601260045260246000fd5b60006110c682610b1c565b91506110d183610b1c565b9250826110e1576110e061108c565b5b828206905092915050565b7f4e6f2045746865722073656e7400000000000000000000000000000000000000600082015250565b6000611122600d83610e66565b915061112d826110ec565b602082019050919050565b6000602082019050818103600083015261115181611115565b9050919050565b7f646f6e27742068617665207469636b6574000000000000000000000000000000600082015250565b600061118e601183610e66565b915061119982611158565b602082019050919050565b600060208201905081810360008301526111bd81611181565b9050919050565b7f4e487b7100000000000000000000000000000000000000000000000000000000600052602260045260246000fd5b6000600282049050600182168061120b57607f821691505b60208210810361121e5761121d6111c4565b5b5091905056fea2646970667358221220a17dfd12e78b10b1528b7152e9b67ad546d2d59828a250789a8025432bf852fd64736f6c634300080d0033",
  "immutableReferences": {},
  "source": "// SPDX-License-Identifier: MIT\r\npragma solidity ^0.8.13;\r\n\r\ncontract Ticket {\r\n    struct User {\r\n        address userAddr;\r\n        bytes32 name;\r\n        int age;\r\n        bool haveTicket;\r\n    }\r\n\r\n    struct Show {\r\n        uint showId;\r\n        string showTitle;\r\n        uint showPrice;\r\n        uint totalNumOfSeat;\r\n    }\r\n\r\n    uint256 public startTime;\r\n    uint256 public endTime; \r\n    \r\n    //  \r\n    address[] public applicantList;\r\n    //  \r\n    uint applicantCount;\r\n    //  \r\n    mapping (address => User) public users;\r\n    //   - \r\n    address[] public seats;\r\n    //   \r\n    Show[] public showList;\r\n    //  \r\n    uint public amount;\r\n\r\n    constructor() payable {\r\n        // \r\n        // uint _price, address buyer, address seller\r\n        // require   \r\n        // seller  \r\n        showList.push(Show({\r\n            showId: 1,\r\n            showTitle: \"Crush Fan meeting\",\r\n            showPrice: 0.037 * 1000000000000000000,\r\n            totalNumOfSeat: 3\r\n        }));\r\n        amount = msg.value;\r\n        applicantCount= 0;\r\n    }\r\n\r\n    receive() external payable {}\r\n\r\n    event Transfer (address indexed buyer, uint value);\r\n    event Book (address indexed user);\r\n\r\n\tfunction book() public { //   \r\n        //   ...\r\n        users[msg.sender] = User({\r\n            userAddr: msg.sender,\r\n            name: \"ys\",\r\n            age: 24,\r\n            haveTicket: false\r\n        });\r\n        applicantList.push(msg.sender);\r\n        applicantCount++;\r\n\t\temit Book(msg.sender);\r\n\t}\r\n\r\n    function random() public {\r\n        //      \r\n        \r\n        // users      for \r\n        uint num = showList[0].totalNumOfSeat;\r\n        uint userNum = applicantList.length;\r\n        uint randNonce = 0;\r\n        uint value;\r\n        address winner;\r\n        for (uint i = 0; i < num; i++) {\r\n            randNonce ++;\r\n            //        \r\n            //     ,   \r\n            do {\r\n                value = uint(keccak256(abi.encodePacked(block.timestamp,msg.sender,randNonce))) % userNum;\r\n                winner = applicantList[value]; //  \r\n            } while(users[winner].haveTicket == true); //  \r\n\r\n            seats.push(winner);\r\n            users[winner].haveTicket = true;\r\n        }\r\n    }\r\n\r\n    function buyTicket(address payable _seller) public payable returns(bool sufficient) {\r\n        require(amount > 0, \"No Ether sent\");\r\n        require(users[msg.sender].haveTicket == true, \"don't have ticket\"); //  \r\n        address buyer = msg.sender;\r\n        address payable seller = _seller;\r\n\r\n        // uint amount = showList[0].showPrice;\r\n\r\n        //   -    \r\n        seller.transfer(amount);\r\n        emit Transfer(buyer, amount);\r\n        return true;\r\n    }\r\n\r\n    function get() public view returns (address[] memory) {\r\n        return applicantList;\r\n    }\r\n\r\n    function getSeats() public view returns (address[] memory) {\r\n        return seats;\r\n    }\r\n}\r\n",
  "sourcePath": "C:\\Repos\\Ttime\\contracts\\Ticket.sol",
  "compiler": {
    "name": "solc",
    "version": "0.8.13+commit.abaa5c0e.Emscripten.clang"
  },
  "schemaVersion": "3.4.13",
  "updatedAt": "2023-05-24T05:50:11.865Z",
  "networkType": "ethereum",
  "devdoc": {
    "kind": "dev",
    "methods": {},
    "version": 1
  },
  "userdoc": {
    "kind": "user",
    "methods": {},
    "version": 1
  }
}