{
  "contractName": "Test",
  "abi": [
    {
      "inputs": [],
      "stateMutability": "payable",
      "type": "constructor"
    },
    {
      "inputs": [],
      "name": "bookingID",
      "outputs": [
        {
          "internalType": "uint256",
          "name": "",
          "type": "uint256"
        }
      ],
      "stateMutability": "view",
      "type": "function"
    },
    {
      "inputs": [
        {
          "internalType": "address",
          "name": "",
          "type": "address"
        },
        {
          "internalType": "uint256",
          "name": "",
          "type": "uint256"
        }
      ],
      "name": "bookingIdList",
      "outputs": [
        {
          "internalType": "uint256",
          "name": "",
          "type": "uint256"
        }
      ],
      "stateMutability": "view",
      "type": "function"
    },
    {
      "inputs": [
        {
          "internalType": "uint256",
          "name": "",
          "type": "uint256"
        },
        {
          "internalType": "uint256",
          "name": "",
          "type": "uint256"
        }
      ],
      "name": "sellingBookingIdList",
      "outputs": [
        {
          "internalType": "uint256",
          "name": "",
          "type": "uint256"
        }
      ],
      "stateMutability": "view",
      "type": "function"
    },
    {
      "inputs": [
        {
          "internalType": "uint256",
          "name": "",
          "type": "uint256"
        }
      ],
      "name": "ticketForBookingId",
      "outputs": [
        {
          "internalType": "uint256",
          "name": "bookingId",
          "type": "uint256"
        },
        {
          "internalType": "address payable",
          "name": "owner",
          "type": "address"
        },
        {
          "internalType": "string",
          "name": "userId",
          "type": "string"
        },
        {
          "internalType": "uint256",
          "name": "showId",
          "type": "uint256"
        },
        {
          "internalType": "uint8",
          "name": "numberOfSeats",
          "type": "uint8"
        },
        {
          "internalType": "uint256",
          "name": "price",
          "type": "uint256"
        },
        {
          "internalType": "enum Test.TicketStatus",
          "name": "status",
          "type": "uint8"
        },
        {
          "internalType": "uint256",
          "name": "indexForBookingIdList",
          "type": "uint256"
        },
        {
          "internalType": "uint256",
          "name": "indexForSellingBookingIdList",
          "type": "uint256"
        }
      ],
      "stateMutability": "view",
      "type": "function"
    },
    {
      "inputs": [
        {
          "internalType": "address payable",
          "name": "userAddr",
          "type": "address"
        }
      ],
      "name": "getMyTicket",
      "outputs": [
        {
          "components": [
            {
              "internalType": "uint256",
              "name": "bookingId",
              "type": "uint256"
            },
            {
              "internalType": "address payable",
              "name": "owner",
              "type": "address"
            },
            {
              "internalType": "string",
              "name": "userId",
              "type": "string"
            },
            {
              "internalType": "uint256",
              "name": "showId",
              "type": "uint256"
            },
            {
              "internalType": "uint8",
              "name": "numberOfSeats",
              "type": "uint8"
            },
            {
              "internalType": "uint256",
              "name": "price",
              "type": "uint256"
            },
            {
              "internalType": "enum Test.TicketStatus",
              "name": "status",
              "type": "uint8"
            },
            {
              "internalType": "uint256",
              "name": "indexForBookingIdList",
              "type": "uint256"
            },
            {
              "internalType": "uint256",
              "name": "indexForSellingBookingIdList",
              "type": "uint256"
            }
          ],
          "internalType": "struct Test.Ticket[]",
          "name": "",
          "type": "tuple[]"
        }
      ],
      "stateMutability": "view",
      "type": "function"
    },
    {
      "inputs": [
        {
          "internalType": "uint256",
          "name": "_showId",
          "type": "uint256"
        }
      ],
      "name": "getResellTicket",
      "outputs": [
        {
          "components": [
            {
              "internalType": "uint256",
              "name": "bookingId",
              "type": "uint256"
            },
            {
              "internalType": "address payable",
              "name": "owner",
              "type": "address"
            },
            {
              "internalType": "string",
              "name": "userId",
              "type": "string"
            },
            {
              "internalType": "uint256",
              "name": "showId",
              "type": "uint256"
            },
            {
              "internalType": "uint8",
              "name": "numberOfSeats",
              "type": "uint8"
            },
            {
              "internalType": "uint256",
              "name": "price",
              "type": "uint256"
            },
            {
              "internalType": "enum Test.TicketStatus",
              "name": "status",
              "type": "uint8"
            },
            {
              "internalType": "uint256",
              "name": "indexForBookingIdList",
              "type": "uint256"
            },
            {
              "internalType": "uint256",
              "name": "indexForSellingBookingIdList",
              "type": "uint256"
            }
          ],
          "internalType": "struct Test.Ticket[]",
          "name": "",
          "type": "tuple[]"
        }
      ],
      "stateMutability": "view",
      "type": "function"
    },
    {
      "inputs": [
        {
          "internalType": "uint256",
          "name": "_showId",
          "type": "uint256"
        },
        {
          "internalType": "uint8",
          "name": "_numberOfSeats",
          "type": "uint8"
        },
        {
          "internalType": "string",
          "name": "_userId",
          "type": "string"
        },
        {
          "internalType": "address payable",
          "name": "_ticketOwner",
          "type": "address"
        }
      ],
      "name": "issueTicket",
      "outputs": [],
      "stateMutability": "payable",
      "type": "function"
    },
    {
      "inputs": [
        {
          "internalType": "uint256",
          "name": "_index",
          "type": "uint256"
        },
        {
          "internalType": "address",
          "name": "_refunder",
          "type": "address"
        }
      ],
      "name": "removeFromUser",
      "outputs": [],
      "stateMutability": "nonpayable",
      "type": "function"
    },
    {
      "inputs": [
        {
          "internalType": "address payable",
          "name": "_refunder",
          "type": "address"
        },
        {
          "internalType": "uint256",
          "name": "_refundRatio",
          "type": "uint256"
        }
      ],
      "name": "refund",
      "outputs": [],
      "stateMutability": "payable",
      "type": "function"
    },
    {
      "inputs": [
        {
          "internalType": "uint256",
          "name": "_showId",
          "type": "uint256"
        },
        {
          "internalType": "uint256",
          "name": "_bookingId",
          "type": "uint256"
        }
      ],
      "name": "resellTicket",
      "outputs": [],
      "stateMutability": "nonpayable",
      "type": "function"
    },
    {
      "inputs": [
        {
          "internalType": "uint256",
          "name": "_index",
          "type": "uint256"
        },
        {
          "internalType": "uint256",
          "name": "_showId",
          "type": "uint256"
        }
      ],
      "name": "removeFromShow",
      "outputs": [],
      "stateMutability": "nonpayable",
      "type": "function"
    },
    {
      "inputs": [
        {
          "internalType": "address",
          "name": "_buyer",
          "type": "address"
        },
        {
          "internalType": "string",
          "name": "_userId",
          "type": "string"
        },
        {
          "internalType": "uint256",
          "name": "_bookingId",
          "type": "uint256"
        }
      ],
      "name": "changeTicketInfo",
      "outputs": [],
      "stateMutability": "payable",
      "type": "function"
    }
  ],
  "bytecode": "0x60806040526001600455336000806101000a81548173ffffffffffffffffffffffffffffffffffffffff021916908373ffffffffffffffffffffffffffffffffffffffff16021790555061218b806100586000396000f3fe6080604052600436106100a75760003560e01c8063851fed6c11610064578063851fed6c146101b0578063b23b02b1146101ed578063cd0d462e14610216578063cd1a77e814610241578063db048e4b1461025d578063de602243146102a2576100a7565b806314fc0ee3146100ac578063348e9913146100d5578063410085df146100fe578063555f18e91461011a5780635b45e965146101575780637438a35314610194575b600080fd5b3480156100b857600080fd5b506100d360048036038101906100ce91906113de565b6102df565b005b3480156100e157600080fd5b506100fc60048036038101906100f7919061141e565b610502565b005b6101186004803603810190610113919061149c565b6105bb565b005b34801561012657600080fd5b50610141600480360381019061013c91906114dc565b610623565b60405161014e91906117d1565b60405180910390f35b34801561016357600080fd5b5061017e600480360381019061017991906117f3565b6108a5565b60405161018b91906117d1565b60405180910390f35b6101ae60048036038101906101a99190611885565b610b7f565b005b3480156101bc57600080fd5b506101d760048036038101906101d291906118f9565b610cf8565b6040516101e49190611948565b60405180910390f35b3480156101f957600080fd5b50610214600480360381019061020f919061141e565b610d29565b005b34801561022257600080fd5b5061022b610e71565b6040516102389190611948565b60405180910390f35b61025b6004803603810190610256919061198f565b610e77565b005b34801561026957600080fd5b50610284600480360381019061027f91906114dc565b611188565b60405161029999989796959493929190611a8e565b60405180910390f35b3480156102ae57600080fd5b506102c960048036038101906102c4919061141e565b611298565b6040516102d69190611948565b60405180910390f35b600160008273ffffffffffffffffffffffffffffffffffffffff1673ffffffffffffffffffffffffffffffffffffffff168152602001908152602001600020805490508210610363576040517f08c379a000000000000000000000000000000000000000000000000000000000815260040161035a90611b6e565b60405180910390fd5b60008290505b60018060008473ffffffffffffffffffffffffffffffffffffffff1673ffffffffffffffffffffffffffffffffffffffff168152602001908152602001600020805490506103b79190611bbd565b81101561049857600160008373ffffffffffffffffffffffffffffffffffffffff1673ffffffffffffffffffffffffffffffffffffffff16815260200190815260200160002060018261040a9190611bf1565b8154811061041b5761041a611c25565b5b9060005260206000200154600160008473ffffffffffffffffffffffffffffffffffffffff1673ffffffffffffffffffffffffffffffffffffffff168152602001908152602001600020828154811061047757610476611c25565b5b9060005260206000200181905550808061049090611c54565b915050610369565b50600160008273ffffffffffffffffffffffffffffffffffffffff1673ffffffffffffffffffffffffffffffffffffffff1681526020019081526020016000208054806104e8576104e7611c9c565b5b600190038181906000526020600020016000905590555050565b60036000838152602001908152602001600020819080600181540180825580915050600190039060005260206000200160009091909190915055600280600083815260200190815260200160002060060160006101000a81548160ff02191690836003811115610575576105746115ff565b5b02179055506001600360008481526020019081526020016000208054905061059d9190611bbd565b60026000838152602001908152602001600020600801819055505050565b6000606482346105cb9190611ccb565b6105d59190611d3c565b90508273ffffffffffffffffffffffffffffffffffffffff166108fc829081150290604051600060405180830381858888f1935050505015801561061d573d6000803e3d6000fd5b50505050565b606060006003600084815260200190815260200160002080549050905060008167ffffffffffffffff81111561065c5761065b611d6d565b5b60405190808252806020026020018201604052801561069557816020015b6106826112c9565b81526020019060019003908161067a5790505b50905060005b8281101561089a5760006003600087815260200190815260200160002082815481106106ca576106c9611c25565b5b906000526020600020015490506002600082815260200190815260200160002060405180610120016040529081600082015481526020016001820160009054906101000a900473ffffffffffffffffffffffffffffffffffffffff1673ffffffffffffffffffffffffffffffffffffffff1673ffffffffffffffffffffffffffffffffffffffff16815260200160028201805461076690611dcb565b80601f016020809104026020016040519081016040528092919081815260200182805461079290611dcb565b80156107df5780601f106107b4576101008083540402835291602001916107df565b820191906000526020600020905b8154815290600101906020018083116107c257829003601f168201915b50505050508152602001600382015481526020016004820160009054906101000a900460ff1660ff1660ff168152602001600582015481526020016006820160009054906101000a900460ff16600381111561083e5761083d6115ff565b5b60038111156108505761084f6115ff565b5b81526020016007820154815260200160088201548152505083838151811061087b5761087a611c25565b5b602002602001018190525050808061089290611c54565b91505061069b565b508092505050919050565b60606000600160008473ffffffffffffffffffffffffffffffffffffffff1673ffffffffffffffffffffffffffffffffffffffff16815260200190815260200160002080549050905060008167ffffffffffffffff81111561090a57610909611d6d565b5b60405190808252806020026020018201604052801561094357816020015b6109306112c9565b8152602001906001900390816109285790505b50905060005b82811015610b74576000600160008773ffffffffffffffffffffffffffffffffffffffff1673ffffffffffffffffffffffffffffffffffffffff16815260200190815260200160002082815481106109a4576109a3611c25565b5b906000526020600020015490506002600082815260200190815260200160002060405180610120016040529081600082015481526020016001820160009054906101000a900473ffffffffffffffffffffffffffffffffffffffff1673ffffffffffffffffffffffffffffffffffffffff1673ffffffffffffffffffffffffffffffffffffffff168152602001600282018054610a4090611dcb565b80601f0160208091040260200160405190810160405280929190818152602001828054610a6c90611dcb565b8015610ab95780601f10610a8e57610100808354040283529160200191610ab9565b820191906000526020600020905b815481529060010190602001808311610a9c57829003601f168201915b50505050508152602001600382015481526020016004820160009054906101000a900460ff1660ff1660ff168152602001600582015481526020016006820160009054906101000a900460ff166003811115610b1857610b176115ff565b5b6003811115610b2a57610b296115ff565b5b815260200160078201548152602001600882015481525050838381518110610b5557610b54611c25565b5b6020026020010181905250508080610b6c90611c54565b915050610949565b508092505050919050565b6000600260008381526020019081526020016000209050600160008673ffffffffffffffffffffffffffffffffffffffff1673ffffffffffffffffffffffffffffffffffffffff168152602001908152602001600020829080600181540180825580915050600190039060005260206000200160009091909190915055848160010160006101000a81548173ffffffffffffffffffffffffffffffffffffffff021916908373ffffffffffffffffffffffffffffffffffffffff1602179055508383826002019182610c52929190611fb3565b5060008160060160006101000a81548160ff02191690836003811115610c7b57610c7a6115ff565b5b0217905550600060018060008873ffffffffffffffffffffffffffffffffffffffff1673ffffffffffffffffffffffffffffffffffffffff16815260200190815260200160002080549050610cd09190611bbd565b905080826007018190555081600801549050610cf0818360030154610d29565b505050505050565b60016020528160005260406000208181548110610d1457600080fd5b90600052602060002001600091509150505481565b60036000828152602001908152602001600020805490508210610d81576040517f08c379a0000000000000000000000000000000000000000000000000000000008152600401610d7890611b6e565b60405180910390fd5b60008290505b60016003600084815260200190815260200160002080549050610daa9190611bbd565b811015610e335760036000838152602001908152602001600020600182610dd19190611bf1565b81548110610de257610de1611c25565b5b9060005260206000200154600360008481526020019081526020016000208281548110610e1257610e11611c25565b5b90600052602060002001819055508080610e2b90611c54565b915050610d87565b5060036000828152602001908152602001600020805480610e5757610e56611c9c565b5b600190038181906000526020600020016000905590555050565b60045481565b600060405180610120016040528060045481526020018373ffffffffffffffffffffffffffffffffffffffff16815260200185858080601f016020809104026020016040519081016040528093929190818152602001838380828437600081840152601f19601f8201169050808301925050505050505081526020018781526020018660ff16815260200134815260200160006003811115610f1c57610f1b6115ff565b5b8152602001600081526020016000815250905060008054906101000a900473ffffffffffffffffffffffffffffffffffffffff1673ffffffffffffffffffffffffffffffffffffffff166108fc349081150290604051600060405180830381858888f19350505050158015610f95573d6000803e3d6000fd5b50600160008373ffffffffffffffffffffffffffffffffffffffff1673ffffffffffffffffffffffffffffffffffffffff1681526020019081526020016000206004549080600181540180825580915050600190039060005260206000200160009091909190915055806002600060045481526020019081526020016000206000820151816000015560208201518160010160006101000a81548173ffffffffffffffffffffffffffffffffffffffff021916908373ffffffffffffffffffffffffffffffffffffffff160217905550604082015181600201908161107a9190612083565b506060820151816003015560808201518160040160006101000a81548160ff021916908360ff16021790555060a0820151816005015560c08201518160060160006101000a81548160ff021916908360038111156110db576110da6115ff565b5b021790555060e082015181600701556101008201518160080155905050600060018060008573ffffffffffffffffffffffffffffffffffffffff1673ffffffffffffffffffffffffffffffffffffffff168152602001908152602001600020805490506111489190611bbd565b905080600260006004548152602001908152602001600020600701819055506004600081548092919061117a90611c54565b919050555050505050505050565b60026020528060005260406000206000915090508060000154908060010160009054906101000a900473ffffffffffffffffffffffffffffffffffffffff16908060020180546111d790611dcb565b80601f016020809104026020016040519081016040528092919081815260200182805461120390611dcb565b80156112505780601f1061122557610100808354040283529160200191611250565b820191906000526020600020905b81548152906001019060200180831161123357829003601f168201915b5050505050908060030154908060040160009054906101000a900460ff16908060050154908060060160009054906101000a900460ff16908060070154908060080154905089565b600360205281600052604060002081815481106112b457600080fd5b90600052602060002001600091509150505481565b60405180610120016040528060008152602001600073ffffffffffffffffffffffffffffffffffffffff1681526020016060815260200160008152602001600060ff168152602001600081526020016000600381111561132c5761132b6115ff565b5b815260200160008152602001600081525090565b600080fd5b600080fd5b6000819050919050565b61135d8161134a565b811461136857600080fd5b50565b60008135905061137a81611354565b92915050565b600073ffffffffffffffffffffffffffffffffffffffff82169050919050565b60006113ab82611380565b9050919050565b6113bb816113a0565b81146113c657600080fd5b50565b6000813590506113d8816113b2565b92915050565b600080604083850312156113f5576113f4611340565b5b60006114038582860161136b565b9250506020611414858286016113c9565b9150509250929050565b6000806040838503121561143557611434611340565b5b60006114438582860161136b565b92505060206114548582860161136b565b9150509250929050565b600061146982611380565b9050919050565b6114798161145e565b811461148457600080fd5b50565b60008135905061149681611470565b92915050565b600080604083850312156114b3576114b2611340565b5b60006114c185828601611487565b92505060206114d28582860161136b565b9150509250929050565b6000602082840312156114f2576114f1611340565b5b60006115008482850161136b565b91505092915050565b600081519050919050565b600082825260208201905092915050565b6000819050602082019050919050565b61153e8161134a565b82525050565b61154d8161145e565b82525050565b600081519050919050565b600082825260208201905092915050565b60005b8381101561158d578082015181840152602081019050611572565b60008484015250505050565b6000601f19601f8301169050919050565b60006115b582611553565b6115bf818561155e565b93506115cf81856020860161156f565b6115d881611599565b840191505092915050565b600060ff82169050919050565b6115f9816115e3565b82525050565b7f4e487b7100000000000000000000000000000000000000000000000000000000600052602160045260246000fd5b6004811061163f5761163e6115ff565b5b50565b60008190506116508261162e565b919050565b600061166082611642565b9050919050565b61167081611655565b82525050565b60006101208301600083015161168f6000860182611535565b5060208301516116a26020860182611544565b50604083015184820360408601526116ba82826115aa565b91505060608301516116cf6060860182611535565b5060808301516116e260808601826115f0565b5060a08301516116f560a0860182611535565b5060c083015161170860c0860182611667565b5060e083015161171b60e0860182611535565b50610100830151611730610100860182611535565b508091505092915050565b60006117478383611676565b905092915050565b6000602082019050919050565b600061176782611509565b6117718185611514565b93508360208202850161178385611525565b8060005b858110156117bf57848403895281516117a0858261173b565b94506117ab8361174f565b925060208a01995050600181019050611787565b50829750879550505050505092915050565b600060208201905081810360008301526117eb818461175c565b905092915050565b60006020828403121561180957611808611340565b5b600061181784828501611487565b91505092915050565b600080fd5b600080fd5b600080fd5b60008083601f84011261184557611844611820565b5b8235905067ffffffffffffffff81111561186257611861611825565b5b60208301915083600182028301111561187e5761187d61182a565b5b9250929050565b6000806000806060858703121561189f5761189e611340565b5b60006118ad878288016113c9565b945050602085013567ffffffffffffffff8111156118ce576118cd611345565b5b6118da8782880161182f565b935093505060406118ed8782880161136b565b91505092959194509250565b600080604083850312156119105761190f611340565b5b600061191e858286016113c9565b925050602061192f8582860161136b565b9150509250929050565b6119428161134a565b82525050565b600060208201905061195d6000830184611939565b92915050565b61196c816115e3565b811461197757600080fd5b50565b60008135905061198981611963565b92915050565b6000806000806000608086880312156119ab576119aa611340565b5b60006119b98882890161136b565b95505060206119ca8882890161197a565b945050604086013567ffffffffffffffff8111156119eb576119ea611345565b5b6119f78882890161182f565b93509350506060611a0a88828901611487565b9150509295509295909350565b611a208161145e565b82525050565b600082825260208201905092915050565b6000611a4282611553565b611a4c8185611a26565b9350611a5c81856020860161156f565b611a6581611599565b840191505092915050565b611a79816115e3565b82525050565b611a8881611655565b82525050565b600061012082019050611aa4600083018c611939565b611ab1602083018b611a17565b8181036040830152611ac3818a611a37565b9050611ad26060830189611939565b611adf6080830188611a70565b611aec60a0830187611939565b611af960c0830186611a7f565b611b0660e0830185611939565b611b14610100830184611939565b9a9950505050505050505050565b7f696e646578206f7574206f6620626f756e640000000000000000000000000000600082015250565b6000611b58601283611a26565b9150611b6382611b22565b602082019050919050565b60006020820190508181036000830152611b8781611b4b565b9050919050565b7f4e487b7100000000000000000000000000000000000000000000000000000000600052601160045260246000fd5b6000611bc88261134a565b9150611bd38361134a565b9250828203905081811115611beb57611bea611b8e565b5b92915050565b6000611bfc8261134a565b9150611c078361134a565b9250828201905080821115611c1f57611c1e611b8e565b5b92915050565b7f4e487b7100000000000000000000000000000000000000000000000000000000600052603260045260246000fd5b6000611c5f8261134a565b91507fffffffffffffffffffffffffffffffffffffffffffffffffffffffffffffffff8203611c9157611c90611b8e565b5b600182019050919050565b7f4e487b7100000000000000000000000000000000000000000000000000000000600052603160045260246000fd5b6000611cd68261134a565b9150611ce18361134a565b9250828202611cef8161134a565b91508282048414831517611d0657611d05611b8e565b5b5092915050565b7f4e487b7100000000000000000000000000000000000000000000000000000000600052601260045260246000fd5b6000611d478261134a565b9150611d528361134a565b925082611d6257611d61611d0d565b5b828204905092915050565b7f4e487b7100000000000000000000000000000000000000000000000000000000600052604160045260246000fd5b7f4e487b7100000000000000000000000000000000000000000000000000000000600052602260045260246000fd5b60006002820490506001821680611de357607f821691505b602082108103611df657611df5611d9c565b5b50919050565b600082905092915050565b60008190508160005260206000209050919050565b60006020601f8301049050919050565b600082821b905092915050565b600060088302611e697fffffffffffffffffffffffffffffffffffffffffffffffffffffffffffffffff82611e2c565b611e738683611e2c565b95508019841693508086168417925050509392505050565b6000819050919050565b6000611eb0611eab611ea68461134a565b611e8b565b61134a565b9050919050565b6000819050919050565b611eca83611e95565b611ede611ed682611eb7565b848454611e39565b825550505050565b600090565b611ef3611ee6565b611efe818484611ec1565b505050565b5b81811015611f2257611f17600082611eeb565b600181019050611f04565b5050565b601f821115611f6757611f3881611e07565b611f4184611e1c565b81016020851015611f50578190505b611f64611f5c85611e1c565b830182611f03565b50505b505050565b600082821c905092915050565b6000611f8a60001984600802611f6c565b1980831691505092915050565b6000611fa38383611f79565b9150826002028217905092915050565b611fbd8383611dfc565b67ffffffffffffffff811115611fd657611fd5611d6d565b5b611fe08254611dcb565b611feb828285611f26565b6000601f83116001811461201a5760008415612008578287013590505b6120128582611f97565b86555061207a565b601f19841661202886611e07565b60005b828110156120505784890135825560018201915060208501945060208101905061202b565b8683101561206d5784890135612069601f891682611f79565b8355505b6001600288020188555050505b50505050505050565b61208c82611553565b67ffffffffffffffff8111156120a5576120a4611d6d565b5b6120af8254611dcb565b6120ba828285611f26565b600060209050601f8311600181146120ed57600084156120db578287015190505b6120e58582611f97565b86555061214d565b601f1984166120fb86611e07565b60005b82811015612123578489015182556001820191506020850194506020810190506120fe565b86831015612140578489015161213c601f891682611f79565b8355505b6001600288020188555050505b50505050505056fea264697066735822122050a72e68e90ae168ae17e110b9482e1f13edcd8065c699223695b6a4ca44c91864736f6c63430008130033",
  "immutableReferences": {},
  "source": "// SPDX-License-Identifier: MIT\r\npragma solidity ^0.8.13;\r\n\r\ncontract Test {\r\n    address payable owner; //       \r\n\r\n    constructor() payable {\r\n        owner = payable(msg.sender);\r\n    }\r\n\r\n    mapping(address => uint[]) public bookingIdList;   //        =>   \r\n    mapping(uint => Ticket) public ticketForBookingId;  //         =>  \r\n    \r\n    mapping(uint => uint[]) public sellingBookingIdList; // showid =>           =>    \r\n\r\n    enum TicketStatus {\r\n        Sold,   //  \r\n\t\tCanceled, // \r\n        OnSale,  // \r\n        Expired  //    \r\n    }\r\n\r\n     //   - ,  , , , (  )\r\n    struct Ticket {\r\n        uint bookingId;\r\n        address payable owner;\r\n        string userId;\r\n        uint showId;\r\n        uint8 numberOfSeats;\r\n        //string[] seatList;          \r\n        uint price;\r\n        TicketStatus status;  \r\n        uint indexForBookingIdList;  \r\n        uint indexForSellingBookingIdList; // ;;; \r\n    }\r\n\r\n    function getMyTicket(address payable userAddr) public view returns(Ticket[] memory){\r\n        uint length = bookingIdList[userAddr].length;\r\n        Ticket[] memory myTickets = new Ticket[](length);\r\n\r\n        for(uint i = 0; i < length; i++){\r\n            uint bookingId = bookingIdList[userAddr][i];\r\n            myTickets[i] = ticketForBookingId[bookingId];\r\n        }\r\n   \r\n        return myTickets;\r\n    }\r\n\r\n    function getResellTicket(uint _showId) public view returns(Ticket[] memory) {\r\n        \r\n        uint size = sellingBookingIdList[_showId].length;\r\n        Ticket[] memory resellTicketList = new Ticket[](size);\r\n\r\n        for(uint i = 0; i < size; i++) {\r\n            uint bookingId = sellingBookingIdList[_showId][i];\r\n            resellTicketList[i] = ticketForBookingId[bookingId];\r\n        }\r\n\r\n        return resellTicketList;\r\n    }\r\n\r\n    uint public bookingID = 1; \r\n    function issueTicket(uint _showId, uint8 _numberOfSeats, string calldata _userId, address payable _ticketOwner) public payable{\r\n\r\n        Ticket memory ticket = Ticket({\r\n            bookingId: bookingID,\r\n            owner: _ticketOwner,\r\n            userId: _userId,\r\n            showId: _showId,\r\n            numberOfSeats: _numberOfSeats,\r\n            price: msg.value,\r\n            status: TicketStatus.Sold,\r\n            indexForBookingIdList: 0,\r\n            indexForSellingBookingIdList: 0\r\n        });\r\n\r\n        owner.transfer(msg.value);  //    \r\n\r\n        bookingIdList[_ticketOwner].push(bookingID);\r\n        ticketForBookingId[bookingID] = ticket;\r\n\r\n        uint index = bookingIdList[_ticketOwner].length - 1;\r\n        ticketForBookingId[bookingID].indexForBookingIdList = index;\r\n\r\n        bookingID++;\r\n    }\r\n\r\n    function removeFromUser(uint _index, address _refunder) public{\r\n        require(_index < bookingIdList[_refunder].length, \"index out of bound\");\r\n\r\n        for(uint i = _index; i < bookingIdList[_refunder].length - 1; i++){\r\n            bookingIdList[_refunder][i] = bookingIdList[_refunder][i + 1];\r\n        }\r\n        bookingIdList[_refunder].pop();\r\n    }\r\n\r\n    function refund(address payable _refunder, uint _refundRatio) public payable {\r\n        uint refundPrice = msg.value * _refundRatio / 100;\r\n         _refunder.transfer(refundPrice);\r\n    }\r\n\r\n    // =   \r\n    function resellTicket(uint _showId, uint _bookingId) public { \r\n        sellingBookingIdList[_showId].push(_bookingId);\r\n\r\n        //   \r\n        ticketForBookingId[_bookingId].status = TicketStatus.OnSale;\r\n        ticketForBookingId[_bookingId].indexForSellingBookingIdList = sellingBookingIdList[_showId].length - 1;\r\n    }\r\n\r\n\r\n    function removeFromShow(uint _index, uint _showId) public{\r\n        require(_index < sellingBookingIdList[_showId].length, \"index out of bound\");\r\n\r\n        for(uint i = _index; i < sellingBookingIdList[_showId].length - 1; i++){\r\n            sellingBookingIdList[_showId][i] = sellingBookingIdList[_showId][i + 1];\r\n        }\r\n        sellingBookingIdList[_showId].pop();\r\n    }\r\n\r\n    //   \r\n    function changeTicketInfo(address _buyer, string calldata _userId, uint _bookingId) public payable {\r\n        \r\n        Ticket storage ticket = ticketForBookingId[_bookingId];\r\n\r\n        // 1. buyer    \r\n        bookingIdList[_buyer].push(_bookingId);       \r\n\r\n        // 2.    \r\n        ticket.owner =  payable (_buyer);\r\n        ticket.userId = _userId;\r\n        ticket.status = TicketStatus.Sold;  //  \r\n\r\n        uint index = bookingIdList[_buyer].length - 1;\r\n        ticket.indexForBookingIdList = index;\r\n\r\n        // 4. selling List  \r\n        index = ticket.indexForSellingBookingIdList;\r\n        removeFromShow(index, ticket.showId);\r\n    }\r\n\r\n\r\n\r\n\r\n\r\n\r\n\r\n    // //   \r\n    // function cancelForBasic (uint _bookingId, uint _refundRatio) public payable {\r\n    //     uint index = ticketForBookingId[_bookingId].indexForBookingIdList;\r\n\r\n    //     removeFromUser(index, msg.sender);\r\n    //     refund(payable(msg.sender), _refundRatio, {from: owner});\r\n    // }\r\n\r\n\r\n    // //  \r\n    // function cancelForLottery (uint _bookingId, uint _refundRatio) public payable {\r\n    //     uint index = ticketForBookingId[_bookingId].indexForBookingIdList;\r\n    //     uint showId = ticketForBookingId[_bookingId].showId;\r\n\r\n    //     removeFromUser(index, msg.sender);\r\n    //     refund(payable(msg.sender), _refundRatio, {from: owner});\r\n    //     resellTicket(showId, _bookingId);\r\n    // }\r\n\r\n    // //    \r\n    // function buyTicketForCancelLottery (string calldata _userId, uint _bookingId) public payable {\r\n    //     uint price = ticketForBookingId[_bookingId].price;\r\n    //     owner.transfer(price);\r\n    //     changeTicketInfo(msg.sender, _userId, _bookingId);\r\n    // }\r\n\r\n\r\n    // // \r\n    // function handOver (uint _bookingId) public payable {\r\n    //     uint showId = ticketForBookingId[_bookingId].showId;\r\n    //     resellTicket(showId, _bookingId);\r\n    // }\r\n\r\n\r\n    // //   \r\n    // function buyTicketForhandOver (string calldata _userId, uint _bookingId) public payable {\r\n    //     uint index = ticketForBookingId[_bookingId].indexForBookingIdList;\r\n    //     address payable oldOwner = ticketForBookingId[_bookingId].owner;\r\n\r\n    //     removeFromUser(index, oldOwner);\r\n    //     uint price = ticketForBookingId[_bookingId].price;\r\n    //     owner.transfer(price);\r\n    //     changeTicketInfo(msg.sender, _userId, _bookingId);\r\n    // }\r\n\r\n}",
  "sourcePath": "C:\\testTtime\\Ttime\\contracts\\test.sol",
  "compiler": {
    "name": "solc",
    "version": "0.8.19+commit.7dd6d404.Emscripten.clang"
  },
  "schemaVersion": "3.4.16",
  "updatedAt": "2023-10-01T22:04:20.867Z",
  "devdoc": {
    "kind": "dev",
    "methods": {},
    "version": 1
  },
  "userdoc": {
    "kind": "user",
    "methods": {},
    "version": 1
  }
}