{
  "contractName": "Ticketing",
  "abi": [
    {
      "inputs": [],
      "stateMutability": "payable",
      "type": "constructor"
    },
    {
      "anonymous": false,
      "inputs": [
        {
          "indexed": true,
          "internalType": "uint256",
          "name": "_showId",
          "type": "uint256"
        },
        {
          "indexed": true,
          "internalType": "uint256",
          "name": "_bookingId",
          "type": "uint256"
        },
        {
          "indexed": true,
          "internalType": "uint256",
          "name": "_numberOfSeats",
          "type": "uint256"
        }
      ],
      "name": "ISSUE_TICKET",
      "type": "event"
    },
    {
      "anonymous": false,
      "inputs": [
        {
          "indexed": true,
          "internalType": "uint256",
          "name": "_showId",
          "type": "uint256"
        },
        {
          "indexed": true,
          "internalType": "uint256",
          "name": "_bookingId",
          "type": "uint256"
        }
      ],
      "name": "RESELL",
      "type": "event"
    },
    {
      "inputs": [],
      "name": "bookingID",
      "outputs": [
        {
          "internalType": "uint256",
          "name": "",
          "type": "uint256"
        }
      ],
      "stateMutability": "view",
      "type": "function"
    },
    {
      "inputs": [
        {
          "internalType": "address",
          "name": "",
          "type": "address"
        },
        {
          "internalType": "uint256",
          "name": "",
          "type": "uint256"
        }
      ],
      "name": "bookingIdList",
      "outputs": [
        {
          "internalType": "uint256",
          "name": "",
          "type": "uint256"
        }
      ],
      "stateMutability": "view",
      "type": "function"
    },
    {
      "inputs": [
        {
          "internalType": "uint256",
          "name": "",
          "type": "uint256"
        },
        {
          "internalType": "uint256",
          "name": "",
          "type": "uint256"
        }
      ],
      "name": "sellingBookingIdList",
      "outputs": [
        {
          "internalType": "uint256",
          "name": "",
          "type": "uint256"
        }
      ],
      "stateMutability": "view",
      "type": "function"
    },
    {
      "inputs": [
        {
          "internalType": "uint256",
          "name": "",
          "type": "uint256"
        }
      ],
      "name": "ticketForBookingId",
      "outputs": [
        {
          "internalType": "uint256",
          "name": "bookingId",
          "type": "uint256"
        },
        {
          "internalType": "address payable",
          "name": "owner",
          "type": "address"
        },
        {
          "internalType": "string",
          "name": "userId",
          "type": "string"
        },
        {
          "internalType": "uint256",
          "name": "showId",
          "type": "uint256"
        },
        {
          "internalType": "uint256",
          "name": "numberOfSeats",
          "type": "uint256"
        },
        {
          "internalType": "uint256",
          "name": "price",
          "type": "uint256"
        },
        {
          "internalType": "enum Ticketing.TicketStatus",
          "name": "status",
          "type": "uint8"
        },
        {
          "internalType": "uint256",
          "name": "indexForBookingIdList",
          "type": "uint256"
        },
        {
          "internalType": "uint256",
          "name": "indexForSellingBookingIdList",
          "type": "uint256"
        }
      ],
      "stateMutability": "view",
      "type": "function"
    },
    {
      "inputs": [
        {
          "internalType": "address payable",
          "name": "userAddr",
          "type": "address"
        }
      ],
      "name": "getMyTicket",
      "outputs": [
        {
          "components": [
            {
              "internalType": "uint256",
              "name": "bookingId",
              "type": "uint256"
            },
            {
              "internalType": "address payable",
              "name": "owner",
              "type": "address"
            },
            {
              "internalType": "string",
              "name": "userId",
              "type": "string"
            },
            {
              "internalType": "uint256",
              "name": "showId",
              "type": "uint256"
            },
            {
              "internalType": "uint256",
              "name": "numberOfSeats",
              "type": "uint256"
            },
            {
              "internalType": "uint256",
              "name": "price",
              "type": "uint256"
            },
            {
              "internalType": "enum Ticketing.TicketStatus",
              "name": "status",
              "type": "uint8"
            },
            {
              "internalType": "uint256",
              "name": "indexForBookingIdList",
              "type": "uint256"
            },
            {
              "internalType": "uint256",
              "name": "indexForSellingBookingIdList",
              "type": "uint256"
            }
          ],
          "internalType": "struct Ticketing.Ticket[]",
          "name": "",
          "type": "tuple[]"
        }
      ],
      "stateMutability": "view",
      "type": "function"
    },
    {
      "inputs": [
        {
          "internalType": "uint256",
          "name": "_showId",
          "type": "uint256"
        }
      ],
      "name": "getResellTicket",
      "outputs": [
        {
          "components": [
            {
              "internalType": "uint256",
              "name": "bookingId",
              "type": "uint256"
            },
            {
              "internalType": "address payable",
              "name": "owner",
              "type": "address"
            },
            {
              "internalType": "string",
              "name": "userId",
              "type": "string"
            },
            {
              "internalType": "uint256",
              "name": "showId",
              "type": "uint256"
            },
            {
              "internalType": "uint256",
              "name": "numberOfSeats",
              "type": "uint256"
            },
            {
              "internalType": "uint256",
              "name": "price",
              "type": "uint256"
            },
            {
              "internalType": "enum Ticketing.TicketStatus",
              "name": "status",
              "type": "uint8"
            },
            {
              "internalType": "uint256",
              "name": "indexForBookingIdList",
              "type": "uint256"
            },
            {
              "internalType": "uint256",
              "name": "indexForSellingBookingIdList",
              "type": "uint256"
            }
          ],
          "internalType": "struct Ticketing.Ticket[]",
          "name": "",
          "type": "tuple[]"
        }
      ],
      "stateMutability": "view",
      "type": "function"
    },
    {
      "inputs": [
        {
          "internalType": "uint256",
          "name": "_showId",
          "type": "uint256"
        },
        {
          "internalType": "address payable",
          "name": "_ticketOwner",
          "type": "address"
        },
        {
          "internalType": "uint256",
          "name": "_numberOfSeats",
          "type": "uint256"
        },
        {
          "internalType": "string",
          "name": "_userId",
          "type": "string"
        }
      ],
      "name": "issueTicket",
      "outputs": [],
      "stateMutability": "payable",
      "type": "function"
    },
    {
      "inputs": [
        {
          "internalType": "uint256",
          "name": "_bookingId",
          "type": "uint256"
        }
      ],
      "name": "removeFromUser",
      "outputs": [],
      "stateMutability": "nonpayable",
      "type": "function"
    },
    {
      "inputs": [
        {
          "internalType": "uint256",
          "name": "_bookingId",
          "type": "uint256"
        }
      ],
      "name": "getTicketForBookingId",
      "outputs": [
        {
          "components": [
            {
              "internalType": "uint256",
              "name": "bookingId",
              "type": "uint256"
            },
            {
              "internalType": "address payable",
              "name": "owner",
              "type": "address"
            },
            {
              "internalType": "string",
              "name": "userId",
              "type": "string"
            },
            {
              "internalType": "uint256",
              "name": "showId",
              "type": "uint256"
            },
            {
              "internalType": "uint256",
              "name": "numberOfSeats",
              "type": "uint256"
            },
            {
              "internalType": "uint256",
              "name": "price",
              "type": "uint256"
            },
            {
              "internalType": "enum Ticketing.TicketStatus",
              "name": "status",
              "type": "uint8"
            },
            {
              "internalType": "uint256",
              "name": "indexForBookingIdList",
              "type": "uint256"
            },
            {
              "internalType": "uint256",
              "name": "indexForSellingBookingIdList",
              "type": "uint256"
            }
          ],
          "internalType": "struct Ticketing.Ticket",
          "name": "",
          "type": "tuple"
        }
      ],
      "stateMutability": "view",
      "type": "function"
    },
    {
      "inputs": [
        {
          "internalType": "uint256",
          "name": "_bookingId",
          "type": "uint256"
        }
      ],
      "name": "pay",
      "outputs": [],
      "stateMutability": "payable",
      "type": "function"
    },
    {
      "inputs": [
        {
          "internalType": "uint256",
          "name": "_bookingId",
          "type": "uint256"
        }
      ],
      "name": "resellTicket",
      "outputs": [],
      "stateMutability": "nonpayable",
      "type": "function"
    },
    {
      "inputs": [
        {
          "internalType": "uint256",
          "name": "_index",
          "type": "uint256"
        },
        {
          "internalType": "uint256",
          "name": "_showId",
          "type": "uint256"
        }
      ],
      "name": "removeFromShow",
      "outputs": [],
      "stateMutability": "nonpayable",
      "type": "function"
    },
    {
      "inputs": [
        {
          "internalType": "string",
          "name": "_userId",
          "type": "string"
        },
        {
          "internalType": "address",
          "name": "_buyer",
          "type": "address"
        },
        {
          "internalType": "uint256",
          "name": "_bookingId",
          "type": "uint256"
        }
      ],
      "name": "changeTicketInfo",
      "outputs": [],
      "stateMutability": "payable",
      "type": "function"
    },
    {
      "inputs": [
        {
          "internalType": "uint256",
          "name": "_bookingId",
          "type": "uint256"
        }
      ],
      "name": "changeOwner",
      "outputs": [],
      "stateMutability": "nonpayable",
      "type": "function"
    },
    {
      "inputs": [
        {
          "internalType": "uint256",
          "name": "_bookingId",
          "type": "uint256"
        }
      ],
      "name": "initializeTicketInfo",
      "outputs": [],
      "stateMutability": "nonpayable",
      "type": "function"
    }
  ],
  "bytecode": "0x60806040526001600455336000806101000a81548173ffffffffffffffffffffffffffffffffffffffff021916908373ffffffffffffffffffffffffffffffffffffffff1602179055506126be806100586000396000f3fe6080604052600436106100e85760003560e01c8063924c19f71161008a578063cf0f818911610059578063cf0f8189146102e8578063d0b783fb14610311578063db048e4b1461032d578063de60224314610372576100e8565b8063924c19f71461024f578063b23b02b114610278578063c290d691146102a1578063cd0d462e146102bd576100e8565b806364ebdc18116100c657806364ebdc181461018357806374ae5fcf146101ac5780637641eb5a146101e9578063851fed6c14610212576100e8565b8063077b2aa8146100ed578063555f18e9146101095780635b45e96514610146575b600080fd5b61010760048036038101906101029190611a08565b6103af565b005b34801561011557600080fd5b50610130600480360381019061012b9190611a90565b6106d7565b60405161013d9190611d69565b60405180910390f35b34801561015257600080fd5b5061016d60048036038101906101689190611d8b565b610946565b60405161017a9190611d69565b60405180910390f35b34801561018f57600080fd5b506101aa60048036038101906101a59190611a90565b610c0d565b005b3480156101b857600080fd5b506101d360048036038101906101ce9190611a90565b610d0f565b6040516101e09190611e7d565b60405180910390f35b3480156101f557600080fd5b50610210600480360381019061020b9190611a90565b610e9c565b005b34801561021e57600080fd5b5061023960048036038101906102349190611edd565b610fa2565b6040516102469190611f2c565b60405180910390f35b34801561025b57600080fd5b5061027660048036038101906102719190611a90565b610fd3565b005b34801561028457600080fd5b5061029f600480360381019061029a9190611f47565b611196565b005b6102bb60048036038101906102b69190611a90565b6112de565b005b3480156102c957600080fd5b506102d2611364565b6040516102df9190611f2c565b60405180910390f35b3480156102f457600080fd5b5061030f600480360381019061030a9190611a90565b61136a565b005b61032b60048036038101906103269190611f87565b6115e4565b005b34801561033957600080fd5b50610354600480360381019061034f9190611a90565b61175d565b60405161036999989796959493929190612063565b60405180910390f35b34801561037e57600080fd5b5061039960048036038101906103949190611f47565b611860565b6040516103a69190611f2c565b60405180910390f35b600060405180610120016040528060045481526020018673ffffffffffffffffffffffffffffffffffffffff16815260200184848080601f016020809104026020016040519081016040528093929190818152602001838380828437600081840152601f19601f8201169050808301925050505050505081526020018781526020018581526020013481526020016000600381111561045157610450611b97565b5b8152602001600081526020016000815250905060008054906101000a900473ffffffffffffffffffffffffffffffffffffffff1673ffffffffffffffffffffffffffffffffffffffff166108fc349081150290604051600060405180830381858888f193505050501580156104ca573d6000803e3d6000fd5b50600160008673ffffffffffffffffffffffffffffffffffffffff1673ffffffffffffffffffffffffffffffffffffffff1681526020019081526020016000206004549080600181540180825580915050600190039060005260206000200160009091909190915055806002600060045481526020019081526020016000206000820151816000015560208201518160010160006101000a81548173ffffffffffffffffffffffffffffffffffffffff021916908373ffffffffffffffffffffffffffffffffffffffff16021790555060408201518160020190816105af9190612332565b50606082015181600301556080820151816004015560a0820151816005015560c08201518160060160006101000a81548160ff021916908360038111156105f9576105f8611b97565b5b021790555060e082015181600701556101008201518160080155905050600060018060008873ffffffffffffffffffffffffffffffffffffffff1673ffffffffffffffffffffffffffffffffffffffff168152602001908152602001600020805490506106669190612433565b9050806002600060045481526020019081526020016000206007018190555084600454887f2a1b196ed82ca38ac3eaf401226ccc99f376813c3daf17bb565df45f7052d89260405160405180910390a4600460008154809291906106c990612467565b919050555050505050505050565b606060006003600084815260200190815260200160002080549050905060008167ffffffffffffffff8111156107105761070f6120f7565b5b60405190808252806020026020018201604052801561074957816020015b610736611891565b81526020019060019003908161072e5790505b50905060005b8281101561093b57600060036000878152602001908152602001600020828154811061077e5761077d6124af565b5b906000526020600020015490506002600082815260200190815260200160002060405180610120016040529081600082015481526020016001820160009054906101000a900473ffffffffffffffffffffffffffffffffffffffff1673ffffffffffffffffffffffffffffffffffffffff1673ffffffffffffffffffffffffffffffffffffffff16815260200160028201805461081a90612155565b80601f016020809104026020016040519081016040528092919081815260200182805461084690612155565b80156108935780601f1061086857610100808354040283529160200191610893565b820191906000526020600020905b81548152906001019060200180831161087657829003601f168201915b505050505081526020016003820154815260200160048201548152602001600582015481526020016006820160009054906101000a900460ff1660038111156108df576108de611b97565b5b60038111156108f1576108f0611b97565b5b81526020016007820154815260200160088201548152505083838151811061091c5761091b6124af565b5b602002602001018190525050808061093390612467565b91505061074f565b508092505050919050565b60606000600160008473ffffffffffffffffffffffffffffffffffffffff1673ffffffffffffffffffffffffffffffffffffffff16815260200190815260200160002080549050905060008167ffffffffffffffff8111156109ab576109aa6120f7565b5b6040519080825280602002602001820160405280156109e457816020015b6109d1611891565b8152602001906001900390816109c95790505b50905060005b82811015610c02576000600160008773ffffffffffffffffffffffffffffffffffffffff1673ffffffffffffffffffffffffffffffffffffffff1681526020019081526020016000208281548110610a4557610a446124af565b5b906000526020600020015490506002600082815260200190815260200160002060405180610120016040529081600082015481526020016001820160009054906101000a900473ffffffffffffffffffffffffffffffffffffffff1673ffffffffffffffffffffffffffffffffffffffff1673ffffffffffffffffffffffffffffffffffffffff168152602001600282018054610ae190612155565b80601f0160208091040260200160405190810160405280929190818152602001828054610b0d90612155565b8015610b5a5780601f10610b2f57610100808354040283529160200191610b5a565b820191906000526020600020905b815481529060010190602001808311610b3d57829003601f168201915b505050505081526020016003820154815260200160048201548152602001600582015481526020016006820160009054906101000a900460ff166003811115610ba657610ba5611b97565b5b6003811115610bb857610bb7611b97565b5b815260200160078201548152602001600882015481525050838381518110610be357610be26124af565b5b6020026020010181905250508080610bfa90612467565b9150506109ea565b508092505050919050565b60006002600083815260200190815260200160002060030154905060036000828152602001908152602001600020829080600181540180825580915050600190039060005260206000200160009091909190915055600280600084815260200190815260200160002060060160006101000a81548160ff02191690836003811115610c9b57610c9a611b97565b5b021790555060016003600083815260200190815260200160002080549050610cc39190612433565b600260008481526020019081526020016000206008018190555081817f72f31fb3783f053c730e8edabaeca9a841713ca9ae3e9e5ad628fc0770dfb6de60405160405180910390a35050565b610d17611891565b6002600083815260200190815260200160002060405180610120016040529081600082015481526020016001820160009054906101000a900473ffffffffffffffffffffffffffffffffffffffff1673ffffffffffffffffffffffffffffffffffffffff1673ffffffffffffffffffffffffffffffffffffffff168152602001600282018054610da690612155565b80601f0160208091040260200160405190810160405280929190818152602001828054610dd290612155565b8015610e1f5780601f10610df457610100808354040283529160200191610e1f565b820191906000526020600020905b815481529060010190602001808311610e0257829003601f168201915b505050505081526020016003820154815260200160048201548152602001600582015481526020016006820160009054906101000a900460ff166003811115610e6b57610e6a611b97565b5b6003811115610e7d57610e7c611b97565b5b8152602001600782015481526020016008820154815250509050919050565b600060026000838152602001908152602001600020905060008054906101000a900473ffffffffffffffffffffffffffffffffffffffff168160010160006101000a81548173ffffffffffffffffffffffffffffffffffffffff021916908373ffffffffffffffffffffffffffffffffffffffff1602179055506040518060400160405280600e81526020017f45787072696564205469636b6574000000000000000000000000000000000000815250816002019081610f5c9190612332565b5060038160060160006101000a81548160ff02191690836003811115610f8557610f84611b97565b5b021790555060008160040181905550600081600501819055505050565b60016020528160005260406000208181548110610fbe57600080fd5b90600052602060002001600091509150505481565b6000600260008381526020019081526020016000209050338160010160006101000a81548173ffffffffffffffffffffffffffffffffffffffff021916908373ffffffffffffffffffffffffffffffffffffffff1602179055506040518060400160405280600781526020017f6d616e61676572000000000000000000000000000000000000000000000000008152508160020190816110739190612332565b50600160008260010160009054906101000a900473ffffffffffffffffffffffffffffffffffffffff1673ffffffffffffffffffffffffffffffffffffffff1673ffffffffffffffffffffffffffffffffffffffff168152602001908152602001600020829080600181540180825580915050600190039060005260206000200160009091909190915055600060018060008460010160009054906101000a900473ffffffffffffffffffffffffffffffffffffffff1673ffffffffffffffffffffffffffffffffffffffff1673ffffffffffffffffffffffffffffffffffffffff168152602001908152602001600020805490506111729190612433565b90508060026000600454815260200190815260200160002060070181905550505050565b600360008281526020019081526020016000208054905082106111ee576040517f08c379a00000000000000000000000000000000000000000000000000000000081526004016111e59061252a565b60405180910390fd5b60008290505b600160036000848152602001908152602001600020805490506112179190612433565b8110156112a0576003600083815260200190815260200160002060018261123e919061254a565b8154811061124f5761124e6124af565b5b906000526020600020015460036000848152602001908152602001600020828154811061127f5761127e6124af565b5b9060005260206000200181905550808061129890612467565b9150506111f4565b50600360008281526020019081526020016000208054806112c4576112c361257e565b5b600190038181906000526020600020016000905590555050565b60006002600083815260200190815260200160002060010160009054906101000a900473ffffffffffffffffffffffffffffffffffffffff1690508073ffffffffffffffffffffffffffffffffffffffff166108fc349081150290604051600060405180830381858888f1935050505015801561135f573d6000803e3d6000fd5b505050565b60045481565b60006002600083815260200190815260200160002060010160009054906101000a900473ffffffffffffffffffffffffffffffffffffffff169050600060026000848152602001908152602001600020600701549050600160008373ffffffffffffffffffffffffffffffffffffffff1673ffffffffffffffffffffffffffffffffffffffff168152602001908152602001600020805490508110611444576040517f08c379a000000000000000000000000000000000000000000000000000000000815260040161143b9061252a565b60405180910390fd5b60008190505b60018060008573ffffffffffffffffffffffffffffffffffffffff1673ffffffffffffffffffffffffffffffffffffffff168152602001908152602001600020805490506114989190612433565b81101561157957600160008473ffffffffffffffffffffffffffffffffffffffff1673ffffffffffffffffffffffffffffffffffffffff1681526020019081526020016000206001826114eb919061254a565b815481106114fc576114fb6124af565b5b9060005260206000200154600160008573ffffffffffffffffffffffffffffffffffffffff1673ffffffffffffffffffffffffffffffffffffffff1681526020019081526020016000208281548110611558576115576124af565b5b9060005260206000200181905550808061157190612467565b91505061144a565b50600160008373ffffffffffffffffffffffffffffffffffffffff1673ffffffffffffffffffffffffffffffffffffffff1681526020019081526020016000208054806115c9576115c861257e565b5b60019003818190600052602060002001600090559055505050565b6000600260008381526020019081526020016000209050600160008473ffffffffffffffffffffffffffffffffffffffff1673ffffffffffffffffffffffffffffffffffffffff168152602001908152602001600020829080600181540180825580915050600190039060005260206000200160009091909190915055828160010160006101000a81548173ffffffffffffffffffffffffffffffffffffffff021916908373ffffffffffffffffffffffffffffffffffffffff16021790555084848260020191826116b79291906125b8565b5060008160060160006101000a81548160ff021916908360038111156116e0576116df611b97565b5b0217905550600060018060008673ffffffffffffffffffffffffffffffffffffffff1673ffffffffffffffffffffffffffffffffffffffff168152602001908152602001600020805490506117359190612433565b905080826007018190555081600801549050611755818360030154611196565b505050505050565b60026020528060005260406000206000915090508060000154908060010160009054906101000a900473ffffffffffffffffffffffffffffffffffffffff16908060020180546117ac90612155565b80601f01602080910402602001604051908101604052809291908181526020018280546117d890612155565b80156118255780601f106117fa57610100808354040283529160200191611825565b820191906000526020600020905b81548152906001019060200180831161180857829003601f168201915b5050505050908060030154908060040154908060050154908060060160009054906101000a900460ff16908060070154908060080154905089565b6003602052816000526040600020818154811061187c57600080fd5b90600052602060002001600091509150505481565b60405180610120016040528060008152602001600073ffffffffffffffffffffffffffffffffffffffff16815260200160608152602001600081526020016000815260200160008152602001600060038111156118f1576118f0611b97565b5b815260200160008152602001600081525090565b600080fd5b600080fd5b6000819050919050565b6119228161190f565b811461192d57600080fd5b50565b60008135905061193f81611919565b92915050565b600073ffffffffffffffffffffffffffffffffffffffff82169050919050565b600061197082611945565b9050919050565b61198081611965565b811461198b57600080fd5b50565b60008135905061199d81611977565b92915050565b600080fd5b600080fd5b600080fd5b60008083601f8401126119c8576119c76119a3565b5b8235905067ffffffffffffffff8111156119e5576119e46119a8565b5b602083019150836001820283011115611a0157611a006119ad565b5b9250929050565b600080600080600060808688031215611a2457611a23611905565b5b6000611a3288828901611930565b9550506020611a438882890161198e565b9450506040611a5488828901611930565b935050606086013567ffffffffffffffff811115611a7557611a7461190a565b5b611a81888289016119b2565b92509250509295509295909350565b600060208284031215611aa657611aa5611905565b5b6000611ab484828501611930565b91505092915050565b600081519050919050565b600082825260208201905092915050565b6000819050602082019050919050565b611af28161190f565b82525050565b611b0181611965565b82525050565b600081519050919050565b600082825260208201905092915050565b60005b83811015611b41578082015181840152602081019050611b26565b60008484015250505050565b6000601f19601f8301169050919050565b6000611b6982611b07565b611b738185611b12565b9350611b83818560208601611b23565b611b8c81611b4d565b840191505092915050565b7f4e487b7100000000000000000000000000000000000000000000000000000000600052602160045260246000fd5b60048110611bd757611bd6611b97565b5b50565b6000819050611be882611bc6565b919050565b6000611bf882611bda565b9050919050565b611c0881611bed565b82525050565b600061012083016000830151611c276000860182611ae9565b506020830151611c3a6020860182611af8565b5060408301518482036040860152611c528282611b5e565b9150506060830151611c676060860182611ae9565b506080830151611c7a6080860182611ae9565b5060a0830151611c8d60a0860182611ae9565b5060c0830151611ca060c0860182611bff565b5060e0830151611cb360e0860182611ae9565b50610100830151611cc8610100860182611ae9565b508091505092915050565b6000611cdf8383611c0e565b905092915050565b6000602082019050919050565b6000611cff82611abd565b611d098185611ac8565b935083602082028501611d1b85611ad9565b8060005b85811015611d575784840389528151611d388582611cd3565b9450611d4383611ce7565b925060208a01995050600181019050611d1f565b50829750879550505050505092915050565b60006020820190508181036000830152611d838184611cf4565b905092915050565b600060208284031215611da157611da0611905565b5b6000611daf8482850161198e565b91505092915050565b600061012083016000830151611dd16000860182611ae9565b506020830151611de46020860182611af8565b5060408301518482036040860152611dfc8282611b5e565b9150506060830151611e116060860182611ae9565b506080830151611e246080860182611ae9565b5060a0830151611e3760a0860182611ae9565b5060c0830151611e4a60c0860182611bff565b5060e0830151611e5d60e0860182611ae9565b50610100830151611e72610100860182611ae9565b508091505092915050565b60006020820190508181036000830152611e978184611db8565b905092915050565b6000611eaa82611945565b9050919050565b611eba81611e9f565b8114611ec557600080fd5b50565b600081359050611ed781611eb1565b92915050565b60008060408385031215611ef457611ef3611905565b5b6000611f0285828601611ec8565b9250506020611f1385828601611930565b9150509250929050565b611f268161190f565b82525050565b6000602082019050611f416000830184611f1d565b92915050565b60008060408385031215611f5e57611f5d611905565b5b6000611f6c85828601611930565b9250506020611f7d85828601611930565b9150509250929050565b60008060008060608587031215611fa157611fa0611905565b5b600085013567ffffffffffffffff811115611fbf57611fbe61190a565b5b611fcb878288016119b2565b94509450506020611fde87828801611ec8565b9250506040611fef87828801611930565b91505092959194509250565b61200481611965565b82525050565b600082825260208201905092915050565b600061202682611b07565b612030818561200a565b9350612040818560208601611b23565b61204981611b4d565b840191505092915050565b61205d81611bed565b82525050565b600061012082019050612079600083018c611f1d565b612086602083018b611ffb565b8181036040830152612098818a61201b565b90506120a76060830189611f1d565b6120b46080830188611f1d565b6120c160a0830187611f1d565b6120ce60c0830186612054565b6120db60e0830185611f1d565b6120e9610100830184611f1d565b9a9950505050505050505050565b7f4e487b7100000000000000000000000000000000000000000000000000000000600052604160045260246000fd5b7f4e487b7100000000000000000000000000000000000000000000000000000000600052602260045260246000fd5b6000600282049050600182168061216d57607f821691505b6020821081036121805761217f612126565b5b50919050565b60008190508160005260206000209050919050565b60006020601f8301049050919050565b600082821b905092915050565b6000600883026121e87fffffffffffffffffffffffffffffffffffffffffffffffffffffffffffffffff826121ab565b6121f286836121ab565b95508019841693508086168417925050509392505050565b6000819050919050565b600061222f61222a6122258461190f565b61220a565b61190f565b9050919050565b6000819050919050565b61224983612214565b61225d61225582612236565b8484546121b8565b825550505050565b600090565b612272612265565b61227d818484612240565b505050565b5b818110156122a15761229660008261226a565b600181019050612283565b5050565b601f8211156122e6576122b781612186565b6122c08461219b565b810160208510156122cf578190505b6122e36122db8561219b565b830182612282565b50505b505050565b600082821c905092915050565b6000612309600019846008026122eb565b1980831691505092915050565b600061232283836122f8565b9150826002028217905092915050565b61233b82611b07565b67ffffffffffffffff811115612354576123536120f7565b5b61235e8254612155565b6123698282856122a5565b600060209050601f83116001811461239c576000841561238a578287015190505b6123948582612316565b8655506123fc565b601f1984166123aa86612186565b60005b828110156123d2578489015182556001820191506020850194506020810190506123ad565b868310156123ef57848901516123eb601f8916826122f8565b8355505b6001600288020188555050505b505050505050565b7f4e487b7100000000000000000000000000000000000000000000000000000000600052601160045260246000fd5b600061243e8261190f565b91506124498361190f565b925082820390508181111561246157612460612404565b5b92915050565b60006124728261190f565b91507fffffffffffffffffffffffffffffffffffffffffffffffffffffffffffffffff82036124a4576124a3612404565b5b600182019050919050565b7f4e487b7100000000000000000000000000000000000000000000000000000000600052603260045260246000fd5b7f696e646578206f7574206f6620626f756e640000000000000000000000000000600082015250565b600061251460128361200a565b915061251f826124de565b602082019050919050565b6000602082019050818103600083015261254381612507565b9050919050565b60006125558261190f565b91506125608361190f565b925082820190508082111561257857612577612404565b5b92915050565b7f4e487b7100000000000000000000000000000000000000000000000000000000600052603160045260246000fd5b600082905092915050565b6125c283836125ad565b67ffffffffffffffff8111156125db576125da6120f7565b5b6125e58254612155565b6125f08282856122a5565b6000601f83116001811461261f576000841561260d578287013590505b6126178582612316565b86555061267f565b601f19841661262d86612186565b60005b8281101561265557848901358255600182019150602085019450602081019050612630565b86831015612672578489013561266e601f8916826122f8565b8355505b6001600288020188555050505b5050505050505056fea264697066735822122056bef37efb10714df8defaae05150a55358dcf9a2a19b9e4c85415c09ff1048164736f6c63430008130033",
  "immutableReferences": {},
  "source": "// SPDX-License-Identifier: MIT\npragma solidity ^0.8.13;\n\ncontract Ticketing {\n    address payable owner; //       \n\n    constructor() payable {\n        owner = payable(msg.sender);\n    }\n\n    mapping(address => uint[]) public bookingIdList;   //        =>   \n    mapping(uint => Ticket) public ticketForBookingId;  //         =>  \n    \n    mapping(uint => uint[]) public sellingBookingIdList; // showid =>           =>    \n\n    enum TicketStatus {\n        Sold,   //  \n\t\tCanceled, // \n        OnSale,  // \n        Expired  //     or      \n    }\n\n     //   - ,  , , , (  )\n    struct Ticket {\n        uint bookingId;\n        address payable owner;\n        string userId;\n        uint showId;\n        uint numberOfSeats;\n        //string[] seatList;          \n        uint price;\n        TicketStatus status;  \n        uint indexForBookingIdList;  \n        uint indexForSellingBookingIdList; // ;;; \n    }\n\n    function getMyTicket(address payable userAddr) public view returns(Ticket[] memory){\n        uint length = bookingIdList[userAddr].length;\n        Ticket[] memory myTickets = new Ticket[](length);\n\n        for(uint i = 0; i < length; i++){\n            uint bookingId = bookingIdList[userAddr][i];\n            myTickets[i] = ticketForBookingId[bookingId];\n        }\n   \n        return myTickets;\n    }\n\n    function getResellTicket(uint _showId) public view returns(Ticket[] memory) {\n        \n        uint size = sellingBookingIdList[_showId].length;\n        Ticket[] memory resellTicketList = new Ticket[](size);\n\n        for(uint i = 0; i < size; i++) {\n            uint bookingId = sellingBookingIdList[_showId][i];\n            resellTicketList[i] = ticketForBookingId[bookingId];\n        }\n\n        return resellTicketList;\n    }\n\n    uint public bookingID = 1; \n\n    event ISSUE_TICKET(uint indexed _showId, uint indexed _bookingId, uint indexed _numberOfSeats);\n    function issueTicket(uint _showId, address payable _ticketOwner, uint _numberOfSeats, string calldata _userId) public payable {\n\n        Ticket memory ticket = Ticket({\n            bookingId: bookingID,\n            owner: _ticketOwner,\n            userId: _userId,\n            showId: _showId,\n            numberOfSeats: _numberOfSeats,\n            price: msg.value,\n            status: TicketStatus.Sold,\n            indexForBookingIdList: 0,\n            indexForSellingBookingIdList: 0\n        });\n\n        owner.transfer(msg.value);  //    \n\n        bookingIdList[_ticketOwner].push(bookingID);\n        ticketForBookingId[bookingID] = ticket;\n\n        uint index = bookingIdList[_ticketOwner].length - 1;\n        ticketForBookingId[bookingID].indexForBookingIdList = index;\n\n        emit ISSUE_TICKET(_showId, bookingID, _numberOfSeats);\n\n        bookingID++;\n    }\n\n    function removeFromUser(uint _bookingId) public{\n        address payable _refunder = ticketForBookingId[_bookingId].owner;\n        uint _index = ticketForBookingId[_bookingId].indexForBookingIdList;\n        \n        require(_index < bookingIdList[_refunder].length, \"index out of bound\");\n\n        for(uint i = _index; i < bookingIdList[_refunder].length - 1; i++){\n            bookingIdList[_refunder][i] = bookingIdList[_refunder][i + 1];\n        }\n        bookingIdList[_refunder].pop();\n    }\n\n    function getTicketForBookingId(uint _bookingId) public view returns(Ticket memory){\n        return ticketForBookingId[_bookingId];\n    }\n\n    // @   \n    function pay(uint _bookingId) public payable {\n        address payable oldOwner = ticketForBookingId[_bookingId].owner;\n        oldOwner.transfer(msg.value);\n    }\n\n    // =   \n    event RESELL(uint indexed _showId, uint indexed _bookingId);\n    function resellTicket(uint _bookingId) public { \n        uint _showId = ticketForBookingId[_bookingId].showId;\n        sellingBookingIdList[_showId].push(_bookingId);\n\n        //   \n        ticketForBookingId[_bookingId].status = TicketStatus.OnSale;\n        ticketForBookingId[_bookingId].indexForSellingBookingIdList = sellingBookingIdList[_showId].length - 1;\n\n        emit RESELL(_showId, _bookingId);\n    }\n\n    function removeFromShow(uint _index, uint _showId) public{\n        require(_index < sellingBookingIdList[_showId].length, \"index out of bound\");\n\n        for(uint i = _index; i < sellingBookingIdList[_showId].length - 1; i++){\n            sellingBookingIdList[_showId][i] = sellingBookingIdList[_showId][i + 1];\n        }\n        sellingBookingIdList[_showId].pop();\n    }\n\n    //   \n    function changeTicketInfo(string calldata _userId, address _buyer, uint _bookingId) public payable {\n        \n        Ticket storage ticket = ticketForBookingId[_bookingId];\n\n        // 1. buyer    \n        bookingIdList[_buyer].push(_bookingId);       \n\n        // 2.    \n        ticket.owner =  payable (_buyer);\n        ticket.userId = _userId;\n        ticket.status = TicketStatus.Sold;  //  \n\n        uint index = bookingIdList[_buyer].length - 1;\n        ticket.indexForBookingIdList = index;\n\n        // 4. selling List  \n        index = ticket.indexForSellingBookingIdList;\n        removeFromShow(index, ticket.showId);\n    }\n\n    //      \n    function changeOwner(uint _bookingId) public {\n        Ticket storage ticket = ticketForBookingId[_bookingId];\n        ticket.owner = payable(msg.sender);\n        ticket.userId = \"manager\";\n        \n        bookingIdList[ticket.owner].push(_bookingId);    \n\n        uint index = bookingIdList[ticket.owner].length - 1;\n        ticketForBookingId[bookingID].indexForBookingIdList = index;\n    }\n\n    //      ( )\n    function initializeTicketInfo(uint _bookingId) public {\n         Ticket storage ticket = ticketForBookingId[_bookingId];\n\n        ticket.owner = owner;\n        ticket.userId = \"Expried Ticket\";\n        ticket.status = TicketStatus.Expired;\n        ticket.numberOfSeats = 0;\n        ticket.price = 0;\n    }\n\n}",
  "sourcePath": "/Users/munjeongmin/Repos/Ttime/contracts/Ticketing.sol",
  "compiler": {
    "name": "solc",
    "version": "0.8.19+commit.7dd6d404.Emscripten.clang"
  },
  "schemaVersion": "3.4.13",
  "updatedAt": "2023-10-04T08:00:19.069Z",
  "devdoc": {
    "kind": "dev",
    "methods": {},
    "version": 1
  },
  "userdoc": {
    "kind": "user",
    "methods": {},
    "version": 1
  }
}