{
  "contractName": "Ticketing",
  "abi": [
    {
      "inputs": [],
      "stateMutability": "payable",
      "type": "constructor"
    },
    {
      "anonymous": false,
      "inputs": [
        {
          "indexed": true,
          "internalType": "uint256",
          "name": "_showId",
          "type": "uint256"
        },
        {
          "indexed": true,
          "internalType": "uint256",
          "name": "_bookingId",
          "type": "uint256"
        },
        {
          "indexed": true,
          "internalType": "uint256",
          "name": "_numberOfSeats",
          "type": "uint256"
        }
      ],
      "name": "ISSUE_TICKET",
      "type": "event"
    },
    {
      "anonymous": false,
      "inputs": [
        {
          "indexed": true,
          "internalType": "uint256",
          "name": "_showId",
          "type": "uint256"
        },
        {
          "indexed": true,
          "internalType": "uint256",
          "name": "_bookingId",
          "type": "uint256"
        }
      ],
      "name": "RESELL",
      "type": "event"
    },
    {
      "inputs": [],
      "name": "bookingID",
      "outputs": [
        {
          "internalType": "uint256",
          "name": "",
          "type": "uint256"
        }
      ],
      "stateMutability": "view",
      "type": "function"
    },
    {
      "inputs": [
        {
          "internalType": "address",
          "name": "",
          "type": "address"
        },
        {
          "internalType": "uint256",
          "name": "",
          "type": "uint256"
        }
      ],
      "name": "bookingIdList",
      "outputs": [
        {
          "internalType": "uint256",
          "name": "",
          "type": "uint256"
        }
      ],
      "stateMutability": "view",
      "type": "function"
    },
    {
      "inputs": [
        {
          "internalType": "uint256",
          "name": "",
          "type": "uint256"
        },
        {
          "internalType": "uint256",
          "name": "",
          "type": "uint256"
        }
      ],
      "name": "sellingBookingIdList",
      "outputs": [
        {
          "internalType": "uint256",
          "name": "",
          "type": "uint256"
        }
      ],
      "stateMutability": "view",
      "type": "function"
    },
    {
      "inputs": [
        {
          "internalType": "uint256",
          "name": "",
          "type": "uint256"
        }
      ],
      "name": "ticketForBookingId",
      "outputs": [
        {
          "internalType": "uint256",
          "name": "bookingId",
          "type": "uint256"
        },
        {
          "internalType": "address payable",
          "name": "owner",
          "type": "address"
        },
        {
          "internalType": "string",
          "name": "userId",
          "type": "string"
        },
        {
          "internalType": "uint256",
          "name": "showId",
          "type": "uint256"
        },
        {
          "internalType": "uint256",
          "name": "numberOfSeats",
          "type": "uint256"
        },
        {
          "internalType": "uint256",
          "name": "price",
          "type": "uint256"
        },
        {
          "internalType": "enum Ticketing.TicketStatus",
          "name": "status",
          "type": "uint8"
        },
        {
          "internalType": "uint256",
          "name": "indexForBookingIdList",
          "type": "uint256"
        },
        {
          "internalType": "uint256",
          "name": "indexForSellingBookingIdList",
          "type": "uint256"
        }
      ],
      "stateMutability": "view",
      "type": "function"
    },
    {
      "inputs": [
        {
          "internalType": "address payable",
          "name": "userAddr",
          "type": "address"
        }
      ],
      "name": "getMyTicket",
      "outputs": [
        {
          "components": [
            {
              "internalType": "uint256",
              "name": "bookingId",
              "type": "uint256"
            },
            {
              "internalType": "address payable",
              "name": "owner",
              "type": "address"
            },
            {
              "internalType": "string",
              "name": "userId",
              "type": "string"
            },
            {
              "internalType": "uint256",
              "name": "showId",
              "type": "uint256"
            },
            {
              "internalType": "uint256",
              "name": "numberOfSeats",
              "type": "uint256"
            },
            {
              "internalType": "uint256",
              "name": "price",
              "type": "uint256"
            },
            {
              "internalType": "enum Ticketing.TicketStatus",
              "name": "status",
              "type": "uint8"
            },
            {
              "internalType": "uint256",
              "name": "indexForBookingIdList",
              "type": "uint256"
            },
            {
              "internalType": "uint256",
              "name": "indexForSellingBookingIdList",
              "type": "uint256"
            }
          ],
          "internalType": "struct Ticketing.Ticket[]",
          "name": "",
          "type": "tuple[]"
        }
      ],
      "stateMutability": "view",
      "type": "function"
    },
    {
      "inputs": [
        {
          "internalType": "uint256",
          "name": "_showId",
          "type": "uint256"
        }
      ],
      "name": "getResellTicket",
      "outputs": [
        {
          "components": [
            {
              "internalType": "uint256",
              "name": "bookingId",
              "type": "uint256"
            },
            {
              "internalType": "address payable",
              "name": "owner",
              "type": "address"
            },
            {
              "internalType": "string",
              "name": "userId",
              "type": "string"
            },
            {
              "internalType": "uint256",
              "name": "showId",
              "type": "uint256"
            },
            {
              "internalType": "uint256",
              "name": "numberOfSeats",
              "type": "uint256"
            },
            {
              "internalType": "uint256",
              "name": "price",
              "type": "uint256"
            },
            {
              "internalType": "enum Ticketing.TicketStatus",
              "name": "status",
              "type": "uint8"
            },
            {
              "internalType": "uint256",
              "name": "indexForBookingIdList",
              "type": "uint256"
            },
            {
              "internalType": "uint256",
              "name": "indexForSellingBookingIdList",
              "type": "uint256"
            }
          ],
          "internalType": "struct Ticketing.Ticket[]",
          "name": "",
          "type": "tuple[]"
        }
      ],
      "stateMutability": "view",
      "type": "function"
    },
    {
      "inputs": [
        {
          "internalType": "uint256",
          "name": "_showId",
          "type": "uint256"
        },
        {
          "internalType": "address payable",
          "name": "_ticketOwner",
          "type": "address"
        },
        {
          "internalType": "uint256",
          "name": "_numberOfSeats",
          "type": "uint256"
        },
        {
          "internalType": "string",
          "name": "_userId",
          "type": "string"
        }
      ],
      "name": "issueTicket",
      "outputs": [],
      "stateMutability": "payable",
      "type": "function"
    },
    {
      "inputs": [
        {
          "internalType": "uint256",
          "name": "_bookingId",
          "type": "uint256"
        }
      ],
      "name": "removeFromUser",
      "outputs": [],
      "stateMutability": "nonpayable",
      "type": "function"
    },
    {
      "inputs": [
        {
          "internalType": "uint256",
          "name": "_bookingId",
          "type": "uint256"
        }
      ],
      "name": "getTicketForBookingId",
      "outputs": [
        {
          "components": [
            {
              "internalType": "uint256",
              "name": "bookingId",
              "type": "uint256"
            },
            {
              "internalType": "address payable",
              "name": "owner",
              "type": "address"
            },
            {
              "internalType": "string",
              "name": "userId",
              "type": "string"
            },
            {
              "internalType": "uint256",
              "name": "showId",
              "type": "uint256"
            },
            {
              "internalType": "uint256",
              "name": "numberOfSeats",
              "type": "uint256"
            },
            {
              "internalType": "uint256",
              "name": "price",
              "type": "uint256"
            },
            {
              "internalType": "enum Ticketing.TicketStatus",
              "name": "status",
              "type": "uint8"
            },
            {
              "internalType": "uint256",
              "name": "indexForBookingIdList",
              "type": "uint256"
            },
            {
              "internalType": "uint256",
              "name": "indexForSellingBookingIdList",
              "type": "uint256"
            }
          ],
          "internalType": "struct Ticketing.Ticket",
          "name": "",
          "type": "tuple"
        }
      ],
      "stateMutability": "view",
      "type": "function"
    },
    {
      "inputs": [
        {
          "internalType": "uint256",
          "name": "_bookingId",
          "type": "uint256"
        }
      ],
      "name": "pay",
      "outputs": [],
      "stateMutability": "payable",
      "type": "function"
    },
    {
      "inputs": [
        {
          "internalType": "uint256",
          "name": "_bookingId",
          "type": "uint256"
        }
      ],
      "name": "resellTicket",
      "outputs": [],
      "stateMutability": "nonpayable",
      "type": "function"
    },
    {
      "inputs": [
        {
          "internalType": "uint256",
          "name": "_index",
          "type": "uint256"
        },
        {
          "internalType": "uint256",
          "name": "_showId",
          "type": "uint256"
        }
      ],
      "name": "removeFromShow",
      "outputs": [],
      "stateMutability": "nonpayable",
      "type": "function"
    },
    {
      "inputs": [
        {
          "internalType": "string",
          "name": "_userId",
          "type": "string"
        },
        {
          "internalType": "address",
          "name": "_buyer",
          "type": "address"
        },
        {
          "internalType": "uint256",
          "name": "_bookingId",
          "type": "uint256"
        }
      ],
      "name": "changeTicketInfo",
      "outputs": [],
      "stateMutability": "payable",
      "type": "function"
    },
    {
      "inputs": [
        {
          "internalType": "uint256",
          "name": "_bookingId",
          "type": "uint256"
        }
      ],
      "name": "cancelReselling",
      "outputs": [],
      "stateMutability": "nonpayable",
      "type": "function"
    },
    {
      "inputs": [
        {
          "internalType": "uint256",
          "name": "_bookingId",
          "type": "uint256"
        }
      ],
      "name": "changeOwner",
      "outputs": [],
      "stateMutability": "nonpayable",
      "type": "function"
    },
    {
      "inputs": [
        {
          "internalType": "uint256",
          "name": "_bookingId",
          "type": "uint256"
        }
      ],
      "name": "initializeTicketInfo",
      "outputs": [],
      "stateMutability": "nonpayable",
      "type": "function"
    }
  ],
  "bytecode": "0x60806040526001600455336000806101000a81548173ffffffffffffffffffffffffffffffffffffffff021916908373ffffffffffffffffffffffffffffffffffffffff16021790555061275c806100586000396000f3fe6080604052600436106100f35760003560e01c8063924c19f71161008a578063cf0f818911610059578063cf0f81891461031c578063d0b783fb14610345578063db048e4b14610361578063de602243146103a6576100f3565b8063924c19f714610283578063b23b02b1146102ac578063c290d691146102d5578063cd0d462e146102f1576100f3565b806374ae5fcf116100c657806374ae5fcf146101b75780637641eb5a146101f4578063851fed6c1461021d5780638660571f1461025a576100f3565b8063077b2aa8146100f8578063555f18e9146101145780635b45e9651461015157806364ebdc181461018e575b600080fd5b610112600480360381019061010d9190611aa6565b6103e3565b005b34801561012057600080fd5b5061013b60048036038101906101369190611b2e565b61070b565b6040516101489190611e07565b60405180910390f35b34801561015d57600080fd5b5061017860048036038101906101739190611e29565b61097a565b6040516101859190611e07565b60405180910390f35b34801561019a57600080fd5b506101b560048036038101906101b09190611b2e565b610c41565b005b3480156101c357600080fd5b506101de60048036038101906101d99190611b2e565b610d43565b6040516101eb9190611f1b565b60405180910390f35b34801561020057600080fd5b5061021b60048036038101906102169190611b2e565b610ed0565b005b34801561022957600080fd5b50610244600480360381019061023f9190611f7b565b610fd6565b6040516102519190611fca565b60405180910390f35b34801561026657600080fd5b50610281600480360381019061027c9190611b2e565b611007565b005b34801561028f57600080fd5b506102aa60048036038101906102a59190611b2e565b611071565b005b3480156102b857600080fd5b506102d360048036038101906102ce9190611fe5565b611234565b005b6102ef60048036038101906102ea9190611b2e565b61137c565b005b3480156102fd57600080fd5b50610306611402565b6040516103139190611fca565b60405180910390f35b34801561032857600080fd5b50610343600480360381019061033e9190611b2e565b611408565b005b61035f600480360381019061035a9190612025565b611682565b005b34801561036d57600080fd5b5061038860048036038101906103839190611b2e565b6117fb565b60405161039d99989796959493929190612101565b60405180910390f35b3480156103b257600080fd5b506103cd60048036038101906103c89190611fe5565b6118fe565b6040516103da9190611fca565b60405180910390f35b600060405180610120016040528060045481526020018673ffffffffffffffffffffffffffffffffffffffff16815260200184848080601f016020809104026020016040519081016040528093929190818152602001838380828437600081840152601f19601f8201169050808301925050505050505081526020018781526020018581526020013481526020016000600381111561048557610484611c35565b5b8152602001600081526020016000815250905060008054906101000a900473ffffffffffffffffffffffffffffffffffffffff1673ffffffffffffffffffffffffffffffffffffffff166108fc349081150290604051600060405180830381858888f193505050501580156104fe573d6000803e3d6000fd5b50600160008673ffffffffffffffffffffffffffffffffffffffff1673ffffffffffffffffffffffffffffffffffffffff1681526020019081526020016000206004549080600181540180825580915050600190039060005260206000200160009091909190915055806002600060045481526020019081526020016000206000820151816000015560208201518160010160006101000a81548173ffffffffffffffffffffffffffffffffffffffff021916908373ffffffffffffffffffffffffffffffffffffffff16021790555060408201518160020190816105e391906123d0565b50606082015181600301556080820151816004015560a0820151816005015560c08201518160060160006101000a81548160ff0219169083600381111561062d5761062c611c35565b5b021790555060e082015181600701556101008201518160080155905050600060018060008873ffffffffffffffffffffffffffffffffffffffff1673ffffffffffffffffffffffffffffffffffffffff1681526020019081526020016000208054905061069a91906124d1565b9050806002600060045481526020019081526020016000206007018190555084600454887f2a1b196ed82ca38ac3eaf401226ccc99f376813c3daf17bb565df45f7052d89260405160405180910390a4600460008154809291906106fd90612505565b919050555050505050505050565b606060006003600084815260200190815260200160002080549050905060008167ffffffffffffffff81111561074457610743612195565b5b60405190808252806020026020018201604052801561077d57816020015b61076a61192f565b8152602001906001900390816107625790505b50905060005b8281101561096f5760006003600087815260200190815260200160002082815481106107b2576107b161254d565b5b906000526020600020015490506002600082815260200190815260200160002060405180610120016040529081600082015481526020016001820160009054906101000a900473ffffffffffffffffffffffffffffffffffffffff1673ffffffffffffffffffffffffffffffffffffffff1673ffffffffffffffffffffffffffffffffffffffff16815260200160028201805461084e906121f3565b80601f016020809104026020016040519081016040528092919081815260200182805461087a906121f3565b80156108c75780601f1061089c576101008083540402835291602001916108c7565b820191906000526020600020905b8154815290600101906020018083116108aa57829003601f168201915b505050505081526020016003820154815260200160048201548152602001600582015481526020016006820160009054906101000a900460ff16600381111561091357610912611c35565b5b600381111561092557610924611c35565b5b8152602001600782015481526020016008820154815250508383815181106109505761094f61254d565b5b602002602001018190525050808061096790612505565b915050610783565b508092505050919050565b60606000600160008473ffffffffffffffffffffffffffffffffffffffff1673ffffffffffffffffffffffffffffffffffffffff16815260200190815260200160002080549050905060008167ffffffffffffffff8111156109df576109de612195565b5b604051908082528060200260200182016040528015610a1857816020015b610a0561192f565b8152602001906001900390816109fd5790505b50905060005b82811015610c36576000600160008773ffffffffffffffffffffffffffffffffffffffff1673ffffffffffffffffffffffffffffffffffffffff1681526020019081526020016000208281548110610a7957610a7861254d565b5b906000526020600020015490506002600082815260200190815260200160002060405180610120016040529081600082015481526020016001820160009054906101000a900473ffffffffffffffffffffffffffffffffffffffff1673ffffffffffffffffffffffffffffffffffffffff1673ffffffffffffffffffffffffffffffffffffffff168152602001600282018054610b15906121f3565b80601f0160208091040260200160405190810160405280929190818152602001828054610b41906121f3565b8015610b8e5780601f10610b6357610100808354040283529160200191610b8e565b820191906000526020600020905b815481529060010190602001808311610b7157829003601f168201915b505050505081526020016003820154815260200160048201548152602001600582015481526020016006820160009054906101000a900460ff166003811115610bda57610bd9611c35565b5b6003811115610bec57610beb611c35565b5b815260200160078201548152602001600882015481525050838381518110610c1757610c1661254d565b5b6020026020010181905250508080610c2e90612505565b915050610a1e565b508092505050919050565b60006002600083815260200190815260200160002060030154905060036000828152602001908152602001600020829080600181540180825580915050600190039060005260206000200160009091909190915055600280600084815260200190815260200160002060060160006101000a81548160ff02191690836003811115610ccf57610cce611c35565b5b021790555060016003600083815260200190815260200160002080549050610cf791906124d1565b600260008481526020019081526020016000206008018190555081817f72f31fb3783f053c730e8edabaeca9a841713ca9ae3e9e5ad628fc0770dfb6de60405160405180910390a35050565b610d4b61192f565b6002600083815260200190815260200160002060405180610120016040529081600082015481526020016001820160009054906101000a900473ffffffffffffffffffffffffffffffffffffffff1673ffffffffffffffffffffffffffffffffffffffff1673ffffffffffffffffffffffffffffffffffffffff168152602001600282018054610dda906121f3565b80601f0160208091040260200160405190810160405280929190818152602001828054610e06906121f3565b8015610e535780601f10610e2857610100808354040283529160200191610e53565b820191906000526020600020905b815481529060010190602001808311610e3657829003601f168201915b505050505081526020016003820154815260200160048201548152602001600582015481526020016006820160009054906101000a900460ff166003811115610e9f57610e9e611c35565b5b6003811115610eb157610eb0611c35565b5b8152602001600782015481526020016008820154815250509050919050565b600060026000838152602001908152602001600020905060008054906101000a900473ffffffffffffffffffffffffffffffffffffffff168160010160006101000a81548173ffffffffffffffffffffffffffffffffffffffff021916908373ffffffffffffffffffffffffffffffffffffffff1602179055506040518060400160405280600e81526020017f45787072696564205469636b6574000000000000000000000000000000000000815250816002019081610f9091906123d0565b5060038160060160006101000a81548160ff02191690836003811115610fb957610fb8611c35565b5b021790555060008160040181905550600081600501819055505050565b60016020528160005260406000208181548110610ff257600080fd5b90600052602060002001600091509150505481565b6000600260008381526020019081526020016000209050600081600801549050611035818360030154611234565b60008260060160006101000a81548160ff0219169083600381111561105d5761105c611c35565b5b021790555060008260080181905550505050565b6000600260008381526020019081526020016000209050338160010160006101000a81548173ffffffffffffffffffffffffffffffffffffffff021916908373ffffffffffffffffffffffffffffffffffffffff1602179055506040518060400160405280600781526020017f6d616e616765720000000000000000000000000000000000000000000000000081525081600201908161111191906123d0565b50600160008260010160009054906101000a900473ffffffffffffffffffffffffffffffffffffffff1673ffffffffffffffffffffffffffffffffffffffff1673ffffffffffffffffffffffffffffffffffffffff168152602001908152602001600020829080600181540180825580915050600190039060005260206000200160009091909190915055600060018060008460010160009054906101000a900473ffffffffffffffffffffffffffffffffffffffff1673ffffffffffffffffffffffffffffffffffffffff1673ffffffffffffffffffffffffffffffffffffffff1681526020019081526020016000208054905061121091906124d1565b90508060026000600454815260200190815260200160002060070181905550505050565b6003600082815260200190815260200160002080549050821061128c576040517f08c379a0000000000000000000000000000000000000000000000000000000008152600401611283906125c8565b60405180910390fd5b60008290505b600160036000848152602001908152602001600020805490506112b591906124d1565b81101561133e57600360008381526020019081526020016000206001826112dc91906125e8565b815481106112ed576112ec61254d565b5b906000526020600020015460036000848152602001908152602001600020828154811061131d5761131c61254d565b5b9060005260206000200181905550808061133690612505565b915050611292565b50600360008281526020019081526020016000208054806113625761136161261c565b5b600190038181906000526020600020016000905590555050565b60006002600083815260200190815260200160002060010160009054906101000a900473ffffffffffffffffffffffffffffffffffffffff1690508073ffffffffffffffffffffffffffffffffffffffff166108fc349081150290604051600060405180830381858888f193505050501580156113fd573d6000803e3d6000fd5b505050565b60045481565b60006002600083815260200190815260200160002060010160009054906101000a900473ffffffffffffffffffffffffffffffffffffffff169050600060026000848152602001908152602001600020600701549050600160008373ffffffffffffffffffffffffffffffffffffffff1673ffffffffffffffffffffffffffffffffffffffff1681526020019081526020016000208054905081106114e2576040517f08c379a00000000000000000000000000000000000000000000000000000000081526004016114d9906125c8565b60405180910390fd5b60008190505b60018060008573ffffffffffffffffffffffffffffffffffffffff1673ffffffffffffffffffffffffffffffffffffffff1681526020019081526020016000208054905061153691906124d1565b81101561161757600160008473ffffffffffffffffffffffffffffffffffffffff1673ffffffffffffffffffffffffffffffffffffffff16815260200190815260200160002060018261158991906125e8565b8154811061159a5761159961254d565b5b9060005260206000200154600160008573ffffffffffffffffffffffffffffffffffffffff1673ffffffffffffffffffffffffffffffffffffffff16815260200190815260200160002082815481106115f6576115f561254d565b5b9060005260206000200181905550808061160f90612505565b9150506114e8565b50600160008373ffffffffffffffffffffffffffffffffffffffff1673ffffffffffffffffffffffffffffffffffffffff1681526020019081526020016000208054806116675761166661261c565b5b60019003818190600052602060002001600090559055505050565b6000600260008381526020019081526020016000209050600160008473ffffffffffffffffffffffffffffffffffffffff1673ffffffffffffffffffffffffffffffffffffffff168152602001908152602001600020829080600181540180825580915050600190039060005260206000200160009091909190915055828160010160006101000a81548173ffffffffffffffffffffffffffffffffffffffff021916908373ffffffffffffffffffffffffffffffffffffffff1602179055508484826002019182611755929190612656565b5060008160060160006101000a81548160ff0219169083600381111561177e5761177d611c35565b5b0217905550600060018060008673ffffffffffffffffffffffffffffffffffffffff1673ffffffffffffffffffffffffffffffffffffffff168152602001908152602001600020805490506117d391906124d1565b9050808260070181905550816008015490506117f3818360030154611234565b505050505050565b60026020528060005260406000206000915090508060000154908060010160009054906101000a900473ffffffffffffffffffffffffffffffffffffffff169080600201805461184a906121f3565b80601f0160208091040260200160405190810160405280929190818152602001828054611876906121f3565b80156118c35780601f10611898576101008083540402835291602001916118c3565b820191906000526020600020905b8154815290600101906020018083116118a657829003601f168201915b5050505050908060030154908060040154908060050154908060060160009054906101000a900460ff16908060070154908060080154905089565b6003602052816000526040600020818154811061191a57600080fd5b90600052602060002001600091509150505481565b60405180610120016040528060008152602001600073ffffffffffffffffffffffffffffffffffffffff168152602001606081526020016000815260200160008152602001600081526020016000600381111561198f5761198e611c35565b5b815260200160008152602001600081525090565b600080fd5b600080fd5b6000819050919050565b6119c0816119ad565b81146119cb57600080fd5b50565b6000813590506119dd816119b7565b92915050565b600073ffffffffffffffffffffffffffffffffffffffff82169050919050565b6000611a0e826119e3565b9050919050565b611a1e81611a03565b8114611a2957600080fd5b50565b600081359050611a3b81611a15565b92915050565b600080fd5b600080fd5b600080fd5b60008083601f840112611a6657611a65611a41565b5b8235905067ffffffffffffffff811115611a8357611a82611a46565b5b602083019150836001820283011115611a9f57611a9e611a4b565b5b9250929050565b600080600080600060808688031215611ac257611ac16119a3565b5b6000611ad0888289016119ce565b9550506020611ae188828901611a2c565b9450506040611af2888289016119ce565b935050606086013567ffffffffffffffff811115611b1357611b126119a8565b5b611b1f88828901611a50565b92509250509295509295909350565b600060208284031215611b4457611b436119a3565b5b6000611b52848285016119ce565b91505092915050565b600081519050919050565b600082825260208201905092915050565b6000819050602082019050919050565b611b90816119ad565b82525050565b611b9f81611a03565b82525050565b600081519050919050565b600082825260208201905092915050565b60005b83811015611bdf578082015181840152602081019050611bc4565b60008484015250505050565b6000601f19601f8301169050919050565b6000611c0782611ba5565b611c118185611bb0565b9350611c21818560208601611bc1565b611c2a81611beb565b840191505092915050565b7f4e487b7100000000000000000000000000000000000000000000000000000000600052602160045260246000fd5b60048110611c7557611c74611c35565b5b50565b6000819050611c8682611c64565b919050565b6000611c9682611c78565b9050919050565b611ca681611c8b565b82525050565b600061012083016000830151611cc56000860182611b87565b506020830151611cd86020860182611b96565b5060408301518482036040860152611cf08282611bfc565b9150506060830151611d056060860182611b87565b506080830151611d186080860182611b87565b5060a0830151611d2b60a0860182611b87565b5060c0830151611d3e60c0860182611c9d565b5060e0830151611d5160e0860182611b87565b50610100830151611d66610100860182611b87565b508091505092915050565b6000611d7d8383611cac565b905092915050565b6000602082019050919050565b6000611d9d82611b5b565b611da78185611b66565b935083602082028501611db985611b77565b8060005b85811015611df55784840389528151611dd68582611d71565b9450611de183611d85565b925060208a01995050600181019050611dbd565b50829750879550505050505092915050565b60006020820190508181036000830152611e218184611d92565b905092915050565b600060208284031215611e3f57611e3e6119a3565b5b6000611e4d84828501611a2c565b91505092915050565b600061012083016000830151611e6f6000860182611b87565b506020830151611e826020860182611b96565b5060408301518482036040860152611e9a8282611bfc565b9150506060830151611eaf6060860182611b87565b506080830151611ec26080860182611b87565b5060a0830151611ed560a0860182611b87565b5060c0830151611ee860c0860182611c9d565b5060e0830151611efb60e0860182611b87565b50610100830151611f10610100860182611b87565b508091505092915050565b60006020820190508181036000830152611f358184611e56565b905092915050565b6000611f48826119e3565b9050919050565b611f5881611f3d565b8114611f6357600080fd5b50565b600081359050611f7581611f4f565b92915050565b60008060408385031215611f9257611f916119a3565b5b6000611fa085828601611f66565b9250506020611fb1858286016119ce565b9150509250929050565b611fc4816119ad565b82525050565b6000602082019050611fdf6000830184611fbb565b92915050565b60008060408385031215611ffc57611ffb6119a3565b5b600061200a858286016119ce565b925050602061201b858286016119ce565b9150509250929050565b6000806000806060858703121561203f5761203e6119a3565b5b600085013567ffffffffffffffff81111561205d5761205c6119a8565b5b61206987828801611a50565b9450945050602061207c87828801611f66565b925050604061208d878288016119ce565b91505092959194509250565b6120a281611a03565b82525050565b600082825260208201905092915050565b60006120c482611ba5565b6120ce81856120a8565b93506120de818560208601611bc1565b6120e781611beb565b840191505092915050565b6120fb81611c8b565b82525050565b600061012082019050612117600083018c611fbb565b612124602083018b612099565b8181036040830152612136818a6120b9565b90506121456060830189611fbb565b6121526080830188611fbb565b61215f60a0830187611fbb565b61216c60c08301866120f2565b61217960e0830185611fbb565b612187610100830184611fbb565b9a9950505050505050505050565b7f4e487b7100000000000000000000000000000000000000000000000000000000600052604160045260246000fd5b7f4e487b7100000000000000000000000000000000000000000000000000000000600052602260045260246000fd5b6000600282049050600182168061220b57607f821691505b60208210810361221e5761221d6121c4565b5b50919050565b60008190508160005260206000209050919050565b60006020601f8301049050919050565b600082821b905092915050565b6000600883026122867fffffffffffffffffffffffffffffffffffffffffffffffffffffffffffffffff82612249565b6122908683612249565b95508019841693508086168417925050509392505050565b6000819050919050565b60006122cd6122c86122c3846119ad565b6122a8565b6119ad565b9050919050565b6000819050919050565b6122e7836122b2565b6122fb6122f3826122d4565b848454612256565b825550505050565b600090565b612310612303565b61231b8184846122de565b505050565b5b8181101561233f57612334600082612308565b600181019050612321565b5050565b601f8211156123845761235581612224565b61235e84612239565b8101602085101561236d578190505b61238161237985612239565b830182612320565b50505b505050565b600082821c905092915050565b60006123a760001984600802612389565b1980831691505092915050565b60006123c08383612396565b9150826002028217905092915050565b6123d982611ba5565b67ffffffffffffffff8111156123f2576123f1612195565b5b6123fc82546121f3565b612407828285612343565b600060209050601f83116001811461243a5760008415612428578287015190505b61243285826123b4565b86555061249a565b601f19841661244886612224565b60005b828110156124705784890151825560018201915060208501945060208101905061244b565b8683101561248d5784890151612489601f891682612396565b8355505b6001600288020188555050505b505050505050565b7f4e487b7100000000000000000000000000000000000000000000000000000000600052601160045260246000fd5b60006124dc826119ad565b91506124e7836119ad565b92508282039050818111156124ff576124fe6124a2565b5b92915050565b6000612510826119ad565b91507fffffffffffffffffffffffffffffffffffffffffffffffffffffffffffffffff8203612542576125416124a2565b5b600182019050919050565b7f4e487b7100000000000000000000000000000000000000000000000000000000600052603260045260246000fd5b7f696e646578206f7574206f6620626f756e640000000000000000000000000000600082015250565b60006125b26012836120a8565b91506125bd8261257c565b602082019050919050565b600060208201905081810360008301526125e1816125a5565b9050919050565b60006125f3826119ad565b91506125fe836119ad565b9250828201905080821115612616576126156124a2565b5b92915050565b7f4e487b7100000000000000000000000000000000000000000000000000000000600052603160045260246000fd5b600082905092915050565b612660838361264b565b67ffffffffffffffff81111561267957612678612195565b5b61268382546121f3565b61268e828285612343565b6000601f8311600181146126bd57600084156126ab578287013590505b6126b585826123b4565b86555061271d565b601f1984166126cb86612224565b60005b828110156126f3578489013582556001820191506020850194506020810190506126ce565b86831015612710578489013561270c601f891682612396565b8355505b6001600288020188555050505b5050505050505056fea264697066735822122005b56f0ed0718b61a3e63d202a02d0f448751a7e614cf22a6998561e53ccc0cc64736f6c63430008130033",
  "immutableReferences": {},
  "source": "// SPDX-License-Identifier: MIT\r\npragma solidity ^0.8.13;\r\n\r\ncontract Ticketing {\r\n    address payable owner; //       \r\n\r\n    constructor() payable {\r\n        owner = payable(msg.sender);\r\n    }\r\n\r\n    mapping(address => uint[]) public bookingIdList;   //        =>   \r\n    mapping(uint => Ticket) public ticketForBookingId;  //         =>  \r\n    \r\n    mapping(uint => uint[]) public sellingBookingIdList; // showid =>           =>    \r\n\r\n    enum TicketStatus {\r\n        Sold,   //  \r\n\t\tCanceled, // \r\n        OnSale,  // \r\n        Expired  //     or      \r\n    }\r\n\r\n     //   - ,  , , , (  )\r\n    struct Ticket {\r\n        uint bookingId;\r\n        address payable owner;\r\n        string userId;\r\n        uint showId;\r\n        uint numberOfSeats;\r\n        //string[] seatList;          \r\n        uint price;\r\n        TicketStatus status;  \r\n        uint indexForBookingIdList;  \r\n        uint indexForSellingBookingIdList; // ;;; \r\n    }\r\n\r\n    function getMyTicket(address payable userAddr) public view returns(Ticket[] memory){\r\n        uint length = bookingIdList[userAddr].length;\r\n        Ticket[] memory myTickets = new Ticket[](length);\r\n\r\n        for(uint i = 0; i < length; i++){\r\n            uint bookingId = bookingIdList[userAddr][i];\r\n            myTickets[i] = ticketForBookingId[bookingId];\r\n        }\r\n   \r\n        return myTickets;\r\n    }\r\n\r\n    function getResellTicket(uint _showId) public view returns(Ticket[] memory) {\r\n        \r\n        uint size = sellingBookingIdList[_showId].length;\r\n        Ticket[] memory resellTicketList = new Ticket[](size);\r\n\r\n        for(uint i = 0; i < size; i++) {\r\n            uint bookingId = sellingBookingIdList[_showId][i];\r\n            resellTicketList[i] = ticketForBookingId[bookingId];\r\n        }\r\n\r\n        return resellTicketList;\r\n    }\r\n\r\n    uint public bookingID = 1; \r\n\r\n    event ISSUE_TICKET(uint indexed _showId, uint indexed _bookingId, uint indexed _numberOfSeats);\r\n    function issueTicket(uint _showId, address payable _ticketOwner, uint _numberOfSeats, string calldata _userId) public payable {\r\n\r\n        Ticket memory ticket = Ticket({\r\n            bookingId: bookingID,\r\n            owner: _ticketOwner,\r\n            userId: _userId,\r\n            showId: _showId,\r\n            numberOfSeats: _numberOfSeats,\r\n            price: msg.value,\r\n            status: TicketStatus.Sold,\r\n            indexForBookingIdList: 0,\r\n            indexForSellingBookingIdList: 0\r\n        });\r\n\r\n        owner.transfer(msg.value);  //    \r\n\r\n        bookingIdList[_ticketOwner].push(bookingID);\r\n        ticketForBookingId[bookingID] = ticket;\r\n\r\n        uint index = bookingIdList[_ticketOwner].length - 1;\r\n        ticketForBookingId[bookingID].indexForBookingIdList = index;\r\n\r\n        emit ISSUE_TICKET(_showId, bookingID, _numberOfSeats);\r\n\r\n        bookingID++;\r\n    }\r\n\r\n    function removeFromUser(uint _bookingId) public{\r\n        address payable _refunder = ticketForBookingId[_bookingId].owner;\r\n        uint _index = ticketForBookingId[_bookingId].indexForBookingIdList;\r\n        \r\n        require(_index < bookingIdList[_refunder].length, \"index out of bound\");\r\n\r\n        for(uint i = _index; i < bookingIdList[_refunder].length - 1; i++){\r\n            bookingIdList[_refunder][i] = bookingIdList[_refunder][i + 1];\r\n        }\r\n        bookingIdList[_refunder].pop();\r\n    }\r\n\r\n    function getTicketForBookingId(uint _bookingId) public view returns(Ticket memory){\r\n        return ticketForBookingId[_bookingId];\r\n    }\r\n\r\n    // @   \r\n    function pay(uint _bookingId) public payable {\r\n        address payable oldOwner = ticketForBookingId[_bookingId].owner;\r\n        oldOwner.transfer(msg.value);\r\n    }\r\n\r\n    // =   \r\n    event RESELL(uint indexed _showId, uint indexed _bookingId);\r\n    function resellTicket(uint _bookingId) public { \r\n        uint _showId = ticketForBookingId[_bookingId].showId;\r\n        sellingBookingIdList[_showId].push(_bookingId);\r\n\r\n        //   \r\n        ticketForBookingId[_bookingId].status = TicketStatus.OnSale;\r\n        ticketForBookingId[_bookingId].indexForSellingBookingIdList = sellingBookingIdList[_showId].length - 1;\r\n\r\n        emit RESELL(_showId, _bookingId);\r\n    }\r\n\r\n    function removeFromShow(uint _index, uint _showId) public{\r\n        require(_index < sellingBookingIdList[_showId].length, \"index out of bound\");\r\n\r\n        for(uint i = _index; i < sellingBookingIdList[_showId].length - 1; i++){\r\n            sellingBookingIdList[_showId][i] = sellingBookingIdList[_showId][i + 1];\r\n        }\r\n        sellingBookingIdList[_showId].pop();\r\n    }\r\n\r\n    //   \r\n    function changeTicketInfo(string calldata _userId, address _buyer, uint _bookingId) public payable {\r\n        \r\n        Ticket storage ticket = ticketForBookingId[_bookingId];\r\n\r\n        // 1. buyer    \r\n        bookingIdList[_buyer].push(_bookingId);       \r\n\r\n        // 2.    \r\n        ticket.owner =  payable (_buyer);\r\n        ticket.userId = _userId;\r\n        ticket.status = TicketStatus.Sold;  //  \r\n\r\n        uint index = bookingIdList[_buyer].length - 1;\r\n        ticket.indexForBookingIdList = index;\r\n\r\n        // 4. selling List  \r\n        index = ticket.indexForSellingBookingIdList;\r\n        removeFromShow(index, ticket.showId);\r\n    }\r\n    \r\n    //   \r\n    function cancelReselling(uint _bookingId) public {\r\n        Ticket storage ticket = ticketForBookingId[_bookingId];\r\n        // selling List  \r\n        uint index = ticket.indexForSellingBookingIdList;\r\n        removeFromShow(index, ticket.showId);\r\n        // ticket  \r\n        ticket.status = TicketStatus.Sold;\r\n        ticket.indexForSellingBookingIdList = 0;\r\n    }\r\n\r\n    //      \r\n    function changeOwner(uint _bookingId) public {\r\n        Ticket storage ticket = ticketForBookingId[_bookingId];\r\n        ticket.owner = payable(msg.sender);\r\n        ticket.userId = \"manager\";\r\n        \r\n        bookingIdList[ticket.owner].push(_bookingId);    \r\n\r\n        uint index = bookingIdList[ticket.owner].length - 1;\r\n        ticketForBookingId[bookingID].indexForBookingIdList = index;\r\n    }\r\n\r\n    //      ( )\r\n    function initializeTicketInfo(uint _bookingId) public {\r\n         Ticket storage ticket = ticketForBookingId[_bookingId];\r\n\r\n        ticket.owner = owner;\r\n        ticket.userId = \"Expried Ticket\";\r\n        ticket.status = TicketStatus.Expired;\r\n        ticket.numberOfSeats = 0;\r\n        ticket.price = 0;\r\n    }\r\n\r\n}",
  "sourcePath": "C:\\Repos\\gitTtime\\Ttime\\contracts\\Ticketing.sol",
  "compiler": {
    "name": "solc",
    "version": "0.8.19+commit.7dd6d404.Emscripten.clang"
  },
  "schemaVersion": "3.4.13",
  "updatedAt": "2023-10-04T08:00:40.902Z",
  "devdoc": {
    "kind": "dev",
    "methods": {},
    "version": 1
  },
  "userdoc": {
    "kind": "user",
    "methods": {},
    "version": 1
  }
}