{
  "contractName": "Ticketing",
  "abi": [
    {
      "inputs": [],
      "stateMutability": "payable",
      "type": "constructor",
      "payable": true
    },
    {
      "anonymous": false,
      "inputs": [
        {
          "indexed": false,
          "internalType": "address",
          "name": "from",
          "type": "address"
        },
        {
          "indexed": false,
          "internalType": "address",
          "name": "to",
          "type": "address"
        },
        {
          "indexed": false,
          "internalType": "uint256",
          "name": "_ticketPrice",
          "type": "uint256"
        }
      ],
      "name": "BUY_TICKET",
      "type": "event"
    },
    {
      "anonymous": false,
      "inputs": [
        {
          "indexed": true,
          "internalType": "uint256",
          "name": "_showId",
          "type": "uint256"
        },
        {
          "indexed": true,
          "internalType": "uint256",
          "name": "_ticketId",
          "type": "uint256"
        }
      ],
      "name": "ISSUE_TICKET",
      "type": "event"
    },
    {
      "anonymous": false,
      "inputs": [
        {
          "indexed": false,
          "internalType": "address",
          "name": "_owner",
          "type": "address"
        },
        {
          "indexed": false,
          "internalType": "uint256",
          "name": "_showId",
          "type": "uint256"
        },
        {
          "indexed": false,
          "internalType": "uint256",
          "name": "_ticketId",
          "type": "uint256"
        }
      ],
      "name": "RESELL",
      "type": "event"
    },
    {
      "anonymous": false,
      "inputs": [
        {
          "indexed": true,
          "internalType": "address",
          "name": "sender",
          "type": "address"
        },
        {
          "indexed": false,
          "internalType": "uint256",
          "name": "value",
          "type": "uint256"
        },
        {
          "indexed": false,
          "internalType": "address",
          "name": "receiver",
          "type": "address"
        }
      ],
      "name": "TRANSFER",
      "type": "event"
    },
    {
      "inputs": [
        {
          "internalType": "address",
          "name": "",
          "type": "address"
        },
        {
          "internalType": "uint256",
          "name": "",
          "type": "uint256"
        }
      ],
      "name": "myShow",
      "outputs": [
        {
          "internalType": "address payable",
          "name": "owner",
          "type": "address"
        },
        {
          "internalType": "uint256",
          "name": "ticketIndex",
          "type": "uint256"
        },
        {
          "internalType": "uint256",
          "name": "ticketPrice",
          "type": "uint256"
        },
        {
          "internalType": "uint256",
          "name": "sellingQueueIndex",
          "type": "uint256"
        }
      ],
      "stateMutability": "view",
      "type": "function",
      "constant": true
    },
    {
      "inputs": [
        {
          "internalType": "address",
          "name": "",
          "type": "address"
        },
        {
          "internalType": "uint256",
          "name": "",
          "type": "uint256"
        }
      ],
      "name": "myTicket",
      "outputs": [
        {
          "internalType": "uint256",
          "name": "showId",
          "type": "uint256"
        },
        {
          "internalType": "uint256",
          "name": "ticketId",
          "type": "uint256"
        },
        {
          "internalType": "address payable",
          "name": "owner",
          "type": "address"
        }
      ],
      "stateMutability": "view",
      "type": "function",
      "constant": true
    },
    {
      "inputs": [],
      "name": "sellingQueueIndex",
      "outputs": [
        {
          "internalType": "uint256",
          "name": "",
          "type": "uint256"
        }
      ],
      "stateMutability": "view",
      "type": "function",
      "constant": true
    },
    {
      "inputs": [],
      "name": "showIndex",
      "outputs": [
        {
          "internalType": "uint256",
          "name": "",
          "type": "uint256"
        }
      ],
      "stateMutability": "view",
      "type": "function",
      "constant": true
    },
    {
      "inputs": [
        {
          "internalType": "uint256",
          "name": "",
          "type": "uint256"
        }
      ],
      "name": "shows",
      "outputs": [
        {
          "internalType": "address payable",
          "name": "owner",
          "type": "address"
        },
        {
          "internalType": "uint256",
          "name": "ticketIndex",
          "type": "uint256"
        },
        {
          "internalType": "uint256",
          "name": "ticketPrice",
          "type": "uint256"
        },
        {
          "internalType": "uint256",
          "name": "sellingQueueIndex",
          "type": "uint256"
        }
      ],
      "stateMutability": "view",
      "type": "function",
      "constant": true
    },
    {
      "inputs": [],
      "name": "userIndex",
      "outputs": [
        {
          "internalType": "uint256",
          "name": "",
          "type": "uint256"
        }
      ],
      "stateMutability": "view",
      "type": "function",
      "constant": true
    },
    {
      "inputs": [
        {
          "internalType": "uint256",
          "name": "_showid",
          "type": "uint256"
        }
      ],
      "name": "getTicketPrice",
      "outputs": [
        {
          "internalType": "uint256",
          "name": "ticketPrice",
          "type": "uint256"
        }
      ],
      "stateMutability": "view",
      "type": "function",
      "constant": true
    },
    {
      "inputs": [
        {
          "internalType": "uint256",
          "name": "_ticketPrice",
          "type": "uint256"
        },
        {
          "internalType": "address payable",
          "name": "receiver",
          "type": "address"
        }
      ],
      "name": "transferETH",
      "outputs": [],
      "stateMutability": "payable",
      "type": "function",
      "payable": true
    },
    {
      "inputs": [
        {
          "internalType": "uint256",
          "name": "_ticketPrice",
          "type": "uint256"
        }
      ],
      "name": "createShow",
      "outputs": [
        {
          "internalType": "bool",
          "name": "sufficient",
          "type": "bool"
        }
      ],
      "stateMutability": "nonpayable",
      "type": "function"
    },
    {
      "inputs": [
        {
          "internalType": "uint256",
          "name": "_showId",
          "type": "uint256"
        },
        {
          "internalType": "address payable",
          "name": "_ticketOwner",
          "type": "address"
        }
      ],
      "name": "issueTicket",
      "outputs": [],
      "stateMutability": "payable",
      "type": "function",
      "payable": true
    },
    {
      "inputs": [
        {
          "internalType": "uint256",
          "name": "_showId",
          "type": "uint256"
        },
        {
          "internalType": "uint256",
          "name": "_ticketId",
          "type": "uint256"
        }
      ],
      "name": "resellTicket",
      "outputs": [],
      "stateMutability": "nonpayable",
      "type": "function"
    },
    {
      "inputs": [
        {
          "internalType": "uint256",
          "name": "_showId",
          "type": "uint256"
        },
        {
          "internalType": "uint256",
          "name": "_sellingQueueIndex",
          "type": "uint256"
        }
      ],
      "name": "buyTicket",
      "outputs": [],
      "stateMutability": "payable",
      "type": "function",
      "payable": true
    }
  ],
  "bytecode": "0x608060405260018055336000806101000a81548173ffffffffffffffffffffffffffffffffffffffff021916908373ffffffffffffffffffffffffffffffffffffffff16021790555062000060668e1bc9bf040000620000cb60201b60201c565b5062000079668e1bc9bf040000620000cb60201b60201c565b506200009266b1a2bc2ec50000620000cb60201b60201c565b50620000ab66b1a2bc2ec50000620000cb60201b60201c565b50620000c466d529ae9e860000620000cb60201b60201c565b50620001ef565b6000806004600060015481526020019081526020016000209050338160000160006101000a81548173ffffffffffffffffffffffffffffffffffffffff021916908373ffffffffffffffffffffffffffffffffffffffff1602179055506000816001018190555060008160050181905550828160020181905550600160008154809291906200015a90620001a2565b91905055506001915050919050565b7f4e487b7100000000000000000000000000000000000000000000000000000000600052601160045260246000fd5b6000819050919050565b6000620001af8262000198565b91507fffffffffffffffffffffffffffffffffffffffffffffffffffffffffffffffff8203620001e457620001e362000169565b5b600182019050919050565b610f6e80620001ff6000396000f3fe6080604052600436106100a75760003560e01c80634715d22b116100645780634715d22b146101c95780636e07c47014610209578063753f225914610225578063ab70120714610250578063cb286d2a1461027b578063f06fc961146102a6576100a7565b806310ca2539146100ac578063298ec208146100eb57806330f0931e146101075780633478ac2b14610147578063348e9913146101845780633b99f185146101ad575b600080fd5b3480156100b857600080fd5b506100d360048036038101906100ce9190610b29565b6102e3565b6040516100e293929190610b99565b60405180910390f35b61010560048036038101906101009190610bd0565b61034a565b005b34801561011357600080fd5b5061012e60048036038101906101299190610c10565b610493565b60405161013e9493929190610c3d565b60405180910390f35b34801561015357600080fd5b5061016e60048036038101906101699190610c10565b6104e3565b60405161017b9190610c9d565b60405180910390f35b34801561019057600080fd5b506101ab60048036038101906101a69190610bd0565b61057f565b005b6101c760048036038101906101c29190610ce4565b610742565b005b3480156101d557600080fd5b506101f060048036038101906101eb9190610b29565b610950565b6040516102009493929190610c3d565b60405180910390f35b610223600480360381019061021e9190610ce4565b6109bd565b005b34801561023157600080fd5b5061023a610a5e565b6040516102479190610d24565b60405180910390f35b34801561025c57600080fd5b50610265610a64565b6040516102729190610d24565b60405180910390f35b34801561028757600080fd5b50610290610a6a565b60405161029d9190610d24565b60405180910390f35b3480156102b257600080fd5b506102cd60048036038101906102c89190610c10565b610a70565b6040516102da9190610d24565b60405180910390f35b600560205281600052604060002081815481106102ff57600080fd5b9060005260206000209060030201600091509150508060000154908060010154908060020160009054906101000a900473ffffffffffffffffffffffffffffffffffffffff16905083565b6000600460008481526020019081526020016000209050600081600401600084815260200190815260200160002060405180606001604052908160008201548152602001600182015481526020016002820160009054906101000a900473ffffffffffffffffffffffffffffffffffffffff1673ffffffffffffffffffffffffffffffffffffffff1673ffffffffffffffffffffffffffffffffffffffff1681525050905060008160400151905061040234826109bd565b7f31b918c4d31b15fc1fa60f65740b9e976d33435bb9347d54a744b2992b1db1ce33823460405161043593929190610dad565b60405180910390a182600401600085815260200190815260200160002060008082016000905560018201600090556002820160006101000a81549073ffffffffffffffffffffffffffffffffffffffff021916905550505050505050565b60046020528060005260406000206000915090508060000160009054906101000a900473ffffffffffffffffffffffffffffffffffffffff16908060010154908060020154908060050154905084565b6000806004600060015481526020019081526020016000209050338160000160006101000a81548173ffffffffffffffffffffffffffffffffffffffff021916908373ffffffffffffffffffffffffffffffffffffffff16021790555060008160010181905550600081600501819055508281600201819055506001600081548092919061057090610e13565b91905055506001915050919050565b600060046000848152602001908152602001600020905080600301600083815260200190815260200160002060020160009054906101000a900473ffffffffffffffffffffffffffffffffffffffff1673ffffffffffffffffffffffffffffffffffffffff163373ffffffffffffffffffffffffffffffffffffffff161461063c576040517f08c379a000000000000000000000000000000000000000000000000000000000815260040161063390610eb8565b60405180910390fd5b8060030160008381526020019081526020016000208160040160008360050154815260200190815260200160002060008201548160000155600182015481600101556002820160009054906101000a900473ffffffffffffffffffffffffffffffffffffffff168160020160006101000a81548173ffffffffffffffffffffffffffffffffffffffff021916908373ffffffffffffffffffffffffffffffffffffffff1602179055509050508060050160008154809291906106fd90610e13565b91905055507fd6b8a8000f3b6b1d7b1b42a8e2508946bee055c5a1f21b18d4ac22090eca8f7833848460405161073593929190610ed8565b60405180910390a1505050565b600060046000848152602001908152602001600020905060006040518060600160405280858152602001836001015481526020018473ffffffffffffffffffffffffffffffffffffffff1681525090506107c0348360000160009054906101000a900473ffffffffffffffffffffffffffffffffffffffff166109bd565b8082600301600084600101548152602001908152602001600020600082015181600001556020820151816001015560408201518160020160006101000a81548173ffffffffffffffffffffffffffffffffffffffff021916908373ffffffffffffffffffffffffffffffffffffffff160217905550905050600560003373ffffffffffffffffffffffffffffffffffffffff1673ffffffffffffffffffffffffffffffffffffffff168152602001908152602001600020819080600181540180825580915050600190039060005260206000209060030201600090919091909150600082015181600001556020820151816001015560408201518160020160006101000a81548173ffffffffffffffffffffffffffffffffffffffff021916908373ffffffffffffffffffffffffffffffffffffffff16021790555050508160010154847f519e942ac24eada72094b97d4a6090a1aacd08cbca42cd9bb9788f7a93a6a16160405160405180910390a381600101600081548092919061094590610e13565b919050555050505050565b6006602052816000526040600020818154811061096c57600080fd5b9060005260206000209060060201600091509150508060000160009054906101000a900473ffffffffffffffffffffffffffffffffffffffff16908060010154908060020154908060050154905084565b60003390508173ffffffffffffffffffffffffffffffffffffffff166108fc849081150290604051600060405180830381858888f19350505050158015610a08573d6000803e3d6000fd5b508073ffffffffffffffffffffffffffffffffffffffff167f15ca64a4ed482fa8131e95742689fa003e0d28703344365cf367315c7c5bc9628484604051610a51929190610f0f565b60405180910390a2505050565b60035481565b60025481565b60015481565b600060046000838152602001908152602001600020600201549050919050565b600080fd5b600073ffffffffffffffffffffffffffffffffffffffff82169050919050565b6000610ac082610a95565b9050919050565b610ad081610ab5565b8114610adb57600080fd5b50565b600081359050610aed81610ac7565b92915050565b6000819050919050565b610b0681610af3565b8114610b1157600080fd5b50565b600081359050610b2381610afd565b92915050565b60008060408385031215610b4057610b3f610a90565b5b6000610b4e85828601610ade565b9250506020610b5f85828601610b14565b9150509250929050565b610b7281610af3565b82525050565b6000610b8382610a95565b9050919050565b610b9381610b78565b82525050565b6000606082019050610bae6000830186610b69565b610bbb6020830185610b69565b610bc86040830184610b8a565b949350505050565b60008060408385031215610be757610be6610a90565b5b6000610bf585828601610b14565b9250506020610c0685828601610b14565b9150509250929050565b600060208284031215610c2657610c25610a90565b5b6000610c3484828501610b14565b91505092915050565b6000608082019050610c526000830187610b8a565b610c5f6020830186610b69565b610c6c6040830185610b69565b610c796060830184610b69565b95945050505050565b60008115159050919050565b610c9781610c82565b82525050565b6000602082019050610cb26000830184610c8e565b92915050565b610cc181610b78565b8114610ccc57600080fd5b50565b600081359050610cde81610cb8565b92915050565b60008060408385031215610cfb57610cfa610a90565b5b6000610d0985828601610b14565b9250506020610d1a85828601610ccf565b9150509250929050565b6000602082019050610d396000830184610b69565b92915050565b610d4881610ab5565b82525050565b6000819050919050565b6000610d73610d6e610d6984610a95565b610d4e565b610a95565b9050919050565b6000610d8582610d58565b9050919050565b6000610d9782610d7a565b9050919050565b610da781610d8c565b82525050565b6000606082019050610dc26000830186610d3f565b610dcf6020830185610d9e565b610ddc6040830184610b69565b949350505050565b7f4e487b7100000000000000000000000000000000000000000000000000000000600052601160045260246000fd5b6000610e1e82610af3565b91507fffffffffffffffffffffffffffffffffffffffffffffffffffffffffffffffff8203610e5057610e4f610de4565b5b600182019050919050565b600082825260208201905092915050565b7f596f7520646f6e2774206861766520746865207469636b657400000000000000600082015250565b6000610ea2601983610e5b565b9150610ead82610e6c565b602082019050919050565b60006020820190508181036000830152610ed181610e95565b9050919050565b6000606082019050610eed6000830186610d3f565b610efa6020830185610b69565b610f076040830184610b69565b949350505050565b6000604082019050610f246000830185610b69565b610f316020830184610d9e565b939250505056fea264697066735822122074dbd7207eca79b8795ea4952972d6b23274d1e5d76f4c5da16c06d3c25e0bb564736f6c63430008130033",
  "immutableReferences": {},
  "source": "// SPDX-License-Identifier: MIT\npragma solidity ^0.8.13;\n\ncontract Ticketing {\n    address payable owner; //   \n    uint public showIndex = 1; //  id 1 \n    uint public userIndex; \n    uint public sellingQueueIndex;\n\n    mapping(uint => Show) public shows; //   \n    mapping(address => Ticket[]) public myTicket; // \n    mapping(address => Show[]) public myShow; //  \n\n    constructor() payable {\n        owner = payable(msg.sender);\n        createShow(40000000000000000);   // 88000\n        createShow(40000000000000000);    \n        createShow(50000000000000000);  //  11 \n        createShow(50000000000000000);\n        createShow(60000000000000000);  //  13 \n    }\n\n    struct Ticket {\n        uint showId;\n        uint ticketId;\n        address payable owner;\n    }\n\n    struct Show {\n        address payable owner; //  \n        uint ticketIndex;\n        uint ticketPrice;\n        mapping(uint => Ticket) tickets; // ticket \n        mapping(uint => Ticket) sellingQueue; //   \n        uint sellingQueueIndex;\n    }\n\n    event ISSUE_TICKET(uint indexed _showId, uint indexed _ticketId);\n\n    /// @notice   \n    event TRANSFER (address indexed sender, uint value, address receiver);\n\n    /// @notice    \n    event RESELL(address _owner, uint _showId, uint _ticketId);\n\n    /// @notice    \n    event BUY_TICKET(address from, address to, uint _ticketPrice);\n\n    function getTicketPrice (uint _showid) public view returns (uint ticketPrice){\n        return shows[_showid].ticketPrice;\n    }\n\n    /// @notice \n    function transferETH (uint _ticketPrice, address payable receiver) public payable{\n        address sender = msg.sender;\n        receiver.transfer(_ticketPrice);\n        // receiver.transfer(msg.value);\n        emit TRANSFER(sender, _ticketPrice, receiver);\n    }\n\n    /// @notice  \n    function createShow(uint _ticketPrice) public returns (bool sufficient){\n        Show storage s = shows[showIndex];\n        //        \n        s.owner = payable(msg.sender);\n        s.ticketIndex = 0;\n        s.sellingQueueIndex = 0;\n        s.ticketPrice = _ticketPrice;\n        showIndex++;\n        return true;\n    }\n\n     /// @notice       \n    function issueTicket(uint _showId, address payable _ticketOwner) public payable{\n        Show storage s = shows[_showId];\n        Ticket memory t = Ticket({\n            showId: _showId,\n            ticketId: s.ticketIndex,\n            owner: _ticketOwner\n        });\n        transferETH(msg.value, s.owner); //   \n        // transferETH(s.ticketPrice, s.owner);\n\n        s.tickets[s.ticketIndex] = t;\n        myTicket[msg.sender].push(t);\n\n        emit ISSUE_TICKET(_showId, s.ticketIndex);\n        s.ticketIndex++;\n    }\n\n    /// @notice   (or )  \n    function resellTicket(uint _showId, uint _ticketId) public {\n        Show storage s = shows[_showId];\n\n        //    \n        require(\n            msg.sender == s.tickets[_ticketId].owner,\n            \"You don't have the ticket\"\n        );\n\n        //    =>       \n        s.sellingQueue[s.sellingQueueIndex] = s.tickets[_ticketId];\n        s.sellingQueueIndex++;\n\n        emit RESELL(msg.sender, _showId, _ticketId);\n    }\n\n    /// @notice    \n    function buyTicket(uint _showId, uint _sellingQueueIndex) public payable {\n        Show storage s = shows[_showId];\n        Ticket memory t = s.sellingQueue[_sellingQueueIndex];\n        \n        address payable seller = t.owner;\n\n        // require(msg.value == s.ticketPrice, \"Not enough ETH!\");\n        //     require();\n\n        //  \n        transferETH(msg.value, seller);\n        emit BUY_TICKET(msg.sender, seller, msg.value);\n        delete s.sellingQueue[_sellingQueueIndex];\n    }\n\n}\n",
  "sourcePath": "/Users/munjeongmin/Repos/Ttime/contracts/Ticketing.sol",
  "compiler": {
    "name": "solc",
    "version": "0.8.19+commit.7dd6d404.Emscripten.clang"
  },
  "schemaVersion": "3.4.13",
  "updatedAt": "2023-06-15T02:53:27.409Z",
  "networkType": "ethereum",
  "devdoc": {
    "kind": "dev",
    "methods": {},
    "version": 1
  },
  "userdoc": {
    "events": {
      "BUY_TICKET(address,address,uint256)": {
        "notice": "   "
      },
      "RESELL(address,uint256,uint256)": {
        "notice": "   "
      },
      "TRANSFER(address,uint256,address)": {
        "notice": "  "
      }
    },
    "kind": "user",
    "methods": {
      "buyTicket(uint256,uint256)": {
        "notice": "   "
      },
      "createShow(uint256)": {
        "notice": " "
      },
      "issueTicket(uint256,address)": {
        "notice": "      "
      },
      "resellTicket(uint256,uint256)": {
        "notice": "  (or )  "
      },
      "transferETH(uint256,address)": {
        "notice": ""
      }
    },
    "version": 1
  }
}