{
  "contractName": "Ticketing",
  "abi": [
    {
      "inputs": [],
      "stateMutability": "payable",
      "type": "constructor",
      "payable": true
    },
    {
      "anonymous": false,
      "inputs": [
        {
          "indexed": false,
          "internalType": "address",
          "name": "from",
          "type": "address"
        },
        {
          "indexed": false,
          "internalType": "address",
          "name": "to",
          "type": "address"
        },
        {
          "indexed": false,
          "internalType": "uint256",
          "name": "_ticketPrice",
          "type": "uint256"
        }
      ],
      "name": "BUY_TICKET",
      "type": "event"
    },
    {
      "anonymous": false,
      "inputs": [
        {
          "indexed": false,
          "internalType": "uint256",
          "name": "_showId",
          "type": "uint256"
        },
        {
          "indexed": false,
          "internalType": "uint256",
          "name": "_ticketId",
          "type": "uint256"
        }
      ],
      "name": "ISSUE_TICKET",
      "type": "event"
    },
    {
      "anonymous": false,
      "inputs": [
        {
          "indexed": false,
          "internalType": "address",
          "name": "_owner",
          "type": "address"
        },
        {
          "indexed": false,
          "internalType": "uint256",
          "name": "_showId",
          "type": "uint256"
        },
        {
          "indexed": false,
          "internalType": "uint256",
          "name": "_ticketId",
          "type": "uint256"
        }
      ],
      "name": "RESELL",
      "type": "event"
    },
    {
      "anonymous": false,
      "inputs": [
        {
          "indexed": true,
          "internalType": "address",
          "name": "sender",
          "type": "address"
        },
        {
          "indexed": false,
          "internalType": "uint256",
          "name": "value",
          "type": "uint256"
        },
        {
          "indexed": false,
          "internalType": "address",
          "name": "receiver",
          "type": "address"
        }
      ],
      "name": "TRANSFER",
      "type": "event"
    },
    {
      "inputs": [
        {
          "internalType": "address",
          "name": "",
          "type": "address"
        },
        {
          "internalType": "uint256",
          "name": "",
          "type": "uint256"
        }
      ],
      "name": "myShow",
      "outputs": [
        {
          "internalType": "address payable",
          "name": "owner",
          "type": "address"
        },
        {
          "internalType": "uint256",
          "name": "ticketIndex",
          "type": "uint256"
        },
        {
          "internalType": "uint256",
          "name": "ticketPrice",
          "type": "uint256"
        },
        {
          "internalType": "uint256",
          "name": "sellingQueueIndex",
          "type": "uint256"
        }
      ],
      "stateMutability": "view",
      "type": "function",
      "constant": true
    },
    {
      "inputs": [
        {
          "internalType": "address",
          "name": "",
          "type": "address"
        },
        {
          "internalType": "uint256",
          "name": "",
          "type": "uint256"
        }
      ],
      "name": "myTicket",
      "outputs": [
        {
          "internalType": "uint256",
          "name": "showId",
          "type": "uint256"
        },
        {
          "internalType": "uint256",
          "name": "ticketId",
          "type": "uint256"
        },
        {
          "internalType": "address payable",
          "name": "owner",
          "type": "address"
        }
      ],
      "stateMutability": "view",
      "type": "function",
      "constant": true
    },
    {
      "inputs": [],
      "name": "sellingQueueIndex",
      "outputs": [
        {
          "internalType": "uint256",
          "name": "",
          "type": "uint256"
        }
      ],
      "stateMutability": "view",
      "type": "function",
      "constant": true
    },
    {
      "inputs": [],
      "name": "showIndex",
      "outputs": [
        {
          "internalType": "uint256",
          "name": "",
          "type": "uint256"
        }
      ],
      "stateMutability": "view",
      "type": "function",
      "constant": true
    },
    {
      "inputs": [
        {
          "internalType": "uint256",
          "name": "",
          "type": "uint256"
        }
      ],
      "name": "shows",
      "outputs": [
        {
          "internalType": "address payable",
          "name": "owner",
          "type": "address"
        },
        {
          "internalType": "uint256",
          "name": "ticketIndex",
          "type": "uint256"
        },
        {
          "internalType": "uint256",
          "name": "ticketPrice",
          "type": "uint256"
        },
        {
          "internalType": "uint256",
          "name": "sellingQueueIndex",
          "type": "uint256"
        }
      ],
      "stateMutability": "view",
      "type": "function",
      "constant": true
    },
    {
      "inputs": [],
      "name": "userIndex",
      "outputs": [
        {
          "internalType": "uint256",
          "name": "",
          "type": "uint256"
        }
      ],
      "stateMutability": "view",
      "type": "function",
      "constant": true
    },
    {
      "inputs": [
        {
          "internalType": "uint256",
          "name": "_showid",
          "type": "uint256"
        }
      ],
      "name": "getTicketPrice",
      "outputs": [
        {
          "internalType": "uint256",
          "name": "ticketPrice",
          "type": "uint256"
        }
      ],
      "stateMutability": "view",
      "type": "function",
      "constant": true
    },
    {
      "inputs": [
        {
          "internalType": "uint256",
          "name": "_ticketPrice",
          "type": "uint256"
        },
        {
          "internalType": "address payable",
          "name": "receiver",
          "type": "address"
        }
      ],
      "name": "transferETH",
      "outputs": [],
      "stateMutability": "payable",
      "type": "function",
      "payable": true
    },
    {
      "inputs": [
        {
          "internalType": "uint256",
          "name": "_ticketPrice",
          "type": "uint256"
        }
      ],
      "name": "createShow",
      "outputs": [
        {
          "internalType": "bool",
          "name": "sufficient",
          "type": "bool"
        }
      ],
      "stateMutability": "nonpayable",
      "type": "function"
    },
    {
      "inputs": [
        {
          "internalType": "uint256",
          "name": "_showId",
          "type": "uint256"
        },
        {
          "internalType": "address payable",
          "name": "_ticketOwner",
          "type": "address"
        }
      ],
      "name": "issueTicket",
      "outputs": [],
      "stateMutability": "payable",
      "type": "function",
      "payable": true
    },
    {
      "inputs": [
        {
          "internalType": "uint256",
          "name": "_showId",
          "type": "uint256"
        },
        {
          "internalType": "uint256",
          "name": "_ticketId",
          "type": "uint256"
        }
      ],
      "name": "resellTicket",
      "outputs": [],
      "stateMutability": "nonpayable",
      "type": "function"
    },
    {
      "inputs": [
        {
          "internalType": "uint256",
          "name": "_showId",
          "type": "uint256"
        },
        {
          "internalType": "uint256",
          "name": "_sellingQueueIndex",
          "type": "uint256"
        }
      ],
      "name": "buyTicket",
      "outputs": [],
      "stateMutability": "payable",
      "type": "function",
      "payable": true
    }
  ],
  "bytecode": "0x608060405260018055336000806101000a81548173ffffffffffffffffffffffffffffffffffffffff021916908373ffffffffffffffffffffffffffffffffffffffff160217905550610fa2806100576000396000f3fe6080604052600436106100a75760003560e01c80634715d22b116100645780634715d22b146101c95780636e07c47014610209578063753f225914610225578063ab70120714610250578063cb286d2a1461027b578063f06fc961146102a6576100a7565b806310ca2539146100ac578063298ec208146100eb57806330f0931e146101075780633478ac2b14610147578063348e9913146101845780633b99f185146101ad575b600080fd5b3480156100b857600080fd5b506100d360048036038101906100ce9190610b34565b6102e3565b6040516100e293929190610ba4565b60405180910390f35b61010560048036038101906101009190610bdb565b61034a565b005b34801561011357600080fd5b5061012e60048036038101906101299190610c1b565b610493565b60405161013e9493929190610c48565b60405180910390f35b34801561015357600080fd5b5061016e60048036038101906101699190610c1b565b6104e3565b60405161017b9190610ca8565b60405180910390f35b34801561019057600080fd5b506101ab60048036038101906101a69190610bdb565b61057f565b005b6101c760048036038101906101c29190610cef565b610742565b005b3480156101d557600080fd5b506101f060048036038101906101eb9190610b34565b61095b565b6040516102009493929190610c48565b60405180910390f35b610223600480360381019061021e9190610cef565b6109c8565b005b34801561023157600080fd5b5061023a610a69565b6040516102479190610d2f565b60405180910390f35b34801561025c57600080fd5b50610265610a6f565b6040516102729190610d2f565b60405180910390f35b34801561028757600080fd5b50610290610a75565b60405161029d9190610d2f565b60405180910390f35b3480156102b257600080fd5b506102cd60048036038101906102c89190610c1b565b610a7b565b6040516102da9190610d2f565b60405180910390f35b600560205281600052604060002081815481106102ff57600080fd5b9060005260206000209060030201600091509150508060000154908060010154908060020160009054906101000a900473ffffffffffffffffffffffffffffffffffffffff16905083565b6000600460008481526020019081526020016000209050600081600401600084815260200190815260200160002060405180606001604052908160008201548152602001600182015481526020016002820160009054906101000a900473ffffffffffffffffffffffffffffffffffffffff1673ffffffffffffffffffffffffffffffffffffffff1673ffffffffffffffffffffffffffffffffffffffff1681525050905060008160400151905061040234826109c8565b7f31b918c4d31b15fc1fa60f65740b9e976d33435bb9347d54a744b2992b1db1ce33823460405161043593929190610db8565b60405180910390a182600401600085815260200190815260200160002060008082016000905560018201600090556002820160006101000a81549073ffffffffffffffffffffffffffffffffffffffff021916905550505050505050565b60046020528060005260406000206000915090508060000160009054906101000a900473ffffffffffffffffffffffffffffffffffffffff16908060010154908060020154908060050154905084565b6000806004600060015481526020019081526020016000209050338160000160006101000a81548173ffffffffffffffffffffffffffffffffffffffff021916908373ffffffffffffffffffffffffffffffffffffffff16021790555060008160010181905550600081600501819055508281600201819055506001600081548092919061057090610e1e565b91905055506001915050919050565b600060046000848152602001908152602001600020905080600301600083815260200190815260200160002060020160009054906101000a900473ffffffffffffffffffffffffffffffffffffffff1673ffffffffffffffffffffffffffffffffffffffff163373ffffffffffffffffffffffffffffffffffffffff161461063c576040517f08c379a000000000000000000000000000000000000000000000000000000000815260040161063390610ec3565b60405180910390fd5b8060030160008381526020019081526020016000208160040160008360050154815260200190815260200160002060008201548160000155600182015481600101556002820160009054906101000a900473ffffffffffffffffffffffffffffffffffffffff168160020160006101000a81548173ffffffffffffffffffffffffffffffffffffffff021916908373ffffffffffffffffffffffffffffffffffffffff1602179055509050508060050160008154809291906106fd90610e1e565b91905055507fd6b8a8000f3b6b1d7b1b42a8e2508946bee055c5a1f21b18d4ac22090eca8f7833848460405161073593929190610ee3565b60405180910390a1505050565b600060046000848152602001908152602001600020905060006040518060600160405280858152602001836001015481526020018473ffffffffffffffffffffffffffffffffffffffff1681525090506107c0348360000160009054906101000a900473ffffffffffffffffffffffffffffffffffffffff166109c8565b8082600301600084600101548152602001908152602001600020600082015181600001556020820151816001015560408201518160020160006101000a81548173ffffffffffffffffffffffffffffffffffffffff021916908373ffffffffffffffffffffffffffffffffffffffff160217905550905050600560003373ffffffffffffffffffffffffffffffffffffffff1673ffffffffffffffffffffffffffffffffffffffff168152602001908152602001600020819080600181540180825580915050600190039060005260206000209060030201600090919091909150600082015181600001556020820151816001015560408201518160020160006101000a81548173ffffffffffffffffffffffffffffffffffffffff021916908373ffffffffffffffffffffffffffffffffffffffff16021790555050507f519e942ac24eada72094b97d4a6090a1aacd08cbca42cd9bb9788f7a93a6a161848360010154604051610933929190610f1a565b60405180910390a181600101600081548092919061095090610e1e565b919050555050505050565b6006602052816000526040600020818154811061097757600080fd5b9060005260206000209060060201600091509150508060000160009054906101000a900473ffffffffffffffffffffffffffffffffffffffff16908060010154908060020154908060050154905084565b60003390508173ffffffffffffffffffffffffffffffffffffffff166108fc849081150290604051600060405180830381858888f19350505050158015610a13573d6000803e3d6000fd5b508073ffffffffffffffffffffffffffffffffffffffff167f15ca64a4ed482fa8131e95742689fa003e0d28703344365cf367315c7c5bc9628484604051610a5c929190610f43565b60405180910390a2505050565b60035481565b60025481565b60015481565b600060046000838152602001908152602001600020600201549050919050565b600080fd5b600073ffffffffffffffffffffffffffffffffffffffff82169050919050565b6000610acb82610aa0565b9050919050565b610adb81610ac0565b8114610ae657600080fd5b50565b600081359050610af881610ad2565b92915050565b6000819050919050565b610b1181610afe565b8114610b1c57600080fd5b50565b600081359050610b2e81610b08565b92915050565b60008060408385031215610b4b57610b4a610a9b565b5b6000610b5985828601610ae9565b9250506020610b6a85828601610b1f565b9150509250929050565b610b7d81610afe565b82525050565b6000610b8e82610aa0565b9050919050565b610b9e81610b83565b82525050565b6000606082019050610bb96000830186610b74565b610bc66020830185610b74565b610bd36040830184610b95565b949350505050565b60008060408385031215610bf257610bf1610a9b565b5b6000610c0085828601610b1f565b9250506020610c1185828601610b1f565b9150509250929050565b600060208284031215610c3157610c30610a9b565b5b6000610c3f84828501610b1f565b91505092915050565b6000608082019050610c5d6000830187610b95565b610c6a6020830186610b74565b610c776040830185610b74565b610c846060830184610b74565b95945050505050565b60008115159050919050565b610ca281610c8d565b82525050565b6000602082019050610cbd6000830184610c99565b92915050565b610ccc81610b83565b8114610cd757600080fd5b50565b600081359050610ce981610cc3565b92915050565b60008060408385031215610d0657610d05610a9b565b5b6000610d1485828601610b1f565b9250506020610d2585828601610cda565b9150509250929050565b6000602082019050610d446000830184610b74565b92915050565b610d5381610ac0565b82525050565b6000819050919050565b6000610d7e610d79610d7484610aa0565b610d59565b610aa0565b9050919050565b6000610d9082610d63565b9050919050565b6000610da282610d85565b9050919050565b610db281610d97565b82525050565b6000606082019050610dcd6000830186610d4a565b610dda6020830185610da9565b610de76040830184610b74565b949350505050565b7f4e487b7100000000000000000000000000000000000000000000000000000000600052601160045260246000fd5b6000610e2982610afe565b91507fffffffffffffffffffffffffffffffffffffffffffffffffffffffffffffffff8203610e5b57610e5a610def565b5b600182019050919050565b600082825260208201905092915050565b7f596f7520646f6e2774206861766520746865207469636b657400000000000000600082015250565b6000610ead601983610e66565b9150610eb882610e77565b602082019050919050565b60006020820190508181036000830152610edc81610ea0565b9050919050565b6000606082019050610ef86000830186610d4a565b610f056020830185610b74565b610f126040830184610b74565b949350505050565b6000604082019050610f2f6000830185610b74565b610f3c6020830184610b74565b9392505050565b6000604082019050610f586000830185610b74565b610f656020830184610da9565b939250505056fea264697066735822122042fde669468ce4d2329ab8e3b6137a842ec0f2fed5a1c350d18c56938e32939364736f6c63430008130033",
  "immutableReferences": {},
  "source": "// SPDX-License-Identifier: MIT\r\npragma solidity ^0.8.13;\r\n\r\ncontract Ticketing {\r\n    address payable owner; //   \r\n    uint public showIndex = 1; //  id 1 \r\n    uint public userIndex; \r\n    uint public sellingQueueIndex;\r\n\r\n    mapping(uint => Show) public shows; //   \r\n    mapping(address => Ticket[]) public myTicket; // \r\n    mapping(address => Show[]) public myShow; //  \r\n\r\n    constructor() payable {\r\n        owner = payable(msg.sender);\r\n    }\r\n\r\n    struct Ticket {\r\n        uint showId;\r\n        uint ticketId;\r\n        address payable owner;\r\n    }\r\n\r\n    struct Show {\r\n        address payable owner; //  \r\n        uint ticketIndex;\r\n        uint ticketPrice;\r\n        mapping(uint => Ticket) tickets; // ticket \r\n        mapping(uint => Ticket) sellingQueue; //   \r\n        uint sellingQueueIndex;\r\n    }\r\n\r\n    event ISSUE_TICKET(uint _showId, uint _ticketId);\r\n\r\n    /// @notice   \r\n    event TRANSFER (address indexed sender, uint value, address receiver);\r\n\r\n    /// @notice    \r\n    event RESELL(address _owner, uint _showId, uint _ticketId);\r\n\r\n    /// @notice    \r\n    event BUY_TICKET(address from, address to, uint _ticketPrice);\r\n\r\n    function getTicketPrice (uint _showid) public view returns (uint ticketPrice){\r\n        return shows[_showid].ticketPrice;\r\n    }\r\n\r\n    /// @notice \r\n    function transferETH (uint _ticketPrice, address payable receiver) public payable{\r\n        address sender = msg.sender;\r\n        receiver.transfer(_ticketPrice);\r\n        // receiver.transfer(msg.value);\r\n        emit TRANSFER(sender, _ticketPrice, receiver);\r\n    }\r\n\r\n    /// @notice  \r\n    function createShow(uint _ticketPrice) public returns (bool sufficient){\r\n        Show storage s = shows[showIndex];\r\n        //        \r\n        s.owner = payable(msg.sender);\r\n        s.ticketIndex = 0;\r\n        s.sellingQueueIndex = 0;\r\n        s.ticketPrice = _ticketPrice;\r\n        showIndex++;\r\n        return true;\r\n    }\r\n\r\n     /// @notice       \r\n    function issueTicket(uint _showId, address payable _ticketOwner) public payable{\r\n        Show storage s = shows[_showId];\r\n        Ticket memory t = Ticket({\r\n            showId: _showId,\r\n            ticketId: s.ticketIndex,\r\n            owner: _ticketOwner\r\n        });\r\n        transferETH(msg.value, s.owner); //   \r\n        // transferETH(s.ticketPrice, s.owner);\r\n\r\n        s.tickets[s.ticketIndex] = t;\r\n        myTicket[msg.sender].push(t);\r\n\r\n        emit ISSUE_TICKET(_showId, s.ticketIndex);\r\n        s.ticketIndex++;\r\n    }\r\n\r\n    /// @notice   (or )  \r\n    function resellTicket(uint _showId, uint _ticketId) public {\r\n        Show storage s = shows[_showId];\r\n\r\n        //    \r\n        require(\r\n            msg.sender == s.tickets[_ticketId].owner,\r\n            \"You don't have the ticket\"\r\n        );\r\n\r\n        //    =>       \r\n        s.sellingQueue[s.sellingQueueIndex] = s.tickets[_ticketId];\r\n        s.sellingQueueIndex++;\r\n\r\n        emit RESELL(msg.sender, _showId, _ticketId);\r\n    }\r\n\r\n    /// @notice    \r\n    function buyTicket(uint _showId, uint _sellingQueueIndex) public payable {\r\n        Show storage s = shows[_showId];\r\n        Ticket memory t = s.sellingQueue[_sellingQueueIndex];\r\n        \r\n        address payable seller = t.owner;\r\n\r\n        // require(msg.value == s.ticketPrice, \"Not enough ETH!\");\r\n        //     require();\r\n\r\n        //  \r\n        transferETH(msg.value, seller);\r\n        emit BUY_TICKET(msg.sender, seller, msg.value);\r\n        delete s.sellingQueue[_sellingQueueIndex];\r\n    }\r\n\r\n}\r\n",
  "sourcePath": "C:\\Repos\\gitTtime\\Ttime\\contracts\\Ticketing.sol",
  "compiler": {
    "name": "solc",
    "version": "0.8.19+commit.7dd6d404.Emscripten.clang"
  },
  "schemaVersion": "3.4.13",
  "updatedAt": "2023-06-14T12:11:02.684Z",
  "networkType": "ethereum",
  "devdoc": {
    "kind": "dev",
    "methods": {},
    "version": 1
  },
  "userdoc": {
    "events": {
      "BUY_TICKET(address,address,uint256)": {
        "notice": "   "
      },
      "RESELL(address,uint256,uint256)": {
        "notice": "   "
      },
      "TRANSFER(address,uint256,address)": {
        "notice": "  "
      }
    },
    "kind": "user",
    "methods": {
      "buyTicket(uint256,uint256)": {
        "notice": "   "
      },
      "createShow(uint256)": {
        "notice": " "
      },
      "issueTicket(uint256,address)": {
        "notice": "      "
      },
      "resellTicket(uint256,uint256)": {
        "notice": "  (or )  "
      },
      "transferETH(uint256,address)": {
        "notice": ""
      }
    },
    "version": 1
  }
}