{
  "contractName": "Ticketing",
  "abi": [
    {
      "inputs": [],
      "stateMutability": "payable",
      "type": "constructor",
      "payable": true
    },
    {
      "anonymous": false,
      "inputs": [
        {
          "indexed": false,
          "internalType": "address",
          "name": "from",
          "type": "address"
        },
        {
          "indexed": false,
          "internalType": "address",
          "name": "to",
          "type": "address"
        },
        {
          "indexed": false,
          "internalType": "uint256",
          "name": "_ticketPrice",
          "type": "uint256"
        }
      ],
      "name": "BUY_TICKET",
      "type": "event"
    },
    {
      "anonymous": false,
      "inputs": [
        {
          "indexed": true,
          "internalType": "uint256",
          "name": "_showId",
          "type": "uint256"
        },
        {
          "indexed": true,
          "internalType": "uint256",
          "name": "_ticketId",
          "type": "uint256"
        }
      ],
      "name": "ISSUE_TICKET",
      "type": "event"
    },
    {
      "anonymous": false,
      "inputs": [
        {
          "indexed": false,
          "internalType": "address",
          "name": "_owner",
          "type": "address"
        },
        {
          "indexed": false,
          "internalType": "uint256",
          "name": "_showId",
          "type": "uint256"
        },
        {
          "indexed": false,
          "internalType": "uint256",
          "name": "_ticketId",
          "type": "uint256"
        }
      ],
      "name": "RESELL",
      "type": "event"
    },
    {
      "anonymous": false,
      "inputs": [
        {
          "indexed": true,
          "internalType": "address",
          "name": "sender",
          "type": "address"
        },
        {
          "indexed": false,
          "internalType": "uint256",
          "name": "value",
          "type": "uint256"
        },
        {
          "indexed": false,
          "internalType": "address",
          "name": "receiver",
          "type": "address"
        }
      ],
      "name": "TRANSFER",
      "type": "event"
    },
    {
      "inputs": [
        {
          "internalType": "address",
          "name": "",
          "type": "address"
        },
        {
          "internalType": "uint256",
          "name": "",
          "type": "uint256"
        }
      ],
      "name": "myShow",
      "outputs": [
        {
          "internalType": "address payable",
          "name": "owner",
          "type": "address"
        },
        {
          "internalType": "uint256",
          "name": "ticketIndex",
          "type": "uint256"
        },
        {
          "internalType": "uint256",
          "name": "ticketPrice",
          "type": "uint256"
        },
        {
          "internalType": "uint256",
          "name": "sellingQueueHead",
          "type": "uint256"
        },
        {
          "internalType": "uint256",
          "name": "sellingQueueTail",
          "type": "uint256"
        }
      ],
      "stateMutability": "view",
      "type": "function",
      "constant": true
    },
    {
      "inputs": [
        {
          "internalType": "address",
          "name": "",
          "type": "address"
        },
        {
          "internalType": "uint256",
          "name": "",
          "type": "uint256"
        }
      ],
      "name": "myTicket",
      "outputs": [
        {
          "internalType": "uint256",
          "name": "showId",
          "type": "uint256"
        },
        {
          "internalType": "uint256",
          "name": "ticketId",
          "type": "uint256"
        },
        {
          "internalType": "address payable",
          "name": "owner",
          "type": "address"
        }
      ],
      "stateMutability": "view",
      "type": "function",
      "constant": true
    },
    {
      "inputs": [],
      "name": "showIndex",
      "outputs": [
        {
          "internalType": "uint256",
          "name": "",
          "type": "uint256"
        }
      ],
      "stateMutability": "view",
      "type": "function",
      "constant": true
    },
    {
      "inputs": [
        {
          "internalType": "uint256",
          "name": "",
          "type": "uint256"
        }
      ],
      "name": "shows",
      "outputs": [
        {
          "internalType": "address payable",
          "name": "owner",
          "type": "address"
        },
        {
          "internalType": "uint256",
          "name": "ticketIndex",
          "type": "uint256"
        },
        {
          "internalType": "uint256",
          "name": "ticketPrice",
          "type": "uint256"
        },
        {
          "internalType": "uint256",
          "name": "sellingQueueHead",
          "type": "uint256"
        },
        {
          "internalType": "uint256",
          "name": "sellingQueueTail",
          "type": "uint256"
        }
      ],
      "stateMutability": "view",
      "type": "function",
      "constant": true
    },
    {
      "inputs": [],
      "name": "userIndex",
      "outputs": [
        {
          "internalType": "uint256",
          "name": "",
          "type": "uint256"
        }
      ],
      "stateMutability": "view",
      "type": "function",
      "constant": true
    },
    {
      "inputs": [
        {
          "internalType": "uint256",
          "name": "_showid",
          "type": "uint256"
        }
      ],
      "name": "getTicketPrice",
      "outputs": [
        {
          "internalType": "uint256",
          "name": "ticketPrice",
          "type": "uint256"
        }
      ],
      "stateMutability": "view",
      "type": "function",
      "constant": true
    },
    {
      "inputs": [
        {
          "internalType": "address",
          "name": "userAddr",
          "type": "address"
        }
      ],
      "name": "getMyTicket",
      "outputs": [
        {
          "components": [
            {
              "internalType": "uint256",
              "name": "showId",
              "type": "uint256"
            },
            {
              "internalType": "uint256",
              "name": "ticketId",
              "type": "uint256"
            },
            {
              "internalType": "address payable",
              "name": "owner",
              "type": "address"
            }
          ],
          "internalType": "struct Ticketing.Ticket[]",
          "name": "",
          "type": "tuple[]"
        }
      ],
      "stateMutability": "view",
      "type": "function",
      "constant": true
    },
    {
      "inputs": [
        {
          "internalType": "uint256",
          "name": "_showid",
          "type": "uint256"
        }
      ],
      "name": "getResellTicket",
      "outputs": [
        {
          "components": [
            {
              "internalType": "uint256",
              "name": "showId",
              "type": "uint256"
            },
            {
              "internalType": "uint256",
              "name": "ticketId",
              "type": "uint256"
            },
            {
              "internalType": "address payable",
              "name": "owner",
              "type": "address"
            }
          ],
          "internalType": "struct Ticketing.Ticket[]",
          "name": "",
          "type": "tuple[]"
        }
      ],
      "stateMutability": "view",
      "type": "function",
      "constant": true
    },
    {
      "inputs": [
        {
          "internalType": "uint256",
          "name": "_ticketPrice",
          "type": "uint256"
        },
        {
          "internalType": "address payable",
          "name": "receiver",
          "type": "address"
        }
      ],
      "name": "transferWei",
      "outputs": [],
      "stateMutability": "payable",
      "type": "function",
      "payable": true
    },
    {
      "inputs": [
        {
          "internalType": "uint256",
          "name": "_ticketPrice",
          "type": "uint256"
        },
        {
          "internalType": "address",
          "name": "_showOwner",
          "type": "address"
        }
      ],
      "name": "createShow",
      "outputs": [
        {
          "internalType": "bool",
          "name": "sufficient",
          "type": "bool"
        }
      ],
      "stateMutability": "nonpayable",
      "type": "function"
    },
    {
      "inputs": [
        {
          "internalType": "uint256",
          "name": "_showId",
          "type": "uint256"
        },
        {
          "internalType": "address payable",
          "name": "_ticketOwner",
          "type": "address"
        }
      ],
      "name": "issueTicket",
      "outputs": [],
      "stateMutability": "payable",
      "type": "function",
      "payable": true
    },
    {
      "inputs": [
        {
          "internalType": "uint256",
          "name": "_showId",
          "type": "uint256"
        },
        {
          "internalType": "uint256",
          "name": "_ticketId",
          "type": "uint256"
        }
      ],
      "name": "resellTicket",
      "outputs": [],
      "stateMutability": "nonpayable",
      "type": "function"
    },
    {
      "inputs": [
        {
          "internalType": "uint256",
          "name": "_showId",
          "type": "uint256"
        },
        {
          "internalType": "uint256",
          "name": "_sellingQueueIndex",
          "type": "uint256"
        }
      ],
      "name": "buyTicket",
      "outputs": [],
      "stateMutability": "payable",
      "type": "function",
      "payable": true
    }
  ],
  "bytecode": "0x608060405260018055336000806101000a81548173ffffffffffffffffffffffffffffffffffffffff021916908373ffffffffffffffffffffffffffffffffffffffff16021790555062000075668e1bc9bf0400007382b162f01a49d96999e7563949cc738a4928e7ef6200013c60201b60201c565b50620000a3668e1bc9bf0400007382b162f01a49d96999e7563949cc738a4928e7ef6200013c60201b60201c565b50620000d166b1a2bc2ec50000735053f90d21c8e15471c30cb3c065a230e1baeb096200013c60201b60201c565b50620000ff66b1a2bc2ec50000735053f90d21c8e15471c30cb3c065a230e1baeb096200013c60201b60201c565b506200012d66d529ae9e8600007343432190d425f0bcee18f3c0e011d334a8a5f8936200013c60201b60201c565b5060066001819055506200026b565b6000806003600060015481526020019081526020016000209050828160000160006101000a81548173ffffffffffffffffffffffffffffffffffffffff021916908373ffffffffffffffffffffffffffffffffffffffff16021790555060018160010181905550600081600501819055506000816006018190555083816002018190555060016000815480929190620001d5906200021e565b9190505550600191505092915050565b7f4e487b7100000000000000000000000000000000000000000000000000000000600052601160045260246000fd5b6000819050919050565b60006200022b8262000214565b91507fffffffffffffffffffffffffffffffffffffffffffffffffffffffffffffffff820362000260576200025f620001e5565b5b600182019050919050565b611514806200027b6000396000f3fe6080604052600436106100c25760003560e01c806343270c321161007f5780635b45e965116100595780635b45e9651461027f578063ab701207146102bc578063cb286d2a146102e7578063f06fc96114610312576100c2565b806343270c32146101c45780634715d22b14610201578063555f18e914610242576100c2565b806310ca2539146100c757806327df931514610106578063298ec2081461012257806330f0931e1461013e578063348e99131461017f5780633b99f185146101a8575b600080fd5b3480156100d357600080fd5b506100ee60048036038101906100e99190610e91565b61034f565b6040516100fd93929190610f01565b60405180910390f35b610120600480360381019061011b9190610f64565b6103b6565b005b61013c60048036038101906101379190610fa4565b610457565b005b34801561014a57600080fd5b5061016560048036038101906101609190610fe4565b6105a0565b604051610176959493929190611011565b60405180910390f35b34801561018b57600080fd5b506101a660048036038101906101a19190610fa4565b6105f6565b005b6101c260048036038101906101bd9190610f64565b6107b9565b005b3480156101d057600080fd5b506101eb60048036038101906101e69190611064565b6109c7565b6040516101f891906110bf565b60405180910390f35b34801561020d57600080fd5b5061022860048036038101906102239190610e91565b610a6e565b604051610239959493929190611011565b60405180910390f35b34801561024e57600080fd5b5061026960048036038101906102649190610fe4565b610ae1565b60405161027691906111e9565b60405180910390f35b34801561028b57600080fd5b506102a660048036038101906102a1919061120b565b610c8d565b6040516102b391906111e9565b60405180910390f35b3480156102c857600080fd5b506102d1610d95565b6040516102de9190611238565b60405180910390f35b3480156102f357600080fd5b506102fc610d9b565b6040516103099190611238565b60405180910390f35b34801561031e57600080fd5b5061033960048036038101906103349190610fe4565b610da1565b6040516103469190611238565b60405180910390f35b6004602052816000526040600020818154811061036b57600080fd5b9060005260206000209060030201600091509150508060000154908060010154908060020160009054906101000a900473ffffffffffffffffffffffffffffffffffffffff16905083565b60003390508173ffffffffffffffffffffffffffffffffffffffff166108fc849081150290604051600060405180830381858888f19350505050158015610401573d6000803e3d6000fd5b508073ffffffffffffffffffffffffffffffffffffffff167f15ca64a4ed482fa8131e95742689fa003e0d28703344365cf367315c7c5bc962848460405161044a9291906112b2565b60405180910390a2505050565b6000600360008481526020019081526020016000209050600081600401600084815260200190815260200160002060405180606001604052908160008201548152602001600182015481526020016002820160009054906101000a900473ffffffffffffffffffffffffffffffffffffffff1673ffffffffffffffffffffffffffffffffffffffff1673ffffffffffffffffffffffffffffffffffffffff1681525050905060008160400151905061050f34826103b6565b7f31b918c4d31b15fc1fa60f65740b9e976d33435bb9347d54a744b2992b1db1ce338234604051610542939291906112ea565b60405180910390a182600401600085815260200190815260200160002060008082016000905560018201600090556002820160006101000a81549073ffffffffffffffffffffffffffffffffffffffff021916905550505050505050565b60036020528060005260406000206000915090508060000160009054906101000a900473ffffffffffffffffffffffffffffffffffffffff16908060010154908060020154908060050154908060060154905085565b600060036000848152602001908152602001600020905080600301600083815260200190815260200160002060020160009054906101000a900473ffffffffffffffffffffffffffffffffffffffff1673ffffffffffffffffffffffffffffffffffffffff163373ffffffffffffffffffffffffffffffffffffffff16146106b3576040517f08c379a00000000000000000000000000000000000000000000000000000000081526004016106aa9061137e565b60405180910390fd5b8060030160008381526020019081526020016000208160040160008360060154815260200190815260200160002060008201548160000155600182015481600101556002820160009054906101000a900473ffffffffffffffffffffffffffffffffffffffff168160020160006101000a81548173ffffffffffffffffffffffffffffffffffffffff021916908373ffffffffffffffffffffffffffffffffffffffff160217905550905050806006016000815480929190610774906113cd565b91905055507fd6b8a8000f3b6b1d7b1b42a8e2508946bee055c5a1f21b18d4ac22090eca8f783384846040516107ac93929190611415565b60405180910390a1505050565b600060036000848152602001908152602001600020905060006040518060600160405280858152602001836001015481526020018473ffffffffffffffffffffffffffffffffffffffff168152509050610837348360000160009054906101000a900473ffffffffffffffffffffffffffffffffffffffff166103b6565b8082600301600084600101548152602001908152602001600020600082015181600001556020820151816001015560408201518160020160006101000a81548173ffffffffffffffffffffffffffffffffffffffff021916908373ffffffffffffffffffffffffffffffffffffffff160217905550905050600460003373ffffffffffffffffffffffffffffffffffffffff1673ffffffffffffffffffffffffffffffffffffffff168152602001908152602001600020819080600181540180825580915050600190039060005260206000209060030201600090919091909150600082015181600001556020820151816001015560408201518160020160006101000a81548173ffffffffffffffffffffffffffffffffffffffff021916908373ffffffffffffffffffffffffffffffffffffffff16021790555050508160010154847f519e942ac24eada72094b97d4a6090a1aacd08cbca42cd9bb9788f7a93a6a16160405160405180910390a38160010160008154809291906109bc906113cd565b919050555050505050565b6000806003600060015481526020019081526020016000209050828160000160006101000a81548173ffffffffffffffffffffffffffffffffffffffff021916908373ffffffffffffffffffffffffffffffffffffffff16021790555060018160010181905550600081600501819055506000816006018190555083816002018190555060016000815480929190610a5e906113cd565b9190505550600191505092915050565b60056020528160005260406000208181548110610a8a57600080fd5b9060005260206000209060070201600091509150508060000160009054906101000a900473ffffffffffffffffffffffffffffffffffffffff16908060010154908060020154908060050154908060060154905085565b606060006003600084815260200190815260200160002060060154905060006003600085815260200190815260200160002060050154905060008183610b27919061144c565b905060008167ffffffffffffffff811115610b4557610b44611480565b5b604051908082528060200260200182016040528015610b7e57816020015b610b6b610dc1565b815260200190600190039081610b635790505b5090506000808490505b85811015610c7f576000600360008a8152602001908152602001600020600401600083815260200190815260200160002060405180606001604052908160008201548152602001600182015481526020016002820160009054906101000a900473ffffffffffffffffffffffffffffffffffffffff1673ffffffffffffffffffffffffffffffffffffffff1673ffffffffffffffffffffffffffffffffffffffff16815250509050600081602001511115610c6b5780848481518110610c5157610c506114af565b5b60200260200101819052508280610c67906113cd565b9350505b508080610c77906113cd565b915050610b88565b508195505050505050919050565b6060600460008373ffffffffffffffffffffffffffffffffffffffff1673ffffffffffffffffffffffffffffffffffffffff168152602001908152602001600020805480602002602001604051908101604052809291908181526020016000905b82821015610d8a578382906000526020600020906003020160405180606001604052908160008201548152602001600182015481526020016002820160009054906101000a900473ffffffffffffffffffffffffffffffffffffffff1673ffffffffffffffffffffffffffffffffffffffff1673ffffffffffffffffffffffffffffffffffffffff168152505081526020019060010190610cee565b505050509050919050565b60025481565b60015481565b600060036000838152602001908152602001600020600201549050919050565b60405180606001604052806000815260200160008152602001600073ffffffffffffffffffffffffffffffffffffffff1681525090565b600080fd5b600073ffffffffffffffffffffffffffffffffffffffff82169050919050565b6000610e2882610dfd565b9050919050565b610e3881610e1d565b8114610e4357600080fd5b50565b600081359050610e5581610e2f565b92915050565b6000819050919050565b610e6e81610e5b565b8114610e7957600080fd5b50565b600081359050610e8b81610e65565b92915050565b60008060408385031215610ea857610ea7610df8565b5b6000610eb685828601610e46565b9250506020610ec785828601610e7c565b9150509250929050565b610eda81610e5b565b82525050565b6000610eeb82610dfd565b9050919050565b610efb81610ee0565b82525050565b6000606082019050610f166000830186610ed1565b610f236020830185610ed1565b610f306040830184610ef2565b949350505050565b610f4181610ee0565b8114610f4c57600080fd5b50565b600081359050610f5e81610f38565b92915050565b60008060408385031215610f7b57610f7a610df8565b5b6000610f8985828601610e7c565b9250506020610f9a85828601610f4f565b9150509250929050565b60008060408385031215610fbb57610fba610df8565b5b6000610fc985828601610e7c565b9250506020610fda85828601610e7c565b9150509250929050565b600060208284031215610ffa57610ff9610df8565b5b600061100884828501610e7c565b91505092915050565b600060a0820190506110266000830188610ef2565b6110336020830187610ed1565b6110406040830186610ed1565b61104d6060830185610ed1565b61105a6080830184610ed1565b9695505050505050565b6000806040838503121561107b5761107a610df8565b5b600061108985828601610e7c565b925050602061109a85828601610e46565b9150509250929050565b60008115159050919050565b6110b9816110a4565b82525050565b60006020820190506110d460008301846110b0565b92915050565b600081519050919050565b600082825260208201905092915050565b6000819050602082019050919050565b61110f81610e5b565b82525050565b61111e81610ee0565b82525050565b60608201600082015161113a6000850182611106565b50602082015161114d6020850182611106565b5060408201516111606040850182611115565b50505050565b60006111728383611124565b60608301905092915050565b6000602082019050919050565b6000611196826110da565b6111a081856110e5565b93506111ab836110f6565b8060005b838110156111dc5781516111c38882611166565b97506111ce8361117e565b9250506001810190506111af565b5085935050505092915050565b60006020820190508181036000830152611203818461118b565b905092915050565b60006020828403121561122157611220610df8565b5b600061122f84828501610e46565b91505092915050565b600060208201905061124d6000830184610ed1565b92915050565b6000819050919050565b600061127861127361126e84610dfd565b611253565b610dfd565b9050919050565b600061128a8261125d565b9050919050565b600061129c8261127f565b9050919050565b6112ac81611291565b82525050565b60006040820190506112c76000830185610ed1565b6112d460208301846112a3565b9392505050565b6112e481610e1d565b82525050565b60006060820190506112ff60008301866112db565b61130c60208301856112a3565b6113196040830184610ed1565b949350505050565b600082825260208201905092915050565b7f596f7520646f6e2774206861766520746865207469636b657400000000000000600082015250565b6000611368601983611321565b915061137382611332565b602082019050919050565b600060208201905081810360008301526113978161135b565b9050919050565b7f4e487b7100000000000000000000000000000000000000000000000000000000600052601160045260246000fd5b60006113d882610e5b565b91507fffffffffffffffffffffffffffffffffffffffffffffffffffffffffffffffff820361140a5761140961139e565b5b600182019050919050565b600060608201905061142a60008301866112db565b6114376020830185610ed1565b6114446040830184610ed1565b949350505050565b600061145782610e5b565b915061146283610e5b565b925082820390508181111561147a5761147961139e565b5b92915050565b7f4e487b7100000000000000000000000000000000000000000000000000000000600052604160045260246000fd5b7f4e487b7100000000000000000000000000000000000000000000000000000000600052603260045260246000fdfea264697066735822122025ecf226bf22f31236e5e81641fb28c6a657748d0a5de4ff765f7ad5fdd3463864736f6c63430008130033",
  "immutableReferences": {},
  "source": "// SPDX-License-Identifier: MIT\r\npragma solidity ^0.8.13;\r\n\r\ncontract Ticketing {\r\n    address payable owner; //   \r\n    uint public showIndex = 1; //  id 1 \r\n    uint public userIndex; \r\n\r\n    mapping(uint => Show) public shows; //   \r\n    mapping(address => Ticket[]) public myTicket; // \r\n    mapping(address => Show[]) public myShow; //  \r\n\r\n    constructor() payable {\r\n        owner = payable(msg.sender);\r\n        createShow(40000000000000000, 0x82b162f01A49d96999e7563949cC738a4928e7EF);   // 88000\r\n        createShow(40000000000000000, 0x82b162f01A49d96999e7563949cC738a4928e7EF);    \r\n        createShow(50000000000000000, 0x5053f90D21c8E15471c30Cb3c065A230E1BaeB09);  //  11 \r\n        createShow(50000000000000000, 0x5053f90D21c8E15471c30Cb3c065A230E1BaeB09);\r\n        createShow(60000000000000000, 0x43432190d425F0BCeE18F3C0E011D334A8a5f893);  //  13 \r\n        showIndex = 6; \r\n    }\r\n\r\n    struct Ticket {\r\n        uint showId;\r\n        uint ticketId;\r\n        address payable owner;\r\n    }\r\n\r\n    struct Show {\r\n        address payable owner; //  \r\n        uint ticketIndex;\r\n        uint ticketPrice;\r\n        mapping(uint => Ticket) tickets; // ticket \r\n        mapping(uint => Ticket) sellingQueue; //   \r\n        uint sellingQueueHead;\r\n        uint sellingQueueTail;\r\n    }\r\n\r\n    event ISSUE_TICKET(uint indexed _showId, uint indexed _ticketId);\r\n\r\n    /// @notice   \r\n    event TRANSFER (address indexed sender, uint value, address receiver);\r\n\r\n    /// @notice    \r\n    event RESELL(address _owner, uint _showId, uint _ticketId);\r\n\r\n    /// @notice    \r\n    event BUY_TICKET(address from, address to, uint _ticketPrice);\r\n\r\n    function getTicketPrice (uint _showid) public view returns (uint ticketPrice){\r\n        return shows[_showid].ticketPrice;\r\n    }\r\n\r\n    function getMyTicket (address userAddr) public view returns (Ticket[] memory ){\r\n        return myTicket[userAddr];\r\n    }\r\n\r\n    function getResellTicket(uint _showid) public view returns (Ticket[] memory) {\r\n        uint tailIdx = shows[_showid].sellingQueueTail; \r\n        uint headIdx = shows[_showid].sellingQueueHead;\r\n        uint tmp = tailIdx-headIdx; // 5 - 2 (2,3,4) = 3\r\n        Ticket[] memory resellTicketList = new Ticket[](tmp);\r\n\r\n        uint j = 0;\r\n        for(uint i = headIdx; i < tailIdx; i++){ \r\n            Ticket memory t = shows[_showid].sellingQueue[i]; \r\n            if (t.ticketId > 0) { // null \r\n                resellTicketList[j] = t;\r\n                j++;\r\n            }\r\n        }\r\n        return resellTicketList;\r\n    }\r\n\r\n    /// @notice \r\n    function transferWei (uint _ticketPrice, address payable receiver) public payable{\r\n        address sender = msg.sender;\r\n        receiver.transfer(_ticketPrice);\r\n        // receiver.transfer(msg.value);\r\n        emit TRANSFER(sender, _ticketPrice, receiver);\r\n    }\r\n\r\n    /// @notice  \r\n    function createShow(uint _ticketPrice, address _showOwner) public returns (bool sufficient){\r\n        Show storage s = shows[showIndex];\r\n        //        \r\n        // s.owner = payable(msg.sender);\r\n        s.owner = payable(_showOwner);\r\n        s.ticketIndex = 1;\r\n        s.sellingQueueHead = 0;\r\n        s.sellingQueueTail = 0;\r\n        s.ticketPrice = _ticketPrice;\r\n        showIndex++;\r\n        return true;\r\n    }\r\n\r\n     /// @notice       \r\n    function issueTicket(uint _showId, address payable _ticketOwner) public payable{\r\n        Show storage s = shows[_showId];\r\n        Ticket memory t = Ticket({\r\n            showId: _showId,\r\n            ticketId: s.ticketIndex,\r\n            owner: _ticketOwner\r\n        });\r\n        transferWei(msg.value, s.owner); //   \r\n        // transferETH(s.ticketPrice, s.owner);\r\n\r\n        s.tickets[s.ticketIndex] = t;\r\n        myTicket[msg.sender].push(t);\r\n\r\n        emit ISSUE_TICKET(_showId, s.ticketIndex);\r\n        s.ticketIndex++;\r\n    }\r\n\r\n    /// @notice   (or )  \r\n    function resellTicket(uint _showId, uint _ticketId) public {\r\n        Show storage s = shows[_showId];\r\n\r\n        //    \r\n        require(\r\n            msg.sender == s.tickets[_ticketId].owner,\r\n            \"You don't have the ticket\"\r\n        );\r\n\r\n        //    =>       \r\n        s.sellingQueue[s.sellingQueueTail] = s.tickets[_ticketId];\r\n        s.sellingQueueTail++;\r\n\r\n        emit RESELL(msg.sender, _showId, _ticketId);\r\n    }\r\n\r\n    /// @notice    \r\n    function buyTicket(uint _showId, uint _sellingQueueIndex) public payable {\r\n        Show storage s = shows[_showId];\r\n        Ticket memory t = s.sellingQueue[_sellingQueueIndex];\r\n        \r\n        address payable seller = t.owner;\r\n\r\n        // require(msg.value == s.ticketPrice, \"Not enough ETH!\");\r\n        //     require();\r\n\r\n        //  \r\n        transferWei(msg.value, seller);\r\n        emit BUY_TICKET(msg.sender, seller, msg.value);\r\n        delete s.sellingQueue[_sellingQueueIndex];\r\n    }\r\n\r\n}\r\n",
  "sourcePath": "C:\\Repos\\gitTtime\\Ttime\\contracts\\Ticketing.sol",
  "compiler": {
    "name": "solc",
    "version": "0.8.19+commit.7dd6d404.Emscripten.clang"
  },
  "schemaVersion": "3.4.13",
  "updatedAt": "2023-09-08T07:03:21.027Z",
  "networkType": "ethereum",
  "devdoc": {
    "kind": "dev",
    "methods": {},
    "version": 1
  },
  "userdoc": {
    "events": {
      "BUY_TICKET(address,address,uint256)": {
        "notice": "   "
      },
      "RESELL(address,uint256,uint256)": {
        "notice": "   "
      },
      "TRANSFER(address,uint256,address)": {
        "notice": "  "
      }
    },
    "kind": "user",
    "methods": {
      "buyTicket(uint256,uint256)": {
        "notice": "   "
      },
      "createShow(uint256,address)": {
        "notice": " "
      },
      "issueTicket(uint256,address)": {
        "notice": "      "
      },
      "resellTicket(uint256,uint256)": {
        "notice": "  (or )  "
      },
      "transferWei(uint256,address)": {
        "notice": ""
      }
    },
    "version": 1
  }
}