{
  "contractName": "Ticketing",
  "abi": [
    {
      "inputs": [],
      "stateMutability": "payable",
      "type": "constructor",
      "payable": true
    },
    {
      "anonymous": false,
      "inputs": [
        {
          "indexed": true,
          "internalType": "uint256",
          "name": "_showId",
          "type": "uint256"
        },
        {
          "indexed": true,
          "internalType": "uint256",
          "name": "_bookingId",
          "type": "uint256"
        },
        {
          "indexed": true,
          "internalType": "uint256",
          "name": "_numberOfSeats",
          "type": "uint256"
        }
      ],
      "name": "ISSUE_TICKET",
      "type": "event"
    },
    {
      "anonymous": false,
      "inputs": [
        {
          "indexed": true,
          "internalType": "uint256",
          "name": "_showId",
          "type": "uint256"
        },
        {
          "indexed": true,
          "internalType": "uint256",
          "name": "_bookingId",
          "type": "uint256"
        }
      ],
      "name": "RESELL",
      "type": "event"
    },
    {
      "inputs": [],
      "name": "bookingID",
      "outputs": [
        {
          "internalType": "uint256",
          "name": "",
          "type": "uint256"
        }
      ],
      "stateMutability": "view",
      "type": "function",
      "constant": true
    },
    {
      "inputs": [
        {
          "internalType": "address",
          "name": "",
          "type": "address"
        },
        {
          "internalType": "uint256",
          "name": "",
          "type": "uint256"
        }
      ],
      "name": "bookingIdList",
      "outputs": [
        {
          "internalType": "uint256",
          "name": "",
          "type": "uint256"
        }
      ],
      "stateMutability": "view",
      "type": "function",
      "constant": true
    },
    {
      "inputs": [
        {
          "internalType": "uint256",
          "name": "",
          "type": "uint256"
        },
        {
          "internalType": "uint256",
          "name": "",
          "type": "uint256"
        }
      ],
      "name": "sellingBookingIdList",
      "outputs": [
        {
          "internalType": "uint256",
          "name": "",
          "type": "uint256"
        }
      ],
      "stateMutability": "view",
      "type": "function",
      "constant": true
    },
    {
      "inputs": [
        {
          "internalType": "uint256",
          "name": "",
          "type": "uint256"
        }
      ],
      "name": "ticketForBookingId",
      "outputs": [
        {
          "internalType": "uint256",
          "name": "bookingId",
          "type": "uint256"
        },
        {
          "internalType": "address payable",
          "name": "owner",
          "type": "address"
        },
        {
          "internalType": "string",
          "name": "userId",
          "type": "string"
        },
        {
          "internalType": "uint256",
          "name": "showId",
          "type": "uint256"
        },
        {
          "internalType": "uint256",
          "name": "numberOfSeats",
          "type": "uint256"
        },
        {
          "internalType": "uint256",
          "name": "price",
          "type": "uint256"
        },
        {
          "internalType": "enum Ticketing.TicketStatus",
          "name": "status",
          "type": "uint8"
        },
        {
          "internalType": "uint256",
          "name": "indexForBookingIdList",
          "type": "uint256"
        },
        {
          "internalType": "uint256",
          "name": "indexForSellingBookingIdList",
          "type": "uint256"
        }
      ],
      "stateMutability": "view",
      "type": "function",
      "constant": true
    },
    {
      "inputs": [
        {
          "internalType": "address payable",
          "name": "userAddr",
          "type": "address"
        }
      ],
      "name": "getMyTicket",
      "outputs": [
        {
          "components": [
            {
              "internalType": "uint256",
              "name": "bookingId",
              "type": "uint256"
            },
            {
              "internalType": "address payable",
              "name": "owner",
              "type": "address"
            },
            {
              "internalType": "string",
              "name": "userId",
              "type": "string"
            },
            {
              "internalType": "uint256",
              "name": "showId",
              "type": "uint256"
            },
            {
              "internalType": "uint256",
              "name": "numberOfSeats",
              "type": "uint256"
            },
            {
              "internalType": "uint256",
              "name": "price",
              "type": "uint256"
            },
            {
              "internalType": "enum Ticketing.TicketStatus",
              "name": "status",
              "type": "uint8"
            },
            {
              "internalType": "uint256",
              "name": "indexForBookingIdList",
              "type": "uint256"
            },
            {
              "internalType": "uint256",
              "name": "indexForSellingBookingIdList",
              "type": "uint256"
            }
          ],
          "internalType": "struct Ticketing.Ticket[]",
          "name": "",
          "type": "tuple[]"
        }
      ],
      "stateMutability": "view",
      "type": "function",
      "constant": true
    },
    {
      "inputs": [
        {
          "internalType": "uint256",
          "name": "_showId",
          "type": "uint256"
        }
      ],
      "name": "getResellTicket",
      "outputs": [
        {
          "components": [
            {
              "internalType": "uint256",
              "name": "bookingId",
              "type": "uint256"
            },
            {
              "internalType": "address payable",
              "name": "owner",
              "type": "address"
            },
            {
              "internalType": "string",
              "name": "userId",
              "type": "string"
            },
            {
              "internalType": "uint256",
              "name": "showId",
              "type": "uint256"
            },
            {
              "internalType": "uint256",
              "name": "numberOfSeats",
              "type": "uint256"
            },
            {
              "internalType": "uint256",
              "name": "price",
              "type": "uint256"
            },
            {
              "internalType": "enum Ticketing.TicketStatus",
              "name": "status",
              "type": "uint8"
            },
            {
              "internalType": "uint256",
              "name": "indexForBookingIdList",
              "type": "uint256"
            },
            {
              "internalType": "uint256",
              "name": "indexForSellingBookingIdList",
              "type": "uint256"
            }
          ],
          "internalType": "struct Ticketing.Ticket[]",
          "name": "",
          "type": "tuple[]"
        }
      ],
      "stateMutability": "view",
      "type": "function",
      "constant": true
    },
    {
      "inputs": [
        {
          "internalType": "uint256",
          "name": "_showId",
          "type": "uint256"
        },
        {
          "internalType": "address payable",
          "name": "_ticketOwner",
          "type": "address"
        },
        {
          "internalType": "uint256",
          "name": "_numberOfSeats",
          "type": "uint256"
        },
        {
          "internalType": "string",
          "name": "_userId",
          "type": "string"
        }
      ],
      "name": "issueTicket",
      "outputs": [],
      "stateMutability": "payable",
      "type": "function",
      "payable": true
    },
    {
      "inputs": [
        {
          "internalType": "uint256",
          "name": "_bookingId",
          "type": "uint256"
        }
      ],
      "name": "removeFromUser",
      "outputs": [],
      "stateMutability": "nonpayable",
      "type": "function"
    },
    {
      "inputs": [
        {
          "internalType": "uint256",
          "name": "_bookingId",
          "type": "uint256"
        }
      ],
      "name": "getTicketForBookingId",
      "outputs": [
        {
          "components": [
            {
              "internalType": "uint256",
              "name": "bookingId",
              "type": "uint256"
            },
            {
              "internalType": "address payable",
              "name": "owner",
              "type": "address"
            },
            {
              "internalType": "string",
              "name": "userId",
              "type": "string"
            },
            {
              "internalType": "uint256",
              "name": "showId",
              "type": "uint256"
            },
            {
              "internalType": "uint256",
              "name": "numberOfSeats",
              "type": "uint256"
            },
            {
              "internalType": "uint256",
              "name": "price",
              "type": "uint256"
            },
            {
              "internalType": "enum Ticketing.TicketStatus",
              "name": "status",
              "type": "uint8"
            },
            {
              "internalType": "uint256",
              "name": "indexForBookingIdList",
              "type": "uint256"
            },
            {
              "internalType": "uint256",
              "name": "indexForSellingBookingIdList",
              "type": "uint256"
            }
          ],
          "internalType": "struct Ticketing.Ticket",
          "name": "",
          "type": "tuple"
        }
      ],
      "stateMutability": "view",
      "type": "function",
      "constant": true
    },
    {
      "inputs": [
        {
          "internalType": "uint256",
          "name": "_bookingId",
          "type": "uint256"
        }
      ],
      "name": "pay",
      "outputs": [],
      "stateMutability": "payable",
      "type": "function",
      "payable": true
    },
    {
      "inputs": [
        {
          "internalType": "uint256",
          "name": "_bookingId",
          "type": "uint256"
        }
      ],
      "name": "resellTicket",
      "outputs": [],
      "stateMutability": "nonpayable",
      "type": "function"
    },
    {
      "inputs": [
        {
          "internalType": "uint256",
          "name": "_index",
          "type": "uint256"
        },
        {
          "internalType": "uint256",
          "name": "_showId",
          "type": "uint256"
        }
      ],
      "name": "removeFromShow",
      "outputs": [],
      "stateMutability": "nonpayable",
      "type": "function"
    },
    {
      "inputs": [
        {
          "internalType": "string",
          "name": "_userId",
          "type": "string"
        },
        {
          "internalType": "address",
          "name": "_buyer",
          "type": "address"
        },
        {
          "internalType": "uint256",
          "name": "_bookingId",
          "type": "uint256"
        }
      ],
      "name": "changeTicketInfo",
      "outputs": [],
      "stateMutability": "payable",
      "type": "function",
      "payable": true
    },
    {
      "inputs": [
        {
          "internalType": "uint256",
          "name": "_bookingId",
          "type": "uint256"
        }
      ],
      "name": "changeTicketStatus",
      "outputs": [],
      "stateMutability": "nonpayable",
      "type": "function"
    },
    {
      "inputs": [
        {
          "internalType": "uint256",
          "name": "_bookingId",
          "type": "uint256"
        }
      ],
      "name": "changeOwner",
      "outputs": [],
      "stateMutability": "nonpayable",
      "type": "function"
    },
    {
      "inputs": [
        {
          "internalType": "uint256",
          "name": "_bookingId",
          "type": "uint256"
        }
      ],
      "name": "initializeTicketInfo",
      "outputs": [],
      "stateMutability": "nonpayable",
      "type": "function"
    }
  ],
  "bytecode": "0x60806040526001600455336000806101000a81548173ffffffffffffffffffffffffffffffffffffffff021916908373ffffffffffffffffffffffffffffffffffffffff16021790555061273b806100586000396000f3fe6080604052600436106100f35760003560e01c8063b23b02b11161008a578063cf0f818911610059578063cf0f81891461031c578063d0b783fb14610345578063db048e4b14610361578063de602243146103a6576100f3565b8063b23b02b114610283578063b5d9b1b9146102ac578063c290d691146102d5578063cd0d462e146102f1576100f3565b806374ae5fcf116100c657806374ae5fcf146101b75780637641eb5a146101f4578063851fed6c1461021d578063924c19f71461025a576100f3565b8063077b2aa8146100f8578063555f18e9146101145780635b45e9651461015157806364ebdc181461018e575b600080fd5b610112600480360381019061010d9190611a85565b6103e3565b005b34801561012057600080fd5b5061013b60048036038101906101369190611b0d565b61070b565b6040516101489190611de6565b60405180910390f35b34801561015d57600080fd5b5061017860048036038101906101739190611e08565b61097a565b6040516101859190611de6565b60405180910390f35b34801561019a57600080fd5b506101b560048036038101906101b09190611b0d565b610c41565b005b3480156101c357600080fd5b506101de60048036038101906101d99190611b0d565b610d44565b6040516101eb9190611efa565b60405180910390f35b34801561020057600080fd5b5061021b60048036038101906102169190611b0d565b610ed1565b005b34801561022957600080fd5b50610244600480360381019061023f9190611f5a565b610fd7565b6040516102519190611fa9565b60405180910390f35b34801561026657600080fd5b50610281600480360381019061027c9190611b0d565b611008565b005b34801561028f57600080fd5b506102aa60048036038101906102a59190611fc4565b6111cb565b005b3480156102b857600080fd5b506102d360048036038101906102ce9190611b0d565b611313565b005b6102ef60048036038101906102ea9190611b0d565b61135b565b005b3480156102fd57600080fd5b506103066113e1565b6040516103139190611fa9565b60405180910390f35b34801561032857600080fd5b50610343600480360381019061033e9190611b0d565b6113e7565b005b61035f600480360381019061035a9190612004565b611661565b005b34801561036d57600080fd5b5061038860048036038101906103839190611b0d565b6117da565b60405161039d999897969594939291906120e0565b60405180910390f35b3480156103b257600080fd5b506103cd60048036038101906103c89190611fc4565b6118dd565b6040516103da9190611fa9565b60405180910390f35b600060405180610120016040528060045481526020018673ffffffffffffffffffffffffffffffffffffffff16815260200184848080601f016020809104026020016040519081016040528093929190818152602001838380828437600081840152601f19601f8201169050808301925050505050505081526020018781526020018581526020013481526020016000600281111561048557610484611c14565b5b8152602001600081526020016000815250905060008054906101000a900473ffffffffffffffffffffffffffffffffffffffff1673ffffffffffffffffffffffffffffffffffffffff166108fc349081150290604051600060405180830381858888f193505050501580156104fe573d6000803e3d6000fd5b50600160008673ffffffffffffffffffffffffffffffffffffffff1673ffffffffffffffffffffffffffffffffffffffff1681526020019081526020016000206004549080600181540180825580915050600190039060005260206000200160009091909190915055806002600060045481526020019081526020016000206000820151816000015560208201518160010160006101000a81548173ffffffffffffffffffffffffffffffffffffffff021916908373ffffffffffffffffffffffffffffffffffffffff16021790555060408201518160020190816105e391906123af565b50606082015181600301556080820151816004015560a0820151816005015560c08201518160060160006101000a81548160ff0219169083600281111561062d5761062c611c14565b5b021790555060e082015181600701556101008201518160080155905050600060018060008873ffffffffffffffffffffffffffffffffffffffff1673ffffffffffffffffffffffffffffffffffffffff1681526020019081526020016000208054905061069a91906124b0565b9050806002600060045481526020019081526020016000206007018190555084600454887f2a1b196ed82ca38ac3eaf401226ccc99f376813c3daf17bb565df45f7052d89260405160405180910390a4600460008154809291906106fd906124e4565b919050555050505050505050565b606060006003600084815260200190815260200160002080549050905060008167ffffffffffffffff81111561074457610743612174565b5b60405190808252806020026020018201604052801561077d57816020015b61076a61190e565b8152602001906001900390816107625790505b50905060005b8281101561096f5760006003600087815260200190815260200160002082815481106107b2576107b161252c565b5b906000526020600020015490506002600082815260200190815260200160002060405180610120016040529081600082015481526020016001820160009054906101000a900473ffffffffffffffffffffffffffffffffffffffff1673ffffffffffffffffffffffffffffffffffffffff1673ffffffffffffffffffffffffffffffffffffffff16815260200160028201805461084e906121d2565b80601f016020809104026020016040519081016040528092919081815260200182805461087a906121d2565b80156108c75780601f1061089c576101008083540402835291602001916108c7565b820191906000526020600020905b8154815290600101906020018083116108aa57829003601f168201915b505050505081526020016003820154815260200160048201548152602001600582015481526020016006820160009054906101000a900460ff16600281111561091357610912611c14565b5b600281111561092557610924611c14565b5b8152602001600782015481526020016008820154815250508383815181106109505761094f61252c565b5b6020026020010181905250508080610967906124e4565b915050610783565b508092505050919050565b60606000600160008473ffffffffffffffffffffffffffffffffffffffff1673ffffffffffffffffffffffffffffffffffffffff16815260200190815260200160002080549050905060008167ffffffffffffffff8111156109df576109de612174565b5b604051908082528060200260200182016040528015610a1857816020015b610a0561190e565b8152602001906001900390816109fd5790505b50905060005b82811015610c36576000600160008773ffffffffffffffffffffffffffffffffffffffff1673ffffffffffffffffffffffffffffffffffffffff1681526020019081526020016000208281548110610a7957610a7861252c565b5b906000526020600020015490506002600082815260200190815260200160002060405180610120016040529081600082015481526020016001820160009054906101000a900473ffffffffffffffffffffffffffffffffffffffff1673ffffffffffffffffffffffffffffffffffffffff1673ffffffffffffffffffffffffffffffffffffffff168152602001600282018054610b15906121d2565b80601f0160208091040260200160405190810160405280929190818152602001828054610b41906121d2565b8015610b8e5780601f10610b6357610100808354040283529160200191610b8e565b820191906000526020600020905b815481529060010190602001808311610b7157829003601f168201915b505050505081526020016003820154815260200160048201548152602001600582015481526020016006820160009054906101000a900460ff166002811115610bda57610bd9611c14565b5b6002811115610bec57610beb611c14565b5b815260200160078201548152602001600882015481525050838381518110610c1757610c1661252c565b5b6020026020010181905250508080610c2e906124e4565b915050610a1e565b508092505050919050565b6000600260008381526020019081526020016000206003015490506003600082815260200190815260200160002082908060018154018082558091505060019003906000526020600020016000909190919091505560016002600084815260200190815260200160002060060160006101000a81548160ff02191690836002811115610cd057610ccf611c14565b5b021790555060016003600083815260200190815260200160002080549050610cf891906124b0565b600260008481526020019081526020016000206008018190555081817f72f31fb3783f053c730e8edabaeca9a841713ca9ae3e9e5ad628fc0770dfb6de60405160405180910390a35050565b610d4c61190e565b6002600083815260200190815260200160002060405180610120016040529081600082015481526020016001820160009054906101000a900473ffffffffffffffffffffffffffffffffffffffff1673ffffffffffffffffffffffffffffffffffffffff1673ffffffffffffffffffffffffffffffffffffffff168152602001600282018054610ddb906121d2565b80601f0160208091040260200160405190810160405280929190818152602001828054610e07906121d2565b8015610e545780601f10610e2957610100808354040283529160200191610e54565b820191906000526020600020905b815481529060010190602001808311610e3757829003601f168201915b505050505081526020016003820154815260200160048201548152602001600582015481526020016006820160009054906101000a900460ff166002811115610ea057610e9f611c14565b5b6002811115610eb257610eb1611c14565b5b8152602001600782015481526020016008820154815250509050919050565b600060026000838152602001908152602001600020905060008054906101000a900473ffffffffffffffffffffffffffffffffffffffff168160010160006101000a81548173ffffffffffffffffffffffffffffffffffffffff021916908373ffffffffffffffffffffffffffffffffffffffff1602179055506040518060400160405280600e81526020017f45787072696564205469636b6574000000000000000000000000000000000000815250816002019081610f9191906123af565b5060028160060160006101000a81548160ff02191690836002811115610fba57610fb9611c14565b5b021790555060008160040181905550600081600501819055505050565b60016020528160005260406000208181548110610ff357600080fd5b90600052602060002001600091509150505481565b6000600260008381526020019081526020016000209050338160010160006101000a81548173ffffffffffffffffffffffffffffffffffffffff021916908373ffffffffffffffffffffffffffffffffffffffff1602179055506040518060400160405280600781526020017f6d616e61676572000000000000000000000000000000000000000000000000008152508160020190816110a891906123af565b50600160008260010160009054906101000a900473ffffffffffffffffffffffffffffffffffffffff1673ffffffffffffffffffffffffffffffffffffffff1673ffffffffffffffffffffffffffffffffffffffff168152602001908152602001600020829080600181540180825580915050600190039060005260206000200160009091909190915055600060018060008460010160009054906101000a900473ffffffffffffffffffffffffffffffffffffffff1673ffffffffffffffffffffffffffffffffffffffff1673ffffffffffffffffffffffffffffffffffffffff168152602001908152602001600020805490506111a791906124b0565b90508060026000600454815260200190815260200160002060070181905550505050565b60036000828152602001908152602001600020805490508210611223576040517f08c379a000000000000000000000000000000000000000000000000000000000815260040161121a906125a7565b60405180910390fd5b60008290505b6001600360008481526020019081526020016000208054905061124c91906124b0565b8110156112d5576003600083815260200190815260200160002060018261127391906125c7565b815481106112845761128361252c565b5b90600052602060002001546003600084815260200190815260200160002082815481106112b4576112b361252c565b5b906000526020600020018190555080806112cd906124e4565b915050611229565b50600360008281526020019081526020016000208054806112f9576112f86125fb565b5b600190038181906000526020600020016000905590555050565b600060026000838152602001908152602001600020905060008160060160006101000a81548160ff0219169083600281111561135257611351611c14565b5b02179055505050565b60006002600083815260200190815260200160002060010160009054906101000a900473ffffffffffffffffffffffffffffffffffffffff1690508073ffffffffffffffffffffffffffffffffffffffff166108fc349081150290604051600060405180830381858888f193505050501580156113dc573d6000803e3d6000fd5b505050565b60045481565b60006002600083815260200190815260200160002060010160009054906101000a900473ffffffffffffffffffffffffffffffffffffffff169050600060026000848152602001908152602001600020600701549050600160008373ffffffffffffffffffffffffffffffffffffffff1673ffffffffffffffffffffffffffffffffffffffff1681526020019081526020016000208054905081106114c1576040517f08c379a00000000000000000000000000000000000000000000000000000000081526004016114b8906125a7565b60405180910390fd5b60008190505b60018060008573ffffffffffffffffffffffffffffffffffffffff1673ffffffffffffffffffffffffffffffffffffffff1681526020019081526020016000208054905061151591906124b0565b8110156115f657600160008473ffffffffffffffffffffffffffffffffffffffff1673ffffffffffffffffffffffffffffffffffffffff16815260200190815260200160002060018261156891906125c7565b815481106115795761157861252c565b5b9060005260206000200154600160008573ffffffffffffffffffffffffffffffffffffffff1673ffffffffffffffffffffffffffffffffffffffff16815260200190815260200160002082815481106115d5576115d461252c565b5b906000526020600020018190555080806115ee906124e4565b9150506114c7565b50600160008373ffffffffffffffffffffffffffffffffffffffff1673ffffffffffffffffffffffffffffffffffffffff168152602001908152602001600020805480611646576116456125fb565b5b60019003818190600052602060002001600090559055505050565b6000600260008381526020019081526020016000209050600160008473ffffffffffffffffffffffffffffffffffffffff1673ffffffffffffffffffffffffffffffffffffffff168152602001908152602001600020829080600181540180825580915050600190039060005260206000200160009091909190915055828160010160006101000a81548173ffffffffffffffffffffffffffffffffffffffff021916908373ffffffffffffffffffffffffffffffffffffffff1602179055508484826002019182611734929190612635565b5060008160060160006101000a81548160ff0219169083600281111561175d5761175c611c14565b5b0217905550600060018060008673ffffffffffffffffffffffffffffffffffffffff1673ffffffffffffffffffffffffffffffffffffffff168152602001908152602001600020805490506117b291906124b0565b9050808260070181905550816008015490506117d28183600301546111cb565b505050505050565b60026020528060005260406000206000915090508060000154908060010160009054906101000a900473ffffffffffffffffffffffffffffffffffffffff1690806002018054611829906121d2565b80601f0160208091040260200160405190810160405280929190818152602001828054611855906121d2565b80156118a25780601f10611877576101008083540402835291602001916118a2565b820191906000526020600020905b81548152906001019060200180831161188557829003601f168201915b5050505050908060030154908060040154908060050154908060060160009054906101000a900460ff16908060070154908060080154905089565b600360205281600052604060002081815481106118f957600080fd5b90600052602060002001600091509150505481565b60405180610120016040528060008152602001600073ffffffffffffffffffffffffffffffffffffffff168152602001606081526020016000815260200160008152602001600081526020016000600281111561196e5761196d611c14565b5b815260200160008152602001600081525090565b600080fd5b600080fd5b6000819050919050565b61199f8161198c565b81146119aa57600080fd5b50565b6000813590506119bc81611996565b92915050565b600073ffffffffffffffffffffffffffffffffffffffff82169050919050565b60006119ed826119c2565b9050919050565b6119fd816119e2565b8114611a0857600080fd5b50565b600081359050611a1a816119f4565b92915050565b600080fd5b600080fd5b600080fd5b60008083601f840112611a4557611a44611a20565b5b8235905067ffffffffffffffff811115611a6257611a61611a25565b5b602083019150836001820283011115611a7e57611a7d611a2a565b5b9250929050565b600080600080600060808688031215611aa157611aa0611982565b5b6000611aaf888289016119ad565b9550506020611ac088828901611a0b565b9450506040611ad1888289016119ad565b935050606086013567ffffffffffffffff811115611af257611af1611987565b5b611afe88828901611a2f565b92509250509295509295909350565b600060208284031215611b2357611b22611982565b5b6000611b31848285016119ad565b91505092915050565b600081519050919050565b600082825260208201905092915050565b6000819050602082019050919050565b611b6f8161198c565b82525050565b611b7e816119e2565b82525050565b600081519050919050565b600082825260208201905092915050565b60005b83811015611bbe578082015181840152602081019050611ba3565b60008484015250505050565b6000601f19601f8301169050919050565b6000611be682611b84565b611bf08185611b8f565b9350611c00818560208601611ba0565b611c0981611bca565b840191505092915050565b7f4e487b7100000000000000000000000000000000000000000000000000000000600052602160045260246000fd5b60038110611c5457611c53611c14565b5b50565b6000819050611c6582611c43565b919050565b6000611c7582611c57565b9050919050565b611c8581611c6a565b82525050565b600061012083016000830151611ca46000860182611b66565b506020830151611cb76020860182611b75565b5060408301518482036040860152611ccf8282611bdb565b9150506060830151611ce46060860182611b66565b506080830151611cf76080860182611b66565b5060a0830151611d0a60a0860182611b66565b5060c0830151611d1d60c0860182611c7c565b5060e0830151611d3060e0860182611b66565b50610100830151611d45610100860182611b66565b508091505092915050565b6000611d5c8383611c8b565b905092915050565b6000602082019050919050565b6000611d7c82611b3a565b611d868185611b45565b935083602082028501611d9885611b56565b8060005b85811015611dd45784840389528151611db58582611d50565b9450611dc083611d64565b925060208a01995050600181019050611d9c565b50829750879550505050505092915050565b60006020820190508181036000830152611e008184611d71565b905092915050565b600060208284031215611e1e57611e1d611982565b5b6000611e2c84828501611a0b565b91505092915050565b600061012083016000830151611e4e6000860182611b66565b506020830151611e616020860182611b75565b5060408301518482036040860152611e798282611bdb565b9150506060830151611e8e6060860182611b66565b506080830151611ea16080860182611b66565b5060a0830151611eb460a0860182611b66565b5060c0830151611ec760c0860182611c7c565b5060e0830151611eda60e0860182611b66565b50610100830151611eef610100860182611b66565b508091505092915050565b60006020820190508181036000830152611f148184611e35565b905092915050565b6000611f27826119c2565b9050919050565b611f3781611f1c565b8114611f4257600080fd5b50565b600081359050611f5481611f2e565b92915050565b60008060408385031215611f7157611f70611982565b5b6000611f7f85828601611f45565b9250506020611f90858286016119ad565b9150509250929050565b611fa38161198c565b82525050565b6000602082019050611fbe6000830184611f9a565b92915050565b60008060408385031215611fdb57611fda611982565b5b6000611fe9858286016119ad565b9250506020611ffa858286016119ad565b9150509250929050565b6000806000806060858703121561201e5761201d611982565b5b600085013567ffffffffffffffff81111561203c5761203b611987565b5b61204887828801611a2f565b9450945050602061205b87828801611f45565b925050604061206c878288016119ad565b91505092959194509250565b612081816119e2565b82525050565b600082825260208201905092915050565b60006120a382611b84565b6120ad8185612087565b93506120bd818560208601611ba0565b6120c681611bca565b840191505092915050565b6120da81611c6a565b82525050565b6000610120820190506120f6600083018c611f9a565b612103602083018b612078565b8181036040830152612115818a612098565b90506121246060830189611f9a565b6121316080830188611f9a565b61213e60a0830187611f9a565b61214b60c08301866120d1565b61215860e0830185611f9a565b612166610100830184611f9a565b9a9950505050505050505050565b7f4e487b7100000000000000000000000000000000000000000000000000000000600052604160045260246000fd5b7f4e487b7100000000000000000000000000000000000000000000000000000000600052602260045260246000fd5b600060028204905060018216806121ea57607f821691505b6020821081036121fd576121fc6121a3565b5b50919050565b60008190508160005260206000209050919050565b60006020601f8301049050919050565b600082821b905092915050565b6000600883026122657fffffffffffffffffffffffffffffffffffffffffffffffffffffffffffffffff82612228565b61226f8683612228565b95508019841693508086168417925050509392505050565b6000819050919050565b60006122ac6122a76122a28461198c565b612287565b61198c565b9050919050565b6000819050919050565b6122c683612291565b6122da6122d2826122b3565b848454612235565b825550505050565b600090565b6122ef6122e2565b6122fa8184846122bd565b505050565b5b8181101561231e576123136000826122e7565b600181019050612300565b5050565b601f8211156123635761233481612203565b61233d84612218565b8101602085101561234c578190505b61236061235885612218565b8301826122ff565b50505b505050565b600082821c905092915050565b600061238660001984600802612368565b1980831691505092915050565b600061239f8383612375565b9150826002028217905092915050565b6123b882611b84565b67ffffffffffffffff8111156123d1576123d0612174565b5b6123db82546121d2565b6123e6828285612322565b600060209050601f8311600181146124195760008415612407578287015190505b6124118582612393565b865550612479565b601f19841661242786612203565b60005b8281101561244f5784890151825560018201915060208501945060208101905061242a565b8683101561246c5784890151612468601f891682612375565b8355505b6001600288020188555050505b505050505050565b7f4e487b7100000000000000000000000000000000000000000000000000000000600052601160045260246000fd5b60006124bb8261198c565b91506124c68361198c565b92508282039050818111156124de576124dd612481565b5b92915050565b60006124ef8261198c565b91507fffffffffffffffffffffffffffffffffffffffffffffffffffffffffffffffff820361252157612520612481565b5b600182019050919050565b7f4e487b7100000000000000000000000000000000000000000000000000000000600052603260045260246000fd5b7f696e646578206f7574206f6620626f756e640000000000000000000000000000600082015250565b6000612591601283612087565b915061259c8261255b565b602082019050919050565b600060208201905081810360008301526125c081612584565b9050919050565b60006125d28261198c565b91506125dd8361198c565b92508282019050808211156125f5576125f4612481565b5b92915050565b7f4e487b7100000000000000000000000000000000000000000000000000000000600052603160045260246000fd5b600082905092915050565b61263f838361262a565b67ffffffffffffffff81111561265857612657612174565b5b61266282546121d2565b61266d828285612322565b6000601f83116001811461269c576000841561268a578287013590505b6126948582612393565b8655506126fc565b601f1984166126aa86612203565b60005b828110156126d2578489013582556001820191506020850194506020810190506126ad565b868310156126ef57848901356126eb601f891682612375565b8355505b6001600288020188555050505b5050505050505056fea2646970667358221220b3857cf8e056c649976f7e370d954fe48d57e518fb0c8e59ee89e743a100d28164736f6c63430008130033",
  "immutableReferences": {},
  "source": "// SPDX-License-Identifier: MIT\r\npragma solidity ^0.8.13;\r\n\r\ncontract Ticketing {\r\n    address payable owner; //       \r\n\r\n    constructor() payable {\r\n        owner = payable(msg.sender);\r\n    }\r\n\r\n    mapping(address => uint[]) public bookingIdList;   //        =>   \r\n    mapping(uint => Ticket) public ticketForBookingId;  //         =>  \r\n    \r\n    mapping(uint => uint[]) public sellingBookingIdList; // showid =>           =>    \r\n\r\n    enum TicketStatus {\r\n        Sold,   //  \r\n\t\t//Canceled, // \r\n        OnSale,  // \r\n        Expired  //     or      \r\n    }\r\n\r\n     //   - ,  , , , (  )\r\n    struct Ticket {\r\n        uint bookingId;\r\n        address payable owner;\r\n        string userId;\r\n        uint showId;\r\n        uint numberOfSeats;\r\n        //string[] seatList;          \r\n        uint price;\r\n        TicketStatus status;  \r\n        uint indexForBookingIdList;  \r\n        uint indexForSellingBookingIdList; // ;;; \r\n    }\r\n\r\n    function getMyTicket(address payable userAddr) public view returns(Ticket[] memory){\r\n        uint length = bookingIdList[userAddr].length;\r\n        Ticket[] memory myTickets = new Ticket[](length);\r\n\r\n        for(uint i = 0; i < length; i++){\r\n            uint bookingId = bookingIdList[userAddr][i];\r\n            myTickets[i] = ticketForBookingId[bookingId];\r\n        }\r\n   \r\n        return myTickets;\r\n    }\r\n\r\n    function getResellTicket(uint _showId) public view returns(Ticket[] memory) {\r\n        \r\n        uint size = sellingBookingIdList[_showId].length;\r\n        Ticket[] memory resellTicketList = new Ticket[](size);\r\n\r\n        for(uint i = 0; i < size; i++) {\r\n            uint bookingId = sellingBookingIdList[_showId][i];\r\n            resellTicketList[i] = ticketForBookingId[bookingId];\r\n        }\r\n\r\n        return resellTicketList;\r\n    }\r\n\r\n    uint public bookingID = 1; \r\n\r\n    event ISSUE_TICKET(uint indexed _showId, uint indexed _bookingId, uint indexed _numberOfSeats);\r\n    function issueTicket(uint _showId, address payable _ticketOwner, uint _numberOfSeats, string calldata _userId) public payable {\r\n\r\n        Ticket memory ticket = Ticket({\r\n            bookingId: bookingID,\r\n            owner: _ticketOwner,\r\n            userId: _userId,\r\n            showId: _showId,\r\n            numberOfSeats: _numberOfSeats,\r\n            price: msg.value,\r\n            status: TicketStatus.Sold,\r\n            indexForBookingIdList: 0,\r\n            indexForSellingBookingIdList: 0\r\n        });\r\n\r\n        owner.transfer(msg.value);  //    \r\n\r\n        bookingIdList[_ticketOwner].push(bookingID);\r\n        ticketForBookingId[bookingID] = ticket;\r\n\r\n        uint index = bookingIdList[_ticketOwner].length - 1;\r\n        ticketForBookingId[bookingID].indexForBookingIdList = index;\r\n\r\n        emit ISSUE_TICKET(_showId, bookingID, _numberOfSeats);\r\n\r\n        bookingID++;\r\n    }\r\n\r\n    function removeFromUser(uint _bookingId) public{\r\n        address payable _refunder = ticketForBookingId[_bookingId].owner;\r\n        uint _index = ticketForBookingId[_bookingId].indexForBookingIdList;\r\n        \r\n        require(_index < bookingIdList[_refunder].length, \"index out of bound\");\r\n\r\n        for(uint i = _index; i < bookingIdList[_refunder].length - 1; i++){\r\n            bookingIdList[_refunder][i] = bookingIdList[_refunder][i + 1];\r\n        }\r\n        bookingIdList[_refunder].pop();\r\n    }\r\n\r\n    function getTicketForBookingId(uint _bookingId) public view returns(Ticket memory){\r\n        return ticketForBookingId[_bookingId];\r\n    }\r\n\r\n    // @   \r\n    function pay(uint _bookingId) public payable {\r\n        address payable oldOwner = ticketForBookingId[_bookingId].owner;\r\n        oldOwner.transfer(msg.value);\r\n    }\r\n\r\n    // =   \r\n    event RESELL(uint indexed _showId, uint indexed _bookingId);\r\n    function resellTicket(uint _bookingId) public { \r\n        uint _showId = ticketForBookingId[_bookingId].showId;\r\n        sellingBookingIdList[_showId].push(_bookingId);\r\n\r\n        //   \r\n        ticketForBookingId[_bookingId].status = TicketStatus.OnSale;\r\n        ticketForBookingId[_bookingId].indexForSellingBookingIdList = sellingBookingIdList[_showId].length - 1;\r\n\r\n        emit RESELL(_showId, _bookingId);\r\n    }\r\n\r\n    function removeFromShow(uint _index, uint _showId) public{\r\n        require(_index < sellingBookingIdList[_showId].length, \"index out of bound\");\r\n\r\n        for(uint i = _index; i < sellingBookingIdList[_showId].length - 1; i++){\r\n            sellingBookingIdList[_showId][i] = sellingBookingIdList[_showId][i + 1];\r\n        }\r\n        sellingBookingIdList[_showId].pop();\r\n    }\r\n\r\n    //   \r\n    function changeTicketInfo(string calldata _userId, address _buyer, uint _bookingId) public payable {\r\n        \r\n        Ticket storage ticket = ticketForBookingId[_bookingId];\r\n\r\n        // 1. buyer    \r\n        bookingIdList[_buyer].push(_bookingId);       \r\n\r\n        // 2.    \r\n        ticket.owner =  payable (_buyer);\r\n        ticket.userId = _userId;\r\n        ticket.status = TicketStatus.Sold;  //  \r\n\r\n        uint index = bookingIdList[_buyer].length - 1;\r\n        ticket.indexForBookingIdList = index;\r\n\r\n        // 4. selling List  \r\n        index = ticket.indexForSellingBookingIdList;\r\n        removeFromShow(index, ticket.showId);\r\n    }\r\n\r\n    function changeTicketStatus(uint _bookingId) public {\r\n        Ticket storage ticket = ticketForBookingId[_bookingId];\r\n        ticket.status = TicketStatus.Sold;\r\n    }\r\n\r\n    //      \r\n    function changeOwner(uint _bookingId) public {\r\n        Ticket storage ticket = ticketForBookingId[_bookingId];\r\n        ticket.owner = payable(msg.sender);\r\n        ticket.userId = \"manager\";\r\n        \r\n        bookingIdList[ticket.owner].push(_bookingId);    \r\n\r\n        uint index = bookingIdList[ticket.owner].length - 1;\r\n        ticketForBookingId[bookingID].indexForBookingIdList = index;\r\n    }\r\n\r\n    //      ( )\r\n    function initializeTicketInfo(uint _bookingId) public {\r\n         Ticket storage ticket = ticketForBookingId[_bookingId];\r\n\r\n        ticket.owner = owner;\r\n        ticket.userId = \"Expried Ticket\";\r\n        ticket.status = TicketStatus.Expired;\r\n        ticket.numberOfSeats = 0;\r\n        ticket.price = 0;\r\n    }\r\n\r\n}",
  "sourcePath": "C:\\Project\\ticket\\Ttime\\contracts\\Ticketing.sol",
  "compiler": {
    "name": "solc",
    "version": "0.8.19+commit.7dd6d404.Emscripten.clang"
  },
  "schemaVersion": "3.4.16",
  "updatedAt": "2023-10-03T20:51:39.258Z",
  "networkType": "ethereum",
  "devdoc": {
    "kind": "dev",
    "methods": {},
    "version": 1
  },
  "userdoc": {
    "kind": "user",
    "methods": {},
    "version": 1
  }
}