{
  "contractName": "Ticketing",
  "abi": [
    {
      "inputs": [],
      "stateMutability": "payable",
      "type": "constructor",
      "payable": true
    },
    {
      "anonymous": false,
      "inputs": [
        {
          "indexed": false,
          "internalType": "address",
          "name": "from",
          "type": "address"
        },
        {
          "indexed": false,
          "internalType": "address",
          "name": "to",
          "type": "address"
        },
        {
          "indexed": false,
          "internalType": "uint256",
          "name": "_ticketPrice",
          "type": "uint256"
        }
      ],
      "name": "BUY_TICKET",
      "type": "event"
    },
    {
      "anonymous": false,
      "inputs": [
        {
          "indexed": true,
          "internalType": "uint256",
          "name": "_showId",
          "type": "uint256"
        },
        {
          "indexed": true,
          "internalType": "uint256",
          "name": "_ticketId",
          "type": "uint256"
        }
      ],
      "name": "ISSUE_TICKET",
      "type": "event"
    },
    {
      "anonymous": false,
      "inputs": [
        {
          "indexed": false,
          "internalType": "address",
          "name": "_owner",
          "type": "address"
        },
        {
          "indexed": false,
          "internalType": "uint256",
          "name": "_showId",
          "type": "uint256"
        },
        {
          "indexed": false,
          "internalType": "uint256",
          "name": "_ticketId",
          "type": "uint256"
        }
      ],
      "name": "RESELL",
      "type": "event"
    },
    {
      "anonymous": false,
      "inputs": [
        {
          "indexed": true,
          "internalType": "address",
          "name": "sender",
          "type": "address"
        },
        {
          "indexed": false,
          "internalType": "uint256",
          "name": "value",
          "type": "uint256"
        },
        {
          "indexed": false,
          "internalType": "address",
          "name": "receiver",
          "type": "address"
        }
      ],
      "name": "TRANSFER",
      "type": "event"
    },
    {
      "inputs": [
        {
          "internalType": "address",
          "name": "",
          "type": "address"
        },
        {
          "internalType": "uint256",
          "name": "",
          "type": "uint256"
        }
      ],
      "name": "myShow",
      "outputs": [
        {
          "internalType": "address payable",
          "name": "owner",
          "type": "address"
        },
        {
          "internalType": "uint256",
          "name": "ticketIndex",
          "type": "uint256"
        },
        {
          "internalType": "uint256",
          "name": "ticketPrice",
          "type": "uint256"
        },
        {
          "internalType": "uint256",
          "name": "sellingQueueIndex",
          "type": "uint256"
        }
      ],
      "stateMutability": "view",
      "type": "function",
      "constant": true
    },
    {
      "inputs": [
        {
          "internalType": "address",
          "name": "",
          "type": "address"
        },
        {
          "internalType": "uint256",
          "name": "",
          "type": "uint256"
        }
      ],
      "name": "myTicket",
      "outputs": [
        {
          "internalType": "uint256",
          "name": "showId",
          "type": "uint256"
        },
        {
          "internalType": "uint256",
          "name": "ticketId",
          "type": "uint256"
        },
        {
          "internalType": "address payable",
          "name": "owner",
          "type": "address"
        }
      ],
      "stateMutability": "view",
      "type": "function",
      "constant": true
    },
    {
      "inputs": [],
      "name": "sellingQueueIndex",
      "outputs": [
        {
          "internalType": "uint256",
          "name": "",
          "type": "uint256"
        }
      ],
      "stateMutability": "view",
      "type": "function",
      "constant": true
    },
    {
      "inputs": [],
      "name": "showIndex",
      "outputs": [
        {
          "internalType": "uint256",
          "name": "",
          "type": "uint256"
        }
      ],
      "stateMutability": "view",
      "type": "function",
      "constant": true
    },
    {
      "inputs": [
        {
          "internalType": "uint256",
          "name": "",
          "type": "uint256"
        }
      ],
      "name": "shows",
      "outputs": [
        {
          "internalType": "address payable",
          "name": "owner",
          "type": "address"
        },
        {
          "internalType": "uint256",
          "name": "ticketIndex",
          "type": "uint256"
        },
        {
          "internalType": "uint256",
          "name": "ticketPrice",
          "type": "uint256"
        },
        {
          "internalType": "uint256",
          "name": "sellingQueueIndex",
          "type": "uint256"
        }
      ],
      "stateMutability": "view",
      "type": "function",
      "constant": true
    },
    {
      "inputs": [],
      "name": "userIndex",
      "outputs": [
        {
          "internalType": "uint256",
          "name": "",
          "type": "uint256"
        }
      ],
      "stateMutability": "view",
      "type": "function",
      "constant": true
    },
    {
      "inputs": [
        {
          "internalType": "uint256",
          "name": "_showid",
          "type": "uint256"
        }
      ],
      "name": "getTicketPrice",
      "outputs": [
        {
          "internalType": "uint256",
          "name": "ticketPrice",
          "type": "uint256"
        }
      ],
      "stateMutability": "view",
      "type": "function",
      "constant": true
    },
    {
      "inputs": [
        {
          "internalType": "address",
          "name": "userAddr",
          "type": "address"
        }
      ],
      "name": "getMyTicket",
      "outputs": [
        {
          "components": [
            {
              "internalType": "uint256",
              "name": "showId",
              "type": "uint256"
            },
            {
              "internalType": "uint256",
              "name": "ticketId",
              "type": "uint256"
            },
            {
              "internalType": "address payable",
              "name": "owner",
              "type": "address"
            }
          ],
          "internalType": "struct Ticketing.Ticket[]",
          "name": "",
          "type": "tuple[]"
        }
      ],
      "stateMutability": "view",
      "type": "function",
      "constant": true
    },
    {
      "inputs": [
        {
          "internalType": "uint256",
          "name": "_ticketPrice",
          "type": "uint256"
        },
        {
          "internalType": "address payable",
          "name": "receiver",
          "type": "address"
        }
      ],
      "name": "transferWei",
      "outputs": [],
      "stateMutability": "payable",
      "type": "function",
      "payable": true
    },
    {
      "inputs": [
        {
          "internalType": "uint256",
          "name": "_ticketPrice",
          "type": "uint256"
        },
        {
          "internalType": "address",
          "name": "_showOwner",
          "type": "address"
        }
      ],
      "name": "createShow",
      "outputs": [
        {
          "internalType": "bool",
          "name": "sufficient",
          "type": "bool"
        }
      ],
      "stateMutability": "nonpayable",
      "type": "function"
    },
    {
      "inputs": [
        {
          "internalType": "uint256",
          "name": "_showId",
          "type": "uint256"
        },
        {
          "internalType": "address payable",
          "name": "_ticketOwner",
          "type": "address"
        }
      ],
      "name": "issueTicket",
      "outputs": [],
      "stateMutability": "payable",
      "type": "function",
      "payable": true
    },
    {
      "inputs": [
        {
          "internalType": "uint256",
          "name": "_showId",
          "type": "uint256"
        },
        {
          "internalType": "uint256",
          "name": "_ticketId",
          "type": "uint256"
        }
      ],
      "name": "resellTicket",
      "outputs": [],
      "stateMutability": "nonpayable",
      "type": "function"
    },
    {
      "inputs": [
        {
          "internalType": "uint256",
          "name": "_showId",
          "type": "uint256"
        },
        {
          "internalType": "uint256",
          "name": "_sellingQueueIndex",
          "type": "uint256"
        }
      ],
      "name": "buyTicket",
      "outputs": [],
      "stateMutability": "payable",
      "type": "function",
      "payable": true
    }
  ],
  "bytecode": "0x608060405260018055336000806101000a81548173ffffffffffffffffffffffffffffffffffffffff021916908373ffffffffffffffffffffffffffffffffffffffff16021790555062000075668e1bc9bf0400007382b162f01a49d96999e7563949cc738a4928e7ef6200013460201b60201c565b50620000a3668e1bc9bf0400007382b162f01a49d96999e7563949cc738a4928e7ef6200013460201b60201c565b50620000d166b1a2bc2ec50000735053f90d21c8e15471c30cb3c065a230e1baeb096200013460201b60201c565b50620000ff66b1a2bc2ec50000735053f90d21c8e15471c30cb3c065a230e1baeb096200013460201b60201c565b506200012d66d529ae9e8600007343432190d425f0bcee18f3c0e011d334a8a5f8936200013460201b60201c565b5062000259565b6000806004600060015481526020019081526020016000209050828160000160006101000a81548173ffffffffffffffffffffffffffffffffffffffff021916908373ffffffffffffffffffffffffffffffffffffffff160217905550600181600101819055506000816005018190555083816002018190555060016000815480929190620001c3906200020c565b9190505550600191505092915050565b7f4e487b7100000000000000000000000000000000000000000000000000000000600052601160045260246000fd5b6000819050919050565b6000620002198262000202565b91507fffffffffffffffffffffffffffffffffffffffffffffffffffffffffffffffff82036200024e576200024d620001d3565b5b600182019050919050565b61126d80620002696000396000f3fe6080604052600436106100c25760003560e01c806343270c321161007f578063753f225911610059578063753f22591461027d578063ab701207146102a8578063cb286d2a146102d3578063f06fc961146102fe576100c2565b806343270c32146101c35780634715d22b146102005780635b45e96514610240576100c2565b806310ca2539146100c757806327df931514610106578063298ec2081461012257806330f0931e1461013e578063348e99131461017e5780633b99f185146101a7575b600080fd5b3480156100d357600080fd5b506100ee60048036038101906100e99190610c8a565b61033b565b6040516100fd93929190610cfa565b60405180910390f35b610120600480360381019061011b9190610d5d565b6103a2565b005b61013c60048036038101906101379190610d9d565b610443565b005b34801561014a57600080fd5b5061016560048036038101906101609190610ddd565b61058c565b6040516101759493929190610e0a565b60405180910390f35b34801561018a57600080fd5b506101a560048036038101906101a09190610d9d565b6105dc565b005b6101c160048036038101906101bc9190610d5d565b61079f565b005b3480156101cf57600080fd5b506101ea60048036038101906101e59190610e4f565b6109ad565b6040516101f79190610eaa565b60405180910390f35b34801561020c57600080fd5b5061022760048036038101906102229190610c8a565b610a4a565b6040516102379493929190610e0a565b60405180910390f35b34801561024c57600080fd5b5061026760048036038101906102629190610ec5565b610ab7565b6040516102749190611001565b60405180910390f35b34801561028957600080fd5b50610292610bbf565b60405161029f9190611023565b60405180910390f35b3480156102b457600080fd5b506102bd610bc5565b6040516102ca9190611023565b60405180910390f35b3480156102df57600080fd5b506102e8610bcb565b6040516102f59190611023565b60405180910390f35b34801561030a57600080fd5b5061032560048036038101906103209190610ddd565b610bd1565b6040516103329190611023565b60405180910390f35b6005602052816000526040600020818154811061035757600080fd5b9060005260206000209060030201600091509150508060000154908060010154908060020160009054906101000a900473ffffffffffffffffffffffffffffffffffffffff16905083565b60003390508173ffffffffffffffffffffffffffffffffffffffff166108fc849081150290604051600060405180830381858888f193505050501580156103ed573d6000803e3d6000fd5b508073ffffffffffffffffffffffffffffffffffffffff167f15ca64a4ed482fa8131e95742689fa003e0d28703344365cf367315c7c5bc962848460405161043692919061109d565b60405180910390a2505050565b6000600460008481526020019081526020016000209050600081600401600084815260200190815260200160002060405180606001604052908160008201548152602001600182015481526020016002820160009054906101000a900473ffffffffffffffffffffffffffffffffffffffff1673ffffffffffffffffffffffffffffffffffffffff1673ffffffffffffffffffffffffffffffffffffffff168152505090506000816040015190506104fb34826103a2565b7f31b918c4d31b15fc1fa60f65740b9e976d33435bb9347d54a744b2992b1db1ce33823460405161052e939291906110d5565b60405180910390a182600401600085815260200190815260200160002060008082016000905560018201600090556002820160006101000a81549073ffffffffffffffffffffffffffffffffffffffff021916905550505050505050565b60046020528060005260406000206000915090508060000160009054906101000a900473ffffffffffffffffffffffffffffffffffffffff16908060010154908060020154908060050154905084565b600060046000848152602001908152602001600020905080600301600083815260200190815260200160002060020160009054906101000a900473ffffffffffffffffffffffffffffffffffffffff1673ffffffffffffffffffffffffffffffffffffffff163373ffffffffffffffffffffffffffffffffffffffff1614610699576040517f08c379a000000000000000000000000000000000000000000000000000000000815260040161069090611169565b60405180910390fd5b8060030160008381526020019081526020016000208160040160008360050154815260200190815260200160002060008201548160000155600182015481600101556002820160009054906101000a900473ffffffffffffffffffffffffffffffffffffffff168160020160006101000a81548173ffffffffffffffffffffffffffffffffffffffff021916908373ffffffffffffffffffffffffffffffffffffffff16021790555090505080600501600081548092919061075a906111b8565b91905055507fd6b8a8000f3b6b1d7b1b42a8e2508946bee055c5a1f21b18d4ac22090eca8f7833848460405161079293929190611200565b60405180910390a1505050565b600060046000848152602001908152602001600020905060006040518060600160405280858152602001836001015481526020018473ffffffffffffffffffffffffffffffffffffffff16815250905061081d348360000160009054906101000a900473ffffffffffffffffffffffffffffffffffffffff166103a2565b8082600301600084600101548152602001908152602001600020600082015181600001556020820151816001015560408201518160020160006101000a81548173ffffffffffffffffffffffffffffffffffffffff021916908373ffffffffffffffffffffffffffffffffffffffff160217905550905050600560003373ffffffffffffffffffffffffffffffffffffffff1673ffffffffffffffffffffffffffffffffffffffff168152602001908152602001600020819080600181540180825580915050600190039060005260206000209060030201600090919091909150600082015181600001556020820151816001015560408201518160020160006101000a81548173ffffffffffffffffffffffffffffffffffffffff021916908373ffffffffffffffffffffffffffffffffffffffff16021790555050508160010154847f519e942ac24eada72094b97d4a6090a1aacd08cbca42cd9bb9788f7a93a6a16160405160405180910390a38160010160008154809291906109a2906111b8565b919050555050505050565b6000806004600060015481526020019081526020016000209050828160000160006101000a81548173ffffffffffffffffffffffffffffffffffffffff021916908373ffffffffffffffffffffffffffffffffffffffff160217905550600181600101819055506000816005018190555083816002018190555060016000815480929190610a3a906111b8565b9190505550600191505092915050565b60066020528160005260406000208181548110610a6657600080fd5b9060005260206000209060060201600091509150508060000160009054906101000a900473ffffffffffffffffffffffffffffffffffffffff16908060010154908060020154908060050154905084565b6060600560008373ffffffffffffffffffffffffffffffffffffffff1673ffffffffffffffffffffffffffffffffffffffff168152602001908152602001600020805480602002602001604051908101604052809291908181526020016000905b82821015610bb4578382906000526020600020906003020160405180606001604052908160008201548152602001600182015481526020016002820160009054906101000a900473ffffffffffffffffffffffffffffffffffffffff1673ffffffffffffffffffffffffffffffffffffffff1673ffffffffffffffffffffffffffffffffffffffff168152505081526020019060010190610b18565b505050509050919050565b60035481565b60025481565b60015481565b600060046000838152602001908152602001600020600201549050919050565b600080fd5b600073ffffffffffffffffffffffffffffffffffffffff82169050919050565b6000610c2182610bf6565b9050919050565b610c3181610c16565b8114610c3c57600080fd5b50565b600081359050610c4e81610c28565b92915050565b6000819050919050565b610c6781610c54565b8114610c7257600080fd5b50565b600081359050610c8481610c5e565b92915050565b60008060408385031215610ca157610ca0610bf1565b5b6000610caf85828601610c3f565b9250506020610cc085828601610c75565b9150509250929050565b610cd381610c54565b82525050565b6000610ce482610bf6565b9050919050565b610cf481610cd9565b82525050565b6000606082019050610d0f6000830186610cca565b610d1c6020830185610cca565b610d296040830184610ceb565b949350505050565b610d3a81610cd9565b8114610d4557600080fd5b50565b600081359050610d5781610d31565b92915050565b60008060408385031215610d7457610d73610bf1565b5b6000610d8285828601610c75565b9250506020610d9385828601610d48565b9150509250929050565b60008060408385031215610db457610db3610bf1565b5b6000610dc285828601610c75565b9250506020610dd385828601610c75565b9150509250929050565b600060208284031215610df357610df2610bf1565b5b6000610e0184828501610c75565b91505092915050565b6000608082019050610e1f6000830187610ceb565b610e2c6020830186610cca565b610e396040830185610cca565b610e466060830184610cca565b95945050505050565b60008060408385031215610e6657610e65610bf1565b5b6000610e7485828601610c75565b9250506020610e8585828601610c3f565b9150509250929050565b60008115159050919050565b610ea481610e8f565b82525050565b6000602082019050610ebf6000830184610e9b565b92915050565b600060208284031215610edb57610eda610bf1565b5b6000610ee984828501610c3f565b91505092915050565b600081519050919050565b600082825260208201905092915050565b6000819050602082019050919050565b610f2781610c54565b82525050565b610f3681610cd9565b82525050565b606082016000820151610f526000850182610f1e565b506020820151610f656020850182610f1e565b506040820151610f786040850182610f2d565b50505050565b6000610f8a8383610f3c565b60608301905092915050565b6000602082019050919050565b6000610fae82610ef2565b610fb88185610efd565b9350610fc383610f0e565b8060005b83811015610ff4578151610fdb8882610f7e565b9750610fe683610f96565b925050600181019050610fc7565b5085935050505092915050565b6000602082019050818103600083015261101b8184610fa3565b905092915050565b60006020820190506110386000830184610cca565b92915050565b6000819050919050565b600061106361105e61105984610bf6565b61103e565b610bf6565b9050919050565b600061107582611048565b9050919050565b60006110878261106a565b9050919050565b6110978161107c565b82525050565b60006040820190506110b26000830185610cca565b6110bf602083018461108e565b9392505050565b6110cf81610c16565b82525050565b60006060820190506110ea60008301866110c6565b6110f7602083018561108e565b6111046040830184610cca565b949350505050565b600082825260208201905092915050565b7f596f7520646f6e2774206861766520746865207469636b657400000000000000600082015250565b600061115360198361110c565b915061115e8261111d565b602082019050919050565b6000602082019050818103600083015261118281611146565b9050919050565b7f4e487b7100000000000000000000000000000000000000000000000000000000600052601160045260246000fd5b60006111c382610c54565b91507fffffffffffffffffffffffffffffffffffffffffffffffffffffffffffffffff82036111f5576111f4611189565b5b600182019050919050565b600060608201905061121560008301866110c6565b6112226020830185610cca565b61122f6040830184610cca565b94935050505056fea26469706673582212208400659daec20b24a32a129dc873e78bcda744bd61e295098e2363142ca5961d64736f6c63430008130033",
  "immutableReferences": {},
  "source": "// SPDX-License-Identifier: MIT\r\npragma solidity ^0.8.13;\r\n\r\ncontract Ticketing {\r\n    address payable owner; //   \r\n    uint public showIndex = 1; //  id 1 \r\n    uint public userIndex; \r\n    uint public sellingQueueIndex;\r\n\r\n    mapping(uint => Show) public shows; //   \r\n    mapping(address => Ticket[]) public myTicket; // \r\n    mapping(address => Show[]) public myShow; //  \r\n\r\n    constructor() payable {\r\n        owner = payable(msg.sender);\r\n        createShow(40000000000000000, 0x82b162f01A49d96999e7563949cC738a4928e7EF);   // 88000\r\n        createShow(40000000000000000, 0x82b162f01A49d96999e7563949cC738a4928e7EF);    \r\n        createShow(50000000000000000, 0x5053f90D21c8E15471c30Cb3c065A230E1BaeB09);  //  11 \r\n        createShow(50000000000000000, 0x5053f90D21c8E15471c30Cb3c065A230E1BaeB09);\r\n        createShow(60000000000000000, 0x43432190d425F0BCeE18F3C0E011D334A8a5f893);  //  13 \r\n    }\r\n\r\n    struct Ticket {\r\n        uint showId;\r\n        uint ticketId;\r\n        address payable owner;\r\n    }\r\n\r\n    struct Show {\r\n        address payable owner; //  \r\n        uint ticketIndex;\r\n        uint ticketPrice;\r\n        mapping(uint => Ticket) tickets; // ticket \r\n        mapping(uint => Ticket) sellingQueue; //   \r\n        uint sellingQueueIndex;\r\n    }\r\n\r\n    event ISSUE_TICKET(uint indexed _showId, uint indexed _ticketId);\r\n\r\n    /// @notice   \r\n    event TRANSFER (address indexed sender, uint value, address receiver);\r\n\r\n    /// @notice    \r\n    event RESELL(address _owner, uint _showId, uint _ticketId);\r\n\r\n    /// @notice    \r\n    event BUY_TICKET(address from, address to, uint _ticketPrice);\r\n\r\n    function getTicketPrice (uint _showid) public view returns (uint ticketPrice){\r\n        return shows[_showid].ticketPrice;\r\n    }\r\n\r\n    function getMyTicket (address userAddr) public view returns (Ticket[] memory ){\r\n        return myTicket[userAddr];\r\n    }\r\n\r\n    /// @notice \r\n    function transferWei (uint _ticketPrice, address payable receiver) public payable{\r\n        address sender = msg.sender;\r\n        receiver.transfer(_ticketPrice);\r\n        // receiver.transfer(msg.value);\r\n        emit TRANSFER(sender, _ticketPrice, receiver);\r\n    }\r\n\r\n    /// @notice  \r\n    function createShow(uint _ticketPrice, address _showOwner) public returns (bool sufficient){\r\n        Show storage s = shows[showIndex];\r\n        //        \r\n        // s.owner = payable(msg.sender);\r\n        s.owner = payable(_showOwner);\r\n        s.ticketIndex = 1;\r\n        s.sellingQueueIndex = 0;\r\n        s.ticketPrice = _ticketPrice;\r\n        showIndex++;\r\n        return true;\r\n    }\r\n\r\n     /// @notice       \r\n    function issueTicket(uint _showId, address payable _ticketOwner) public payable{\r\n        Show storage s = shows[_showId];\r\n        Ticket memory t = Ticket({\r\n            showId: _showId,\r\n            ticketId: s.ticketIndex,\r\n            owner: _ticketOwner\r\n        });\r\n        transferWei(msg.value, s.owner); //   \r\n        // transferETH(s.ticketPrice, s.owner);\r\n\r\n        s.tickets[s.ticketIndex] = t;\r\n        myTicket[msg.sender].push(t);\r\n\r\n        emit ISSUE_TICKET(_showId, s.ticketIndex);\r\n        s.ticketIndex++;\r\n    }\r\n\r\n    /// @notice   (or )  \r\n    function resellTicket(uint _showId, uint _ticketId) public {\r\n        Show storage s = shows[_showId];\r\n\r\n        //    \r\n        require(\r\n            msg.sender == s.tickets[_ticketId].owner,\r\n            \"You don't have the ticket\"\r\n        );\r\n\r\n        //    =>       \r\n        s.sellingQueue[s.sellingQueueIndex] = s.tickets[_ticketId];\r\n        s.sellingQueueIndex++;\r\n\r\n        emit RESELL(msg.sender, _showId, _ticketId);\r\n    }\r\n\r\n    /// @notice    \r\n    function buyTicket(uint _showId, uint _sellingQueueIndex) public payable {\r\n        Show storage s = shows[_showId];\r\n        Ticket memory t = s.sellingQueue[_sellingQueueIndex];\r\n        \r\n        address payable seller = t.owner;\r\n\r\n        // require(msg.value == s.ticketPrice, \"Not enough ETH!\");\r\n        //     require();\r\n\r\n        //  \r\n        transferWei(msg.value, seller);\r\n        emit BUY_TICKET(msg.sender, seller, msg.value);\r\n        delete s.sellingQueue[_sellingQueueIndex];\r\n    }\r\n\r\n}\r\n",
  "sourcePath": "C:\\Repos\\gitTtime\\Ttime\\contracts\\Ticketing.sol",
  "compiler": {
    "name": "solc",
    "version": "0.8.19+commit.7dd6d404.Emscripten.clang"
  },
  "schemaVersion": "3.4.13",
  "updatedAt": "2023-06-16T00:54:05.880Z",
  "networkType": "ethereum",
  "devdoc": {
    "kind": "dev",
    "methods": {},
    "version": 1
  },
  "userdoc": {
    "events": {
      "BUY_TICKET(address,address,uint256)": {
        "notice": "   "
      },
      "RESELL(address,uint256,uint256)": {
        "notice": "   "
      },
      "TRANSFER(address,uint256,address)": {
        "notice": "  "
      }
    },
    "kind": "user",
    "methods": {
      "buyTicket(uint256,uint256)": {
        "notice": "   "
      },
      "createShow(uint256,address)": {
        "notice": " "
      },
      "issueTicket(uint256,address)": {
        "notice": "      "
      },
      "resellTicket(uint256,uint256)": {
        "notice": "  (or )  "
      },
      "transferWei(uint256,address)": {
        "notice": ""
      }
    },
    "version": 1
  }
}