{
  "contractName": "Ticketing",
  "abi": [
    {
      "inputs": [],
      "stateMutability": "payable",
      "type": "constructor",
      "payable": true
    },
    {
      "anonymous": false,
      "inputs": [
        {
          "indexed": false,
          "internalType": "address",
          "name": "from",
          "type": "address"
        },
        {
          "indexed": false,
          "internalType": "address",
          "name": "to",
          "type": "address"
        },
        {
          "indexed": false,
          "internalType": "uint256",
          "name": "_ticketPrice",
          "type": "uint256"
        }
      ],
      "name": "BUY_TICKET",
      "type": "event"
    },
    {
      "anonymous": false,
      "inputs": [
        {
          "indexed": false,
          "internalType": "uint256",
          "name": "_showId",
          "type": "uint256"
        },
        {
          "indexed": false,
          "internalType": "uint256",
          "name": "_ticketId",
          "type": "uint256"
        }
      ],
      "name": "ISSUE_TICKET",
      "type": "event"
    },
    {
      "anonymous": false,
      "inputs": [
        {
          "indexed": false,
          "internalType": "address",
          "name": "_owner",
          "type": "address"
        },
        {
          "indexed": false,
          "internalType": "uint256",
          "name": "_showId",
          "type": "uint256"
        },
        {
          "indexed": false,
          "internalType": "uint256",
          "name": "_ticketId",
          "type": "uint256"
        }
      ],
      "name": "RESELL",
      "type": "event"
    },
    {
      "inputs": [
        {
          "internalType": "address",
          "name": "",
          "type": "address"
        },
        {
          "internalType": "uint256",
          "name": "",
          "type": "uint256"
        }
      ],
      "name": "myShow",
      "outputs": [
        {
          "internalType": "address payable",
          "name": "owner",
          "type": "address"
        },
        {
          "internalType": "uint256",
          "name": "ticketIndex",
          "type": "uint256"
        },
        {
          "internalType": "uint256",
          "name": "ticketPrice",
          "type": "uint256"
        }
      ],
      "stateMutability": "view",
      "type": "function",
      "constant": true
    },
    {
      "inputs": [
        {
          "internalType": "address",
          "name": "",
          "type": "address"
        },
        {
          "internalType": "uint256",
          "name": "",
          "type": "uint256"
        }
      ],
      "name": "myTicket",
      "outputs": [
        {
          "internalType": "uint256",
          "name": "showId",
          "type": "uint256"
        },
        {
          "internalType": "uint256",
          "name": "ticketId",
          "type": "uint256"
        },
        {
          "internalType": "address payable",
          "name": "owner",
          "type": "address"
        }
      ],
      "stateMutability": "view",
      "type": "function",
      "constant": true
    },
    {
      "inputs": [
        {
          "internalType": "uint256",
          "name": "",
          "type": "uint256"
        }
      ],
      "name": "sellingQueue",
      "outputs": [
        {
          "internalType": "uint256",
          "name": "showId",
          "type": "uint256"
        },
        {
          "internalType": "uint256",
          "name": "ticketId",
          "type": "uint256"
        },
        {
          "internalType": "address payable",
          "name": "owner",
          "type": "address"
        }
      ],
      "stateMutability": "view",
      "type": "function",
      "constant": true
    },
    {
      "inputs": [],
      "name": "sellingQueueIndex",
      "outputs": [
        {
          "internalType": "uint256",
          "name": "",
          "type": "uint256"
        }
      ],
      "stateMutability": "view",
      "type": "function",
      "constant": true
    },
    {
      "inputs": [],
      "name": "showIndex",
      "outputs": [
        {
          "internalType": "uint256",
          "name": "",
          "type": "uint256"
        }
      ],
      "stateMutability": "view",
      "type": "function",
      "constant": true
    },
    {
      "inputs": [
        {
          "internalType": "uint256",
          "name": "",
          "type": "uint256"
        }
      ],
      "name": "shows",
      "outputs": [
        {
          "internalType": "address payable",
          "name": "owner",
          "type": "address"
        },
        {
          "internalType": "uint256",
          "name": "ticketIndex",
          "type": "uint256"
        },
        {
          "internalType": "uint256",
          "name": "ticketPrice",
          "type": "uint256"
        }
      ],
      "stateMutability": "view",
      "type": "function",
      "constant": true
    },
    {
      "inputs": [],
      "name": "createShow",
      "outputs": [
        {
          "internalType": "bool",
          "name": "sufficient",
          "type": "bool"
        }
      ],
      "stateMutability": "nonpayable",
      "type": "function"
    },
    {
      "inputs": [
        {
          "internalType": "uint256",
          "name": "_showId",
          "type": "uint256"
        },
        {
          "internalType": "address payable",
          "name": "_owner",
          "type": "address"
        }
      ],
      "name": "issueTicket",
      "outputs": [],
      "stateMutability": "payable",
      "type": "function",
      "payable": true
    },
    {
      "inputs": [
        {
          "internalType": "uint256",
          "name": "_showId",
          "type": "uint256"
        },
        {
          "internalType": "uint256",
          "name": "_ticketId",
          "type": "uint256"
        }
      ],
      "name": "resellTicket",
      "outputs": [],
      "stateMutability": "nonpayable",
      "type": "function"
    },
    {
      "inputs": [
        {
          "internalType": "uint256",
          "name": "_sellingQueueIndex",
          "type": "uint256"
        }
      ],
      "name": "buyTicket",
      "outputs": [],
      "stateMutability": "payable",
      "type": "function",
      "payable": true
    }
  ],
  "bytecode": "0x608060405260018055336000806101000a81548173ffffffffffffffffffffffffffffffffffffffff021916908373ffffffffffffffffffffffffffffffffffffffff16021790555062000058620000a360201b60201c565b5062000069620000a360201b60201c565b506200007a620000a360201b60201c565b506200008b620000a360201b60201c565b506200009c620000a360201b60201c565b506200016f565b60008060036000600154815260200190815260200160002090506000816001018190555060016000815480929190620000dc9062000122565b9190505550600191505090565b7f4e487b7100000000000000000000000000000000000000000000000000000000600052601160045260246000fd5b6000819050919050565b60006200012f8262000118565b91507fffffffffffffffffffffffffffffffffffffffffffffffffffffffffffffffff8203620001645762000163620000e9565b5b600182019050919050565b610e27806200017f6000396000f3fe6080604052600436106100915760003560e01c80633c11d60b116100595780633c11d60b146101845780634715d22b146101c357806367dd74ca14610202578063753f22591461021e578063cb286d2a1461024957610091565b806310ca25391461009657806325ee8dfe146100d557806330f0931e14610100578063348e99131461013f5780633b99f18514610168575b600080fd5b3480156100a257600080fd5b506100bd60048036038101906100b891906109f0565b610274565b6040516100cc93929190610a60565b60405180910390f35b3480156100e157600080fd5b506100ea6102db565b6040516100f79190610ab2565b60405180910390f35b34801561010c57600080fd5b5061012760048036038101906101229190610acd565b61031f565b60405161013693929190610afa565b60405180910390f35b34801561014b57600080fd5b5061016660048036038101906101619190610b31565b610369565b005b610182600480360381019061017d9190610b9d565b610526565b005b34801561019057600080fd5b506101ab60048036038101906101a69190610acd565b610711565b6040516101ba93929190610a60565b60405180910390f35b3480156101cf57600080fd5b506101ea60048036038101906101e591906109f0565b61075b565b6040516101f993929190610afa565b60405180910390f35b61021c60048036038101906102179190610acd565b6107c2565b005b34801561022a57600080fd5b5061023361094b565b6040516102409190610bdd565b60405180910390f35b34801561025557600080fd5b5061025e610951565b60405161026b9190610bdd565b60405180910390f35b6004602052816000526040600020818154811061029057600080fd5b9060005260206000209060030201600091509150508060000154908060010154908060020160009054906101000a900473ffffffffffffffffffffffffffffffffffffffff16905083565b6000806003600060015481526020019081526020016000209050600081600101819055506001600081548092919061031290610c27565b9190505550600191505090565b60036020528060005260406000206000915090508060000160009054906101000a900473ffffffffffffffffffffffffffffffffffffffff16908060010154908060020154905083565b600060036000848152602001908152602001600020905080600301600083815260200190815260200160002060020160009054906101000a900473ffffffffffffffffffffffffffffffffffffffff1673ffffffffffffffffffffffffffffffffffffffff163373ffffffffffffffffffffffffffffffffffffffff1614610426576040517f08c379a000000000000000000000000000000000000000000000000000000000815260040161041d90610ccc565b60405180910390fd5b80600301600083815260200190815260200160002060066000600254815260200190815260200160002060008201548160000155600182015481600101556002820160009054906101000a900473ffffffffffffffffffffffffffffffffffffffff168160020160006101000a81548173ffffffffffffffffffffffffffffffffffffffff021916908373ffffffffffffffffffffffffffffffffffffffff160217905550905050600260008154809291906104e190610c27565b91905055507fd6b8a8000f3b6b1d7b1b42a8e2508946bee055c5a1f21b18d4ac22090eca8f7833848460405161051993929190610cfb565b60405180910390a1505050565b600060036000848152602001908152602001600020905060006040518060600160405280858152602001836001015481526020018473ffffffffffffffffffffffffffffffffffffffff1681525090508082600301600084600101548152602001908152602001600020600082015181600001556020820151816001015560408201518160020160006101000a81548173ffffffffffffffffffffffffffffffffffffffff021916908373ffffffffffffffffffffffffffffffffffffffff160217905550905050600460008473ffffffffffffffffffffffffffffffffffffffff1673ffffffffffffffffffffffffffffffffffffffff168152602001908152602001600020819080600181540180825580915050600190039060005260206000209060030201600090919091909150600082015181600001556020820151816001015560408201518160020160006101000a81548173ffffffffffffffffffffffffffffffffffffffff021916908373ffffffffffffffffffffffffffffffffffffffff16021790555050507f519e942ac24eada72094b97d4a6090a1aacd08cbca42cd9bb9788f7a93a6a1618483600101546040516106e9929190610d32565b60405180910390a181600101600081548092919061070690610c27565b919050555050505050565b60066020528060005260406000206000915090508060000154908060010154908060020160009054906101000a900473ffffffffffffffffffffffffffffffffffffffff16905083565b6005602052816000526040600020818154811061077757600080fd5b9060005260206000209060040201600091509150508060000160009054906101000a900473ffffffffffffffffffffffffffffffffffffffff16908060010154908060020154905083565b60006006600083815260200190815260200160002060405180606001604052908160008201548152602001600182015481526020016002820160009054906101000a900473ffffffffffffffffffffffffffffffffffffffff1673ffffffffffffffffffffffffffffffffffffffff1673ffffffffffffffffffffffffffffffffffffffff168152505090506000600360008360000151815260200190815260200160002090506000826040015190508073ffffffffffffffffffffffffffffffffffffffff166108fc349081150290604051600060405180830381858888f193505050501580156108b8573d6000803e3d6000fd5b507f31b918c4d31b15fc1fa60f65740b9e976d33435bb9347d54a744b2992b1db1ce338284600201546040516108f093929190610dba565b60405180910390a16006600085815260200190815260200160002060008082016000905560018201600090556002820160006101000a81549073ffffffffffffffffffffffffffffffffffffffff0219169055505050505050565b60025481565b60015481565b600080fd5b600073ffffffffffffffffffffffffffffffffffffffff82169050919050565b60006109878261095c565b9050919050565b6109978161097c565b81146109a257600080fd5b50565b6000813590506109b48161098e565b92915050565b6000819050919050565b6109cd816109ba565b81146109d857600080fd5b50565b6000813590506109ea816109c4565b92915050565b60008060408385031215610a0757610a06610957565b5b6000610a15858286016109a5565b9250506020610a26858286016109db565b9150509250929050565b610a39816109ba565b82525050565b6000610a4a8261095c565b9050919050565b610a5a81610a3f565b82525050565b6000606082019050610a756000830186610a30565b610a826020830185610a30565b610a8f6040830184610a51565b949350505050565b60008115159050919050565b610aac81610a97565b82525050565b6000602082019050610ac76000830184610aa3565b92915050565b600060208284031215610ae357610ae2610957565b5b6000610af1848285016109db565b91505092915050565b6000606082019050610b0f6000830186610a51565b610b1c6020830185610a30565b610b296040830184610a30565b949350505050565b60008060408385031215610b4857610b47610957565b5b6000610b56858286016109db565b9250506020610b67858286016109db565b9150509250929050565b610b7a81610a3f565b8114610b8557600080fd5b50565b600081359050610b9781610b71565b92915050565b60008060408385031215610bb457610bb3610957565b5b6000610bc2858286016109db565b9250506020610bd385828601610b88565b9150509250929050565b6000602082019050610bf26000830184610a30565b92915050565b7f4e487b7100000000000000000000000000000000000000000000000000000000600052601160045260246000fd5b6000610c32826109ba565b91507fffffffffffffffffffffffffffffffffffffffffffffffffffffffffffffffff8203610c6457610c63610bf8565b5b600182019050919050565b600082825260208201905092915050565b7f596f7520646f6e2774206861766520746865207469636b657400000000000000600082015250565b6000610cb6601983610c6f565b9150610cc182610c80565b602082019050919050565b60006020820190508181036000830152610ce581610ca9565b9050919050565b610cf58161097c565b82525050565b6000606082019050610d106000830186610cec565b610d1d6020830185610a30565b610d2a6040830184610a30565b949350505050565b6000604082019050610d476000830185610a30565b610d546020830184610a30565b9392505050565b6000819050919050565b6000610d80610d7b610d768461095c565b610d5b565b61095c565b9050919050565b6000610d9282610d65565b9050919050565b6000610da482610d87565b9050919050565b610db481610d99565b82525050565b6000606082019050610dcf6000830186610cec565b610ddc6020830185610dab565b610de96040830184610a30565b94935050505056fea2646970667358221220deefd47ae6ba1f176232b4c539029821792ebda7b2acf66933e1f9f0dcbe104c64736f6c63430008130033",
  "immutableReferences": {},
  "source": "// SPDX-License-Identifier: MIT\r\npragma solidity ^0.8.13;\r\n\r\ncontract Ticketing {\r\n    address payable owner; //   \r\n    uint public showIndex = 1; //  id\r\n    uint public sellingQueueIndex;\r\n\r\n    mapping(uint => Show) public shows; //   \r\n    mapping(address => Ticket[]) public myTicket; // \r\n    mapping(address => Show[]) public myShow; //  \r\n    mapping(uint => Ticket) public sellingQueue; //    \r\n\r\n    constructor() payable {\r\n        owner = payable(msg.sender);\r\n        createShow(); // 1\r\n        createShow(); // 2\r\n        createShow(); // 3\r\n        createShow(); // 4\r\n        createShow(); // 5\r\n    }\r\n\r\n    struct Ticket {\r\n        uint showId;\r\n        uint ticketId;\r\n        address payable owner;\r\n    }\r\n\r\n    struct Show {\r\n        address payable owner; //  \r\n        //uint showid;\r\n        uint ticketIndex; //    \r\n        uint ticketPrice;\r\n        mapping(uint => Ticket) tickets; // ticket \r\n    }\r\n\r\n    event ISSUE_TICKET(uint _showId, uint _ticketId);\r\n\r\n    /// @notice   \r\n    // event Transfer (address indexed buyer, uint value);\r\n\r\n    /// @notice    \r\n    event RESELL(address _owner, uint _showId, uint _ticketId);\r\n\r\n    /// @notice    \r\n    event BUY_TICKET(address from, address to, uint _ticketPrice);\r\n\r\n    function createShow() public returns (bool sufficient){\r\n        Show storage s = shows[showIndex];\r\n        s.ticketIndex = 0;\r\n        showIndex++;\r\n        return true;\r\n    }\r\n     /// @notice       \r\n    function issueTicket(uint _showId, address payable _owner) public payable{\r\n        Show storage s = shows[_showId];\r\n        Ticket memory t = Ticket({\r\n            showId: _showId,\r\n            ticketId: s.ticketIndex,\r\n            owner: _owner\r\n        });\r\n\r\n        s.tickets[s.ticketIndex] = t;\r\n        myTicket[_owner].push(t);\r\n\r\n        emit ISSUE_TICKET(_showId, s.ticketIndex);\r\n        s.ticketIndex++;\r\n        // (s.owner).transfer(msg.value);\r\n    }\r\n\r\n    /// @notice   (or )  \r\n    function resellTicket(uint _showId, uint _ticketId) public {\r\n        Show storage s = shows[_showId];\r\n\r\n        //    \r\n        require(\r\n            msg.sender == s.tickets[_ticketId].owner,\r\n            \"You don't have the ticket\"\r\n        );\r\n\r\n        //    =>       \r\n        sellingQueue[sellingQueueIndex] = s.tickets[_ticketId];\r\n        sellingQueueIndex++;\r\n\r\n        emit RESELL(msg.sender, _showId, _ticketId);\r\n    }\r\n\r\n    function buyTicket(uint _sellingQueueIndex) public payable {\r\n        Ticket memory t = sellingQueue[_sellingQueueIndex];\r\n        Show storage s = shows[t.showId];\r\n        address payable seller = t.owner;\r\n\r\n        // require(msg.value == s.ticketPrice, \"Not enough ETH!\");\r\n        //     require();\r\n\r\n        //  \r\n        seller.transfer(msg.value);\r\n        emit BUY_TICKET(msg.sender, seller, s.ticketPrice);\r\n        delete sellingQueue[_sellingQueueIndex];\r\n    }\r\n\r\n}\r\n\r\n",
  "sourcePath": "C:\\Repos\\gitTtime\\Ttime\\contracts\\Ticketing.sol",
  "compiler": {
    "name": "solc",
    "version": "0.8.19+commit.7dd6d404.Emscripten.clang"
  },
  "schemaVersion": "3.4.13",
  "updatedAt": "2023-06-12T07:35:04.270Z",
  "networkType": "ethereum",
  "devdoc": {
    "kind": "dev",
    "methods": {},
    "version": 1
  },
  "userdoc": {
    "events": {
      "BUY_TICKET(address,address,uint256)": {
        "notice": "   "
      },
      "RESELL(address,uint256,uint256)": {
        "notice": "   "
      }
    },
    "kind": "user",
    "methods": {
      "issueTicket(uint256,address)": {
        "notice": "      "
      },
      "resellTicket(uint256,uint256)": {
        "notice": "  (or )  "
      }
    },
    "version": 1
  }
}