{
  "contractName": "Ticketing",
  "abi": [
    {
      "inputs": [],
      "stateMutability": "payable",
      "type": "constructor",
      "payable": true
    },
    {
      "anonymous": false,
      "inputs": [
        {
          "indexed": false,
          "internalType": "address",
          "name": "from",
          "type": "address"
        },
        {
          "indexed": false,
          "internalType": "address",
          "name": "to",
          "type": "address"
        },
        {
          "indexed": false,
          "internalType": "uint256",
          "name": "_ticketPrice",
          "type": "uint256"
        }
      ],
      "name": "BUY_TICKET",
      "type": "event"
    },
    {
      "anonymous": false,
      "inputs": [
        {
          "indexed": true,
          "internalType": "address",
          "name": "user",
          "type": "address"
        }
      ],
      "name": "Book",
      "type": "event"
    },
    {
      "anonymous": false,
      "inputs": [
        {
          "indexed": true,
          "internalType": "uint256",
          "name": "_showId",
          "type": "uint256"
        },
        {
          "indexed": false,
          "internalType": "string",
          "name": "_name",
          "type": "string"
        },
        {
          "indexed": false,
          "internalType": "uint256",
          "name": "_date",
          "type": "uint256"
        },
        {
          "indexed": false,
          "internalType": "uint256",
          "name": "_totalNumOfSeat",
          "type": "uint256"
        },
        {
          "indexed": false,
          "internalType": "uint256",
          "name": "_ticketPrice",
          "type": "uint256"
        }
      ],
      "name": "CREATE_SHOW",
      "type": "event"
    },
    {
      "anonymous": false,
      "inputs": [
        {
          "indexed": false,
          "internalType": "uint256",
          "name": "_showId",
          "type": "uint256"
        },
        {
          "indexed": false,
          "internalType": "uint256",
          "name": "_ticketId",
          "type": "uint256"
        }
      ],
      "name": "ISSUE_TICKET",
      "type": "event"
    },
    {
      "anonymous": false,
      "inputs": [
        {
          "indexed": false,
          "internalType": "address",
          "name": "_owner",
          "type": "address"
        },
        {
          "indexed": false,
          "internalType": "uint256",
          "name": "_showId",
          "type": "uint256"
        },
        {
          "indexed": false,
          "internalType": "uint256",
          "name": "_ticketId",
          "type": "uint256"
        }
      ],
      "name": "RESELL",
      "type": "event"
    },
    {
      "inputs": [
        {
          "internalType": "address",
          "name": "",
          "type": "address"
        },
        {
          "internalType": "uint256",
          "name": "",
          "type": "uint256"
        }
      ],
      "name": "myShow",
      "outputs": [
        {
          "internalType": "address payable",
          "name": "owner",
          "type": "address"
        },
        {
          "internalType": "uint256",
          "name": "showId",
          "type": "uint256"
        },
        {
          "internalType": "string",
          "name": "name",
          "type": "string"
        },
        {
          "internalType": "uint256",
          "name": "date",
          "type": "uint256"
        },
        {
          "internalType": "uint256",
          "name": "totalNumOfSeat",
          "type": "uint256"
        },
        {
          "internalType": "uint256",
          "name": "ticketPrice",
          "type": "uint256"
        },
        {
          "internalType": "uint256",
          "name": "ticketIndex",
          "type": "uint256"
        }
      ],
      "stateMutability": "view",
      "type": "function",
      "constant": true
    },
    {
      "inputs": [
        {
          "internalType": "address",
          "name": "",
          "type": "address"
        },
        {
          "internalType": "uint256",
          "name": "",
          "type": "uint256"
        }
      ],
      "name": "myTicket",
      "outputs": [
        {
          "internalType": "uint256",
          "name": "ticketId",
          "type": "uint256"
        },
        {
          "internalType": "uint256",
          "name": "showId",
          "type": "uint256"
        },
        {
          "internalType": "address payable",
          "name": "owner",
          "type": "address"
        }
      ],
      "stateMutability": "view",
      "type": "function",
      "constant": true
    },
    {
      "inputs": [],
      "name": "sellingQueueIndex",
      "outputs": [
        {
          "internalType": "uint256",
          "name": "",
          "type": "uint256"
        }
      ],
      "stateMutability": "view",
      "type": "function",
      "constant": true
    },
    {
      "inputs": [],
      "name": "showIndex",
      "outputs": [
        {
          "internalType": "uint256",
          "name": "",
          "type": "uint256"
        }
      ],
      "stateMutability": "view",
      "type": "function",
      "constant": true
    },
    {
      "inputs": [
        {
          "internalType": "uint256",
          "name": "",
          "type": "uint256"
        }
      ],
      "name": "shows",
      "outputs": [
        {
          "internalType": "address payable",
          "name": "owner",
          "type": "address"
        },
        {
          "internalType": "uint256",
          "name": "showId",
          "type": "uint256"
        },
        {
          "internalType": "string",
          "name": "name",
          "type": "string"
        },
        {
          "internalType": "uint256",
          "name": "date",
          "type": "uint256"
        },
        {
          "internalType": "uint256",
          "name": "totalNumOfSeat",
          "type": "uint256"
        },
        {
          "internalType": "uint256",
          "name": "ticketPrice",
          "type": "uint256"
        },
        {
          "internalType": "uint256",
          "name": "ticketIndex",
          "type": "uint256"
        }
      ],
      "stateMutability": "view",
      "type": "function",
      "constant": true
    },
    {
      "inputs": [],
      "name": "userIndex",
      "outputs": [
        {
          "internalType": "uint256",
          "name": "",
          "type": "uint256"
        }
      ],
      "stateMutability": "view",
      "type": "function",
      "constant": true
    },
    {
      "inputs": [
        {
          "internalType": "address",
          "name": "",
          "type": "address"
        }
      ],
      "name": "users",
      "outputs": [
        {
          "internalType": "address",
          "name": "userAddr",
          "type": "address"
        }
      ],
      "stateMutability": "view",
      "type": "function",
      "constant": true
    },
    {
      "inputs": [
        {
          "internalType": "string",
          "name": "_name",
          "type": "string"
        },
        {
          "internalType": "uint256",
          "name": "_date",
          "type": "uint256"
        },
        {
          "internalType": "uint256",
          "name": "_totalNumOfSeat",
          "type": "uint256"
        },
        {
          "internalType": "uint256",
          "name": "_ticketPrice",
          "type": "uint256"
        }
      ],
      "name": "createEvent",
      "outputs": [
        {
          "internalType": "bool",
          "name": "sufficient",
          "type": "bool"
        }
      ],
      "stateMutability": "nonpayable",
      "type": "function"
    },
    {
      "inputs": [],
      "name": "book",
      "outputs": [],
      "stateMutability": "nonpayable",
      "type": "function"
    },
    {
      "inputs": [],
      "name": "random",
      "outputs": [],
      "stateMutability": "nonpayable",
      "type": "function"
    },
    {
      "inputs": [
        {
          "internalType": "uint256",
          "name": "_showId",
          "type": "uint256"
        },
        {
          "internalType": "address payable",
          "name": "_owner",
          "type": "address"
        }
      ],
      "name": "issueTicket",
      "outputs": [],
      "stateMutability": "payable",
      "type": "function",
      "payable": true
    },
    {
      "inputs": [
        {
          "internalType": "uint256",
          "name": "_showId",
          "type": "uint256"
        },
        {
          "internalType": "uint256",
          "name": "_ticketId",
          "type": "uint256"
        }
      ],
      "name": "resellTicket",
      "outputs": [],
      "stateMutability": "nonpayable",
      "type": "function"
    },
    {
      "inputs": [
        {
          "internalType": "uint256",
          "name": "_sellingQueueIndex",
          "type": "uint256"
        }
      ],
      "name": "buyTicket",
      "outputs": [],
      "stateMutability": "payable",
      "type": "function",
      "payable": true
    },
    {
      "inputs": [
        {
          "internalType": "uint256",
          "name": "_showId",
          "type": "uint256"
        }
      ],
      "name": "getShowInfo",
      "outputs": [
        {
          "internalType": "string",
          "name": "_name",
          "type": "string"
        },
        {
          "internalType": "uint256",
          "name": "_date",
          "type": "uint256"
        }
      ],
      "stateMutability": "view",
      "type": "function",
      "constant": true
    },
    {
      "inputs": [
        {
          "internalType": "uint256",
          "name": "_showId",
          "type": "uint256"
        },
        {
          "internalType": "uint256",
          "name": "_ticketId",
          "type": "uint256"
        }
      ],
      "name": "getTicketOwner",
      "outputs": [
        {
          "internalType": "address",
          "name": "",
          "type": "address"
        }
      ],
      "stateMutability": "view",
      "type": "function",
      "constant": true
    },
    {
      "inputs": [],
      "name": "getApplicantList",
      "outputs": [
        {
          "internalType": "address[]",
          "name": "",
          "type": "address[]"
        }
      ],
      "stateMutability": "view",
      "type": "function",
      "constant": true
    },
    {
      "inputs": [],
      "name": "getSeats",
      "outputs": [
        {
          "internalType": "address[]",
          "name": "",
          "type": "address[]"
        }
      ],
      "stateMutability": "view",
      "type": "function",
      "constant": true
    }
  ],
  "bytecode": "0x6080604052336000806101000a81548173ffffffffffffffffffffffffffffffffffffffff021916908373ffffffffffffffffffffffffffffffffffffffff160217905550620000956040518060400160405280600f81526020017f736f776f6e46616e6d656574696e670000000000000000000000000000000000815250630134b1ca6002620186a06200009c60201b60201c565b506200066c565b6000806004600060015481526020019081526020016000209050338160000160006101000a81548173ffffffffffffffffffffffffffffffffffffffff021916908373ffffffffffffffffffffffffffffffffffffffff160217905550858160020190816200010c919062000415565b50848160030181905550838160040181905550828160050181905550600081600601819055506001547f24710ea604959358a15fb6ed8de508d0f080174f90b349950fd6c66818e2d2c3878787876040516200016c94939291906200059c565b60405180910390a26001600081548092919062000189906200061f565b91905055506001915050949350505050565b600081519050919050565b7f4e487b7100000000000000000000000000000000000000000000000000000000600052604160045260246000fd5b7f4e487b7100000000000000000000000000000000000000000000000000000000600052602260045260246000fd5b600060028204905060018216806200021d57607f821691505b602082108103620002335762000232620001d5565b5b50919050565b60008190508160005260206000209050919050565b60006020601f8301049050919050565b600082821b905092915050565b6000600883026200029d7fffffffffffffffffffffffffffffffffffffffffffffffffffffffffffffffff826200025e565b620002a986836200025e565b95508019841693508086168417925050509392505050565b6000819050919050565b6000819050919050565b6000620002f6620002f0620002ea84620002c1565b620002cb565b620002c1565b9050919050565b6000819050919050565b6200031283620002d5565b6200032a6200032182620002fd565b8484546200026b565b825550505050565b600090565b6200034162000332565b6200034e81848462000307565b505050565b5b8181101562000376576200036a60008262000337565b60018101905062000354565b5050565b601f821115620003c5576200038f8162000239565b6200039a846200024e565b81016020851015620003aa578190505b620003c2620003b9856200024e565b83018262000353565b50505b505050565b600082821c905092915050565b6000620003ea60001984600802620003ca565b1980831691505092915050565b6000620004058383620003d7565b9150826002028217905092915050565b62000420826200019b565b67ffffffffffffffff8111156200043c576200043b620001a6565b5b62000448825462000204565b620004558282856200037a565b600060209050601f8311600181146200048d576000841562000478578287015190505b620004848582620003f7565b865550620004f4565b601f1984166200049d8662000239565b60005b82811015620004c757848901518255600182019150602085019450602081019050620004a0565b86831015620004e75784890151620004e3601f891682620003d7565b8355505b6001600288020188555050505b505050505050565b600082825260208201905092915050565b60005b838110156200052d57808201518184015260208101905062000510565b60008484015250505050565b6000601f19601f8301169050919050565b600062000557826200019b565b620005638185620004fc565b9350620005758185602086016200050d565b620005808162000539565b840191505092915050565b6200059681620002c1565b82525050565b60006080820190508181036000830152620005b881876200054a565b9050620005c960208301866200058b565b620005d860408301856200058b565b620005e760608301846200058b565b95945050505050565b7f4e487b7100000000000000000000000000000000000000000000000000000000600052601160045260246000fd5b60006200062c82620002c1565b91507fffffffffffffffffffffffffffffffffffffffffffffffffffffffffffffffff8203620006615762000660620005f0565b5b600182019050919050565b612172806200067c6000396000f3fe6080604052600436106100fe5760003560e01c80635367c94b11610095578063753f225911610064578063753f22591461033a578063a87430ba14610365578063a997c66a146103a2578063ab701207146103cd578063cb286d2a146103f8576100fe565b80635367c94b1461029f5780635ec01e4d146102ca5780635f773d7f146102e157806367dd74ca1461031e576100fe565b8063348e9913116100d1578063348e9913146101d95780633b99f185146102025780634715d22b1461021e5780634dfecf8e14610261576100fe565b80630374ab0b1461010357806305a8da721461014057806310ca25391461015757806330f0931e14610196575b600080fd5b34801561010f57600080fd5b5061012a60048036038101906101259190611528565b610423565b60405161013791906115c6565b60405180910390f35b34801561014c57600080fd5b5061015561051c565b005b34801561016357600080fd5b5061017e6004803603810190610179919061163f565b610697565b60405161018d939291906116af565b60405180910390f35b3480156101a257600080fd5b506101bd60048036038101906101b891906116e6565b6106fe565b6040516101d09796959493929190611792565b60405180910390f35b3480156101e557600080fd5b5061020060048036038101906101fb9190611808565b6107e8565b005b61021c60048036038101906102179190611874565b6109a5565b005b34801561022a57600080fd5b506102456004803603810190610240919061163f565b610be0565b6040516102589796959493929190611792565b60405180910390f35b34801561026d57600080fd5b50610288600480360381019061028391906116e6565b610ce7565b6040516102969291906118b4565b60405180910390f35b3480156102ab57600080fd5b506102b4610d9d565b6040516102c191906119a2565b60405180910390f35b3480156102d657600080fd5b506102df610e41565b005b3480156102ed57600080fd5b5061030860048036038101906103039190611808565b611080565b60405161031591906119d3565b60405180910390f35b610338600480360381019061033391906116e6565b6110d5565b005b34801561034657600080fd5b5061034f6112a4565b60405161035c91906119ee565b60405180910390f35b34801561037157600080fd5b5061038c60048036038101906103879190611a09565b6112aa565b60405161039991906119d3565b60405180910390f35b3480156103ae57600080fd5b506103b76112e8565b6040516103c491906119a2565b60405180910390f35b3480156103d957600080fd5b506103e261138c565b6040516103ef91906119ee565b60405180910390f35b34801561040457600080fd5b5061040d611392565b60405161041a91906119ee565b60405180910390f35b6000806004600060015481526020019081526020016000209050338160000160006101000a81548173ffffffffffffffffffffffffffffffffffffffff021916908373ffffffffffffffffffffffffffffffffffffffff160217905550858160020190816104919190611c42565b50848160030181905550838160040181905550828160050181905550600081600601819055506001547f24710ea604959358a15fb6ed8de508d0f080174f90b349950fd6c66818e2d2c3878787876040516104ef9493929190611d14565b60405180910390a26001600081548092919061050a90611d8f565b91905055506001915050949350505050565b600060046000600154815260200190815260200160002090506000600560003373ffffffffffffffffffffffffffffffffffffffff1673ffffffffffffffffffffffffffffffffffffffff1681526020019081526020016000209050338160000160006101000a81548173ffffffffffffffffffffffffffffffffffffffff021916908373ffffffffffffffffffffffffffffffffffffffff1602179055506000816001016000600154815260200190815260200160002060006101000a81548160ff02191690831515021790555081600801339080600181540180825580915050600190039060005260206000200160009091909190916101000a81548173ffffffffffffffffffffffffffffffffffffffff021916908373ffffffffffffffffffffffffffffffffffffffff1602179055503373ffffffffffffffffffffffffffffffffffffffff167f32040c4a6c0155b8eb08b7cf28e9d1467b751582a9fc2021fc63553de82b5ac960405160405180910390a25050565b600660205281600052604060002081815481106106b357600080fd5b9060005260206000209060030201600091509150508060000154908060010154908060020160009054906101000a900473ffffffffffffffffffffffffffffffffffffffff16905083565b60046020528060005260406000206000915090508060000160009054906101000a900473ffffffffffffffffffffffffffffffffffffffff169080600101549080600201805461074d90611a65565b80601f016020809104026020016040519081016040528092919081815260200182805461077990611a65565b80156107c65780601f1061079b576101008083540402835291602001916107c6565b820191906000526020600020905b8154815290600101906020018083116107a957829003601f168201915b5050505050908060030154908060040154908060050154908060060154905087565b600060046000848152602001908152602001600020905080600701600083815260200190815260200160002060020160009054906101000a900473ffffffffffffffffffffffffffffffffffffffff1673ffffffffffffffffffffffffffffffffffffffff163373ffffffffffffffffffffffffffffffffffffffff16146108a5576040517f08c379a000000000000000000000000000000000000000000000000000000000815260040161089c90611e23565b60405180910390fd5b80600701600083815260200190815260200160002060086000600354815260200190815260200160002060008201548160000155600182015481600101556002820160009054906101000a900473ffffffffffffffffffffffffffffffffffffffff168160020160006101000a81548173ffffffffffffffffffffffffffffffffffffffff021916908373ffffffffffffffffffffffffffffffffffffffff1602179055509050506003600081548092919061096090611d8f565b91905055507fd6b8a8000f3b6b1d7b1b42a8e2508946bee055c5a1f21b18d4ac22090eca8f7833848460405161099893929190611e43565b60405180910390a1505050565b600060046000848152602001908152602001600020905060011515600560003373ffffffffffffffffffffffffffffffffffffffff1673ffffffffffffffffffffffffffffffffffffffff1681526020019081526020016000206001016000600154815260200190815260200160002060009054906101000a900460ff16151514610a65576040517f08c379a0000000000000000000000000000000000000000000000000000000008152600401610a5c90611ec6565b60405180910390fd5b604051806060016040528082600601548152602001826001015481526020018373ffffffffffffffffffffffffffffffffffffffff1681525081600701600083600601548152602001908152602001600020600082015181600001556020820151816001015560408201518160020160006101000a81548173ffffffffffffffffffffffffffffffffffffffff021916908373ffffffffffffffffffffffffffffffffffffffff1602179055509050507f519e942ac24eada72094b97d4a6090a1aacd08cbca42cd9bb9788f7a93a6a16181600101548260060154604051610b4e929190611ee6565b60405180910390a1806006016000815480929190610b6b90611d8f565b91905055508060000160009054906101000a900473ffffffffffffffffffffffffffffffffffffffff1673ffffffffffffffffffffffffffffffffffffffff166108fc349081150290604051600060405180830381858888f19350505050158015610bda573d6000803e3d6000fd5b50505050565b60076020528160005260406000208181548110610bfc57600080fd5b90600052602060002090600a0201600091509150508060000160009054906101000a900473ffffffffffffffffffffffffffffffffffffffff1690806001015490806002018054610c4c90611a65565b80601f0160208091040260200160405190810160405280929190818152602001828054610c7890611a65565b8015610cc55780601f10610c9a57610100808354040283529160200191610cc5565b820191906000526020600020905b815481529060010190602001808311610ca857829003601f168201915b5050505050908060030154908060040154908060050154908060060154905087565b6060600080600460008581526020019081526020016000209050806002018054610d1090611a65565b80601f0160208091040260200160405190810160405280929190818152602001828054610d3c90611a65565b8015610d895780601f10610d5e57610100808354040283529160200191610d89565b820191906000526020600020905b815481529060010190602001808311610d6c57829003601f168201915b505050505092508060030154915050915091565b6060600460006001548152602001908152602001600020600801805480602002602001604051908101604052809291908181526020018280548015610e3757602002820191906000526020600020905b8160009054906101000a900473ffffffffffffffffffffffffffffffffffffffff1673ffffffffffffffffffffffffffffffffffffffff1681526020019060010190808311610ded575b5050505050905090565b600060046000600154815260200190815260200160002090506000816001015490506000600460008381526020019081526020016000206004015490506000836008018054905090506000808060005b85811015611076578380610ea490611d8f565b9450505b84423386604051602001610ebe93929190611f78565b6040516020818303038152906040528051906020012060001c610ee19190611fe4565b9250876008018381548110610ef957610ef8612015565b5b9060005260206000200160009054906101000a900473ffffffffffffffffffffffffffffffffffffffff16915060011515600560008473ffffffffffffffffffffffffffffffffffffffff1673ffffffffffffffffffffffffffffffffffffffff168152602001908152602001600020600101600089815260200190815260200160002060009054906101000a900460ff16151514610ea85787600901829080600181540180825580915050600190039060005260206000200160009091909190916101000a81548173ffffffffffffffffffffffffffffffffffffffff021916908373ffffffffffffffffffffffffffffffffffffffff1602179055506001600560008473ffffffffffffffffffffffffffffffffffffffff1673ffffffffffffffffffffffffffffffffffffffff168152602001908152602001600020600101600089815260200190815260200160002060006101000a81548160ff021916908315150217905550808061106e90611d8f565b915050610e91565b5050505050505050565b600060046000848152602001908152602001600020600701600083815260200190815260200160002060020160009054906101000a900473ffffffffffffffffffffffffffffffffffffffff16905092915050565b60006008600083815260200190815260200160002060405180606001604052908160008201548152602001600182015481526020016002820160009054906101000a900473ffffffffffffffffffffffffffffffffffffffff1673ffffffffffffffffffffffffffffffffffffffff1673ffffffffffffffffffffffffffffffffffffffff16815250509050600060046000836020015181526020019081526020016000209050600082604001519050816005015434146111cb576040517f08c379a00000000000000000000000000000000000000000000000000000000081526004016111c290612090565b60405180910390fd5b8073ffffffffffffffffffffffffffffffffffffffff166108fc349081150290604051600060405180830381858888f19350505050158015611211573d6000803e3d6000fd5b507f31b918c4d31b15fc1fa60f65740b9e976d33435bb9347d54a744b2992b1db1ce3382846005015460405161124993929190612105565b60405180910390a16008600085815260200190815260200160002060008082016000905560018201600090556002820160006101000a81549073ffffffffffffffffffffffffffffffffffffffff0219169055505050505050565b60035481565b60056020528060005260406000206000915090508060000160009054906101000a900473ffffffffffffffffffffffffffffffffffffffff16905081565b606060046000600154815260200190815260200160002060090180548060200260200160405190810160405280929190818152602001828054801561138257602002820191906000526020600020905b8160009054906101000a900473ffffffffffffffffffffffffffffffffffffffff1673ffffffffffffffffffffffffffffffffffffffff1681526020019060010190808311611338575b5050505050905090565b60025481565b60015481565b6000604051905090565b600080fd5b600080fd5b600080fd5b600080fd5b6000601f19601f8301169050919050565b7f4e487b7100000000000000000000000000000000000000000000000000000000600052604160045260246000fd5b6113ff826113b6565b810181811067ffffffffffffffff8211171561141e5761141d6113c7565b5b80604052505050565b6000611431611398565b905061143d82826113f6565b919050565b600067ffffffffffffffff82111561145d5761145c6113c7565b5b611466826113b6565b9050602081019050919050565b82818337600083830152505050565b600061149561149084611442565b611427565b9050828152602081018484840111156114b1576114b06113b1565b5b6114bc848285611473565b509392505050565b600082601f8301126114d9576114d86113ac565b5b81356114e9848260208601611482565b91505092915050565b6000819050919050565b611505816114f2565b811461151057600080fd5b50565b600081359050611522816114fc565b92915050565b60008060008060808587031215611542576115416113a2565b5b600085013567ffffffffffffffff8111156115605761155f6113a7565b5b61156c878288016114c4565b945050602061157d87828801611513565b935050604061158e87828801611513565b925050606061159f87828801611513565b91505092959194509250565b60008115159050919050565b6115c0816115ab565b82525050565b60006020820190506115db60008301846115b7565b92915050565b600073ffffffffffffffffffffffffffffffffffffffff82169050919050565b600061160c826115e1565b9050919050565b61161c81611601565b811461162757600080fd5b50565b60008135905061163981611613565b92915050565b60008060408385031215611656576116556113a2565b5b60006116648582860161162a565b925050602061167585828601611513565b9150509250929050565b611688816114f2565b82525050565b6000611699826115e1565b9050919050565b6116a98161168e565b82525050565b60006060820190506116c4600083018661167f565b6116d1602083018561167f565b6116de60408301846116a0565b949350505050565b6000602082840312156116fc576116fb6113a2565b5b600061170a84828501611513565b91505092915050565b600081519050919050565b600082825260208201905092915050565b60005b8381101561174d578082015181840152602081019050611732565b60008484015250505050565b600061176482611713565b61176e818561171e565b935061177e81856020860161172f565b611787816113b6565b840191505092915050565b600060e0820190506117a7600083018a6116a0565b6117b4602083018961167f565b81810360408301526117c68188611759565b90506117d5606083018761167f565b6117e2608083018661167f565b6117ef60a083018561167f565b6117fc60c083018461167f565b98975050505050505050565b6000806040838503121561181f5761181e6113a2565b5b600061182d85828601611513565b925050602061183e85828601611513565b9150509250929050565b6118518161168e565b811461185c57600080fd5b50565b60008135905061186e81611848565b92915050565b6000806040838503121561188b5761188a6113a2565b5b600061189985828601611513565b92505060206118aa8582860161185f565b9150509250929050565b600060408201905081810360008301526118ce8185611759565b90506118dd602083018461167f565b9392505050565b600081519050919050565b600082825260208201905092915050565b6000819050602082019050919050565b61191981611601565b82525050565b600061192b8383611910565b60208301905092915050565b6000602082019050919050565b600061194f826118e4565b61195981856118ef565b935061196483611900565b8060005b8381101561199557815161197c888261191f565b975061198783611937565b925050600181019050611968565b5085935050505092915050565b600060208201905081810360008301526119bc8184611944565b905092915050565b6119cd81611601565b82525050565b60006020820190506119e860008301846119c4565b92915050565b6000602082019050611a03600083018461167f565b92915050565b600060208284031215611a1f57611a1e6113a2565b5b6000611a2d8482850161162a565b91505092915050565b7f4e487b7100000000000000000000000000000000000000000000000000000000600052602260045260246000fd5b60006002820490506001821680611a7d57607f821691505b602082108103611a9057611a8f611a36565b5b50919050565b60008190508160005260206000209050919050565b60006020601f8301049050919050565b600082821b905092915050565b600060088302611af87fffffffffffffffffffffffffffffffffffffffffffffffffffffffffffffffff82611abb565b611b028683611abb565b95508019841693508086168417925050509392505050565b6000819050919050565b6000611b3f611b3a611b35846114f2565b611b1a565b6114f2565b9050919050565b6000819050919050565b611b5983611b24565b611b6d611b6582611b46565b848454611ac8565b825550505050565b600090565b611b82611b75565b611b8d818484611b50565b505050565b5b81811015611bb157611ba6600082611b7a565b600181019050611b93565b5050565b601f821115611bf657611bc781611a96565b611bd084611aab565b81016020851015611bdf578190505b611bf3611beb85611aab565b830182611b92565b50505b505050565b600082821c905092915050565b6000611c1960001984600802611bfb565b1980831691505092915050565b6000611c328383611c08565b9150826002028217905092915050565b611c4b82611713565b67ffffffffffffffff811115611c6457611c636113c7565b5b611c6e8254611a65565b611c79828285611bb5565b600060209050601f831160018114611cac5760008415611c9a578287015190505b611ca48582611c26565b865550611d0c565b601f198416611cba86611a96565b60005b82811015611ce257848901518255600182019150602085019450602081019050611cbd565b86831015611cff5784890151611cfb601f891682611c08565b8355505b6001600288020188555050505b505050505050565b60006080820190508181036000830152611d2e8187611759565b9050611d3d602083018661167f565b611d4a604083018561167f565b611d57606083018461167f565b95945050505050565b7f4e487b7100000000000000000000000000000000000000000000000000000000600052601160045260246000fd5b6000611d9a826114f2565b91507fffffffffffffffffffffffffffffffffffffffffffffffffffffffffffffffff8203611dcc57611dcb611d60565b5b600182019050919050565b7f596f7520646f6e2774206861766520746865207469636b657400000000000000600082015250565b6000611e0d60198361171e565b9150611e1882611dd7565b602082019050919050565b60006020820190508181036000830152611e3c81611e00565b9050919050565b6000606082019050611e5860008301866119c4565b611e65602083018561167f565b611e72604083018461167f565b949350505050565b7f646f6e27742068617665207469636b6574000000000000000000000000000000600082015250565b6000611eb060118361171e565b9150611ebb82611e7a565b602082019050919050565b60006020820190508181036000830152611edf81611ea3565b9050919050565b6000604082019050611efb600083018561167f565b611f08602083018461167f565b9392505050565b6000819050919050565b611f2a611f25826114f2565b611f0f565b82525050565b60008160601b9050919050565b6000611f4882611f30565b9050919050565b6000611f5a82611f3d565b9050919050565b611f72611f6d82611601565b611f4f565b82525050565b6000611f848286611f19565b602082019150611f948285611f61565b601482019150611fa48284611f19565b602082019150819050949350505050565b7f4e487b7100000000000000000000000000000000000000000000000000000000600052601260045260246000fd5b6000611fef826114f2565b9150611ffa836114f2565b92508261200a57612009611fb5565b5b828206905092915050565b7f4e487b7100000000000000000000000000000000000000000000000000000000600052603260045260246000fd5b7f4e6f7420656e6f75676820455448210000000000000000000000000000000000600082015250565b600061207a600f8361171e565b915061208582612044565b602082019050919050565b600060208201905081810360008301526120a98161206d565b9050919050565b60006120cb6120c66120c1846115e1565b611b1a565b6115e1565b9050919050565b60006120dd826120b0565b9050919050565b60006120ef826120d2565b9050919050565b6120ff816120e4565b82525050565b600060608201905061211a60008301866119c4565b61212760208301856120f6565b612134604083018461167f565b94935050505056fea264697066735822122057d3242d10f113e1659d567086dae4e8d8a24399444dc4eac755b09f91efe38764736f6c63430008130033",
  "immutableReferences": {},
  "source": "// SPDX-License-Identifier: MIT\r\npragma solidity ^0.8.13;\r\n\r\ncontract Ticketing {\r\n    address payable owner; //   \r\n    uint public showIndex; //  id\r\n    uint public userIndex; \r\n    uint public sellingQueueIndex;\r\n\r\n    mapping(uint => Show) public shows;\r\n    mapping (address => User) public users; //  \r\n    mapping(address => Ticket[]) public myTicket; // \r\n    mapping(address => Show[]) public myShow; //  \r\n    mapping(uint => Ticket) sellingQueue; //    \r\n\r\n    constructor() payable {\r\n        owner = payable(msg.sender);\r\n        createEvent('sowonFanmeeting', 20230602, 2, 100000);\r\n    }\r\n \r\n    struct User {\r\n        address userAddr;\r\n        mapping(uint => bool) haveTickets; // showId -> haveTicket\r\n    }\r\n\r\n    struct Ticket {\r\n        uint ticketId;\r\n        uint showId;\r\n        address payable owner;\r\n    }\r\n\r\n    struct Show {\r\n        address payable owner; //  \r\n        uint showId;\r\n        string name;\r\n        uint date;\r\n        uint totalNumOfSeat; \r\n        uint ticketPrice;\r\n        uint ticketIndex;\r\n        mapping(uint => Ticket) tickets; // ticket \r\n        address[] applicantList;   //  \r\n        address[] winnerList;   //  \r\n    }\r\n\r\n    event CREATE_SHOW(\r\n        uint indexed _showId,\r\n        string _name,\r\n        uint _date,\r\n        uint _totalNumOfSeat,\r\n        uint _ticketPrice\r\n    );\r\n\r\n\r\n    event ISSUE_TICKET(uint _showId, uint _ticketId);\r\n\r\n    /// @notice    \r\n    event Book (address indexed user);\r\n\r\n    /// @notice   \r\n    // event Transfer (address indexed buyer, uint value);\r\n\r\n    /// @notice    \r\n    event RESELL(address _owner, uint _showId, uint _ticketId);\r\n\r\n    /// @notice    \r\n    event BUY_TICKET(address from, address to, uint _ticketPrice);\r\n\r\n    \r\n    function createEvent(\r\n        string memory _name,\r\n        uint _date,\r\n        uint _totalNumOfSeat,\r\n        uint _ticketPrice\r\n    ) public returns (bool sufficient){\r\n        Show storage s = shows[showIndex];\r\n        s.owner = payable(msg.sender);\r\n        s.name = _name;\r\n        s.date = _date;\r\n        s.totalNumOfSeat = _totalNumOfSeat;\r\n        s.ticketPrice = _ticketPrice;\r\n        s.ticketIndex = 0;\r\n\r\n        emit CREATE_SHOW(showIndex, _name, _date, _totalNumOfSeat, _ticketPrice);\r\n        showIndex++;\r\n        return true;\r\n    }\r\n\r\n    /// @notice  \r\n    function book() public { //   \r\n        Show storage s = shows[showIndex];\r\n\r\n        //   ...\r\n        User storage u = users[msg.sender];\r\n        u.userAddr = msg.sender;\r\n        u.haveTickets[showIndex] = false;\r\n\r\n        s.applicantList.push(msg.sender);\r\n\t\temit Book(msg.sender);\r\n\t}\r\n\r\n    /// @notice       \r\n    function random() public {\r\n        Show storage s = shows[showIndex];\r\n        //      \r\n        // users      for \r\n        // uint num = showList[0].totalNumOfSeat;\r\n        uint showId = s.showId;\r\n        uint ticketNum = shows[showId].totalNumOfSeat;\r\n        uint applicantNum = s.applicantList.length;\r\n        uint randNonce = 0;\r\n        uint value;\r\n        address winner;\r\n        for (uint i = 0; i < ticketNum; i++) {\r\n            randNonce ++;\r\n            //        \r\n            //     ,   \r\n            do {\r\n                value = uint(keccak256(abi.encodePacked(block.timestamp,msg.sender,randNonce))) % applicantNum;\r\n                winner = s.applicantList[value]; //  \r\n            } while(users[winner].haveTickets[showId] == true); //  \r\n            \r\n            // seats.push(winner); seat \r\n            s.winnerList.push(winner);\r\n            users[winner].haveTickets[showId] = true;\r\n        }\r\n    }\r\n\r\n     /// @notice       \r\n    function issueTicket(uint _showId, address payable _owner) public payable{\r\n        Show storage s = shows[_showId];\r\n        require(users[msg.sender].haveTickets[showIndex] == true, \"don't have ticket\"); //  \r\n\r\n        s.tickets[s.ticketIndex] = Ticket({\r\n            ticketId: s.ticketIndex,\r\n            showId: s.showId,\r\n            owner: _owner\r\n        });\r\n\r\n        emit ISSUE_TICKET(s.showId, s.ticketIndex);\r\n        s.ticketIndex++;\r\n\r\n        (s.owner).transfer(msg.value);\r\n    }\r\n\r\n    /// @notice   (or )  \r\n    function resellTicket(uint _showId, uint _ticketId) public {\r\n        Show storage s = shows[_showId];\r\n\r\n        //    \r\n        require(\r\n            msg.sender == s.tickets[_ticketId].owner,\r\n            \"You don't have the ticket\"\r\n        );\r\n\r\n        //    =>       \r\n        sellingQueue[sellingQueueIndex] = s.tickets[_ticketId];\r\n        sellingQueueIndex++;\r\n\r\n        emit RESELL(msg.sender, _showId, _ticketId);\r\n    }\r\n\r\n    function buyTicket(uint _sellingQueueIndex) public payable {\r\n        Ticket memory t = sellingQueue[_sellingQueueIndex];\r\n        Show storage s = shows[t.showId];\r\n        address payable seller = t.owner;\r\n\r\n        require(msg.value == s.ticketPrice, \"Not enough ETH!\");\r\n        //     require();\r\n\r\n        //  \r\n        seller.transfer(msg.value);\r\n        emit BUY_TICKET(msg.sender, seller, s.ticketPrice);\r\n        delete sellingQueue[_sellingQueueIndex];\r\n    }\r\n\r\n    function getShowInfo(\r\n        uint _showId\r\n    ) public view returns (string memory _name, uint _date) {\r\n        Show storage s = shows[_showId];\r\n        _name = s.name;\r\n        _date = s.date;\r\n    }\r\n\r\n    function getTicketOwner(\r\n        uint _showId,\r\n        uint _ticketId\r\n    ) public view returns (address) {\r\n        return shows[_showId].tickets[_ticketId].owner;\r\n    }\r\n\r\n    function getApplicantList() public view returns (address[] memory) {\r\n        return shows[showIndex].applicantList;\r\n    }\r\n\r\n    function getSeats() public view returns (address[] memory) {\r\n        return shows[showIndex].winnerList;\r\n    }\r\n\r\n    // function getAllTickets() public {\r\n\r\n    // }\r\n\r\n    // function getAllEvents() public view returns (Show[] memory) {\r\n    //     Show[] memory allEvents = new Show[](numEvents);\r\n    //     uint256 count = 0;\r\n    //     for (uint256 i = 0; i < numEvents; i++) {\r\n    //             allEvents[count] = shows[i];\r\n    //             count++;\r\n    //         }\r\n    //     return allEvents;\r\n    // }\r\n\r\n    //   () ->  ,   \r\n    //  ??? ( ?)\r\n    \r\n}\r\n",
  "sourcePath": "C:\\Repos\\gitTtime\\Ttime\\contracts\\Ticketing.sol",
  "compiler": {
    "name": "solc",
    "version": "0.8.19+commit.7dd6d404.Emscripten.clang"
  },
  "schemaVersion": "3.4.13",
  "updatedAt": "2023-06-10T05:30:41.528Z",
  "networkType": "ethereum",
  "devdoc": {
    "kind": "dev",
    "methods": {},
    "version": 1
  },
  "userdoc": {
    "events": {
      "BUY_TICKET(address,address,uint256)": {
        "notice": "   "
      },
      "Book(address)": {
        "notice": "   "
      },
      "RESELL(address,uint256,uint256)": {
        "notice": "   "
      }
    },
    "kind": "user",
    "methods": {
      "book()": {
        "notice": " "
      },
      "issueTicket(uint256,address)": {
        "notice": "      "
      },
      "random()": {
        "notice": "      "
      },
      "resellTicket(uint256,uint256)": {
        "notice": "  (or )  "
      }
    },
    "version": 1
  }
}