{
  "contractName": "Ticketing",
  "abi": [
    {
      "inputs": [],
      "stateMutability": "payable",
      "type": "constructor",
      "payable": true
    },
    {
      "anonymous": false,
      "inputs": [
        {
          "indexed": true,
          "internalType": "uint256",
          "name": "_showId",
          "type": "uint256"
        },
        {
          "indexed": true,
          "internalType": "uint256",
          "name": "_bookingId",
          "type": "uint256"
        },
        {
          "indexed": true,
          "internalType": "uint256",
          "name": "_numberOfSeats",
          "type": "uint256"
        }
      ],
      "name": "ISSUE_TICKET",
      "type": "event"
    },
    {
      "anonymous": false,
      "inputs": [
        {
          "indexed": true,
          "internalType": "uint256",
          "name": "_showId",
          "type": "uint256"
        },
        {
          "indexed": true,
          "internalType": "uint256",
          "name": "_bookingId",
          "type": "uint256"
        }
      ],
      "name": "RESELL",
      "type": "event"
    },
    {
      "inputs": [],
      "name": "bookingID",
      "outputs": [
        {
          "internalType": "uint256",
          "name": "",
          "type": "uint256"
        }
      ],
      "stateMutability": "view",
      "type": "function",
      "constant": true
    },
    {
      "inputs": [
        {
          "internalType": "address",
          "name": "",
          "type": "address"
        },
        {
          "internalType": "uint256",
          "name": "",
          "type": "uint256"
        }
      ],
      "name": "bookingIdList",
      "outputs": [
        {
          "internalType": "uint256",
          "name": "",
          "type": "uint256"
        }
      ],
      "stateMutability": "view",
      "type": "function",
      "constant": true
    },
    {
      "inputs": [
        {
          "internalType": "uint256",
          "name": "",
          "type": "uint256"
        },
        {
          "internalType": "uint256",
          "name": "",
          "type": "uint256"
        }
      ],
      "name": "sellingBookingIdList",
      "outputs": [
        {
          "internalType": "uint256",
          "name": "",
          "type": "uint256"
        }
      ],
      "stateMutability": "view",
      "type": "function",
      "constant": true
    },
    {
      "inputs": [
        {
          "internalType": "uint256",
          "name": "",
          "type": "uint256"
        }
      ],
      "name": "ticketForBookingId",
      "outputs": [
        {
          "internalType": "uint256",
          "name": "bookingId",
          "type": "uint256"
        },
        {
          "internalType": "address payable",
          "name": "owner",
          "type": "address"
        },
        {
          "internalType": "string",
          "name": "userId",
          "type": "string"
        },
        {
          "internalType": "uint256",
          "name": "showId",
          "type": "uint256"
        },
        {
          "internalType": "uint256",
          "name": "numberOfSeats",
          "type": "uint256"
        },
        {
          "internalType": "uint256",
          "name": "price",
          "type": "uint256"
        },
        {
          "internalType": "enum Ticketing.TicketStatus",
          "name": "status",
          "type": "uint8"
        },
        {
          "internalType": "uint256",
          "name": "indexForBookingIdList",
          "type": "uint256"
        },
        {
          "internalType": "uint256",
          "name": "indexForSellingBookingIdList",
          "type": "uint256"
        }
      ],
      "stateMutability": "view",
      "type": "function",
      "constant": true
    },
    {
      "inputs": [
        {
          "internalType": "address payable",
          "name": "userAddr",
          "type": "address"
        }
      ],
      "name": "getMyTicket",
      "outputs": [
        {
          "components": [
            {
              "internalType": "uint256",
              "name": "bookingId",
              "type": "uint256"
            },
            {
              "internalType": "address payable",
              "name": "owner",
              "type": "address"
            },
            {
              "internalType": "string",
              "name": "userId",
              "type": "string"
            },
            {
              "internalType": "uint256",
              "name": "showId",
              "type": "uint256"
            },
            {
              "internalType": "uint256",
              "name": "numberOfSeats",
              "type": "uint256"
            },
            {
              "internalType": "uint256",
              "name": "price",
              "type": "uint256"
            },
            {
              "internalType": "enum Ticketing.TicketStatus",
              "name": "status",
              "type": "uint8"
            },
            {
              "internalType": "uint256",
              "name": "indexForBookingIdList",
              "type": "uint256"
            },
            {
              "internalType": "uint256",
              "name": "indexForSellingBookingIdList",
              "type": "uint256"
            }
          ],
          "internalType": "struct Ticketing.Ticket[]",
          "name": "",
          "type": "tuple[]"
        }
      ],
      "stateMutability": "view",
      "type": "function",
      "constant": true
    },
    {
      "inputs": [
        {
          "internalType": "uint256",
          "name": "_showId",
          "type": "uint256"
        }
      ],
      "name": "getResellTicket",
      "outputs": [
        {
          "components": [
            {
              "internalType": "uint256",
              "name": "bookingId",
              "type": "uint256"
            },
            {
              "internalType": "address payable",
              "name": "owner",
              "type": "address"
            },
            {
              "internalType": "string",
              "name": "userId",
              "type": "string"
            },
            {
              "internalType": "uint256",
              "name": "showId",
              "type": "uint256"
            },
            {
              "internalType": "uint256",
              "name": "numberOfSeats",
              "type": "uint256"
            },
            {
              "internalType": "uint256",
              "name": "price",
              "type": "uint256"
            },
            {
              "internalType": "enum Ticketing.TicketStatus",
              "name": "status",
              "type": "uint8"
            },
            {
              "internalType": "uint256",
              "name": "indexForBookingIdList",
              "type": "uint256"
            },
            {
              "internalType": "uint256",
              "name": "indexForSellingBookingIdList",
              "type": "uint256"
            }
          ],
          "internalType": "struct Ticketing.Ticket[]",
          "name": "",
          "type": "tuple[]"
        }
      ],
      "stateMutability": "view",
      "type": "function",
      "constant": true
    },
    {
      "inputs": [
        {
          "internalType": "uint256",
          "name": "_showId",
          "type": "uint256"
        },
        {
          "internalType": "address payable",
          "name": "_ticketOwner",
          "type": "address"
        },
        {
          "internalType": "uint256",
          "name": "_numberOfSeats",
          "type": "uint256"
        },
        {
          "internalType": "string",
          "name": "_userId",
          "type": "string"
        }
      ],
      "name": "issueTicket",
      "outputs": [],
      "stateMutability": "payable",
      "type": "function",
      "payable": true
    },
    {
      "inputs": [
        {
          "internalType": "uint256",
          "name": "_bookingId",
          "type": "uint256"
        }
      ],
      "name": "removeFromUser",
      "outputs": [],
      "stateMutability": "nonpayable",
      "type": "function"
    },
    {
      "inputs": [
        {
          "internalType": "uint256",
          "name": "_bookingId",
          "type": "uint256"
        }
      ],
      "name": "getTicketForBookingId",
      "outputs": [
        {
          "components": [
            {
              "internalType": "uint256",
              "name": "bookingId",
              "type": "uint256"
            },
            {
              "internalType": "address payable",
              "name": "owner",
              "type": "address"
            },
            {
              "internalType": "string",
              "name": "userId",
              "type": "string"
            },
            {
              "internalType": "uint256",
              "name": "showId",
              "type": "uint256"
            },
            {
              "internalType": "uint256",
              "name": "numberOfSeats",
              "type": "uint256"
            },
            {
              "internalType": "uint256",
              "name": "price",
              "type": "uint256"
            },
            {
              "internalType": "enum Ticketing.TicketStatus",
              "name": "status",
              "type": "uint8"
            },
            {
              "internalType": "uint256",
              "name": "indexForBookingIdList",
              "type": "uint256"
            },
            {
              "internalType": "uint256",
              "name": "indexForSellingBookingIdList",
              "type": "uint256"
            }
          ],
          "internalType": "struct Ticketing.Ticket",
          "name": "",
          "type": "tuple"
        }
      ],
      "stateMutability": "view",
      "type": "function",
      "constant": true
    },
    {
      "inputs": [
        {
          "internalType": "address payable",
          "name": "_refunder",
          "type": "address"
        },
        {
          "internalType": "uint256",
          "name": "_refundRatio",
          "type": "uint256"
        }
      ],
      "name": "refund",
      "outputs": [],
      "stateMutability": "payable",
      "type": "function",
      "payable": true
    },
    {
      "inputs": [
        {
          "internalType": "uint256",
          "name": "_bookingId",
          "type": "uint256"
        }
      ],
      "name": "pay",
      "outputs": [],
      "stateMutability": "payable",
      "type": "function",
      "payable": true
    },
    {
      "inputs": [
        {
          "internalType": "uint256",
          "name": "_showId",
          "type": "uint256"
        },
        {
          "internalType": "uint256",
          "name": "_bookingId",
          "type": "uint256"
        }
      ],
      "name": "resellTicket",
      "outputs": [],
      "stateMutability": "nonpayable",
      "type": "function"
    },
    {
      "inputs": [
        {
          "internalType": "uint256",
          "name": "_index",
          "type": "uint256"
        },
        {
          "internalType": "uint256",
          "name": "_showId",
          "type": "uint256"
        }
      ],
      "name": "removeFromShow",
      "outputs": [],
      "stateMutability": "nonpayable",
      "type": "function"
    },
    {
      "inputs": [
        {
          "internalType": "address",
          "name": "_buyer",
          "type": "address"
        },
        {
          "internalType": "string",
          "name": "_userId",
          "type": "string"
        },
        {
          "internalType": "uint256",
          "name": "_bookingId",
          "type": "uint256"
        }
      ],
      "name": "changeTicketInfo",
      "outputs": [],
      "stateMutability": "payable",
      "type": "function",
      "payable": true
    },
    {
      "inputs": [
        {
          "internalType": "uint256",
          "name": "_bookingId",
          "type": "uint256"
        }
      ],
      "name": "cancelReselling",
      "outputs": [],
      "stateMutability": "nonpayable",
      "type": "function"
    }
  ],
  "bytecode": "0x60806040526001600455336000806101000a81548173ffffffffffffffffffffffffffffffffffffffff021916908373ffffffffffffffffffffffffffffffffffffffff160217905550612581806100586000396000f3fe6080604052600436106100e85760003560e01c8063851fed6c1161008a578063cd0d462e11610059578063cd0d462e146102cc578063cf0f8189146102f7578063db048e4b14610320578063de60224314610365576100e8565b8063851fed6c146102215780638660571f1461025e578063b23b02b114610287578063c290d691146102b0576100e8565b8063555f18e9116100c6578063555f18e91461014e5780635b45e9651461018b5780637438a353146101c857806374ae5fcf146101e4576100e8565b8063077b2aa8146100ed578063348e991314610109578063410085df14610132575b600080fd5b610107600480360381019061010291906117e9565b6103a2565b005b34801561011557600080fd5b50610130600480360381019061012b9190611871565b6106ca565b005b61014c600480360381019061014791906118b1565b6107b1565b005b34801561015a57600080fd5b50610175600480360381019061017091906118f1565b610819565b6040516101829190611bca565b60405180910390f35b34801561019757600080fd5b506101b260048036038101906101ad9190611bec565b610a88565b6040516101bf9190611bca565b60405180910390f35b6101e260048036038101906101dd9190611c57565b610d4f565b005b3480156101f057600080fd5b5061020b600480360381019061020691906118f1565b610ec8565b6040516102189190611d90565b60405180910390f35b34801561022d57600080fd5b5061024860048036038101906102439190611db2565b611055565b6040516102559190611e01565b60405180910390f35b34801561026a57600080fd5b50610285600480360381019061028091906118f1565b611086565b005b34801561029357600080fd5b506102ae60048036038101906102a99190611871565b6110f0565b005b6102ca60048036038101906102c591906118f1565b611238565b005b3480156102d857600080fd5b506102e16112be565b6040516102ee9190611e01565b60405180910390f35b34801561030357600080fd5b5061031e600480360381019061031991906118f1565b6112c4565b005b34801561032c57600080fd5b50610347600480360381019061034291906118f1565b61153e565b60405161035c99989796959493929190611e84565b60405180910390f35b34801561037157600080fd5b5061038c60048036038101906103879190611871565b611641565b6040516103999190611e01565b60405180910390f35b600060405180610120016040528060045481526020018673ffffffffffffffffffffffffffffffffffffffff16815260200184848080601f016020809104026020016040519081016040528093929190818152602001838380828437600081840152601f19601f82011690508083019250505050505050815260200187815260200185815260200134815260200160006003811115610444576104436119f8565b5b8152602001600081526020016000815250905060008054906101000a900473ffffffffffffffffffffffffffffffffffffffff1673ffffffffffffffffffffffffffffffffffffffff166108fc349081150290604051600060405180830381858888f193505050501580156104bd573d6000803e3d6000fd5b50600160008673ffffffffffffffffffffffffffffffffffffffff1673ffffffffffffffffffffffffffffffffffffffff1681526020019081526020016000206004549080600181540180825580915050600190039060005260206000200160009091909190915055806002600060045481526020019081526020016000206000820151816000015560208201518160010160006101000a81548173ffffffffffffffffffffffffffffffffffffffff021916908373ffffffffffffffffffffffffffffffffffffffff16021790555060408201518160020190816105a29190612153565b50606082015181600301556080820151816004015560a0820151816005015560c08201518160060160006101000a81548160ff021916908360038111156105ec576105eb6119f8565b5b021790555060e082015181600701556101008201518160080155905050600060018060008873ffffffffffffffffffffffffffffffffffffffff1673ffffffffffffffffffffffffffffffffffffffff168152602001908152602001600020805490506106599190612254565b9050806002600060045481526020019081526020016000206007018190555084600454887f2a1b196ed82ca38ac3eaf401226ccc99f376813c3daf17bb565df45f7052d89260405160405180910390a4600460008154809291906106bc90612288565b919050555050505050505050565b60036000838152602001908152602001600020819080600181540180825580915050600190039060005260206000200160009091909190915055600280600083815260200190815260200160002060060160006101000a81548160ff0219169083600381111561073d5761073c6119f8565b5b0217905550600160036000848152602001908152602001600020805490506107659190612254565b600260008381526020019081526020016000206008018190555080827f72f31fb3783f053c730e8edabaeca9a841713ca9ae3e9e5ad628fc0770dfb6de60405160405180910390a35050565b6000606482346107c191906122d0565b6107cb9190612341565b90508273ffffffffffffffffffffffffffffffffffffffff166108fc829081150290604051600060405180830381858888f19350505050158015610813573d6000803e3d6000fd5b50505050565b606060006003600084815260200190815260200160002080549050905060008167ffffffffffffffff81111561085257610851611f18565b5b60405190808252806020026020018201604052801561088b57816020015b610878611672565b8152602001906001900390816108705790505b50905060005b82811015610a7d5760006003600087815260200190815260200160002082815481106108c0576108bf612372565b5b906000526020600020015490506002600082815260200190815260200160002060405180610120016040529081600082015481526020016001820160009054906101000a900473ffffffffffffffffffffffffffffffffffffffff1673ffffffffffffffffffffffffffffffffffffffff1673ffffffffffffffffffffffffffffffffffffffff16815260200160028201805461095c90611f76565b80601f016020809104026020016040519081016040528092919081815260200182805461098890611f76565b80156109d55780601f106109aa576101008083540402835291602001916109d5565b820191906000526020600020905b8154815290600101906020018083116109b857829003601f168201915b505050505081526020016003820154815260200160048201548152602001600582015481526020016006820160009054906101000a900460ff166003811115610a2157610a206119f8565b5b6003811115610a3357610a326119f8565b5b815260200160078201548152602001600882015481525050838381518110610a5e57610a5d612372565b5b6020026020010181905250508080610a7590612288565b915050610891565b508092505050919050565b60606000600160008473ffffffffffffffffffffffffffffffffffffffff1673ffffffffffffffffffffffffffffffffffffffff16815260200190815260200160002080549050905060008167ffffffffffffffff811115610aed57610aec611f18565b5b604051908082528060200260200182016040528015610b2657816020015b610b13611672565b815260200190600190039081610b0b5790505b50905060005b82811015610d44576000600160008773ffffffffffffffffffffffffffffffffffffffff1673ffffffffffffffffffffffffffffffffffffffff1681526020019081526020016000208281548110610b8757610b86612372565b5b906000526020600020015490506002600082815260200190815260200160002060405180610120016040529081600082015481526020016001820160009054906101000a900473ffffffffffffffffffffffffffffffffffffffff1673ffffffffffffffffffffffffffffffffffffffff1673ffffffffffffffffffffffffffffffffffffffff168152602001600282018054610c2390611f76565b80601f0160208091040260200160405190810160405280929190818152602001828054610c4f90611f76565b8015610c9c5780601f10610c7157610100808354040283529160200191610c9c565b820191906000526020600020905b815481529060010190602001808311610c7f57829003601f168201915b505050505081526020016003820154815260200160048201548152602001600582015481526020016006820160009054906101000a900460ff166003811115610ce857610ce76119f8565b5b6003811115610cfa57610cf96119f8565b5b815260200160078201548152602001600882015481525050838381518110610d2557610d24612372565b5b6020026020010181905250508080610d3c90612288565b915050610b2c565b508092505050919050565b6000600260008381526020019081526020016000209050600160008673ffffffffffffffffffffffffffffffffffffffff1673ffffffffffffffffffffffffffffffffffffffff168152602001908152602001600020829080600181540180825580915050600190039060005260206000200160009091909190915055848160010160006101000a81548173ffffffffffffffffffffffffffffffffffffffff021916908373ffffffffffffffffffffffffffffffffffffffff1602179055508383826002019182610e229291906123ac565b5060008160060160006101000a81548160ff02191690836003811115610e4b57610e4a6119f8565b5b0217905550600060018060008873ffffffffffffffffffffffffffffffffffffffff1673ffffffffffffffffffffffffffffffffffffffff16815260200190815260200160002080549050610ea09190612254565b905080826007018190555081600801549050610ec08183600301546110f0565b505050505050565b610ed0611672565b6002600083815260200190815260200160002060405180610120016040529081600082015481526020016001820160009054906101000a900473ffffffffffffffffffffffffffffffffffffffff1673ffffffffffffffffffffffffffffffffffffffff1673ffffffffffffffffffffffffffffffffffffffff168152602001600282018054610f5f90611f76565b80601f0160208091040260200160405190810160405280929190818152602001828054610f8b90611f76565b8015610fd85780601f10610fad57610100808354040283529160200191610fd8565b820191906000526020600020905b815481529060010190602001808311610fbb57829003601f168201915b505050505081526020016003820154815260200160048201548152602001600582015481526020016006820160009054906101000a900460ff166003811115611024576110236119f8565b5b6003811115611036576110356119f8565b5b8152602001600782015481526020016008820154815250509050919050565b6001602052816000526040600020818154811061107157600080fd5b90600052602060002001600091509150505481565b60006002600083815260200190815260200160002090506000816008015490506110b48183600301546110f0565b60008260060160006101000a81548160ff021916908360038111156110dc576110db6119f8565b5b021790555060008260080181905550505050565b60036000828152602001908152602001600020805490508210611148576040517f08c379a000000000000000000000000000000000000000000000000000000000815260040161113f906124c8565b60405180910390fd5b60008290505b600160036000848152602001908152602001600020805490506111719190612254565b8110156111fa576003600083815260200190815260200160002060018261119891906124e8565b815481106111a9576111a8612372565b5b90600052602060002001546003600084815260200190815260200160002082815481106111d9576111d8612372565b5b906000526020600020018190555080806111f290612288565b91505061114e565b506003600082815260200190815260200160002080548061121e5761121d61251c565b5b600190038181906000526020600020016000905590555050565b60006002600083815260200190815260200160002060010160009054906101000a900473ffffffffffffffffffffffffffffffffffffffff1690508073ffffffffffffffffffffffffffffffffffffffff166108fc349081150290604051600060405180830381858888f193505050501580156112b9573d6000803e3d6000fd5b505050565b60045481565b60006002600083815260200190815260200160002060010160009054906101000a900473ffffffffffffffffffffffffffffffffffffffff169050600060026000848152602001908152602001600020600701549050600160008373ffffffffffffffffffffffffffffffffffffffff1673ffffffffffffffffffffffffffffffffffffffff16815260200190815260200160002080549050811061139e576040517f08c379a0000000000000000000000000000000000000000000000000000000008152600401611395906124c8565b60405180910390fd5b60008190505b60018060008573ffffffffffffffffffffffffffffffffffffffff1673ffffffffffffffffffffffffffffffffffffffff168152602001908152602001600020805490506113f29190612254565b8110156114d357600160008473ffffffffffffffffffffffffffffffffffffffff1673ffffffffffffffffffffffffffffffffffffffff16815260200190815260200160002060018261144591906124e8565b8154811061145657611455612372565b5b9060005260206000200154600160008573ffffffffffffffffffffffffffffffffffffffff1673ffffffffffffffffffffffffffffffffffffffff16815260200190815260200160002082815481106114b2576114b1612372565b5b906000526020600020018190555080806114cb90612288565b9150506113a4565b50600160008373ffffffffffffffffffffffffffffffffffffffff1673ffffffffffffffffffffffffffffffffffffffff1681526020019081526020016000208054806115235761152261251c565b5b60019003818190600052602060002001600090559055505050565b60026020528060005260406000206000915090508060000154908060010160009054906101000a900473ffffffffffffffffffffffffffffffffffffffff169080600201805461158d90611f76565b80601f01602080910402602001604051908101604052809291908181526020018280546115b990611f76565b80156116065780601f106115db57610100808354040283529160200191611606565b820191906000526020600020905b8154815290600101906020018083116115e957829003601f168201915b5050505050908060030154908060040154908060050154908060060160009054906101000a900460ff16908060070154908060080154905089565b6003602052816000526040600020818154811061165d57600080fd5b90600052602060002001600091509150505481565b60405180610120016040528060008152602001600073ffffffffffffffffffffffffffffffffffffffff16815260200160608152602001600081526020016000815260200160008152602001600060038111156116d2576116d16119f8565b5b815260200160008152602001600081525090565b600080fd5b600080fd5b6000819050919050565b611703816116f0565b811461170e57600080fd5b50565b600081359050611720816116fa565b92915050565b600073ffffffffffffffffffffffffffffffffffffffff82169050919050565b600061175182611726565b9050919050565b61176181611746565b811461176c57600080fd5b50565b60008135905061177e81611758565b92915050565b600080fd5b600080fd5b600080fd5b60008083601f8401126117a9576117a8611784565b5b8235905067ffffffffffffffff8111156117c6576117c5611789565b5b6020830191508360018202830111156117e2576117e161178e565b5b9250929050565b600080600080600060808688031215611805576118046116e6565b5b600061181388828901611711565b95505060206118248882890161176f565b945050604061183588828901611711565b935050606086013567ffffffffffffffff811115611856576118556116eb565b5b61186288828901611793565b92509250509295509295909350565b60008060408385031215611888576118876116e6565b5b600061189685828601611711565b92505060206118a785828601611711565b9150509250929050565b600080604083850312156118c8576118c76116e6565b5b60006118d68582860161176f565b92505060206118e785828601611711565b9150509250929050565b600060208284031215611907576119066116e6565b5b600061191584828501611711565b91505092915050565b600081519050919050565b600082825260208201905092915050565b6000819050602082019050919050565b611953816116f0565b82525050565b61196281611746565b82525050565b600081519050919050565b600082825260208201905092915050565b60005b838110156119a2578082015181840152602081019050611987565b60008484015250505050565b6000601f19601f8301169050919050565b60006119ca82611968565b6119d48185611973565b93506119e4818560208601611984565b6119ed816119ae565b840191505092915050565b7f4e487b7100000000000000000000000000000000000000000000000000000000600052602160045260246000fd5b60048110611a3857611a376119f8565b5b50565b6000819050611a4982611a27565b919050565b6000611a5982611a3b565b9050919050565b611a6981611a4e565b82525050565b600061012083016000830151611a88600086018261194a565b506020830151611a9b6020860182611959565b5060408301518482036040860152611ab382826119bf565b9150506060830151611ac8606086018261194a565b506080830151611adb608086018261194a565b5060a0830151611aee60a086018261194a565b5060c0830151611b0160c0860182611a60565b5060e0830151611b1460e086018261194a565b50610100830151611b2961010086018261194a565b508091505092915050565b6000611b408383611a6f565b905092915050565b6000602082019050919050565b6000611b608261191e565b611b6a8185611929565b935083602082028501611b7c8561193a565b8060005b85811015611bb85784840389528151611b998582611b34565b9450611ba483611b48565b925060208a01995050600181019050611b80565b50829750879550505050505092915050565b60006020820190508181036000830152611be48184611b55565b905092915050565b600060208284031215611c0257611c016116e6565b5b6000611c108482850161176f565b91505092915050565b6000611c2482611726565b9050919050565b611c3481611c19565b8114611c3f57600080fd5b50565b600081359050611c5181611c2b565b92915050565b60008060008060608587031215611c7157611c706116e6565b5b6000611c7f87828801611c42565b945050602085013567ffffffffffffffff811115611ca057611c9f6116eb565b5b611cac87828801611793565b93509350506040611cbf87828801611711565b91505092959194509250565b600061012083016000830151611ce4600086018261194a565b506020830151611cf76020860182611959565b5060408301518482036040860152611d0f82826119bf565b9150506060830151611d24606086018261194a565b506080830151611d37608086018261194a565b5060a0830151611d4a60a086018261194a565b5060c0830151611d5d60c0860182611a60565b5060e0830151611d7060e086018261194a565b50610100830151611d8561010086018261194a565b508091505092915050565b60006020820190508181036000830152611daa8184611ccb565b905092915050565b60008060408385031215611dc957611dc86116e6565b5b6000611dd785828601611c42565b9250506020611de885828601611711565b9150509250929050565b611dfb816116f0565b82525050565b6000602082019050611e166000830184611df2565b92915050565b611e2581611746565b82525050565b600082825260208201905092915050565b6000611e4782611968565b611e518185611e2b565b9350611e61818560208601611984565b611e6a816119ae565b840191505092915050565b611e7e81611a4e565b82525050565b600061012082019050611e9a600083018c611df2565b611ea7602083018b611e1c565b8181036040830152611eb9818a611e3c565b9050611ec86060830189611df2565b611ed56080830188611df2565b611ee260a0830187611df2565b611eef60c0830186611e75565b611efc60e0830185611df2565b611f0a610100830184611df2565b9a9950505050505050505050565b7f4e487b7100000000000000000000000000000000000000000000000000000000600052604160045260246000fd5b7f4e487b7100000000000000000000000000000000000000000000000000000000600052602260045260246000fd5b60006002820490506001821680611f8e57607f821691505b602082108103611fa157611fa0611f47565b5b50919050565b60008190508160005260206000209050919050565b60006020601f8301049050919050565b600082821b905092915050565b6000600883026120097fffffffffffffffffffffffffffffffffffffffffffffffffffffffffffffffff82611fcc565b6120138683611fcc565b95508019841693508086168417925050509392505050565b6000819050919050565b600061205061204b612046846116f0565b61202b565b6116f0565b9050919050565b6000819050919050565b61206a83612035565b61207e61207682612057565b848454611fd9565b825550505050565b600090565b612093612086565b61209e818484612061565b505050565b5b818110156120c2576120b760008261208b565b6001810190506120a4565b5050565b601f821115612107576120d881611fa7565b6120e184611fbc565b810160208510156120f0578190505b6121046120fc85611fbc565b8301826120a3565b50505b505050565b600082821c905092915050565b600061212a6000198460080261210c565b1980831691505092915050565b60006121438383612119565b9150826002028217905092915050565b61215c82611968565b67ffffffffffffffff81111561217557612174611f18565b5b61217f8254611f76565b61218a8282856120c6565b600060209050601f8311600181146121bd57600084156121ab578287015190505b6121b58582612137565b86555061221d565b601f1984166121cb86611fa7565b60005b828110156121f3578489015182556001820191506020850194506020810190506121ce565b86831015612210578489015161220c601f891682612119565b8355505b6001600288020188555050505b505050505050565b7f4e487b7100000000000000000000000000000000000000000000000000000000600052601160045260246000fd5b600061225f826116f0565b915061226a836116f0565b925082820390508181111561228257612281612225565b5b92915050565b6000612293826116f0565b91507fffffffffffffffffffffffffffffffffffffffffffffffffffffffffffffffff82036122c5576122c4612225565b5b600182019050919050565b60006122db826116f0565b91506122e6836116f0565b92508282026122f4816116f0565b9150828204841483151761230b5761230a612225565b5b5092915050565b7f4e487b7100000000000000000000000000000000000000000000000000000000600052601260045260246000fd5b600061234c826116f0565b9150612357836116f0565b92508261236757612366612312565b5b828204905092915050565b7f4e487b7100000000000000000000000000000000000000000000000000000000600052603260045260246000fd5b600082905092915050565b6123b683836123a1565b67ffffffffffffffff8111156123cf576123ce611f18565b5b6123d98254611f76565b6123e48282856120c6565b6000601f8311600181146124135760008415612401578287013590505b61240b8582612137565b865550612473565b601f19841661242186611fa7565b60005b8281101561244957848901358255600182019150602085019450602081019050612424565b868310156124665784890135612462601f891682612119565b8355505b6001600288020188555050505b50505050505050565b7f696e646578206f7574206f6620626f756e640000000000000000000000000000600082015250565b60006124b2601283611e2b565b91506124bd8261247c565b602082019050919050565b600060208201905081810360008301526124e1816124a5565b9050919050565b60006124f3826116f0565b91506124fe836116f0565b925082820190508082111561251657612515612225565b5b92915050565b7f4e487b7100000000000000000000000000000000000000000000000000000000600052603160045260246000fdfea2646970667358221220c5271d7e06176fd5f740f39e7781f621679ea688dfe7b9dbeab971426a2f77eb64736f6c63430008130033",
  "immutableReferences": {},
  "source": "// SPDX-License-Identifier: MIT\r\npragma solidity ^0.8.13;\r\n\r\ncontract Ticketing {\r\n    address payable owner; //       \r\n\r\n    constructor() payable {\r\n        owner = payable(msg.sender);\r\n    }\r\n\r\n    mapping(address => uint[]) public bookingIdList;   //        =>   \r\n    mapping(uint => Ticket) public ticketForBookingId;  //         =>  \r\n    \r\n    mapping(uint => uint[]) public sellingBookingIdList; // showid =>           =>    \r\n\r\n    enum TicketStatus {\r\n        Sold,   //  \r\n\t\tCanceled, // \r\n        OnSale,  // \r\n        Expired  //    \r\n    }\r\n\r\n     //   - ,  , , , (  )\r\n    struct Ticket {\r\n        uint bookingId;\r\n        address payable owner;\r\n        string userId;\r\n        uint showId;\r\n        uint numberOfSeats;\r\n        //string[] seatList;          \r\n        uint price;\r\n        TicketStatus status;  \r\n        uint indexForBookingIdList;  \r\n        uint indexForSellingBookingIdList; // ;;; \r\n    }\r\n\r\n    function getMyTicket(address payable userAddr) public view returns(Ticket[] memory){\r\n        uint length = bookingIdList[userAddr].length;\r\n        Ticket[] memory myTickets = new Ticket[](length);\r\n\r\n        for(uint i = 0; i < length; i++){\r\n            uint bookingId = bookingIdList[userAddr][i];\r\n            myTickets[i] = ticketForBookingId[bookingId];\r\n        }\r\n   \r\n        return myTickets;\r\n    }\r\n\r\n    function getResellTicket(uint _showId) public view returns(Ticket[] memory) {\r\n        \r\n        uint size = sellingBookingIdList[_showId].length;\r\n        Ticket[] memory resellTicketList = new Ticket[](size);\r\n\r\n        for(uint i = 0; i < size; i++) {\r\n            uint bookingId = sellingBookingIdList[_showId][i];\r\n            resellTicketList[i] = ticketForBookingId[bookingId];\r\n        }\r\n\r\n        return resellTicketList;\r\n    }\r\n\r\n    uint public bookingID = 1; \r\n\r\n    event ISSUE_TICKET(uint indexed _showId, uint indexed _bookingId, uint indexed _numberOfSeats);\r\n    function issueTicket(uint _showId, address payable _ticketOwner, uint _numberOfSeats, string calldata _userId) public payable {\r\n\r\n        Ticket memory ticket = Ticket({\r\n            bookingId: bookingID,\r\n            owner: _ticketOwner,\r\n            userId: _userId,\r\n            showId: _showId,\r\n            numberOfSeats: _numberOfSeats,\r\n            price: msg.value,\r\n            status: TicketStatus.Sold,\r\n            indexForBookingIdList: 0,\r\n            indexForSellingBookingIdList: 0\r\n        });\r\n\r\n        owner.transfer(msg.value);  //    \r\n\r\n        bookingIdList[_ticketOwner].push(bookingID);\r\n        ticketForBookingId[bookingID] = ticket;\r\n\r\n        uint index = bookingIdList[_ticketOwner].length - 1;\r\n        ticketForBookingId[bookingID].indexForBookingIdList = index;\r\n\r\n        emit ISSUE_TICKET(_showId, bookingID, _numberOfSeats);\r\n\r\n        bookingID++;\r\n    }\r\n\r\n\r\n\r\n    function removeFromUser(uint _bookingId) public{\r\n        address payable _refunder = ticketForBookingId[_bookingId].owner;\r\n        uint _index = ticketForBookingId[_bookingId].indexForBookingIdList;\r\n        \r\n        require(_index < bookingIdList[_refunder].length, \"index out of bound\");\r\n\r\n        for(uint i = _index; i < bookingIdList[_refunder].length - 1; i++){\r\n            bookingIdList[_refunder][i] = bookingIdList[_refunder][i + 1];\r\n        }\r\n        bookingIdList[_refunder].pop();\r\n    }\r\n\r\n    function getTicketForBookingId(uint _bookingId) public view returns(Ticket memory){\r\n        return ticketForBookingId[_bookingId];\r\n    }\r\n\r\n    function refund(address payable _refunder, uint _refundRatio) public payable {\r\n        uint refundPrice = msg.value * _refundRatio / 100;\r\n         _refunder.transfer(refundPrice);\r\n    }\r\n\r\n    // @    \r\n    function pay(uint _bookingId) public payable {\r\n        address payable oldOwner = ticketForBookingId[_bookingId].owner;\r\n        oldOwner.transfer(msg.value);\r\n    }\r\n\r\n    // =   \r\n    event RESELL(uint indexed _showId, uint indexed _bookingId);\r\n    function resellTicket(uint _showId, uint _bookingId) public { \r\n        sellingBookingIdList[_showId].push(_bookingId);\r\n\r\n        //   \r\n        ticketForBookingId[_bookingId].status = TicketStatus.OnSale;\r\n        ticketForBookingId[_bookingId].indexForSellingBookingIdList = sellingBookingIdList[_showId].length - 1;\r\n\r\n        emit RESELL(_showId, _bookingId);\r\n    }\r\n\r\n\r\n    function removeFromShow(uint _index, uint _showId) public{\r\n        require(_index < sellingBookingIdList[_showId].length, \"index out of bound\");\r\n\r\n        for(uint i = _index; i < sellingBookingIdList[_showId].length - 1; i++){\r\n            sellingBookingIdList[_showId][i] = sellingBookingIdList[_showId][i + 1];\r\n        }\r\n        sellingBookingIdList[_showId].pop();\r\n    }\r\n\r\n    //   \r\n    function changeTicketInfo(address _buyer, string calldata _userId, uint _bookingId) public payable {\r\n        \r\n        Ticket storage ticket = ticketForBookingId[_bookingId];\r\n\r\n        // 1. buyer    \r\n        bookingIdList[_buyer].push(_bookingId);       \r\n\r\n        // 2.    \r\n        ticket.owner =  payable (_buyer);\r\n        ticket.userId = _userId;\r\n        ticket.status = TicketStatus.Sold;  //  \r\n\r\n        uint index = bookingIdList[_buyer].length - 1;\r\n        ticket.indexForBookingIdList = index;\r\n\r\n        // 4. selling List  \r\n        index = ticket.indexForSellingBookingIdList;\r\n        removeFromShow(index, ticket.showId);\r\n    }\r\n    \r\n    //   \r\n    function cancelReselling(uint _bookingId) public {\r\n        Ticket storage ticket = ticketForBookingId[_bookingId];\r\n        // selling List  \r\n        uint index = ticket.indexForSellingBookingIdList;\r\n        removeFromShow(index, ticket.showId);\r\n        // ticket  \r\n        ticket.status = TicketStatus.Sold;\r\n        ticket.indexForSellingBookingIdList = 0;\r\n    }\r\n\r\n\r\n\r\n\r\n\r\n\r\n    // //   \r\n    // function cancelForBasic (uint _bookingId, uint _refundRatio) public payable {\r\n    //     uint index = ticketForBookingId[_bookingId].indexForBookingIdList;\r\n\r\n    //     removeFromUser(index, msg.sender);\r\n    //     refund(payable(msg.sender), _refundRatio, {from: owner});\r\n    // }\r\n\r\n\r\n    // //  \r\n    // function cancelForLottery (uint _bookingId, uint _refundRatio) public payable {\r\n    //     uint index = ticketForBookingId[_bookingId].indexForBookingIdList;\r\n    //     uint showId = ticketForBookingId[_bookingId].showId;\r\n\r\n    //     removeFromUser(index, msg.sender);\r\n    //     refund(payable(msg.sender), _refundRatio, {from: owner});\r\n    //     resellTicket(showId, _bookingId);\r\n    // }\r\n\r\n    // //    \r\n    // function buyTicketForCancelLottery (string calldata _userId, uint _bookingId) public payable {\r\n    //     uint price = ticketForBookingId[_bookingId].price;\r\n    //     owner.transfer(price);\r\n    //     changeTicketInfo(msg.sender, _userId, _bookingId);\r\n    // }\r\n\r\n\r\n    // // \r\n    // function handOver (uint _bookingId) public payable {\r\n    //     uint showId = ticketForBookingId[_bookingId].showId;\r\n    //     resellTicket(showId, _bookingId);\r\n    // }\r\n\r\n\r\n    // //   \r\n    // function buyTicketForHandOver (string calldata _userId, uint _bookingId) public payable {\r\n    //     uint index = ticketForBookingId[_bookingId].indexForBookingIdList;\r\n    //     address payable oldOwner = ticketForBookingId[_bookingId].owner;\r\n\r\n    //     removeFromUser(index, oldOwner);\r\n    //     uint price = ticketForBookingId[_bookingId].price;\r\n    //     oldOwner.transfer(price);\r\n    //     changeTicketInfo(msg.sender, _userId, _bookingId);\r\n    // }\r\n\r\n}",
  "sourcePath": "C:\\Repos\\gitTtime\\Ttime\\contracts\\Ticketing.sol",
  "compiler": {
    "name": "solc",
    "version": "0.8.19+commit.7dd6d404.Emscripten.clang"
  },
  "schemaVersion": "3.4.13",
  "updatedAt": "2023-10-03T13:06:47.350Z",
  "networkType": "ethereum",
  "devdoc": {
    "kind": "dev",
    "methods": {},
    "version": 1
  },
  "userdoc": {
    "kind": "user",
    "methods": {},
    "version": 1
  }
}