{
  "contractName": "Ticketing",
  "abi": [
    {
      "inputs": [],
      "stateMutability": "payable",
      "type": "constructor",
      "payable": true
    },
    {
      "anonymous": false,
      "inputs": [
        {
          "indexed": false,
          "internalType": "address",
          "name": "from",
          "type": "address"
        },
        {
          "indexed": false,
          "internalType": "address",
          "name": "to",
          "type": "address"
        },
        {
          "indexed": false,
          "internalType": "uint256",
          "name": "_ticketPrice",
          "type": "uint256"
        }
      ],
      "name": "BUY_TICKET",
      "type": "event"
    },
    {
      "anonymous": false,
      "inputs": [
        {
          "indexed": true,
          "internalType": "uint256",
          "name": "_showId",
          "type": "uint256"
        },
        {
          "indexed": true,
          "internalType": "uint256",
          "name": "_ticketId",
          "type": "uint256"
        }
      ],
      "name": "ISSUE_TICKET",
      "type": "event"
    },
    {
      "anonymous": false,
      "inputs": [
        {
          "indexed": false,
          "internalType": "address",
          "name": "_owner",
          "type": "address"
        },
        {
          "indexed": false,
          "internalType": "uint256",
          "name": "_showId",
          "type": "uint256"
        },
        {
          "indexed": false,
          "internalType": "uint256",
          "name": "_ticketId",
          "type": "uint256"
        }
      ],
      "name": "RESELL",
      "type": "event"
    },
    {
      "anonymous": false,
      "inputs": [
        {
          "indexed": true,
          "internalType": "address",
          "name": "sender",
          "type": "address"
        },
        {
          "indexed": false,
          "internalType": "uint256",
          "name": "value",
          "type": "uint256"
        },
        {
          "indexed": false,
          "internalType": "address",
          "name": "receiver",
          "type": "address"
        }
      ],
      "name": "TRANSFER",
      "type": "event"
    },
    {
      "inputs": [
        {
          "internalType": "address",
          "name": "",
          "type": "address"
        },
        {
          "internalType": "uint256",
          "name": "",
          "type": "uint256"
        }
      ],
      "name": "myShow",
      "outputs": [
        {
          "internalType": "address payable",
          "name": "owner",
          "type": "address"
        },
        {
          "internalType": "uint256",
          "name": "ticketIndex",
          "type": "uint256"
        },
        {
          "internalType": "uint256",
          "name": "ticketPrice",
          "type": "uint256"
        },
        {
          "internalType": "uint256",
          "name": "sellingQueueIndex",
          "type": "uint256"
        }
      ],
      "stateMutability": "view",
      "type": "function",
      "constant": true
    },
    {
      "inputs": [
        {
          "internalType": "address",
          "name": "",
          "type": "address"
        },
        {
          "internalType": "uint256",
          "name": "",
          "type": "uint256"
        }
      ],
      "name": "myTicket",
      "outputs": [
        {
          "internalType": "uint256",
          "name": "showId",
          "type": "uint256"
        },
        {
          "internalType": "uint256",
          "name": "ticketId",
          "type": "uint256"
        },
        {
          "internalType": "address payable",
          "name": "owner",
          "type": "address"
        }
      ],
      "stateMutability": "view",
      "type": "function",
      "constant": true
    },
    {
      "inputs": [],
      "name": "sellingQueueIndex",
      "outputs": [
        {
          "internalType": "uint256",
          "name": "",
          "type": "uint256"
        }
      ],
      "stateMutability": "view",
      "type": "function",
      "constant": true
    },
    {
      "inputs": [],
      "name": "showIndex",
      "outputs": [
        {
          "internalType": "uint256",
          "name": "",
          "type": "uint256"
        }
      ],
      "stateMutability": "view",
      "type": "function",
      "constant": true
    },
    {
      "inputs": [
        {
          "internalType": "uint256",
          "name": "",
          "type": "uint256"
        }
      ],
      "name": "shows",
      "outputs": [
        {
          "internalType": "address payable",
          "name": "owner",
          "type": "address"
        },
        {
          "internalType": "uint256",
          "name": "ticketIndex",
          "type": "uint256"
        },
        {
          "internalType": "uint256",
          "name": "ticketPrice",
          "type": "uint256"
        },
        {
          "internalType": "uint256",
          "name": "sellingQueueIndex",
          "type": "uint256"
        }
      ],
      "stateMutability": "view",
      "type": "function",
      "constant": true
    },
    {
      "inputs": [],
      "name": "userIndex",
      "outputs": [
        {
          "internalType": "uint256",
          "name": "",
          "type": "uint256"
        }
      ],
      "stateMutability": "view",
      "type": "function",
      "constant": true
    },
    {
      "inputs": [
        {
          "internalType": "uint256",
          "name": "_showid",
          "type": "uint256"
        }
      ],
      "name": "getTicketPrice",
      "outputs": [
        {
          "internalType": "uint256",
          "name": "ticketPrice",
          "type": "uint256"
        }
      ],
      "stateMutability": "view",
      "type": "function",
      "constant": true
    },
    {
      "inputs": [
        {
          "internalType": "uint256",
          "name": "_ticketPrice",
          "type": "uint256"
        },
        {
          "internalType": "address payable",
          "name": "receiver",
          "type": "address"
        }
      ],
      "name": "transferWei",
      "outputs": [],
      "stateMutability": "payable",
      "type": "function",
      "payable": true
    },
    {
      "inputs": [
        {
          "internalType": "uint256",
          "name": "_ticketPrice",
          "type": "uint256"
        },
        {
          "internalType": "address",
          "name": "_showOwner",
          "type": "address"
        }
      ],
      "name": "createShow",
      "outputs": [
        {
          "internalType": "bool",
          "name": "sufficient",
          "type": "bool"
        }
      ],
      "stateMutability": "nonpayable",
      "type": "function"
    },
    {
      "inputs": [
        {
          "internalType": "uint256",
          "name": "_showId",
          "type": "uint256"
        },
        {
          "internalType": "address payable",
          "name": "_ticketOwner",
          "type": "address"
        }
      ],
      "name": "issueTicket",
      "outputs": [],
      "stateMutability": "payable",
      "type": "function",
      "payable": true
    },
    {
      "inputs": [
        {
          "internalType": "uint256",
          "name": "_showId",
          "type": "uint256"
        },
        {
          "internalType": "uint256",
          "name": "_ticketId",
          "type": "uint256"
        }
      ],
      "name": "resellTicket",
      "outputs": [],
      "stateMutability": "nonpayable",
      "type": "function"
    },
    {
      "inputs": [
        {
          "internalType": "uint256",
          "name": "_showId",
          "type": "uint256"
        },
        {
          "internalType": "uint256",
          "name": "_sellingQueueIndex",
          "type": "uint256"
        }
      ],
      "name": "buyTicket",
      "outputs": [],
      "stateMutability": "payable",
      "type": "function",
      "payable": true
    }
  ],
  "bytecode": "0x608060405260018055336000806101000a81548173ffffffffffffffffffffffffffffffffffffffff021916908373ffffffffffffffffffffffffffffffffffffffff16021790555062000075668e1bc9bf0400007382b162f01a49d96999e7563949cc738a4928e7ef6200013460201b60201c565b50620000a3668e1bc9bf0400007382b162f01a49d96999e7563949cc738a4928e7ef6200013460201b60201c565b50620000d166b1a2bc2ec50000735053f90d21c8e15471c30cb3c065a230e1baeb096200013460201b60201c565b50620000ff66b1a2bc2ec50000735053f90d21c8e15471c30cb3c065a230e1baeb096200013460201b60201c565b506200012d66d529ae9e8600007343432190d425f0bcee18f3c0e011d334a8a5f8936200013460201b60201c565b5062000259565b6000806004600060015481526020019081526020016000209050828160000160006101000a81548173ffffffffffffffffffffffffffffffffffffffff021916908373ffffffffffffffffffffffffffffffffffffffff160217905550600081600101819055506000816005018190555083816002018190555060016000815480929190620001c3906200020c565b9190505550600191505092915050565b7f4e487b7100000000000000000000000000000000000000000000000000000000600052601160045260246000fd5b6000819050919050565b6000620002198262000202565b91507fffffffffffffffffffffffffffffffffffffffffffffffffffffffffffffffff82036200024e576200024d620001d3565b5b600182019050919050565b610faf80620002696000396000f3fe6080604052600436106100a75760003560e01c806343270c321161006457806343270c32146101a85780634715d22b146101e5578063753f225914610225578063ab70120714610250578063cb286d2a1461027b578063f06fc961146102a6576100a7565b806310ca2539146100ac57806327df9315146100eb578063298ec2081461010757806330f0931e14610123578063348e9913146101635780633b99f1851461018c575b600080fd5b3480156100b857600080fd5b506100d360048036038101906100ce9190610b2a565b6102e3565b6040516100e293929190610b9a565b60405180910390f35b61010560048036038101906101009190610bfd565b61034a565b005b610121600480360381019061011c9190610c3d565b6103eb565b005b34801561012f57600080fd5b5061014a60048036038101906101459190610c7d565b610534565b60405161015a9493929190610caa565b60405180910390f35b34801561016f57600080fd5b5061018a60048036038101906101859190610c3d565b610584565b005b6101a660048036038101906101a19190610bfd565b610747565b005b3480156101b457600080fd5b506101cf60048036038101906101ca9190610cef565b610955565b6040516101dc9190610d4a565b60405180910390f35b3480156101f157600080fd5b5061020c60048036038101906102079190610b2a565b6109f2565b60405161021c9493929190610caa565b60405180910390f35b34801561023157600080fd5b5061023a610a5f565b6040516102479190610d65565b60405180910390f35b34801561025c57600080fd5b50610265610a65565b6040516102729190610d65565b60405180910390f35b34801561028757600080fd5b50610290610a6b565b60405161029d9190610d65565b60405180910390f35b3480156102b257600080fd5b506102cd60048036038101906102c89190610c7d565b610a71565b6040516102da9190610d65565b60405180910390f35b600560205281600052604060002081815481106102ff57600080fd5b9060005260206000209060030201600091509150508060000154908060010154908060020160009054906101000a900473ffffffffffffffffffffffffffffffffffffffff16905083565b60003390508173ffffffffffffffffffffffffffffffffffffffff166108fc849081150290604051600060405180830381858888f19350505050158015610395573d6000803e3d6000fd5b508073ffffffffffffffffffffffffffffffffffffffff167f15ca64a4ed482fa8131e95742689fa003e0d28703344365cf367315c7c5bc96284846040516103de929190610ddf565b60405180910390a2505050565b6000600460008481526020019081526020016000209050600081600401600084815260200190815260200160002060405180606001604052908160008201548152602001600182015481526020016002820160009054906101000a900473ffffffffffffffffffffffffffffffffffffffff1673ffffffffffffffffffffffffffffffffffffffff1673ffffffffffffffffffffffffffffffffffffffff168152505090506000816040015190506104a3348261034a565b7f31b918c4d31b15fc1fa60f65740b9e976d33435bb9347d54a744b2992b1db1ce3382346040516104d693929190610e17565b60405180910390a182600401600085815260200190815260200160002060008082016000905560018201600090556002820160006101000a81549073ffffffffffffffffffffffffffffffffffffffff021916905550505050505050565b60046020528060005260406000206000915090508060000160009054906101000a900473ffffffffffffffffffffffffffffffffffffffff16908060010154908060020154908060050154905084565b600060046000848152602001908152602001600020905080600301600083815260200190815260200160002060020160009054906101000a900473ffffffffffffffffffffffffffffffffffffffff1673ffffffffffffffffffffffffffffffffffffffff163373ffffffffffffffffffffffffffffffffffffffff1614610641576040517f08c379a000000000000000000000000000000000000000000000000000000000815260040161063890610eab565b60405180910390fd5b8060030160008381526020019081526020016000208160040160008360050154815260200190815260200160002060008201548160000155600182015481600101556002820160009054906101000a900473ffffffffffffffffffffffffffffffffffffffff168160020160006101000a81548173ffffffffffffffffffffffffffffffffffffffff021916908373ffffffffffffffffffffffffffffffffffffffff16021790555090505080600501600081548092919061070290610efa565b91905055507fd6b8a8000f3b6b1d7b1b42a8e2508946bee055c5a1f21b18d4ac22090eca8f7833848460405161073a93929190610f42565b60405180910390a1505050565b600060046000848152602001908152602001600020905060006040518060600160405280858152602001836001015481526020018473ffffffffffffffffffffffffffffffffffffffff1681525090506107c5348360000160009054906101000a900473ffffffffffffffffffffffffffffffffffffffff1661034a565b8082600301600084600101548152602001908152602001600020600082015181600001556020820151816001015560408201518160020160006101000a81548173ffffffffffffffffffffffffffffffffffffffff021916908373ffffffffffffffffffffffffffffffffffffffff160217905550905050600560003373ffffffffffffffffffffffffffffffffffffffff1673ffffffffffffffffffffffffffffffffffffffff168152602001908152602001600020819080600181540180825580915050600190039060005260206000209060030201600090919091909150600082015181600001556020820151816001015560408201518160020160006101000a81548173ffffffffffffffffffffffffffffffffffffffff021916908373ffffffffffffffffffffffffffffffffffffffff16021790555050508160010154847f519e942ac24eada72094b97d4a6090a1aacd08cbca42cd9bb9788f7a93a6a16160405160405180910390a381600101600081548092919061094a90610efa565b919050555050505050565b6000806004600060015481526020019081526020016000209050828160000160006101000a81548173ffffffffffffffffffffffffffffffffffffffff021916908373ffffffffffffffffffffffffffffffffffffffff1602179055506000816001018190555060008160050181905550838160020181905550600160008154809291906109e290610efa565b9190505550600191505092915050565b60066020528160005260406000208181548110610a0e57600080fd5b9060005260206000209060060201600091509150508060000160009054906101000a900473ffffffffffffffffffffffffffffffffffffffff16908060010154908060020154908060050154905084565b60035481565b60025481565b60015481565b600060046000838152602001908152602001600020600201549050919050565b600080fd5b600073ffffffffffffffffffffffffffffffffffffffff82169050919050565b6000610ac182610a96565b9050919050565b610ad181610ab6565b8114610adc57600080fd5b50565b600081359050610aee81610ac8565b92915050565b6000819050919050565b610b0781610af4565b8114610b1257600080fd5b50565b600081359050610b2481610afe565b92915050565b60008060408385031215610b4157610b40610a91565b5b6000610b4f85828601610adf565b9250506020610b6085828601610b15565b9150509250929050565b610b7381610af4565b82525050565b6000610b8482610a96565b9050919050565b610b9481610b79565b82525050565b6000606082019050610baf6000830186610b6a565b610bbc6020830185610b6a565b610bc96040830184610b8b565b949350505050565b610bda81610b79565b8114610be557600080fd5b50565b600081359050610bf781610bd1565b92915050565b60008060408385031215610c1457610c13610a91565b5b6000610c2285828601610b15565b9250506020610c3385828601610be8565b9150509250929050565b60008060408385031215610c5457610c53610a91565b5b6000610c6285828601610b15565b9250506020610c7385828601610b15565b9150509250929050565b600060208284031215610c9357610c92610a91565b5b6000610ca184828501610b15565b91505092915050565b6000608082019050610cbf6000830187610b8b565b610ccc6020830186610b6a565b610cd96040830185610b6a565b610ce66060830184610b6a565b95945050505050565b60008060408385031215610d0657610d05610a91565b5b6000610d1485828601610b15565b9250506020610d2585828601610adf565b9150509250929050565b60008115159050919050565b610d4481610d2f565b82525050565b6000602082019050610d5f6000830184610d3b565b92915050565b6000602082019050610d7a6000830184610b6a565b92915050565b6000819050919050565b6000610da5610da0610d9b84610a96565b610d80565b610a96565b9050919050565b6000610db782610d8a565b9050919050565b6000610dc982610dac565b9050919050565b610dd981610dbe565b82525050565b6000604082019050610df46000830185610b6a565b610e016020830184610dd0565b9392505050565b610e1181610ab6565b82525050565b6000606082019050610e2c6000830186610e08565b610e396020830185610dd0565b610e466040830184610b6a565b949350505050565b600082825260208201905092915050565b7f596f7520646f6e2774206861766520746865207469636b657400000000000000600082015250565b6000610e95601983610e4e565b9150610ea082610e5f565b602082019050919050565b60006020820190508181036000830152610ec481610e88565b9050919050565b7f4e487b7100000000000000000000000000000000000000000000000000000000600052601160045260246000fd5b6000610f0582610af4565b91507fffffffffffffffffffffffffffffffffffffffffffffffffffffffffffffffff8203610f3757610f36610ecb565b5b600182019050919050565b6000606082019050610f576000830186610e08565b610f646020830185610b6a565b610f716040830184610b6a565b94935050505056fea26469706673582212205b1856c19f550e41333e6b1eea55db7e26b2bcf6e1d4343aeeaf3950b06c334364736f6c63430008130033",
  "immutableReferences": {},
  "source": "// SPDX-License-Identifier: MIT\r\npragma solidity ^0.8.13;\r\n\r\ncontract Ticketing {\r\n    address payable owner; //   \r\n    uint public showIndex = 1; //  id 1 \r\n    uint public userIndex; \r\n    uint public sellingQueueIndex;\r\n\r\n    mapping(uint => Show) public shows; //   \r\n    mapping(address => Ticket[]) public myTicket; // \r\n    mapping(address => Show[]) public myShow; //  \r\n\r\n    constructor() payable {\r\n        owner = payable(msg.sender);\r\n        createShow(40000000000000000, 0x82b162f01A49d96999e7563949cC738a4928e7EF);   // 88000\r\n        createShow(40000000000000000, 0x82b162f01A49d96999e7563949cC738a4928e7EF);    \r\n        createShow(50000000000000000, 0x5053f90D21c8E15471c30Cb3c065A230E1BaeB09);  //  11 \r\n        createShow(50000000000000000, 0x5053f90D21c8E15471c30Cb3c065A230E1BaeB09);\r\n        createShow(60000000000000000, 0x43432190d425F0BCeE18F3C0E011D334A8a5f893);  //  13 \r\n    }\r\n\r\n    struct Ticket {\r\n        uint showId;\r\n        uint ticketId;\r\n        address payable owner;\r\n    }\r\n\r\n    struct Show {\r\n        address payable owner; //  \r\n        uint ticketIndex;\r\n        uint ticketPrice;\r\n        mapping(uint => Ticket) tickets; // ticket \r\n        mapping(uint => Ticket) sellingQueue; //   \r\n        uint sellingQueueIndex;\r\n    }\r\n\r\n    event ISSUE_TICKET(uint indexed _showId, uint indexed _ticketId);\r\n\r\n    /// @notice   \r\n    event TRANSFER (address indexed sender, uint value, address receiver);\r\n\r\n    /// @notice    \r\n    event RESELL(address _owner, uint _showId, uint _ticketId);\r\n\r\n    /// @notice    \r\n    event BUY_TICKET(address from, address to, uint _ticketPrice);\r\n\r\n    function getTicketPrice (uint _showid) public view returns (uint ticketPrice){\r\n        return shows[_showid].ticketPrice;\r\n    }\r\n\r\n    /// @notice \r\n    function transferWei (uint _ticketPrice, address payable receiver) public payable{\r\n        address sender = msg.sender;\r\n        receiver.transfer(_ticketPrice);\r\n        // receiver.transfer(msg.value);\r\n        emit TRANSFER(sender, _ticketPrice, receiver);\r\n    }\r\n\r\n    /// @notice  \r\n    function createShow(uint _ticketPrice, address _showOwner) public returns (bool sufficient){\r\n        Show storage s = shows[showIndex];\r\n        //        \r\n        // s.owner = payable(msg.sender);\r\n        s.owner = payable(_showOwner);\r\n        s.ticketIndex = 0;\r\n        s.sellingQueueIndex = 0;\r\n        s.ticketPrice = _ticketPrice;\r\n        showIndex++;\r\n        return true;\r\n    }\r\n\r\n     /// @notice       \r\n    function issueTicket(uint _showId, address payable _ticketOwner) public payable{\r\n        Show storage s = shows[_showId];\r\n        Ticket memory t = Ticket({\r\n            showId: _showId,\r\n            ticketId: s.ticketIndex,\r\n            owner: _ticketOwner\r\n        });\r\n        transferWei(msg.value, s.owner); //   \r\n        // transferETH(s.ticketPrice, s.owner);\r\n\r\n        s.tickets[s.ticketIndex] = t;\r\n        myTicket[msg.sender].push(t);\r\n\r\n        emit ISSUE_TICKET(_showId, s.ticketIndex);\r\n        s.ticketIndex++;\r\n    }\r\n\r\n    /// @notice   (or )  \r\n    function resellTicket(uint _showId, uint _ticketId) public {\r\n        Show storage s = shows[_showId];\r\n\r\n        //    \r\n        require(\r\n            msg.sender == s.tickets[_ticketId].owner,\r\n            \"You don't have the ticket\"\r\n        );\r\n\r\n        //    =>       \r\n        s.sellingQueue[s.sellingQueueIndex] = s.tickets[_ticketId];\r\n        s.sellingQueueIndex++;\r\n\r\n        emit RESELL(msg.sender, _showId, _ticketId);\r\n    }\r\n\r\n    /// @notice    \r\n    function buyTicket(uint _showId, uint _sellingQueueIndex) public payable {\r\n        Show storage s = shows[_showId];\r\n        Ticket memory t = s.sellingQueue[_sellingQueueIndex];\r\n        \r\n        address payable seller = t.owner;\r\n\r\n        // require(msg.value == s.ticketPrice, \"Not enough ETH!\");\r\n        //     require();\r\n\r\n        //  \r\n        transferWei(msg.value, seller);\r\n        emit BUY_TICKET(msg.sender, seller, msg.value);\r\n        delete s.sellingQueue[_sellingQueueIndex];\r\n    }\r\n\r\n}\r\n",
  "sourcePath": "C:\\Repos\\gitTtime\\Ttime\\contracts\\Ticketing.sol",
  "compiler": {
    "name": "solc",
    "version": "0.8.19+commit.7dd6d404.Emscripten.clang"
  },
  "schemaVersion": "3.4.13",
  "updatedAt": "2023-06-15T03:40:04.179Z",
  "networkType": "ethereum",
  "devdoc": {
    "kind": "dev",
    "methods": {},
    "version": 1
  },
  "userdoc": {
    "events": {
      "BUY_TICKET(address,address,uint256)": {
        "notice": "   "
      },
      "RESELL(address,uint256,uint256)": {
        "notice": "   "
      },
      "TRANSFER(address,uint256,address)": {
        "notice": "  "
      }
    },
    "kind": "user",
    "methods": {
      "buyTicket(uint256,uint256)": {
        "notice": "   "
      },
      "createShow(uint256,address)": {
        "notice": " "
      },
      "issueTicket(uint256,address)": {
        "notice": "      "
      },
      "resellTicket(uint256,uint256)": {
        "notice": "  (or )  "
      },
      "transferWei(uint256,address)": {
        "notice": ""
      }
    },
    "version": 1
  }
}