{
  "contractName": "Ticketing",
  "abi": [
    {
      "inputs": [],
      "stateMutability": "payable",
      "type": "constructor",
      "payable": true
    },
    {
      "anonymous": false,
      "inputs": [
        {
          "indexed": true,
          "internalType": "uint256",
          "name": "_showId",
          "type": "uint256"
        },
        {
          "indexed": true,
          "internalType": "uint256",
          "name": "_bookingId",
          "type": "uint256"
        },
        {
          "indexed": true,
          "internalType": "uint256",
          "name": "_numberOfSeats",
          "type": "uint256"
        }
      ],
      "name": "ISSUE_TICKET",
      "type": "event"
    },
    {
      "anonymous": false,
      "inputs": [
        {
          "indexed": true,
          "internalType": "uint256",
          "name": "_showId",
          "type": "uint256"
        },
        {
          "indexed": true,
          "internalType": "uint256",
          "name": "_bookingId",
          "type": "uint256"
        }
      ],
      "name": "RESELL",
      "type": "event"
    },
    {
      "inputs": [],
      "name": "bookingID",
      "outputs": [
        {
          "internalType": "uint256",
          "name": "",
          "type": "uint256"
        }
      ],
      "stateMutability": "view",
      "type": "function",
      "constant": true
    },
    {
      "inputs": [
        {
          "internalType": "address",
          "name": "",
          "type": "address"
        },
        {
          "internalType": "uint256",
          "name": "",
          "type": "uint256"
        }
      ],
      "name": "bookingIdList",
      "outputs": [
        {
          "internalType": "uint256",
          "name": "",
          "type": "uint256"
        }
      ],
      "stateMutability": "view",
      "type": "function",
      "constant": true
    },
    {
      "inputs": [
        {
          "internalType": "uint256",
          "name": "",
          "type": "uint256"
        },
        {
          "internalType": "uint256",
          "name": "",
          "type": "uint256"
        }
      ],
      "name": "sellingBookingIdList",
      "outputs": [
        {
          "internalType": "uint256",
          "name": "",
          "type": "uint256"
        }
      ],
      "stateMutability": "view",
      "type": "function",
      "constant": true
    },
    {
      "inputs": [
        {
          "internalType": "uint256",
          "name": "",
          "type": "uint256"
        }
      ],
      "name": "ticketForBookingId",
      "outputs": [
        {
          "internalType": "uint256",
          "name": "bookingId",
          "type": "uint256"
        },
        {
          "internalType": "address payable",
          "name": "owner",
          "type": "address"
        },
        {
          "internalType": "string",
          "name": "userId",
          "type": "string"
        },
        {
          "internalType": "uint256",
          "name": "showId",
          "type": "uint256"
        },
        {
          "internalType": "uint256",
          "name": "numberOfSeats",
          "type": "uint256"
        },
        {
          "internalType": "uint256",
          "name": "price",
          "type": "uint256"
        },
        {
          "internalType": "enum Ticketing.TicketStatus",
          "name": "status",
          "type": "uint8"
        },
        {
          "internalType": "uint256",
          "name": "indexForBookingIdList",
          "type": "uint256"
        },
        {
          "internalType": "uint256",
          "name": "indexForSellingBookingIdList",
          "type": "uint256"
        }
      ],
      "stateMutability": "view",
      "type": "function",
      "constant": true
    },
    {
      "inputs": [
        {
          "internalType": "uint256",
          "name": "_showid",
          "type": "uint256"
        }
      ],
      "name": "getNumberOfResellTicket",
      "outputs": [
        {
          "internalType": "uint256",
          "name": "",
          "type": "uint256"
        }
      ],
      "stateMutability": "view",
      "type": "function",
      "constant": true
    },
    {
      "inputs": [
        {
          "internalType": "address payable",
          "name": "userAddr",
          "type": "address"
        }
      ],
      "name": "getMyTicket",
      "outputs": [
        {
          "components": [
            {
              "internalType": "uint256",
              "name": "bookingId",
              "type": "uint256"
            },
            {
              "internalType": "address payable",
              "name": "owner",
              "type": "address"
            },
            {
              "internalType": "string",
              "name": "userId",
              "type": "string"
            },
            {
              "internalType": "uint256",
              "name": "showId",
              "type": "uint256"
            },
            {
              "internalType": "uint256",
              "name": "numberOfSeats",
              "type": "uint256"
            },
            {
              "internalType": "uint256",
              "name": "price",
              "type": "uint256"
            },
            {
              "internalType": "enum Ticketing.TicketStatus",
              "name": "status",
              "type": "uint8"
            },
            {
              "internalType": "uint256",
              "name": "indexForBookingIdList",
              "type": "uint256"
            },
            {
              "internalType": "uint256",
              "name": "indexForSellingBookingIdList",
              "type": "uint256"
            }
          ],
          "internalType": "struct Ticketing.Ticket[]",
          "name": "",
          "type": "tuple[]"
        }
      ],
      "stateMutability": "view",
      "type": "function",
      "constant": true
    },
    {
      "inputs": [
        {
          "internalType": "uint256",
          "name": "_showId",
          "type": "uint256"
        }
      ],
      "name": "getResellTicket",
      "outputs": [
        {
          "components": [
            {
              "internalType": "uint256",
              "name": "bookingId",
              "type": "uint256"
            },
            {
              "internalType": "address payable",
              "name": "owner",
              "type": "address"
            },
            {
              "internalType": "string",
              "name": "userId",
              "type": "string"
            },
            {
              "internalType": "uint256",
              "name": "showId",
              "type": "uint256"
            },
            {
              "internalType": "uint256",
              "name": "numberOfSeats",
              "type": "uint256"
            },
            {
              "internalType": "uint256",
              "name": "price",
              "type": "uint256"
            },
            {
              "internalType": "enum Ticketing.TicketStatus",
              "name": "status",
              "type": "uint8"
            },
            {
              "internalType": "uint256",
              "name": "indexForBookingIdList",
              "type": "uint256"
            },
            {
              "internalType": "uint256",
              "name": "indexForSellingBookingIdList",
              "type": "uint256"
            }
          ],
          "internalType": "struct Ticketing.Ticket[]",
          "name": "",
          "type": "tuple[]"
        }
      ],
      "stateMutability": "view",
      "type": "function",
      "constant": true
    },
    {
      "inputs": [
        {
          "internalType": "uint256",
          "name": "_showId",
          "type": "uint256"
        },
        {
          "internalType": "address payable",
          "name": "_ticketOwner",
          "type": "address"
        },
        {
          "internalType": "uint256",
          "name": "_numberOfSeats",
          "type": "uint256"
        },
        {
          "internalType": "string",
          "name": "_userId",
          "type": "string"
        }
      ],
      "name": "issueTicket",
      "outputs": [],
      "stateMutability": "payable",
      "type": "function",
      "payable": true
    },
    {
      "inputs": [
        {
          "internalType": "uint256",
          "name": "_bookingId",
          "type": "uint256"
        }
      ],
      "name": "removeFromUser",
      "outputs": [],
      "stateMutability": "nonpayable",
      "type": "function"
    },
    {
      "inputs": [
        {
          "internalType": "uint256",
          "name": "_bookingId",
          "type": "uint256"
        }
      ],
      "name": "getTicketForBookingId",
      "outputs": [
        {
          "components": [
            {
              "internalType": "uint256",
              "name": "bookingId",
              "type": "uint256"
            },
            {
              "internalType": "address payable",
              "name": "owner",
              "type": "address"
            },
            {
              "internalType": "string",
              "name": "userId",
              "type": "string"
            },
            {
              "internalType": "uint256",
              "name": "showId",
              "type": "uint256"
            },
            {
              "internalType": "uint256",
              "name": "numberOfSeats",
              "type": "uint256"
            },
            {
              "internalType": "uint256",
              "name": "price",
              "type": "uint256"
            },
            {
              "internalType": "enum Ticketing.TicketStatus",
              "name": "status",
              "type": "uint8"
            },
            {
              "internalType": "uint256",
              "name": "indexForBookingIdList",
              "type": "uint256"
            },
            {
              "internalType": "uint256",
              "name": "indexForSellingBookingIdList",
              "type": "uint256"
            }
          ],
          "internalType": "struct Ticketing.Ticket",
          "name": "",
          "type": "tuple"
        }
      ],
      "stateMutability": "view",
      "type": "function",
      "constant": true
    },
    {
      "inputs": [
        {
          "internalType": "uint256",
          "name": "_bookingId",
          "type": "uint256"
        }
      ],
      "name": "pay",
      "outputs": [],
      "stateMutability": "payable",
      "type": "function",
      "payable": true
    },
    {
      "inputs": [
        {
          "internalType": "uint256",
          "name": "_bookingId",
          "type": "uint256"
        }
      ],
      "name": "resellTicket",
      "outputs": [],
      "stateMutability": "nonpayable",
      "type": "function"
    },
    {
      "inputs": [
        {
          "internalType": "uint256",
          "name": "_index",
          "type": "uint256"
        },
        {
          "internalType": "uint256",
          "name": "_showId",
          "type": "uint256"
        }
      ],
      "name": "removeFromShow",
      "outputs": [],
      "stateMutability": "nonpayable",
      "type": "function"
    },
    {
      "inputs": [
        {
          "internalType": "string",
          "name": "_userId",
          "type": "string"
        },
        {
          "internalType": "address",
          "name": "_buyer",
          "type": "address"
        },
        {
          "internalType": "uint256",
          "name": "_bookingId",
          "type": "uint256"
        }
      ],
      "name": "changeTicketInfo",
      "outputs": [],
      "stateMutability": "payable",
      "type": "function",
      "payable": true
    },
    {
      "inputs": [
        {
          "internalType": "uint256",
          "name": "_bookingId",
          "type": "uint256"
        }
      ],
      "name": "cancelReselling",
      "outputs": [],
      "stateMutability": "nonpayable",
      "type": "function"
    },
    {
      "inputs": [
        {
          "internalType": "uint256",
          "name": "_bookingId",
          "type": "uint256"
        }
      ],
      "name": "changeOwner",
      "outputs": [],
      "stateMutability": "nonpayable",
      "type": "function"
    },
    {
      "inputs": [
        {
          "internalType": "uint256",
          "name": "_bookingId",
          "type": "uint256"
        }
      ],
      "name": "initializeTicketInfo",
      "outputs": [],
      "stateMutability": "nonpayable",
      "type": "function"
    }
  ],
  "bytecode": "0x60806040526001600455336000806101000a81548173ffffffffffffffffffffffffffffffffffffffff021916908373ffffffffffffffffffffffffffffffffffffffff1602179055506127c9806100586000396000f3fe6080604052600436106100fe5760003560e01c8063924c19f711610095578063cf0f818911610064578063cf0f818914610327578063d0b783fb14610350578063db048e4b1461036c578063de602243146103b1578063ec1cf88d146103ee576100fe565b8063924c19f71461028e578063b23b02b1146102b7578063c290d691146102e0578063cd0d462e146102fc576100fe565b806374ae5fcf116100d157806374ae5fcf146101c25780637641eb5a146101ff578063851fed6c146102285780638660571f14610265576100fe565b8063077b2aa814610103578063555f18e91461011f5780635b45e9651461015c57806364ebdc1814610199575b600080fd5b61011d60048036038101906101189190611b13565b61042b565b005b34801561012b57600080fd5b5061014660048036038101906101419190611b9b565b610753565b6040516101539190611e74565b60405180910390f35b34801561016857600080fd5b50610183600480360381019061017e9190611e96565b6109c2565b6040516101909190611e74565b60405180910390f35b3480156101a557600080fd5b506101c060048036038101906101bb9190611b9b565b610c89565b005b3480156101ce57600080fd5b506101e960048036038101906101e49190611b9b565b610d8b565b6040516101f69190611f88565b60405180910390f35b34801561020b57600080fd5b5061022660048036038101906102219190611b9b565b610f18565b005b34801561023457600080fd5b5061024f600480360381019061024a9190611fe8565b61101e565b60405161025c9190612037565b60405180910390f35b34801561027157600080fd5b5061028c60048036038101906102879190611b9b565b61104f565b005b34801561029a57600080fd5b506102b560048036038101906102b09190611b9b565b6110b9565b005b3480156102c357600080fd5b506102de60048036038101906102d99190612052565b61127c565b005b6102fa60048036038101906102f59190611b9b565b6113c4565b005b34801561030857600080fd5b5061031161144a565b60405161031e9190612037565b60405180910390f35b34801561033357600080fd5b5061034e60048036038101906103499190611b9b565b611450565b005b61036a60048036038101906103659190612092565b6116ca565b005b34801561037857600080fd5b50610393600480360381019061038e9190611b9b565b611843565b6040516103a89998979695949392919061216e565b60405180910390f35b3480156103bd57600080fd5b506103d860048036038101906103d39190612052565b611946565b6040516103e59190612037565b60405180910390f35b3480156103fa57600080fd5b5061041560048036038101906104109190611b9b565b611977565b6040516104229190612037565b60405180910390f35b600060405180610120016040528060045481526020018673ffffffffffffffffffffffffffffffffffffffff16815260200184848080601f016020809104026020016040519081016040528093929190818152602001838380828437600081840152601f19601f820116905080830192505050505050508152602001878152602001858152602001348152602001600060038111156104cd576104cc611ca2565b5b8152602001600081526020016000815250905060008054906101000a900473ffffffffffffffffffffffffffffffffffffffff1673ffffffffffffffffffffffffffffffffffffffff166108fc349081150290604051600060405180830381858888f19350505050158015610546573d6000803e3d6000fd5b50600160008673ffffffffffffffffffffffffffffffffffffffff1673ffffffffffffffffffffffffffffffffffffffff1681526020019081526020016000206004549080600181540180825580915050600190039060005260206000200160009091909190915055806002600060045481526020019081526020016000206000820151816000015560208201518160010160006101000a81548173ffffffffffffffffffffffffffffffffffffffff021916908373ffffffffffffffffffffffffffffffffffffffff160217905550604082015181600201908161062b919061243d565b50606082015181600301556080820151816004015560a0820151816005015560c08201518160060160006101000a81548160ff0219169083600381111561067557610674611ca2565b5b021790555060e082015181600701556101008201518160080155905050600060018060008873ffffffffffffffffffffffffffffffffffffffff1673ffffffffffffffffffffffffffffffffffffffff168152602001908152602001600020805490506106e2919061253e565b9050806002600060045481526020019081526020016000206007018190555084600454887f2a1b196ed82ca38ac3eaf401226ccc99f376813c3daf17bb565df45f7052d89260405160405180910390a46004600081548092919061074590612572565b919050555050505050505050565b606060006003600084815260200190815260200160002080549050905060008167ffffffffffffffff81111561078c5761078b612202565b5b6040519080825280602002602001820160405280156107c557816020015b6107b261199c565b8152602001906001900390816107aa5790505b50905060005b828110156109b75760006003600087815260200190815260200160002082815481106107fa576107f96125ba565b5b906000526020600020015490506002600082815260200190815260200160002060405180610120016040529081600082015481526020016001820160009054906101000a900473ffffffffffffffffffffffffffffffffffffffff1673ffffffffffffffffffffffffffffffffffffffff1673ffffffffffffffffffffffffffffffffffffffff16815260200160028201805461089690612260565b80601f01602080910402602001604051908101604052809291908181526020018280546108c290612260565b801561090f5780601f106108e45761010080835404028352916020019161090f565b820191906000526020600020905b8154815290600101906020018083116108f257829003601f168201915b505050505081526020016003820154815260200160048201548152602001600582015481526020016006820160009054906101000a900460ff16600381111561095b5761095a611ca2565b5b600381111561096d5761096c611ca2565b5b815260200160078201548152602001600882015481525050838381518110610998576109976125ba565b5b60200260200101819052505080806109af90612572565b9150506107cb565b508092505050919050565b60606000600160008473ffffffffffffffffffffffffffffffffffffffff1673ffffffffffffffffffffffffffffffffffffffff16815260200190815260200160002080549050905060008167ffffffffffffffff811115610a2757610a26612202565b5b604051908082528060200260200182016040528015610a6057816020015b610a4d61199c565b815260200190600190039081610a455790505b50905060005b82811015610c7e576000600160008773ffffffffffffffffffffffffffffffffffffffff1673ffffffffffffffffffffffffffffffffffffffff1681526020019081526020016000208281548110610ac157610ac06125ba565b5b906000526020600020015490506002600082815260200190815260200160002060405180610120016040529081600082015481526020016001820160009054906101000a900473ffffffffffffffffffffffffffffffffffffffff1673ffffffffffffffffffffffffffffffffffffffff1673ffffffffffffffffffffffffffffffffffffffff168152602001600282018054610b5d90612260565b80601f0160208091040260200160405190810160405280929190818152602001828054610b8990612260565b8015610bd65780601f10610bab57610100808354040283529160200191610bd6565b820191906000526020600020905b815481529060010190602001808311610bb957829003601f168201915b505050505081526020016003820154815260200160048201548152602001600582015481526020016006820160009054906101000a900460ff166003811115610c2257610c21611ca2565b5b6003811115610c3457610c33611ca2565b5b815260200160078201548152602001600882015481525050838381518110610c5f57610c5e6125ba565b5b6020026020010181905250508080610c7690612572565b915050610a66565b508092505050919050565b60006002600083815260200190815260200160002060030154905060036000828152602001908152602001600020829080600181540180825580915050600190039060005260206000200160009091909190915055600280600084815260200190815260200160002060060160006101000a81548160ff02191690836003811115610d1757610d16611ca2565b5b021790555060016003600083815260200190815260200160002080549050610d3f919061253e565b600260008481526020019081526020016000206008018190555081817f72f31fb3783f053c730e8edabaeca9a841713ca9ae3e9e5ad628fc0770dfb6de60405160405180910390a35050565b610d9361199c565b6002600083815260200190815260200160002060405180610120016040529081600082015481526020016001820160009054906101000a900473ffffffffffffffffffffffffffffffffffffffff1673ffffffffffffffffffffffffffffffffffffffff1673ffffffffffffffffffffffffffffffffffffffff168152602001600282018054610e2290612260565b80601f0160208091040260200160405190810160405280929190818152602001828054610e4e90612260565b8015610e9b5780601f10610e7057610100808354040283529160200191610e9b565b820191906000526020600020905b815481529060010190602001808311610e7e57829003601f168201915b505050505081526020016003820154815260200160048201548152602001600582015481526020016006820160009054906101000a900460ff166003811115610ee757610ee6611ca2565b5b6003811115610ef957610ef8611ca2565b5b8152602001600782015481526020016008820154815250509050919050565b600060026000838152602001908152602001600020905060008054906101000a900473ffffffffffffffffffffffffffffffffffffffff168160010160006101000a81548173ffffffffffffffffffffffffffffffffffffffff021916908373ffffffffffffffffffffffffffffffffffffffff1602179055506040518060400160405280600e81526020017f45787072696564205469636b6574000000000000000000000000000000000000815250816002019081610fd8919061243d565b5060038160060160006101000a81548160ff0219169083600381111561100157611000611ca2565b5b021790555060008160040181905550600081600501819055505050565b6001602052816000526040600020818154811061103a57600080fd5b90600052602060002001600091509150505481565b600060026000838152602001908152602001600020905060008160080154905061107d81836003015461127c565b60008260060160006101000a81548160ff021916908360038111156110a5576110a4611ca2565b5b021790555060008260080181905550505050565b6000600260008381526020019081526020016000209050338160010160006101000a81548173ffffffffffffffffffffffffffffffffffffffff021916908373ffffffffffffffffffffffffffffffffffffffff1602179055506040518060400160405280600781526020017f6d616e6167657200000000000000000000000000000000000000000000000000815250816002019081611159919061243d565b50600160008260010160009054906101000a900473ffffffffffffffffffffffffffffffffffffffff1673ffffffffffffffffffffffffffffffffffffffff1673ffffffffffffffffffffffffffffffffffffffff168152602001908152602001600020829080600181540180825580915050600190039060005260206000200160009091909190915055600060018060008460010160009054906101000a900473ffffffffffffffffffffffffffffffffffffffff1673ffffffffffffffffffffffffffffffffffffffff1673ffffffffffffffffffffffffffffffffffffffff16815260200190815260200160002080549050611258919061253e565b90508060026000600454815260200190815260200160002060070181905550505050565b600360008281526020019081526020016000208054905082106112d4576040517f08c379a00000000000000000000000000000000000000000000000000000000081526004016112cb90612635565b60405180910390fd5b60008290505b600160036000848152602001908152602001600020805490506112fd919061253e565b81101561138657600360008381526020019081526020016000206001826113249190612655565b81548110611335576113346125ba565b5b9060005260206000200154600360008481526020019081526020016000208281548110611365576113646125ba565b5b9060005260206000200181905550808061137e90612572565b9150506112da565b50600360008281526020019081526020016000208054806113aa576113a9612689565b5b600190038181906000526020600020016000905590555050565b60006002600083815260200190815260200160002060010160009054906101000a900473ffffffffffffffffffffffffffffffffffffffff1690508073ffffffffffffffffffffffffffffffffffffffff166108fc349081150290604051600060405180830381858888f19350505050158015611445573d6000803e3d6000fd5b505050565b60045481565b60006002600083815260200190815260200160002060010160009054906101000a900473ffffffffffffffffffffffffffffffffffffffff169050600060026000848152602001908152602001600020600701549050600160008373ffffffffffffffffffffffffffffffffffffffff1673ffffffffffffffffffffffffffffffffffffffff16815260200190815260200160002080549050811061152a576040517f08c379a000000000000000000000000000000000000000000000000000000000815260040161152190612635565b60405180910390fd5b60008190505b60018060008573ffffffffffffffffffffffffffffffffffffffff1673ffffffffffffffffffffffffffffffffffffffff1681526020019081526020016000208054905061157e919061253e565b81101561165f57600160008473ffffffffffffffffffffffffffffffffffffffff1673ffffffffffffffffffffffffffffffffffffffff1681526020019081526020016000206001826115d19190612655565b815481106115e2576115e16125ba565b5b9060005260206000200154600160008573ffffffffffffffffffffffffffffffffffffffff1673ffffffffffffffffffffffffffffffffffffffff168152602001908152602001600020828154811061163e5761163d6125ba565b5b9060005260206000200181905550808061165790612572565b915050611530565b50600160008373ffffffffffffffffffffffffffffffffffffffff1673ffffffffffffffffffffffffffffffffffffffff1681526020019081526020016000208054806116af576116ae612689565b5b60019003818190600052602060002001600090559055505050565b6000600260008381526020019081526020016000209050600160008473ffffffffffffffffffffffffffffffffffffffff1673ffffffffffffffffffffffffffffffffffffffff168152602001908152602001600020829080600181540180825580915050600190039060005260206000200160009091909190915055828160010160006101000a81548173ffffffffffffffffffffffffffffffffffffffff021916908373ffffffffffffffffffffffffffffffffffffffff160217905550848482600201918261179d9291906126c3565b5060008160060160006101000a81548160ff021916908360038111156117c6576117c5611ca2565b5b0217905550600060018060008673ffffffffffffffffffffffffffffffffffffffff1673ffffffffffffffffffffffffffffffffffffffff1681526020019081526020016000208054905061181b919061253e565b90508082600701819055508160080154905061183b81836003015461127c565b505050505050565b60026020528060005260406000206000915090508060000154908060010160009054906101000a900473ffffffffffffffffffffffffffffffffffffffff169080600201805461189290612260565b80601f01602080910402602001604051908101604052809291908181526020018280546118be90612260565b801561190b5780601f106118e05761010080835404028352916020019161190b565b820191906000526020600020905b8154815290600101906020018083116118ee57829003601f168201915b5050505050908060030154908060040154908060050154908060060160009054906101000a900460ff16908060070154908060080154905089565b6003602052816000526040600020818154811061196257600080fd5b90600052602060002001600091509150505481565b6000806003600084815260200190815260200160002080549050905080915050919050565b60405180610120016040528060008152602001600073ffffffffffffffffffffffffffffffffffffffff16815260200160608152602001600081526020016000815260200160008152602001600060038111156119fc576119fb611ca2565b5b815260200160008152602001600081525090565b600080fd5b600080fd5b6000819050919050565b611a2d81611a1a565b8114611a3857600080fd5b50565b600081359050611a4a81611a24565b92915050565b600073ffffffffffffffffffffffffffffffffffffffff82169050919050565b6000611a7b82611a50565b9050919050565b611a8b81611a70565b8114611a9657600080fd5b50565b600081359050611aa881611a82565b92915050565b600080fd5b600080fd5b600080fd5b60008083601f840112611ad357611ad2611aae565b5b8235905067ffffffffffffffff811115611af057611aef611ab3565b5b602083019150836001820283011115611b0c57611b0b611ab8565b5b9250929050565b600080600080600060808688031215611b2f57611b2e611a10565b5b6000611b3d88828901611a3b565b9550506020611b4e88828901611a99565b9450506040611b5f88828901611a3b565b935050606086013567ffffffffffffffff811115611b8057611b7f611a15565b5b611b8c88828901611abd565b92509250509295509295909350565b600060208284031215611bb157611bb0611a10565b5b6000611bbf84828501611a3b565b91505092915050565b600081519050919050565b600082825260208201905092915050565b6000819050602082019050919050565b611bfd81611a1a565b82525050565b611c0c81611a70565b82525050565b600081519050919050565b600082825260208201905092915050565b60005b83811015611c4c578082015181840152602081019050611c31565b60008484015250505050565b6000601f19601f8301169050919050565b6000611c7482611c12565b611c7e8185611c1d565b9350611c8e818560208601611c2e565b611c9781611c58565b840191505092915050565b7f4e487b7100000000000000000000000000000000000000000000000000000000600052602160045260246000fd5b60048110611ce257611ce1611ca2565b5b50565b6000819050611cf382611cd1565b919050565b6000611d0382611ce5565b9050919050565b611d1381611cf8565b82525050565b600061012083016000830151611d326000860182611bf4565b506020830151611d456020860182611c03565b5060408301518482036040860152611d5d8282611c69565b9150506060830151611d726060860182611bf4565b506080830151611d856080860182611bf4565b5060a0830151611d9860a0860182611bf4565b5060c0830151611dab60c0860182611d0a565b5060e0830151611dbe60e0860182611bf4565b50610100830151611dd3610100860182611bf4565b508091505092915050565b6000611dea8383611d19565b905092915050565b6000602082019050919050565b6000611e0a82611bc8565b611e148185611bd3565b935083602082028501611e2685611be4565b8060005b85811015611e625784840389528151611e438582611dde565b9450611e4e83611df2565b925060208a01995050600181019050611e2a565b50829750879550505050505092915050565b60006020820190508181036000830152611e8e8184611dff565b905092915050565b600060208284031215611eac57611eab611a10565b5b6000611eba84828501611a99565b91505092915050565b600061012083016000830151611edc6000860182611bf4565b506020830151611eef6020860182611c03565b5060408301518482036040860152611f078282611c69565b9150506060830151611f1c6060860182611bf4565b506080830151611f2f6080860182611bf4565b5060a0830151611f4260a0860182611bf4565b5060c0830151611f5560c0860182611d0a565b5060e0830151611f6860e0860182611bf4565b50610100830151611f7d610100860182611bf4565b508091505092915050565b60006020820190508181036000830152611fa28184611ec3565b905092915050565b6000611fb582611a50565b9050919050565b611fc581611faa565b8114611fd057600080fd5b50565b600081359050611fe281611fbc565b92915050565b60008060408385031215611fff57611ffe611a10565b5b600061200d85828601611fd3565b925050602061201e85828601611a3b565b9150509250929050565b61203181611a1a565b82525050565b600060208201905061204c6000830184612028565b92915050565b6000806040838503121561206957612068611a10565b5b600061207785828601611a3b565b925050602061208885828601611a3b565b9150509250929050565b600080600080606085870312156120ac576120ab611a10565b5b600085013567ffffffffffffffff8111156120ca576120c9611a15565b5b6120d687828801611abd565b945094505060206120e987828801611fd3565b92505060406120fa87828801611a3b565b91505092959194509250565b61210f81611a70565b82525050565b600082825260208201905092915050565b600061213182611c12565b61213b8185612115565b935061214b818560208601611c2e565b61215481611c58565b840191505092915050565b61216881611cf8565b82525050565b600061012082019050612184600083018c612028565b612191602083018b612106565b81810360408301526121a3818a612126565b90506121b26060830189612028565b6121bf6080830188612028565b6121cc60a0830187612028565b6121d960c083018661215f565b6121e660e0830185612028565b6121f4610100830184612028565b9a9950505050505050505050565b7f4e487b7100000000000000000000000000000000000000000000000000000000600052604160045260246000fd5b7f4e487b7100000000000000000000000000000000000000000000000000000000600052602260045260246000fd5b6000600282049050600182168061227857607f821691505b60208210810361228b5761228a612231565b5b50919050565b60008190508160005260206000209050919050565b60006020601f8301049050919050565b600082821b905092915050565b6000600883026122f37fffffffffffffffffffffffffffffffffffffffffffffffffffffffffffffffff826122b6565b6122fd86836122b6565b95508019841693508086168417925050509392505050565b6000819050919050565b600061233a61233561233084611a1a565b612315565b611a1a565b9050919050565b6000819050919050565b6123548361231f565b61236861236082612341565b8484546122c3565b825550505050565b600090565b61237d612370565b61238881848461234b565b505050565b5b818110156123ac576123a1600082612375565b60018101905061238e565b5050565b601f8211156123f1576123c281612291565b6123cb846122a6565b810160208510156123da578190505b6123ee6123e6856122a6565b83018261238d565b50505b505050565b600082821c905092915050565b6000612414600019846008026123f6565b1980831691505092915050565b600061242d8383612403565b9150826002028217905092915050565b61244682611c12565b67ffffffffffffffff81111561245f5761245e612202565b5b6124698254612260565b6124748282856123b0565b600060209050601f8311600181146124a75760008415612495578287015190505b61249f8582612421565b865550612507565b601f1984166124b586612291565b60005b828110156124dd578489015182556001820191506020850194506020810190506124b8565b868310156124fa57848901516124f6601f891682612403565b8355505b6001600288020188555050505b505050505050565b7f4e487b7100000000000000000000000000000000000000000000000000000000600052601160045260246000fd5b600061254982611a1a565b915061255483611a1a565b925082820390508181111561256c5761256b61250f565b5b92915050565b600061257d82611a1a565b91507fffffffffffffffffffffffffffffffffffffffffffffffffffffffffffffffff82036125af576125ae61250f565b5b600182019050919050565b7f4e487b7100000000000000000000000000000000000000000000000000000000600052603260045260246000fd5b7f696e646578206f7574206f6620626f756e640000000000000000000000000000600082015250565b600061261f601283612115565b915061262a826125e9565b602082019050919050565b6000602082019050818103600083015261264e81612612565b9050919050565b600061266082611a1a565b915061266b83611a1a565b92508282019050808211156126835761268261250f565b5b92915050565b7f4e487b7100000000000000000000000000000000000000000000000000000000600052603160045260246000fd5b600082905092915050565b6126cd83836126b8565b67ffffffffffffffff8111156126e6576126e5612202565b5b6126f08254612260565b6126fb8282856123b0565b6000601f83116001811461272a5760008415612718578287013590505b6127228582612421565b86555061278a565b601f19841661273886612291565b60005b828110156127605784890135825560018201915060208501945060208101905061273b565b8683101561277d5784890135612779601f891682612403565b8355505b6001600288020188555050505b5050505050505056fea26469706673582212200b31cb1aecf93b5910e50eb347b8558d1490e7662f34c0e1c60218937383326d64736f6c63430008130033",
  "immutableReferences": {},
  "source": "// SPDX-License-Identifier: MIT\r\npragma solidity ^0.8.13;\r\n\r\ncontract Ticketing {\r\n    address payable owner; //       \r\n\r\n    constructor() payable {\r\n        owner = payable(msg.sender);\r\n    }\r\n\r\n    mapping(address => uint[]) public bookingIdList;   //        =>   \r\n    mapping(uint => Ticket) public ticketForBookingId;  //         =>  \r\n    \r\n    mapping(uint => uint[]) public sellingBookingIdList; // showid =>           =>    \r\n\r\n    enum TicketStatus {\r\n        Sold,   //  \r\n\t\tCanceled, // \r\n        OnSale,  // \r\n        Expired  //     or      \r\n    }\r\n\r\n     //   - ,  , , , (  )\r\n    struct Ticket {\r\n        uint bookingId;\r\n        address payable owner;\r\n        string userId;\r\n        uint showId;\r\n        uint numberOfSeats;\r\n        //string[] seatList;          \r\n        uint price;\r\n        TicketStatus status;  \r\n        uint indexForBookingIdList;  \r\n        uint indexForSellingBookingIdList; // ;;; \r\n    }\r\n\r\n    function getNumberOfResellTicket(uint _showid) public view returns(uint) {\r\n        uint result = sellingBookingIdList[_showid].length;\r\n\r\n        return result;\r\n    }\r\n\r\n    function getMyTicket(address payable userAddr) public view returns(Ticket[] memory){\r\n        uint length = bookingIdList[userAddr].length;\r\n        Ticket[] memory myTickets = new Ticket[](length);\r\n\r\n        for(uint i = 0; i < length; i++){\r\n            uint bookingId = bookingIdList[userAddr][i];\r\n            myTickets[i] = ticketForBookingId[bookingId];\r\n        }\r\n   \r\n        return myTickets;\r\n    }\r\n\r\n    function getResellTicket(uint _showId) public view returns(Ticket[] memory) {\r\n        \r\n        uint size = sellingBookingIdList[_showId].length;\r\n        Ticket[] memory resellTicketList = new Ticket[](size);\r\n\r\n        for(uint i = 0; i < size; i++) {\r\n            uint bookingId = sellingBookingIdList[_showId][i];\r\n            resellTicketList[i] = ticketForBookingId[bookingId];\r\n        }\r\n\r\n        return resellTicketList;\r\n    }\r\n\r\n    uint public bookingID = 1; \r\n\r\n    event ISSUE_TICKET(uint indexed _showId, uint indexed _bookingId, uint indexed _numberOfSeats);\r\n    function issueTicket(uint _showId, address payable _ticketOwner, uint _numberOfSeats, string calldata _userId) public payable {\r\n\r\n        Ticket memory ticket = Ticket({\r\n            bookingId: bookingID,\r\n            owner: _ticketOwner,\r\n            userId: _userId,\r\n            showId: _showId,\r\n            numberOfSeats: _numberOfSeats,\r\n            price: msg.value,\r\n            status: TicketStatus.Sold,\r\n            indexForBookingIdList: 0,\r\n            indexForSellingBookingIdList: 0\r\n        });\r\n\r\n        owner.transfer(msg.value);  //    \r\n\r\n        bookingIdList[_ticketOwner].push(bookingID);\r\n        ticketForBookingId[bookingID] = ticket;\r\n\r\n        uint index = bookingIdList[_ticketOwner].length - 1;\r\n        ticketForBookingId[bookingID].indexForBookingIdList = index;\r\n\r\n        emit ISSUE_TICKET(_showId, bookingID, _numberOfSeats);\r\n\r\n        bookingID++;\r\n    }\r\n\r\n    function removeFromUser(uint _bookingId) public{\r\n        address payable _refunder = ticketForBookingId[_bookingId].owner;\r\n        uint _index = ticketForBookingId[_bookingId].indexForBookingIdList;\r\n        \r\n        require(_index < bookingIdList[_refunder].length, \"index out of bound\");\r\n\r\n        for(uint i = _index; i < bookingIdList[_refunder].length - 1; i++){\r\n            bookingIdList[_refunder][i] = bookingIdList[_refunder][i + 1];\r\n        }\r\n        bookingIdList[_refunder].pop();\r\n    }\r\n\r\n    function getTicketForBookingId(uint _bookingId) public view returns(Ticket memory){\r\n        return ticketForBookingId[_bookingId];\r\n    }\r\n\r\n    // @   \r\n    function pay(uint _bookingId) public payable {\r\n        address payable oldOwner = ticketForBookingId[_bookingId].owner;\r\n        oldOwner.transfer(msg.value);\r\n    }\r\n\r\n    // =   \r\n    event RESELL(uint indexed _showId, uint indexed _bookingId);\r\n    function resellTicket(uint _bookingId) public { \r\n        uint _showId = ticketForBookingId[_bookingId].showId;\r\n        sellingBookingIdList[_showId].push(_bookingId);\r\n\r\n        //   \r\n        ticketForBookingId[_bookingId].status = TicketStatus.OnSale;\r\n        ticketForBookingId[_bookingId].indexForSellingBookingIdList = sellingBookingIdList[_showId].length - 1;\r\n\r\n        emit RESELL(_showId, _bookingId);\r\n    }\r\n\r\n    function removeFromShow(uint _index, uint _showId) public{\r\n        require(_index < sellingBookingIdList[_showId].length, \"index out of bound\");\r\n\r\n        for(uint i = _index; i < sellingBookingIdList[_showId].length - 1; i++){\r\n            sellingBookingIdList[_showId][i] = sellingBookingIdList[_showId][i + 1];\r\n        }\r\n        sellingBookingIdList[_showId].pop();\r\n    }\r\n\r\n    //   \r\n    function changeTicketInfo(string calldata _userId, address _buyer, uint _bookingId) public payable {\r\n        \r\n        Ticket storage ticket = ticketForBookingId[_bookingId];\r\n\r\n        // 1. buyer    \r\n        bookingIdList[_buyer].push(_bookingId);       \r\n\r\n        // 2.    \r\n        ticket.owner =  payable (_buyer);\r\n        ticket.userId = _userId;\r\n        ticket.status = TicketStatus.Sold;  //  \r\n\r\n        uint index = bookingIdList[_buyer].length - 1;\r\n        ticket.indexForBookingIdList = index;\r\n\r\n        // 4. selling List  \r\n        index = ticket.indexForSellingBookingIdList;\r\n        removeFromShow(index, ticket.showId);\r\n    }\r\n    \r\n    //   \r\n    function cancelReselling(uint _bookingId) public {\r\n        Ticket storage ticket = ticketForBookingId[_bookingId];\r\n        // selling List  \r\n        uint index = ticket.indexForSellingBookingIdList;\r\n        removeFromShow(index, ticket.showId);\r\n        // ticket  \r\n        ticket.status = TicketStatus.Sold;\r\n        ticket.indexForSellingBookingIdList = 0;\r\n    }\r\n\r\n    //      \r\n    function changeOwner(uint _bookingId) public {\r\n        Ticket storage ticket = ticketForBookingId[_bookingId];\r\n        ticket.owner = payable(msg.sender);\r\n        ticket.userId = \"manager\";\r\n        \r\n        bookingIdList[ticket.owner].push(_bookingId);    \r\n\r\n        uint index = bookingIdList[ticket.owner].length - 1;\r\n        ticketForBookingId[bookingID].indexForBookingIdList = index;\r\n    }\r\n\r\n    //      ( )\r\n    function initializeTicketInfo(uint _bookingId) public {\r\n         Ticket storage ticket = ticketForBookingId[_bookingId];\r\n\r\n        ticket.owner = owner;\r\n        ticket.userId = \"Expried Ticket\";\r\n        ticket.status = TicketStatus.Expired;\r\n        ticket.numberOfSeats = 0;\r\n        ticket.price = 0;\r\n    }\r\n\r\n}",
  "sourcePath": "C:\\Project\\Ttime\\contracts\\Ticketing.sol",
  "compiler": {
    "name": "solc",
    "version": "0.8.19+commit.7dd6d404.Emscripten.clang"
  },
  "schemaVersion": "3.4.16",
  "updatedAt": "2023-10-05T12:20:33.295Z",
  "networkType": "ethereum",
  "devdoc": {
    "kind": "dev",
    "methods": {},
    "version": 1
  },
  "userdoc": {
    "kind": "user",
    "methods": {},
    "version": 1
  }
}