{
  "contractName": "Ticketing",
  "abi": [
    {
      "inputs": [],
      "stateMutability": "payable",
      "type": "constructor",
      "payable": true
    },
    {
      "anonymous": false,
      "inputs": [
        {
          "indexed": false,
          "internalType": "address",
          "name": "from",
          "type": "address"
        },
        {
          "indexed": false,
          "internalType": "address",
          "name": "to",
          "type": "address"
        },
        {
          "indexed": false,
          "internalType": "uint256",
          "name": "_ticketPrice",
          "type": "uint256"
        }
      ],
      "name": "BUY_TICKET",
      "type": "event"
    },
    {
      "anonymous": false,
      "inputs": [
        {
          "indexed": true,
          "internalType": "uint256",
          "name": "_showId",
          "type": "uint256"
        },
        {
          "indexed": true,
          "internalType": "uint256",
          "name": "_ticketId",
          "type": "uint256"
        }
      ],
      "name": "ISSUE_TICKET",
      "type": "event"
    },
    {
      "anonymous": false,
      "inputs": [
        {
          "indexed": false,
          "internalType": "address",
          "name": "_owner",
          "type": "address"
        },
        {
          "indexed": false,
          "internalType": "uint256",
          "name": "_showId",
          "type": "uint256"
        },
        {
          "indexed": false,
          "internalType": "uint256",
          "name": "_ticketId",
          "type": "uint256"
        }
      ],
      "name": "RESELL",
      "type": "event"
    },
    {
      "anonymous": false,
      "inputs": [
        {
          "indexed": true,
          "internalType": "address",
          "name": "sender",
          "type": "address"
        },
        {
          "indexed": false,
          "internalType": "uint256",
          "name": "value",
          "type": "uint256"
        },
        {
          "indexed": false,
          "internalType": "address",
          "name": "receiver",
          "type": "address"
        }
      ],
      "name": "TRANSFER",
      "type": "event"
    },
    {
      "inputs": [
        {
          "internalType": "address",
          "name": "",
          "type": "address"
        },
        {
          "internalType": "uint256",
          "name": "",
          "type": "uint256"
        }
      ],
      "name": "myShow",
      "outputs": [
        {
          "internalType": "address payable",
          "name": "owner",
          "type": "address"
        },
        {
          "internalType": "uint256",
          "name": "ticketIndex",
          "type": "uint256"
        },
        {
          "internalType": "uint256",
          "name": "ticketPrice",
          "type": "uint256"
        },
        {
          "internalType": "uint256",
          "name": "sellingQueueHead",
          "type": "uint256"
        },
        {
          "internalType": "uint256",
          "name": "sellingQueueTail",
          "type": "uint256"
        }
      ],
      "stateMutability": "view",
      "type": "function",
      "constant": true
    },
    {
      "inputs": [
        {
          "internalType": "address",
          "name": "",
          "type": "address"
        },
        {
          "internalType": "uint256",
          "name": "",
          "type": "uint256"
        }
      ],
      "name": "myTicket",
      "outputs": [
        {
          "internalType": "uint256",
          "name": "showId",
          "type": "uint256"
        },
        {
          "internalType": "uint256",
          "name": "ticketId",
          "type": "uint256"
        },
        {
          "internalType": "address payable",
          "name": "owner",
          "type": "address"
        }
      ],
      "stateMutability": "view",
      "type": "function",
      "constant": true
    },
    {
      "inputs": [],
      "name": "showIndex",
      "outputs": [
        {
          "internalType": "uint256",
          "name": "",
          "type": "uint256"
        }
      ],
      "stateMutability": "view",
      "type": "function",
      "constant": true
    },
    {
      "inputs": [
        {
          "internalType": "uint256",
          "name": "",
          "type": "uint256"
        }
      ],
      "name": "shows",
      "outputs": [
        {
          "internalType": "address payable",
          "name": "owner",
          "type": "address"
        },
        {
          "internalType": "uint256",
          "name": "ticketIndex",
          "type": "uint256"
        },
        {
          "internalType": "uint256",
          "name": "ticketPrice",
          "type": "uint256"
        },
        {
          "internalType": "uint256",
          "name": "sellingQueueHead",
          "type": "uint256"
        },
        {
          "internalType": "uint256",
          "name": "sellingQueueTail",
          "type": "uint256"
        }
      ],
      "stateMutability": "view",
      "type": "function",
      "constant": true
    },
    {
      "inputs": [],
      "name": "userIndex",
      "outputs": [
        {
          "internalType": "uint256",
          "name": "",
          "type": "uint256"
        }
      ],
      "stateMutability": "view",
      "type": "function",
      "constant": true
    },
    {
      "inputs": [
        {
          "internalType": "uint256",
          "name": "_showid",
          "type": "uint256"
        }
      ],
      "name": "getTicketPrice",
      "outputs": [
        {
          "internalType": "uint256",
          "name": "ticketPrice",
          "type": "uint256"
        }
      ],
      "stateMutability": "view",
      "type": "function",
      "constant": true
    },
    {
      "inputs": [
        {
          "internalType": "address",
          "name": "userAddr",
          "type": "address"
        }
      ],
      "name": "getMyTicket",
      "outputs": [
        {
          "components": [
            {
              "internalType": "uint256",
              "name": "showId",
              "type": "uint256"
            },
            {
              "internalType": "uint256",
              "name": "ticketId",
              "type": "uint256"
            },
            {
              "internalType": "address payable",
              "name": "owner",
              "type": "address"
            }
          ],
          "internalType": "struct Ticketing.Ticket[]",
          "name": "",
          "type": "tuple[]"
        }
      ],
      "stateMutability": "view",
      "type": "function",
      "constant": true
    },
    {
      "inputs": [
        {
          "internalType": "uint256",
          "name": "_showid",
          "type": "uint256"
        }
      ],
      "name": "getQueueHeadIndex",
      "outputs": [
        {
          "internalType": "uint256",
          "name": "headindex",
          "type": "uint256"
        }
      ],
      "stateMutability": "view",
      "type": "function",
      "constant": true
    },
    {
      "inputs": [
        {
          "internalType": "uint256",
          "name": "_showid",
          "type": "uint256"
        }
      ],
      "name": "getResellTicket",
      "outputs": [
        {
          "components": [
            {
              "internalType": "uint256",
              "name": "showId",
              "type": "uint256"
            },
            {
              "internalType": "uint256",
              "name": "ticketId",
              "type": "uint256"
            },
            {
              "internalType": "address payable",
              "name": "owner",
              "type": "address"
            }
          ],
          "internalType": "struct Ticketing.Ticket[]",
          "name": "",
          "type": "tuple[]"
        }
      ],
      "stateMutability": "view",
      "type": "function",
      "constant": true
    },
    {
      "inputs": [
        {
          "internalType": "uint256",
          "name": "_ticketPrice",
          "type": "uint256"
        },
        {
          "internalType": "address payable",
          "name": "receiver",
          "type": "address"
        }
      ],
      "name": "transferWei",
      "outputs": [],
      "stateMutability": "payable",
      "type": "function",
      "payable": true
    },
    {
      "inputs": [
        {
          "internalType": "uint256",
          "name": "_ticketPrice",
          "type": "uint256"
        },
        {
          "internalType": "address",
          "name": "_showOwner",
          "type": "address"
        }
      ],
      "name": "createShow",
      "outputs": [
        {
          "internalType": "bool",
          "name": "sufficient",
          "type": "bool"
        }
      ],
      "stateMutability": "nonpayable",
      "type": "function"
    },
    {
      "inputs": [
        {
          "internalType": "uint256",
          "name": "_showId",
          "type": "uint256"
        },
        {
          "internalType": "address payable",
          "name": "_ticketOwner",
          "type": "address"
        }
      ],
      "name": "issueTicket",
      "outputs": [],
      "stateMutability": "payable",
      "type": "function",
      "payable": true
    },
    {
      "inputs": [
        {
          "internalType": "uint256",
          "name": "_showId",
          "type": "uint256"
        },
        {
          "internalType": "uint256",
          "name": "_ticketId",
          "type": "uint256"
        }
      ],
      "name": "resellTicket",
      "outputs": [],
      "stateMutability": "nonpayable",
      "type": "function"
    },
    {
      "inputs": [
        {
          "internalType": "uint256",
          "name": "_showId",
          "type": "uint256"
        },
        {
          "internalType": "uint256",
          "name": "_sellingQueueIndex",
          "type": "uint256"
        }
      ],
      "name": "buyTicket",
      "outputs": [],
      "stateMutability": "payable",
      "type": "function",
      "payable": true
    }
  ],
  "bytecode": "0x608060405260018055336000806101000a81548173ffffffffffffffffffffffffffffffffffffffff021916908373ffffffffffffffffffffffffffffffffffffffff16021790555062000075668e1bc9bf040000735b38da6a701c568545dcfcb03fcb875f56beddc46200013c60201b60201c565b50620000a3668e1bc9bf040000735b38da6a701c568545dcfcb03fcb875f56beddc46200013c60201b60201c565b50620000d166b1a2bc2ec50000735b38da6a701c568545dcfcb03fcb875f56beddc46200013c60201b60201c565b50620000ff66b1a2bc2ec50000735b38da6a701c568545dcfcb03fcb875f56beddc46200013c60201b60201c565b506200012d66d529ae9e860000735b38da6a701c568545dcfcb03fcb875f56beddc46200013c60201b60201c565b5060066001819055506200026b565b6000806003600060015481526020019081526020016000209050828160000160006101000a81548173ffffffffffffffffffffffffffffffffffffffff021916908373ffffffffffffffffffffffffffffffffffffffff16021790555060018160010181905550600181600501819055506001816006018190555083816002018190555060016000815480929190620001d5906200021e565b9190505550600191505092915050565b7f4e487b7100000000000000000000000000000000000000000000000000000000600052601160045260246000fd5b6000819050919050565b60006200022b8262000214565b91507fffffffffffffffffffffffffffffffffffffffffffffffffffffffffffffffff820362000260576200025f620001e5565b5b600182019050919050565b611858806200027b6000396000f3fe6080604052600436106100dd5760003560e01c806343270c321161007f5780635b45e965116100595780635b45e965146102d7578063ab70120714610314578063cb286d2a1461033f578063f06fc9611461036a576100dd565b806343270c321461021c5780634715d22b14610259578063555f18e91461029a576100dd565b8063298ec208116100bb578063298ec2081461017a57806330f0931e14610196578063348e9913146101d75780633b99f18514610200576100dd565b806309385c77146100e257806310ca25391461011f57806327df93151461015e575b600080fd5b3480156100ee57600080fd5b5061010960048036038101906101049190611177565b6103a7565b60405161011691906111b3565b60405180910390f35b34801561012b57600080fd5b506101466004803603810190610141919061122c565b6103c7565b6040516101559392919061128d565b60405180910390f35b610178600480360381019061017391906112f0565b61042e565b005b610194600480360381019061018f9190611330565b6104cf565b005b3480156101a257600080fd5b506101bd60048036038101906101b89190611177565b6108e4565b6040516101ce959493929190611370565b60405180910390f35b3480156101e357600080fd5b506101fe60048036038101906101f99190611330565b61093a565b005b61021a600480360381019061021591906112f0565b610afd565b005b34801561022857600080fd5b50610243600480360381019061023e91906113c3565b610d0b565b604051610250919061141e565b60405180910390f35b34801561026557600080fd5b50610280600480360381019061027b919061122c565b610db2565b604051610291959493929190611370565b60405180910390f35b3480156102a657600080fd5b506102c160048036038101906102bc9190611177565b610e25565b6040516102ce9190611548565b60405180910390f35b3480156102e357600080fd5b506102fe60048036038101906102f9919061156a565b610fd1565b60405161030b9190611548565b60405180910390f35b34801561032057600080fd5b506103296110d9565b60405161033691906111b3565b60405180910390f35b34801561034b57600080fd5b506103546110df565b60405161036191906111b3565b60405180910390f35b34801561037657600080fd5b50610391600480360381019061038c9190611177565b6110e5565b60405161039e91906111b3565b60405180910390f35b600060036000838152602001908152602001600020600501549050919050565b600460205281600052604060002081815481106103e357600080fd5b9060005260206000209060030201600091509150508060000154908060010154908060020160009054906101000a900473ffffffffffffffffffffffffffffffffffffffff16905083565b60003390508173ffffffffffffffffffffffffffffffffffffffff166108fc849081150290604051600060405180830381858888f19350505050158015610479573d6000803e3d6000fd5b508073ffffffffffffffffffffffffffffffffffffffff167f15ca64a4ed482fa8131e95742689fa003e0d28703344365cf367315c7c5bc96284846040516104c29291906115f6565b60405180910390a2505050565b6000600360008481526020019081526020016000209050600081600401600084815260200190815260200160002060405180606001604052908160008201548152602001600182015481526020016002820160009054906101000a900473ffffffffffffffffffffffffffffffffffffffff1673ffffffffffffffffffffffffffffffffffffffff1673ffffffffffffffffffffffffffffffffffffffff16815250509050600081604001519050610587348261042e565b7f31b918c4d31b15fc1fa60f65740b9e976d33435bb9347d54a744b2992b1db1ce3382346040516105ba9392919061162e565b60405180910390a182600401600085815260200190815260200160002060008082016000905560018201600090556002820160006101000a81549073ffffffffffffffffffffffffffffffffffffffff0219169055505033826040019073ffffffffffffffffffffffffffffffffffffffff16908173ffffffffffffffffffffffffffffffffffffffff1681525050600460003373ffffffffffffffffffffffffffffffffffffffff1673ffffffffffffffffffffffffffffffffffffffff168152602001908152602001600020829080600181540180825580915050600190039060005260206000209060030201600090919091909150600082015181600001556020820151816001015560408201518160020160006101000a81548173ffffffffffffffffffffffffffffffffffffffff021916908373ffffffffffffffffffffffffffffffffffffffff160217905550505060005b600460008373ffffffffffffffffffffffffffffffffffffffff1673ffffffffffffffffffffffffffffffffffffffff168152602001908152602001600020805490508110156108c2578173ffffffffffffffffffffffffffffffffffffffff16600460008473ffffffffffffffffffffffffffffffffffffffff1673ffffffffffffffffffffffffffffffffffffffff16815260200190815260200160002082815481106107c4576107c3611665565b5b906000526020600020906003020160020160009054906101000a900473ffffffffffffffffffffffffffffffffffffffff1673ffffffffffffffffffffffffffffffffffffffff16146108af57600460008373ffffffffffffffffffffffffffffffffffffffff1673ffffffffffffffffffffffffffffffffffffffff168152602001908152602001600020818154811061086257610861611665565b5b906000526020600020906003020160008082016000905560018201600090556002820160006101000a81549073ffffffffffffffffffffffffffffffffffffffff021916905550506108c2565b80806108ba906116c3565b915050610712565b508260050160008154809291906108d8906116c3565b91905055505050505050565b60036020528060005260406000206000915090508060000160009054906101000a900473ffffffffffffffffffffffffffffffffffffffff16908060010154908060020154908060050154908060060154905085565b600060036000848152602001908152602001600020905080600301600083815260200190815260200160002060020160009054906101000a900473ffffffffffffffffffffffffffffffffffffffff1673ffffffffffffffffffffffffffffffffffffffff163373ffffffffffffffffffffffffffffffffffffffff16146109f7576040517f08c379a00000000000000000000000000000000000000000000000000000000081526004016109ee90611768565b60405180910390fd5b8060030160008381526020019081526020016000208160040160008360060154815260200190815260200160002060008201548160000155600182015481600101556002820160009054906101000a900473ffffffffffffffffffffffffffffffffffffffff168160020160006101000a81548173ffffffffffffffffffffffffffffffffffffffff021916908373ffffffffffffffffffffffffffffffffffffffff160217905550905050806006016000815480929190610ab8906116c3565b91905055507fd6b8a8000f3b6b1d7b1b42a8e2508946bee055c5a1f21b18d4ac22090eca8f78338484604051610af093929190611788565b60405180910390a1505050565b600060036000848152602001908152602001600020905060006040518060600160405280858152602001836001015481526020018473ffffffffffffffffffffffffffffffffffffffff168152509050610b7b348360000160009054906101000a900473ffffffffffffffffffffffffffffffffffffffff1661042e565b8082600301600084600101548152602001908152602001600020600082015181600001556020820151816001015560408201518160020160006101000a81548173ffffffffffffffffffffffffffffffffffffffff021916908373ffffffffffffffffffffffffffffffffffffffff160217905550905050600460003373ffffffffffffffffffffffffffffffffffffffff1673ffffffffffffffffffffffffffffffffffffffff168152602001908152602001600020819080600181540180825580915050600190039060005260206000209060030201600090919091909150600082015181600001556020820151816001015560408201518160020160006101000a81548173ffffffffffffffffffffffffffffffffffffffff021916908373ffffffffffffffffffffffffffffffffffffffff16021790555050508160010154847f519e942ac24eada72094b97d4a6090a1aacd08cbca42cd9bb9788f7a93a6a16160405160405180910390a3816001016000815480929190610d00906116c3565b919050555050505050565b6000806003600060015481526020019081526020016000209050828160000160006101000a81548173ffffffffffffffffffffffffffffffffffffffff021916908373ffffffffffffffffffffffffffffffffffffffff16021790555060018160010181905550600181600501819055506001816006018190555083816002018190555060016000815480929190610da2906116c3565b9190505550600191505092915050565b60056020528160005260406000208181548110610dce57600080fd5b9060005260206000209060070201600091509150508060000160009054906101000a900473ffffffffffffffffffffffffffffffffffffffff16908060010154908060020154908060050154908060060154905085565b606060006003600084815260200190815260200160002060060154905060006003600085815260200190815260200160002060050154905060008183610e6b91906117bf565b905060008167ffffffffffffffff811115610e8957610e886117f3565b5b604051908082528060200260200182016040528015610ec257816020015b610eaf611105565b815260200190600190039081610ea75790505b5090506000808490505b85811015610fc3576000600360008a8152602001908152602001600020600401600083815260200190815260200160002060405180606001604052908160008201548152602001600182015481526020016002820160009054906101000a900473ffffffffffffffffffffffffffffffffffffffff1673ffffffffffffffffffffffffffffffffffffffff1673ffffffffffffffffffffffffffffffffffffffff16815250509050600081602001511115610faf5780848481518110610f9557610f94611665565b5b60200260200101819052508280610fab906116c3565b9350505b508080610fbb906116c3565b915050610ecc565b508195505050505050919050565b6060600460008373ffffffffffffffffffffffffffffffffffffffff1673ffffffffffffffffffffffffffffffffffffffff168152602001908152602001600020805480602002602001604051908101604052809291908181526020016000905b828210156110ce578382906000526020600020906003020160405180606001604052908160008201548152602001600182015481526020016002820160009054906101000a900473ffffffffffffffffffffffffffffffffffffffff1673ffffffffffffffffffffffffffffffffffffffff1673ffffffffffffffffffffffffffffffffffffffff168152505081526020019060010190611032565b505050509050919050565b60025481565b60015481565b600060036000838152602001908152602001600020600201549050919050565b60405180606001604052806000815260200160008152602001600073ffffffffffffffffffffffffffffffffffffffff1681525090565b600080fd5b6000819050919050565b61115481611141565b811461115f57600080fd5b50565b6000813590506111718161114b565b92915050565b60006020828403121561118d5761118c61113c565b5b600061119b84828501611162565b91505092915050565b6111ad81611141565b82525050565b60006020820190506111c860008301846111a4565b92915050565b600073ffffffffffffffffffffffffffffffffffffffff82169050919050565b60006111f9826111ce565b9050919050565b611209816111ee565b811461121457600080fd5b50565b60008135905061122681611200565b92915050565b600080604083850312156112435761124261113c565b5b600061125185828601611217565b925050602061126285828601611162565b9150509250929050565b6000611277826111ce565b9050919050565b6112878161126c565b82525050565b60006060820190506112a260008301866111a4565b6112af60208301856111a4565b6112bc604083018461127e565b949350505050565b6112cd8161126c565b81146112d857600080fd5b50565b6000813590506112ea816112c4565b92915050565b600080604083850312156113075761130661113c565b5b600061131585828601611162565b9250506020611326858286016112db565b9150509250929050565b600080604083850312156113475761134661113c565b5b600061135585828601611162565b925050602061136685828601611162565b9150509250929050565b600060a082019050611385600083018861127e565b61139260208301876111a4565b61139f60408301866111a4565b6113ac60608301856111a4565b6113b960808301846111a4565b9695505050505050565b600080604083850312156113da576113d961113c565b5b60006113e885828601611162565b92505060206113f985828601611217565b9150509250929050565b60008115159050919050565b61141881611403565b82525050565b6000602082019050611433600083018461140f565b92915050565b600081519050919050565b600082825260208201905092915050565b6000819050602082019050919050565b61146e81611141565b82525050565b61147d8161126c565b82525050565b6060820160008201516114996000850182611465565b5060208201516114ac6020850182611465565b5060408201516114bf6040850182611474565b50505050565b60006114d18383611483565b60608301905092915050565b6000602082019050919050565b60006114f582611439565b6114ff8185611444565b935061150a83611455565b8060005b8381101561153b57815161152288826114c5565b975061152d836114dd565b92505060018101905061150e565b5085935050505092915050565b6000602082019050818103600083015261156281846114ea565b905092915050565b6000602082840312156115805761157f61113c565b5b600061158e84828501611217565b91505092915050565b6000819050919050565b60006115bc6115b76115b2846111ce565b611597565b6111ce565b9050919050565b60006115ce826115a1565b9050919050565b60006115e0826115c3565b9050919050565b6115f0816115d5565b82525050565b600060408201905061160b60008301856111a4565b61161860208301846115e7565b9392505050565b611628816111ee565b82525050565b6000606082019050611643600083018661161f565b61165060208301856115e7565b61165d60408301846111a4565b949350505050565b7f4e487b7100000000000000000000000000000000000000000000000000000000600052603260045260246000fd5b7f4e487b7100000000000000000000000000000000000000000000000000000000600052601160045260246000fd5b60006116ce82611141565b91507fffffffffffffffffffffffffffffffffffffffffffffffffffffffffffffffff8203611700576116ff611694565b5b600182019050919050565b600082825260208201905092915050565b7f596f7520646f6e2774206861766520746865207469636b657400000000000000600082015250565b600061175260198361170b565b915061175d8261171c565b602082019050919050565b6000602082019050818103600083015261178181611745565b9050919050565b600060608201905061179d600083018661161f565b6117aa60208301856111a4565b6117b760408301846111a4565b949350505050565b60006117ca82611141565b91506117d583611141565b92508282039050818111156117ed576117ec611694565b5b92915050565b7f4e487b7100000000000000000000000000000000000000000000000000000000600052604160045260246000fdfea26469706673582212207d3b625432167965a071c36b65d186a35e5b8f79d16db6ab98e5dbdd56907cd464736f6c63430008130033",
  "immutableReferences": {},
  "source": "// SPDX-License-Identifier: MIT\r\npragma solidity ^0.8.13;\r\n\r\ncontract Ticketing {\r\n    address payable owner; //   \r\n    uint public showIndex = 1; //  id 1 \r\n    uint public userIndex; \r\n\r\n    mapping(uint => Show) public shows; //   \r\n    mapping(address => Ticket[]) public myTicket; // \r\n    mapping(address => Show[]) public myShow; //  \r\n\r\n    constructor() payable {\r\n        owner = payable(msg.sender);\r\n        createShow(40000000000000000, 0x5B38Da6a701c568545dCfcB03FcB875f56beddC4);   // 88000\r\n        createShow(40000000000000000, 0x5B38Da6a701c568545dCfcB03FcB875f56beddC4);    \r\n        createShow(50000000000000000, 0x5B38Da6a701c568545dCfcB03FcB875f56beddC4);  //  11 \r\n        createShow(50000000000000000, 0x5B38Da6a701c568545dCfcB03FcB875f56beddC4);\r\n        createShow(60000000000000000, 0x5B38Da6a701c568545dCfcB03FcB875f56beddC4);  //  13 \r\n        showIndex = 6; \r\n    }\r\n\r\n    struct Ticket {\r\n        uint showId;\r\n        uint ticketId;\r\n        address payable owner;\r\n    }\r\n\r\n    struct Show {\r\n        address payable owner; //  \r\n        uint ticketIndex;\r\n        uint ticketPrice;\r\n        mapping(uint => Ticket) tickets; // ticket \r\n        mapping(uint => Ticket) sellingQueue; //   \r\n        uint sellingQueueHead;\r\n        uint sellingQueueTail;\r\n    }\r\n\r\n    event ISSUE_TICKET(uint indexed _showId, uint indexed _ticketId);\r\n\r\n    /// @notice   \r\n    event TRANSFER (address indexed sender, uint value, address receiver);\r\n\r\n    /// @notice    \r\n    event RESELL(address _owner, uint _showId, uint _ticketId);\r\n\r\n    /// @notice    \r\n    event BUY_TICKET(address from, address to, uint _ticketPrice);\r\n\r\n    function getTicketPrice (uint _showid) public view returns (uint ticketPrice){\r\n        return shows[_showid].ticketPrice;\r\n    }\r\n\r\n    function getMyTicket (address userAddr) public view returns (Ticket[] memory ){\r\n        return myTicket[userAddr];\r\n    }\r\n\r\n    function getQueueHeadIndex (uint _showid) public view returns (uint headindex){\r\n        return shows[_showid].sellingQueueHead;\r\n    }\r\n    function getResellTicket(uint _showid) public view returns (Ticket[] memory) {\r\n        uint tailIdx = shows[_showid].sellingQueueTail; \r\n        uint headIdx = shows[_showid].sellingQueueHead;\r\n        uint tmp = tailIdx-headIdx; // 5 - 2 (2,3,4) = 3\r\n        Ticket[] memory resellTicketList = new Ticket[](tmp);\r\n\r\n        uint j = 0;\r\n        for(uint i = headIdx; i < tailIdx; i++){ \r\n            Ticket memory t = shows[_showid].sellingQueue[i]; \r\n            if (t.ticketId > 0) { // null \r\n                resellTicketList[j] = t;\r\n                j++;\r\n            }\r\n        }\r\n        return resellTicketList;\r\n    }\r\n\r\n    /// @notice \r\n    function transferWei (uint _ticketPrice, address payable receiver) public payable{\r\n        address sender = msg.sender;\r\n        receiver.transfer(_ticketPrice);\r\n        // receiver.transfer(msg.value);\r\n        emit TRANSFER(sender, _ticketPrice, receiver);\r\n    }\r\n\r\n    /// @notice  \r\n    function createShow(uint _ticketPrice, address _showOwner) public returns (bool sufficient){\r\n        Show storage s = shows[showIndex];\r\n        //        \r\n        // s.owner = payable(msg.sender);\r\n        s.owner = payable(_showOwner);\r\n        s.ticketIndex = 1;\r\n        s.sellingQueueHead = 1;\r\n        s.sellingQueueTail = 1;\r\n        s.ticketPrice = _ticketPrice;\r\n        showIndex++;\r\n        return true;\r\n    }\r\n\r\n     /// @notice       \r\n    function issueTicket(uint _showId, address payable _ticketOwner) public payable{\r\n        Show storage s = shows[_showId];\r\n        Ticket memory t = Ticket({\r\n            showId: _showId,\r\n            ticketId: s.ticketIndex,\r\n            owner: _ticketOwner\r\n        });\r\n        transferWei(msg.value, s.owner); //   \r\n        // transferETH(s.ticketPrice, s.owner);\r\n\r\n        s.tickets[s.ticketIndex] = t;\r\n        myTicket[msg.sender].push(t);\r\n\r\n        emit ISSUE_TICKET(_showId, s.ticketIndex);\r\n        s.ticketIndex++;\r\n    }\r\n\r\n    /// @notice   (or )  \r\n    function resellTicket(uint _showId, uint _ticketId) public {\r\n        Show storage s = shows[_showId];\r\n\r\n        //    \r\n        require(\r\n            msg.sender == s.tickets[_ticketId].owner,\r\n            \"You don't have the ticket\"\r\n        );\r\n\r\n        //    =>       \r\n        s.sellingQueue[s.sellingQueueTail] = s.tickets[_ticketId];\r\n        s.sellingQueueTail++;\r\n\r\n        emit RESELL(msg.sender, _showId, _ticketId);\r\n    }\r\n\r\n    /// @notice    \r\n    function buyTicket(uint _showId, uint _sellingQueueIndex) public payable {\r\n        Show storage s = shows[_showId];\r\n        Ticket memory t = s.sellingQueue[_sellingQueueIndex];\r\n        \r\n        address payable seller = t.owner;\r\n\r\n        // require(msg.value == s.ticketPrice, \"Not enough ETH!\");\r\n        //     require();\r\n\r\n        //  \r\n        transferWei(msg.value, seller);\r\n        emit BUY_TICKET(msg.sender, seller, msg.value);\r\n        delete s.sellingQueue[_sellingQueueIndex];\r\n        \r\n        /////////////////////////////////////////////////\r\n        \r\n        //    \r\n        t.owner = payable(msg.sender);\r\n        myTicket[msg.sender].push(t);\r\n        \r\n        //    \r\n        //           \r\n        for (uint i = 0; i < myTicket[seller].length; i++) {\r\n            if (myTicket[seller][i].owner != seller) {\r\n                delete myTicket[seller][i];\r\n                break;   //     break\r\n            }\r\n        }\r\n        s.sellingQueueHead++;\r\n    }\r\n\r\n}",
  "sourcePath": "C:\\Repos\\gitTtime\\Ttime\\contracts\\Ticketing.sol",
  "compiler": {
    "name": "solc",
    "version": "0.8.19+commit.7dd6d404.Emscripten.clang"
  },
  "schemaVersion": "3.4.13",
  "updatedAt": "2023-09-29T19:11:52.284Z",
  "networkType": "ethereum",
  "devdoc": {
    "kind": "dev",
    "methods": {},
    "version": 1
  },
  "userdoc": {
    "events": {
      "BUY_TICKET(address,address,uint256)": {
        "notice": "   "
      },
      "RESELL(address,uint256,uint256)": {
        "notice": "   "
      },
      "TRANSFER(address,uint256,address)": {
        "notice": "  "
      }
    },
    "kind": "user",
    "methods": {
      "buyTicket(uint256,uint256)": {
        "notice": "   "
      },
      "createShow(uint256,address)": {
        "notice": " "
      },
      "issueTicket(uint256,address)": {
        "notice": "      "
      },
      "resellTicket(uint256,uint256)": {
        "notice": "  (or )  "
      },
      "transferWei(uint256,address)": {
        "notice": ""
      }
    },
    "version": 1
  }
}